:020000040800F2
:10000000B892012069020008D7220008111E0008DA
:10001000D522000845170008314100080000000003
:100020000000000000000000000000005D3B000830
:10003000D117000800000000EB020008113D000885
:10004000830200088302000883020008830200087C
:10005000830200088302000883020008830200086C
:10006000830200088302000883020008830200085C
:10007000830200088302000883020008830200084C
:10008000830200088302000883020008830200083C
:10009000830200088302000883020008830200082C
:1000A000830200088302000883020008830200081C
:1000B00083020008913D00088302000883020008C3
:1000C00083020008830200088302000883020008FC
:1000D00083020008830200080D3F0008C93F0008A2
:1000E000D517000883020008830200088302000875
:1000F00083020008830200088302000883020008CC
:1001000083020008830200088302000883020008BB
:1001100083020008830200088302000883020008AB
:10012000830200088302000883020008830200089B
:10013000830200088302000883020008830200088B
:10014000830200088302000883020008830200087B
:10015000830200088302000883020008830200086B
:10016000830200088302000883020008830200085B
:10017000830200088302000883020008830200084B
:10018000830200088302000800F002F800F05CF827
:100190000AA090E8000C82448344AAF10107DA45E2
:1001A00001D100F051F8AFF2090EBAE80F0013F0D8
:1001B000010F18BFFB1A43F0010318472CF700008A
:1001C0004CF700000A444FF0000C10F8013B13F00C
:1001D000070408BF10F8014B1D1108BF10F8015BA0
:1001E000641E05D010F8016B641E01F8016BF9D193
:1001F00013F0080F1EBF10F8014BAD1C0C1B09D1EA
:100200006D1E58BF01F801CBFAD505E014F8016B5B
:1002100001F8016B6D1EF9D59142D6D370470000ED
:100220000023002400250026103A28BF78C1FBD8FF
:10023000520728BF30C148BF0B6070471FB508F098
:1002400062FF1FBD10B510BD00F054FF1146FFF74F
:10025000F5FF07F03BFD00F072FF03B4FFF7F2FF7C
:1002600003BC00F073FF00000948804709480047BD
:10027000FEE7FEE7FEE7FEE7FEE7FEE7FEE7FEE756
:10028000FEE7FEE704480549054A064B70470000B3
:10029000353D000889010008B88C0120B892012082
:1002A000B88E0120B88E0120EFF3108072B670472F
:1002B00080F3108870471D484FF0FF010170002047
:1002C00080F309881A48012101701A484FF08051C3
:1002D000016062B6FEE717484FF080510160704739
:1002E00014484FF080510160704772B6EFF30980F7
:1002F00028B1203880E8F00F0F490968086000B580
:100300000E4880475DF804EB0D480E490A780270EC
:1003100009480D490A680260106890E8F00F203023
:1003200080F309884EF0040E62B6704722ED00E0BB
:100330006B00002004ED00E084000020BD2C0008CC
:1003400068000020690000208C00002072B6704711
:1003500062B67047EFF3108072B6704780F3108872
:100360007047B0FA80F0704790FAA0F0704730BF45
:10037000704720BF70470000DFED2E0AB5EEC00ABF
:1003800060EE200ABDEEE01A11EE100AF1EE10FA4E
:1003900038BF401E00EE100ADFED271AF7EE005AB4
:1003A000B8EEC00ADFED274A244930EEC01A21EE2C
:1003B000210AFCEEC00A10EE900A00EE900A01EB52
:1003C0008000B8EE600ADFED1E0AF0EC012A11EEA3
:1003D000210AF6EE001AB0EC013AF0EC013A20EEF8
:1003E000001A20EE216A40EE615A20EE245A21EED6
:1003F000212A90ED004A00EE602A66EE010A40EEE6
:10040000400A05EE412A70EEA55AF0EE400A41EE90
:10041000210A46EE410A25EE011A00EE641A22EE88
:10042000820A63EEA00A03EE250A44EE010A30EECA
:10043000200A704783F9223E000080433C92000866
:10044000ABAAAA3EABAA2A3E9FED3A0A5FEA920CFB
:1004500053D000BFB0EC011A0B1DF0EC010A21EEE5
:10046000011A00EEA01AB5EEC01AF1EE10FAC6BFDE
:10047000F1EEC10AC1ED000A81ED000AF0EC010ABB
:10048000191DB0EC011A60EEA00A41EE010AF5EE6A
:10049000C00AF1EE10FAC6BFF1EEE00AC3ED000AA1
:1004A00083ED000AB0EC011A0B1DF0EC010A21EEFD
:1004B000011A00EEA01AB5EEC01AF1EE10FAC6BF8E
:1004C000F1EEC10AC1ED000A81ED000AB0EC011A9B
:1004D000191DF0EC010A21EE011A00EEA01AB5EE8A
:1004E000C01AF1EE10FAC6BFF1EEC10AC3ED000A60
:1004F00083ED000ABCF1010CACD112F0030208BF7D
:10050000704700BFF0EC010A0B46B0EC011A091D60
:1005100060EEA00A41EE010AF5EEC00AF1EE10FA13
:10052000C6BFF1EEE00AC3ED000A83ED000A521ED9
:10053000E8D17047000000002DE9F00700EBC10989
:10054000DDE90778D0F800A0C9F800A007EB011496
:10055000D0F804A0251FA9F10406C9F804A003EBF4
:10056000C80907F1080C00F1080402EBC8024B1E91
:1005700031D000BFF2EC011A96ED002A92ED001A7C
:1005800002EBC802B4EC010A121FF4EC012A60EE7F
:10059000210A20EE010A32EE823A02EEA10AD9EDDA
:1005A000001A43EE410A09EBC80902EE610A16ED92
:1005B000012A083E42EE210A02EE410AECEC010A51
:1005C000ACEC010AB1EE400A85ED000A45ED010AE6
:1005D000083D5B1ECED190ED000AD0ED010A07EB7D
:1005E000C10130EE600A81ED000A9FED5D0A81EDE8
:1005F000010AD0ED000A90ED011A70EE810AC7EDF4
:10060000000A87ED010ABDE8F007704770B400EBFF
:10061000C105DDE903C42D1D002904BF70BC70476E
:10062000F2EC011A95ED002A92ED001A02EBC402D9
:10063000B0EC010A121FF0EC012A60EE210A20EE54
:10064000410A32EE823A02EEA10AD3ED001A43EEDD
:10065000010A03EBC40302EE610A15ED012A083D0D
:10066000491E42EE210A02EE010AECEC010AACEC52
:10067000010AD5D170BC70472DE9F04305464469A5
:10068000807983B00F461646012809D0A3892188B6
:100690003846626800F036F9E87901284ED053E018
:1006A000AA88D5E9030307EBC20CD5F808803146C8
:1006B0000CF1040C5AB300BFB0EC011A9CED002AF7
:1006C000D0ED001A00EBC800B7EC010A001FF7ECF0
:1006D000012A521E60EE010A20EE610A32EE823AD1
:1006E00002EE810A93ED001A43EE210A03EBC803E0
:1006F00002EE410A1CED012AACF1080C42EE010A9F
:1007000002EE210AE1EC010AA1EC010AD4D194ED38
:10071000040AA38921883046626800F095FAE879D6
:1007200001281CBF03B0BDE8F083E2892188A368DB
:1007300003B03046BDE8F04300F08CB8E289218870
:100740003846A36800F086F8A868CDE90060D5E9CE
:100750000323A9883846FFF7EFFE03B0BDE8F08316
:100760000000000070B592B2DDF810C055080260BC
:100770008580184EC66006F50056DBB2066100247F
:10078000837180F807C0802A04BF102282600BD0DA
:10079000B2F5007F08BF042212D0B2F5006F14BF7B
:1007A0004FF0FF3401220BD0002B8C4641614FF0FB
:1007B000000307D001222946604600F015FC06E040
:1007C0008260F1E700222946604600F00DFC2046D9
:1007D00070BD00004896000870B40025B0EC010A16
:1007E000A1F1010CF0EC010AB4EEE00AF1EE10FA0E
:1007F0003CBFB0EE600A0125ACF10104A446B4F19F
:10080000004F0ED3F0EC010AB4EEE00AF1EE10FA5C
:100810003CBFB0EE600AA1EB0C05BCF1010CF1D1BC
:1008200013E0002CC8BF00260FDD00BFF0EC010A6A
:10083000B4EEE00AF1EE10FA04D2ACEB0605B0EE2D
:10084000600A4D1B761C641EF0D182ED000A1D600B
:1008500070BC70472DE9F0014E0801244FF0000CE8
:1008600004EB51076146A6F102082CE061452AD24B
:1008700000EBCC0500EBC104D5ED000A94ED000AB5
:10088000C4ED000A85ED000AD5ED010A94ED010AD8
:10089000C4ED010A85ED010A0CEB0705CC1900EB4C
:1008A000C50500EBC404D5ED000A94ED000AC4EDC3
:1008B000000A85ED000AD5ED010A94ED010AC4EDA8
:1008C000010A85ED010A00EBC104B44400EBCC0C35
:1008D00094ED020ADCED000A891CC4ED020A8CEDDD
:1008E000000A94ED030ADCF80450E5608CED010A7F
:1008F000B3F800C089B203EB42034145B6D9BDE865
:10090000F00170472DE9F04F4FEA910C4FF00008CD
:100910004746644608EB0C0505EB0C0909EB0C0691
:1009200000EBC80A00EBC9099AED000AD9ED000AEC
:1009300099ED012A00EBC50530EE201A30EE600A71
:10094000DAED010A00EBC60608F1010870EE821A22
:1009500070EEC20A95ED002AD6ED002A641E32EE32
:10096000222A71EE022A31EE421ACAED002A95EDD2
:10097000012AD6ED012A32EE222A71EE822A71EE88
:10098000C21ACAED012A95ED012AD6ED012A96ED8B
:10099000003A4FEA470A32EE622AD5ED002A02EB0E
:1009A000CA0B72EEC32A9BED003ADBED013A21EE51
:1009B000034A01EEA34A61EE831A41EE631A85ED04
:1009C000004A30EE021A30EE420AC5ED011A02EB7F
:1009D000C70570EEE21A95ED002A70EEA20AD5ED79
:1009E000012A21EE023A0AEB070502EBC5051F4476
:1009F00001EEA23A61EE821A41EE621A89ED003AE6
:100A0000C9ED011AD5ED001A95ED011A20EE212A43
:100A100000EE812A60EEA10A40EE410A86ED002A2E
:100A2000C6ED010A7FF476AF9B044FEA134BE6460E
:100A3000BCF1040F7DD9E0464FEA9C0C4FF0000951
:100A4000CA46BCF1000F75D94FEA490404EB09030B
:100A500002EBC90502EBC40402EBC30395ED001AD7
:100A6000D5ED011A94ED000AD4ED010A93ED002AA8
:100A7000D3ED012AD94453468A4573D203EB0C04C3
:100A800004EB0C0606EB0C0500EBC30700EBC606F7
:100A900097ED003AD6ED003A96ED015A00EBC4040A
:100AA00073EE234A33EE633AD7ED013A00EBC50506
:100AB00033EE854A73EEC53A94ED005AD5ED005AEF
:100AC00035EE255A74EE855A74EEC54AC7ED005AC4
:100AD00094ED015AD5ED015A35EE255A74EE055ABA
:100AE00034EE454AC7ED015A94ED015AD5ED015A4D
:100AF00095ED006A35EE655AD4ED005A75EEC65A8A
:100B000024EE806A04EE206A24EE004A04EEE04AF5
:100B100084ED006A73EEE54A73EEA53A84ED014A6E
:100B200033EE054A33EE453A24EE015A04EEA15A5B
:100B300001E026E01BE064EE814A86ED005A434462
:100B40008B4244EE614A23EE024A03EEA24A63EE70
:100B5000823AC6ED014A43EE623A85ED004AC5EDA0
:100B6000013A8BD30AF1010AE245FFF46DAF4FEA77
:100B70008B434FEA9E0E4FEA134BBEF1040F3FF634
:100B80005AAFA1EB0C0100224B1C4FEA9C04002B36
:100B90008CBF1F46BDE8F08F11190E19331900EBF9
:100BA000C20500EBC60695ED000AD6ED000A95EDEC
:100BB000012A96ED011A70EE201A70EE600A32EEEC
:100BC000010A00EBC10100EBC30332EE411A91EDC3
:100BD000002AD3ED002A6244974232EE222A71EEB7
:100BE000822A31EEC22AC5ED002AD1ED011AD3EDD9
:100BF000012A71EEA21A70EE212AC5ED012A70EECB
:100C0000612A91ED010AD3ED011A93ED003A70EEDD
:100C1000611A91ED000A81ED002AC1ED012A30EE42
:100C2000430A30EEA12A70EEE10A71EE401A31EE6D
:100C3000000A86ED002AC6ED011AC3ED000A83ED15
:100C4000010AA9D8BDE8F08F2DE9F04F4FEA910CC9
:100C50004FF000084746644608EB0C0505EB0C0A0C
:100C60000AEB0C0600EBC80900EBCA0AD9ED000A32
:100C70009AED001ADAED012A00EBC50570EE811A33
:100C800070EEC10A99ED011A00EBC60608F10108E1
:100C900031EE222A31EE621AD5ED002A96ED003AA5
:100CA000641E72EE832A31EEA23A71EEE21A89EDE9
:100CB000003AD5ED012A96ED013A72EE832A32EE22
:100CC000223A32EE622A89ED013AD5ED012A96EDFB
:100CD000013AD6ED003A4FEA470972EEC32A95ED84
:100CE000003A02EBC90B33EE633ADBED003A9BEDC1
:100CF000014A61EEA34A42EE444A22EE232A01EE63
:100D0000842AC5ED004A70EEE21A70EEA20A85ED63
:100D1000012A02EBC70531EE032AD5ED002A31EE98
:100D2000431A95ED013A61EEA23A09EB070502EB91
:100D3000C5051F4442EE433A22EE222A01EE832AE1
:100D4000CAED003A8AED012AD5ED001A95ED012A87
:100D500060EEA12A41EE422A21EE211A00EE821A0B
:100D6000C6ED002A86ED011A7FF476AF9B044FEAA8
:100D7000134BE646BCF1040F7DD9E0464FEA9C0CCC
:100D80004FF00009CA46BCF1000F75D94FEA49047B
:100D900004EB090302EBC90502EBC40402EBC30335
:100DA000D5ED001A95ED012AD4ED000A94ED011A53
:100DB000D3ED002A93ED013AD94453468A4573D2C4
:100DC00003EB0C0404EB0C0606EB0C0500EBC3076D
:100DD00000EBC606D7ED003A96ED004AD6ED015A73
:100DE00000EBC40433EE845A73EEC43A97ED014A23
:100DF00000EBC50574EE254A34EE654AD4ED005A81
:100E000095ED006A75EE865A35EE256A35EE655A1F
:100E100087ED006AD4ED015A95ED016A75EE865AA8
:100E200034EEA56A74EEE54A87ED016AD4ED015A05
:100E300095ED016AD5ED006A75EEC65A94ED006A2B
:100E400036EE666A65EE206A44EEC16A64EEA04A38
:100E500045EE014AC4ED006A34EE065A34EE464AC5
:100E6000C4ED014A73EEE54A73EEA53A64EEA15A69
:100E700045EE425A01E026E01BE025EE215AC6ED80
:100E8000005A43448B4204EE825A63EEA24A44EE77
:100E9000434A24EE224A86ED015A03EE834AC5ED09
:100EA000004A85ED014A8BD30AF1010AE245FFF4BD
:100EB0006DAF4FEA8B434FEA9E0E4FEA134BBEF1E4
:100EC000040F3FF65AAFA1EB0C0100224B1C4FEA76
:100ED0009C06002B8CBF1F46BDE8F08F91198D1921
:100EE000AB1900EBC20400EBC505D4ED000AD5ED4B
:100EF000001AD4ED012A95ED012A30EEA11A70EE08
:100F0000E11A72EE820A00EBC10100EBC30332EE7C
:100F1000C22AD1ED002A93ED003A6244974272EE64
:100F2000832A31EE223A71EE622A23EE003A62EE13
:100F3000802A84ED003A91ED011A93ED013A31EEE9
:100F4000031A30EE813A23EE003A84ED013A30EE96
:100F5000C13AD1ED010A93ED011AD3ED003A30EE1A
:100F6000C11AD1ED000AC1ED002A63EE002A70EE2D
:100F7000E30AC1ED012A71EEC12A31EE811A72EE47
:100F8000201A72EE600A22EE802A21EE001A61EE2B
:100F9000801A85ED002A60EE800AC5ED011A83ED06
:100FA000001AC3ED010A99D8BDE8F08F30B50446A8
:100FB0000D4680782188A389626801280DD02846D3
:100FC000FFF7A0FCE078012818BF30BDE289218836
:100FD0002846A368BDE830403CE494ED040A284666
:100FE000FFF732FEEEE7000010B401801B4C4460B6
:100FF00082704FF0000CC370102925D040291BD0FF
:10100000B1F5807F10D0B1F5806F18BF4FF0FF3C75
:1010100002D010BC6046704701218181C181104916
:101020009FED100A816016E004218181C1810E4983
:101030009FED0E0A81600EE010218181C1810C4973
:101040009FED0C0A816006E040218181C1810A493F
:101050009FED0A0A816080ED040ADAE748D60008AD
:1010600048F600080000803A4EF600080000803B79
:1010700066F600080000803CC6F600080000803DCF
:1010800010B5203AC0F00B80B1E81850203AA0E823
:101090001850B1E81850A0E81850BFF4F5AF5FEA57
:1010A000027C24BFB1E81850A0E8185044BF18C90A
:1010B00018C0BDE810405FEA827C24BF51F8043BB1
:1010C00040F8043B08BF7047D20728BF31F8023B05
:1010D00048BF11F8012B28BF20F8023B48BF00F899
:1010E000012B7047704770477047000000487047F9
:1010F000588C01207546FFF7F9FFAE46050069469A
:10110000534620F00700854618B020B5FFF7BAF81F
:10111000BDE820404FF000064FF000074FF00008F8
:101120004FF0000B21F00701AC46ACE8C009ACE879
:10113000C009ACE8C009ACE8C0098D467047044658
:10114000AFF300802046FFF788F870470149182068
:10115000ABBEFEE72600020010B5064C01220023BC
:101160001146204600F060F92046BDE8104000F02E
:1011700095B900000020014010B5064C0023012263
:101180000C21204600F050F92046BDE8104000F048
:1011900085B900000020014010B5064C0023012253
:1011A0000421204600F040F92046BDE8104000F040
:1011B00075B900000020014010B5064C0023012243
:1011C0000721204600F030F92046BDE8104000F02D
:1011D00065B900000020014010B5064C0023012233
:1011E0000D21204600F020F92046BDE8104000F017
:1011F00055B900000021014010B5064C0023012222
:101200000E21204600F010F92046BDE8104000F005
:1012100045B900000021014010B5064C0023012211
:101220000F21204600F000F92046BDE8104000F0F4
:1012300035B900000021014070B59CB001212F4854
:1012400002F012FB01214FF4E06002F031FB4FF09D
:10125000007000902A4801902A4802A90024012524
:1012600031C1E802CDE906408000089040110990A4
:101270000AA90594400231C1234E0D9469463046B7
:101280000E9400F07BFA0121304600F06CFA032046
:101290008DF8680019958DF86B4019A91B4800F06E
:1012A00041FB15941694179415A8189400F06AF849
:1012B0000F948DF8404011941394114C8DF84150C7
:1012C0004C3C8DF850500FA9204600F087F80023C1
:1012D00001220821204600F0A7F80121204600F055
:1012E00073F80121204600F065F80121204600F046
:1012F0003FF8204600F0D2F81CB070BD020040005C
:101300004C2101400C0000204064024000040240D7
:1013100010B5064C002301220A21204600F084F873
:101320002046BDE8104000F0B9B80000002201409E
:1013300010B5064C002301220B21204600F074F862
:101340002046BDE8104000F0A9B80000002201408E
:1013500010B5064C002301220C21204600F064F851
:101360002046BDE8104000F099B80000002201407E
:101370000029816802D041F0010101E021F0010162
:1013800081607047094B10B51A68094902EA0102E9
:10139000D0E9001441EA0401D0E9024044EA000423
:1013A00041EA040141EA0201196010BD0423014031
:1013B000E030FCFF0029816802D041F4807101E037
:1013C00021F48071816070470029816802D041F466
:1013D000007101E021F400718160704730B542680E
:1013E0000F4B0C791A400B6842EA04221343436006
:1013F00082680C4B4D791A40D1E9034323438C6832
:1014000044EA4504234313438360C26A097D22F4FE
:101410007002491EC9B242EA0151C16230BD0000EA
:10142000FFFEFFFCFDF7FFC070B5072509290AD9AB
:10143000C468A1F10A0606EB4606B540AC43B340CA
:101440001C43C46007E0046901EB4106B540AC43AE
:10145000B3401C4304611F23072A09D2446B521E68
:1014600002EB820293409C4391400C43446370BD65
:101470000D2A09D2046BD21F02EB820293409C43D7
:1014800091400C43046370BDC46A0D3A02EB8202C2
:1014900093409C4391400C43C46270BD816841F00D
:1014A00080418160704700F0DFBC10B5044600F059
:1014B000A3FDA02000F062FD00F0F2FD200A00F084
:1014C0005DFD00F0EDFDE0B200F058FD00F0E8FD3C
:1014D00000F092FDA12000F051FD00F0E1FD0020A0
:1014E00000F010FD044600F0B1FD204610BD70B5BF
:1014F00004460D4600F080FDA02000F03FFD00F006
:10150000CFFD200A00F03AFD00F0CAFDE0B200F085
:1015100035FD00F0C5FD284600F030FD00F0C0FDAF
:1015200000F094FDBDE870400A2006F091B87047C5
:1015300038B5002000F0EEFF1D4CA061002000F047
:10154000E9FFE061002001F0D7F86062002000F0C0
:10155000E1FF2062002001F0CFF8A0626A4615A1E9
:101560000A2001F055FA0523154A0021154801F01B
:10157000A9F90423144A0021144801F0A3F9032314
:10158000134A0021134801F09DF90223124A002159
:10159000124801F097F90123114A0021114801F086
:1015A00091F90023104A1946104801F08BF938BD13
:1015B000000000205374617274205461736B00004A
:1015C000EC230020F7150008ECD300209916000842
:1015D000EC73012005160008ECC300200D1700086D
:1015E000EC740120F53A0008EC7501206D850008C7
:1015F00001F0A0BD704706F053FA642006F028F809
:10160000F9E700001CB51B4C002604F12C0540F244
:10161000DC57A87910B9032001F0F8FAA87901285D
:1016200024D115496F200870606A01F0EBF8A08A98
:10163000C0B1401EA0824FF02F08CDE90068012301
:1016400028781A46002106F0C1FBCDE90068287809
:1016500002230122002106F0B9FBA08A012801D152
:101660006671A6821020FFF720FF2870384605F02B
:10167000EFFFCEE7000000201D01002010B501F0B3
:1016800005F9FFF755FFBDE810400A2001F0BEBA8A
:10169000704701F057BD00001CB51A4D1A4C0126C9
:1016A000022701AA0021686A01F04CF8164A154B7E
:1016B000C63AA2F1C6019B1DA1F58470009406F004
:1016C000B3FC114B0F4AA3F5C671921DA1F58470AE
:1016D000009606F007F80C4B0A4AA3F1C601921DCA
:1016E000A1F5E770009705F0FDFF074A054BC63AE4
:1016F000A2F1C6019B1DA1F58470009403F0D6FCF5
:10170000CFE7000000000020DC0300200B4C08B5F0
:10171000A4F12C051426A079012802D1022001F0A1
:1017200075FA6A460021A86900F01AFF06F08CFBE2
:101730002E821020FFF7B9FE2070ECE72C0000206D
:1017400001F012BDFEE770B50025002400212846F7
:1017500002F016FD641CE4B2042CF7D36D1CEDB24C
:10176000162DF2D370BD0029016802D041F00101AD
:1017700001E021F0010101607047000030B503680D
:10178000124ACC6813400A682243D1E905452C432C
:101790002243CC6922430C6A22434C6A22438C6A5E
:1017A00022434C6B22438C6B22431A4302604269F2
:1017B00022F00703D1E90B2422431A4342610A694C
:1017C00042604A6882608968C16030BD3F801CF019
:1017D0007047000010B500F063FE4FF480542046BF
:1017E00000F056F818B10548806A01F00BF8204661
:1017F00000F006F8BDE8104000F05EBE00000020DA
:101800000149086070470000143C014030B50121D7
:1018100085B0084602F028F80121880302F048F854
:1018200000248DF810404FF480558DF8134003A923
:101830001248039500F076F80C21002002F090F990
:101840008DF8044010208DF80500012400958DF8D6
:101850000640684600F02CF828208DF808008DF826
:1018600009408DF80A408DF80B4002A800F038FDC1
:10187000284600F005F805B030BD00000000024029
:1018800002490A6802430A6070470000103C0140A8
:10189000064A014600201268044B0A4014331B68B4
:1018A0000B4202D0002A00D001207047003C0140CA
:1018B00030B51B498379026863B30B6893430B60AF
:1018C0000A1D13680468A343136002790A4413686D
:1018D000046823431360124A083213680468A34360
:1018E0001360131D1C680568AC431C6090F805C0AC
:1018F000BCF1100F05D061440A68006802430A6019
:1019000030BD116804682143116019680068014303
:10191000196030BD0079084401689143016030BD11
:10192000003C0140F0B5002201234FF0030C00BF42
:101930000D6803FA02F42540A5422DD10668540033
:101940000CFA04F5AE4306600E790768A6403E43E4
:1019500006600E79012E01D0022E12D18668AE43A8
:1019600086604D798668A54035438560456803FAF1
:1019700002F6B543456045688E799640B6B2354368
:101980004560C56856000CFA06F7BD43C560CD79C1
:10199000A540C4682543C560521C102AC8D3F0BDB9
:1019A0004B07DB0E9A40C90810B500EB8100016AB5
:1019B0000F249C40A1430162016A1143016210BDE2
:1019C0000246002012690A4200D00120704741837C
:1019D00070470183704700002DE9F04704460E462A
:1019E00001210B2002F0CCFB01210D2002F0C8FBED
:1019F00008210E2002F0C4FB0821112002F0C0FBD8
:101A00004FF06408274FB4FBF8F53978DFF8989069
:101A1000012905D109EB450102220F2002F08AFBC2
:101A2000387818B90221102002F0AAFB08FB1540F3
:101A30000A25B0FBF5F009EB40014F4602221320C6
:101A400002F078FBB4FBF5F005FB1040B0FBF5F1BC
:101A500005FB110007EB40010222112002F06AFB96
:101A6000B6FBF8F4DFF840900222A9F1140909EB63
:101A70004401104602F05EFB08FB1460B0FBF5F079
:101A800009EB40010222052002F054FBB6FBF5F001
:101A900005FB106007EB4001BDE8F047022208207B
:101AA00002F048BB03000020040100202DE9F041B2
:101AB000044601210C2002F063FB0821112002F0F2
:101AC0005FFB42F21077B4FBF7F51D4EA8B206EBB0
:101AD000400102220F2002F02DFB07FB15404FF4BE
:101AE0007A75B0FBF5F006EB40010222132002F0FC
:101AF00021FBB4FBF5F005FB10406425B0FBF5F0CD
:101B000006EB40010222112002F014FBB4FBF5F0B9
:101B100005FB10400A25B0FBF5F0143E06EB400132
:101B20000222002002F006FBB4FBF5F005FB10409A
:101B300006EB4001BDE8F0410222104602F0FABA7D
:101B4000040100202DE9F04704460D46042107203A
:101B500002F016FB0821112002F012FB6427B4FBEF
:101B6000F7F6DFF87880022208EB46010F2002F03A
:101B7000E1FA07FB16400A26B0FBF6F008EB40013D
:101B80000222132002F0D6FAB4FBF6F006FB104056
:101B900008EB40010222112002F0CCFAB5FBF7F469
:101BA000A8F11409022209EB4401104602F0C2FA1E
:101BB00007FB1450B0FBF6F009EB400102220520B0
:101BC00002F0B8FAB5FBF6F006FB105008EB400146
:101BD000BDE8F0470222082002F0ACBA0401002060
:101BE0002DE9F041044601210A2002F0C9FA08213A
:101BF000112002F0C5FA42F21076B4FBF6F51E4F42
:101C0000A8B207EB40010222112002F093FA06FB72
:101C100015404FF47A76B0FBF6F0A7F1140505EB0A
:101C200040010222002002F085FAB4FBF6F006FB28
:101C300010406426B0FBF6F005EB4001022210468E
:101C400002F078FAB4FBF6F006FB10400A26B0FB6F
:101C5000F6F005EB40010222052002F06BFAB4FB1E
:101C6000F6F006FB104007EB4001BDE8F041022210
:101C7000082002F05FBA0000040100202DE9F041C5
:101C800004460821012002F07BFA0421072002F01B
:101C900077FA6426B4FBF6F50F4F022207EB4501F5
:101CA000104602F047FA06FB15400A25B0FBF5F096
:101CB00007EB40010222052002F03CFAB4FBF5F0EC
:101CC00005FB104007F11401BDE8F04101EB4001B4
:101CD0000222082002F02EBAF00000202DE9F04187
:101CE00004460121042002F04BFA0821112002F0E1
:101CF00047FA6426B4FBF6F50F4F022207EB4501C5
:101D0000104602F017FA06FB15400A25B0FBF5F065
:101D100007EB40010222052002F00CFAB4FBF5F0BB
:101D200005FB104007F11401BDE8F04101EB400153
:101D30000222082002F0FEB9F00000202DE9F04157
:101D400004460421084602F01BFA02210A2002F090
:101D500017FA0821112002F013FA6426B4FBF6F5F5
:101D60000F4F022207EB4501104602F0E3F906FB94
:101D700015400A25B0FBF5F007EB400102220520D3
:101D800002F0D8F9B4FBF5F005FB104007F114019F
:101D9000BDE8F04101EB40010222082002F0CAB97F
:101DA000F00000201CB50121022001F05DFD4FF480
:101DB0003870009001208DF8040000208DF8060096
:101DC0000220124C8DF8050069462046FFF7AAFD57
:101DD00061152046FFF7FDFD20212046FFF7F9FDA4
:101DE00040212046FFF7F5FD80212046FFF7F1FD59
:101DF000022001F0F3FE292001F0F0FE012001F0A5
:101E0000EDFE032001F0EAFE1CBD000000040240CC
:101E1000FEE700007CB5134E4FF4005529463046CE
:101E2000FFF7D5FD01208DF8040002206C008DF82D
:101E30000500009469463046FFF774FD21463046A0
:101E4000FFF7C5FD022005F021FC29463046FFF7CB
:101E5000C0FD022005F01AFC29463046FFF7B7FD09
:101E60007CBD0000000402401CB50121022001F0ED
:101E7000FBFC4FF4E040009001208DF804000220AC
:101E80000A4C8DF8050069462046FFF74BFDA1146A
:101E90002046FFF79CFD4FF400512046FFF799FDC7
:101EA0004FF480412046FFF794FD1CBD0004024022
:101EB0007CB5134E4FF4005529463046FFF787FD99
:101EC00001208DF8040002206C008DF805000094BC
:101ED00069463046FFF726FD21463046FFF779FD7B
:101EE000022005F0D3FB29463046FFF772FD0220A1
:101EF00005F0CCFB29463046FFF769FD7CBD0000AC
:101F0000000402402DE9FC4700241B4E80464FF49C
:101F100080478DF8044000978DF8074069463046A9
:101F2000FFF700FD0025B9467F1039463046FFF720
:101F30004EFD022005F0AAFB39463046FFF749FD69
:101F40006006040E49463046FFF73AFD08B1641CAE
:101F5000E4B2012005F09AFB6D1CEDB2082DE4D32C
:101F6000B8F1000F04D0FFF755FF2046BDE8FC870D
:101F7000FFF79EFFF9E70000000402402DE9FC474F
:101F8000054601208DF8040002201A4E4FF48047C8
:101F90008DF80500009769463046FFF7C3FC4FF403
:101FA000005841463046FFF712FDB9460024474627
:101FB00028064946304602D4FFF709FD01E0FFF745
:101FC00008FD6806050E022005F060FB3946304624
:101FD000FFF7FFFC022005F059FB39463046FFF7BA
:101FE000F6FC022005F052FB641CE4B2082CDFD39F
:101FF000BDE8FC87000402407CB501208DF8040098
:102000000220114D4FF480448DF80500009469467C
:102010002846FFF787FC21462846FFF7DAFC6610C2
:1020200031462846FFF7D5FC032005F02FFB21465B
:102030002846FFF7CCFC032005F028FB3146284654
:10204000FFF7C5FC7CBD0000000402407CB5012008
:102050008DF804000220114D4FF480448DF80500E6
:10206000009469462846FFF75DFC66103146284615
:10207000FFF7ADFC21462846FFF7A9FC032005F039
:1020800005FB31462846FFF7A4FC21462846FFF70A
:10209000A0FC032005F0FAFA7CBD00000004024019
:1020A0002DE9FC410024184E4FF480458DF8044082
:1020B00000958DF8074069463046FFF733FC294606
:1020C0003046FFF786FC012005F0E0FA6F10394634
:1020D0003046FFF77EFC012005F0D8FA08E0641CCA
:1020E000E4B2FA2C04D9FFF7B1FF0120BDE8FC816E
:1020F00029463046FFF764FC0028F0D139463046C7
:10210000FFF765FC0020F1E7000402402DE9F047ED
:102110009CB001215E4801F0A7FB01214FF4E06073
:1021200001F0C6FB4FF0806000905A4801900125F5
:10213000594802A9002431C106A8EE026F034FF4EA
:1021400080784FF400390594A0E8D003CDE90B4521
:10215000DFF848A10D94694650460E94FFF70EFB38
:1021600001215046FFF7FFFA4D4802A9CDE9004092
:102170004948DFF828A1801C31C106A80594A0E8D1
:10218000D003CDE90B45AAF1180A0D9469465046D3
:102190000E94FFF7F3FA01215046FFF7E4FA6806C0
:1021A0000090404801903C4802A9001D31C106A89A
:1021B0000594A0E8D003394ECDE90B4518360D94AF
:1021C000694630460E94FFF7D9FA01213046FFF7F1
:1021D000CAFA3F20032615908DF858608DF85B40B1
:1021E00015A93148FFF79EFB922015908DF8586095
:1021F0008DF85B4015A92D48FFF794FB17941894B0
:10220000199417A81A94FFF7BDF80F948DF8404061
:10221000119413941F4C8DF841504C3C8DF8505044
:102220000FA92046FFF7DAF81E4D0FA94C3D2846AE
:10223000FFF7D4F81A4E0FA94C3E3046FFF7CEF800
:1022400001212046FFF7C0F801212846FFF7BCF81E
:1022500001213046FFF7B8F801212046FFF7AAF820
:1022600001212846FFF7A6F801213046FFF7A2F822
:1022700001212046FFF77CF801212846FFF778F876
:1022800001213046FFF774F81CB0BDE8F08700006C
:10229000050040004C220140080000202864024054
:1022A0004C2001404C210140000802400000024047
:1022B0001CB50121084601F0D7FA4FF4C050009038
:1022C00000208DF8040069460148FFF72BFB1CBD78
:1022D00000000240FEE770474FF4A06000F032B803
:1022E00070B50F21C478027801234FF0E026E4B1E5
:1022F000124C246804F4E064C4F5E064C4F30724D9
:10230000C4F10405E1404478AC4085780D40254394
:102310000B4C29011155007800F01F018B4040093A
:1023200006EB8000C0F8003170BD02F01F00834052
:10233000500906EB8000C0F8803170BD0CED00E064
:1023400000E400E0024908430249086070470000C9
:102350000000FA050CED00E07047000070B50500C4
:102360000E46144605D036B10E48807828B11220AA
:102370000DE004200BE00C2009E02878012808D0AB
:10238000022806D0032804D0042802D001201070AF
:1023900070BDFDF789FF6E61FDF78AFF0020207098
:1023A00070BD00006400002030B587B000F070F808
:1023B0002A48002404638470C4700472C471C46029
:1023C000C4618461446144708471214600F1340227
:1023D0005454491CC9B20829FAD304714471846267
:1023E000046201F099F801F06BF801F043F801F094
:1023F000D5F801F0F9F802AA0325202031C21849C6
:102400004FF6FF70CDE9000101F17C023F2300216E
:10241000144800F09FFA05AA13A13F2000F0F8FA33
:1024200002AA402031C214494FF6FE70CDE90001E6
:1024300001F1FC023E230021104800F08BFA05AAAE
:102440000FA13E2000F0E4FA00F0E0FC00F026F8D6
:1024500007B0BDE83040FFF77FBF000064000020F8
:10246000E0780120A537000875432F4F532D4949C7
:102470002049646C65000000E0770120C137000846
:1024800075432F4F532D4949205374617400000048
:10249000014900200880704760000020704700005C
:1024A0000449C879012804D18878FF2801D2401C4A
:1024B000887070476400002070B5144DE8790128D9
:1024C00022D1FDF7F1FE0446A87820B1401E10F09D
:1024D000FF00A87013D1E87888B901F0C9F80C485A
:1024E000697950F82100A8622A79914207D0C16B1E
:1024F000491CC163E868401CE860FDF7F1FE204616
:10250000BDE87040FDF7D4BE70BD0000640000203F
:102510006079012070B505460E48007808B10020AA
:1025200070BDFDF7C1FE01460B4804680CB162683E
:1025300002600846FDF7BCFE4CB10120207000206F
:10254000208106A065606061204600F089FF20467A
:1025500070BD000066000020740000203F000000F5
:102560002DE9F04705008846144604D02878012854
:1025700003D001200AE0042008E02C48007808B1CC
:10258000022003E02A48007820B10D2010700020BE
:10259000BDE8F087FDF788FE6E68074600213EB172
:1025A000884638466960FDF783FE84F800803AE08B
:1025B000DFF880A08946DAF8000010F8342F42F0E6
:1025C00002020270417040F8048C284600F01AFFA5
:1025D0003846FDF76DFE01F027F8FDF765FE07466A
:1025E000DAF8000090F8351031B1022908D02946F8
:1025F00000F0D8FE0A2004E0466A84F8009001E06A
:102600000E202070DAF80010384601F11C0181F824
:10261000189081F81990C1F80090C1F80490C1F8A1
:102620000890FDF745FE3046B2E700006600002046
:10263000670000208400002070B504000D4605D01E
:1026400035B12078012805D0012070BD042070BD6F
:10265000032070BDFDF728FE0646A07A58B100237E
:1026600002222946204600F061FE3046FDF720FE9A
:1026700000F0DAFF0AE0606820B13046FDF718FE8E
:10268000142070BD30466560FDF712FE002070BD5D
:1026900010B5094CE07901280CD1FDF705FEA178B1
:1026A00021B9E178FF2901D2491CE170BDE8104051
:1026B000FDF7FEBD10BD00006400002010B50D4CFC
:1026C000E079012814D1FDF7EFFDE17831B1491E21
:1026D00011F0FF01E17001D1A17819B1BDE81040FE
:1026E000FDF7E6BDFDF7E4FDBDE8104000F09CBF3E
:1026F00010BD00006400002070B505460E4800784B
:1027000008B1002070BDFDF7CFFD01460B480468FD
:102710000CB1626802600846FDF7CAFD4CB10320A7
:10272000207025810020606005A06061204600F0D7
:1027300097FE204670BD0000660000207400002057
:102740003F0000002DE9F04705008846144604D0FC
:102750002878032803D001200AE0042008E0264856
:10276000007808B1022003E02448007818B10D2059
:102770001070BDE8F087FDF797FD06462889002711
:1027800030B1401E28813046FDF792FD2770F0E7FA
:10279000DFF86C90D9F8000010F8341F41F0010107
:1027A0000170477040F8048C284600F02BFE30463C
:1027B000FDF77EFD00F038FFFDF776FD0646D9F8FF
:1027C000000090F8351031B1022906D0294600F0FA
:1027D000E9FD0A2002E0277001E00E202070D9F800
:1027E000000000F11C00077647760760476030461E
:1027F000BDE8F047FDF75CBD6600002067000020E3
:102800008400002070B5040004D02078032803D091
:10281000012070BD042070BDFDF746FD0546A07A7D
:1028200058B1002301221946204600F07FFD2846BA
:10283000FDF73EFD00F0F8FE09E020894FF6FF713C
:10284000884206D2401C20812846FDF731FD002039
:1028500070BD2846FDF72CFD332070BD10B5094C26
:10286000E07900280CD100F003FF6079064920715F
:1028700051F82000A0622062BDE81040FDF71BBDAA
:1028800010BD0000640000206079012010B5022016
:1028900000F016FAFDF708FD084C0021E161FDF794
:1028A00007FD642000F00CFAFDF7FEFCE1696161B0
:1028B00001216170BDE81040FDF7FABC6400002002
:1028C000FEF735BE2DE9FE4305460F4690461C46F1
:1028D0003F2B02D92A20BDE8FE83FDF7E5FC1A490B
:1028E000097819B1FDF7E4FC3C20F4E7174E56F8DF
:1028F000241019B1FDF7DCFC2820ECE7012146F893
:102900002410FDF7D5FC002342463946284600F046
:102910004BF900270146009701973B463A4620466F
:10292000029700F0B5FE050007D0FDF7BDFC46F8A4
:102930002470FDF7BDFC2846CDE705480078012846
:10294000F9D100F071FEF6E7660000206079012001
:102950006B0000202DE9F04F81462DED028B83B0F6
:102960008A46DDE90F879DED118A129D93461C462C
:102970003F2B05D92A2003B0BDEC028BBDE8F08FB8
:10298000FDF792FC1D49097819B1FDF791FC3C2037
:10299000F1E71B4E56F8241019B1FDF789FC2820E9
:1029A000E9E7012146F82410FDF782FC2A46394662
:1029B000404600F04DFF2B465A465146484600F02F
:1029C000F3F800978DED018A0146029542462046B4
:1029D0000E9B00F05DFE050008D0FDF765FC0021B0
:1029E00046F82410FDF764FC2846C4E70548007843
:1029F0000128F9D100F018FEF6E70000660000207B
:102A0000607901206B000020FEF7F2BDFEF7F2BDF9
:102A100070B505460E4614463F2803D9FF2D01D058
:102A20002A2004E02EB11248007820B11220107044
:102A300070BD0C20FBE7FDF737FC0146FF2D03D1ED
:102A40000C48006890F836500B4850F82500432594
:102A500040B1012806D006650846FDF729FC002094
:102A6000207070BD0846FDF723FC257070BD000086
:102A700066000020840000206079012010B5044623
:102A80003F2801D32A2010BDFDF70EFC01461F4848
:102A900050F8240058B101280ED090F834201307C4
:102AA0002FD512F0F70280F834200AD00BE0084648
:102AB000FDF7FEFB462010BD0846FDF7F9FB43205D
:102AC00010BD026B22B10846FDF7F2FB002010BDDD
:102AD0000F4A00F138008378147843EA0403137036
:102AE00003780C4A4078D45C44EA0004D454084685
:102AF000FDF7DEFB084800780128E7D100F094FDDF
:102B0000E4E70846FDF7D4FB442010BD60790120BE
:102B10006A000020980000206B000020FEF7B8BD7E
:102B20002DE9F04104460D463F2804D9FF2C02D080
:102B30002A20BDE8F08145B1002028606860FDF7DB
:102B4000B3FB0146FF2C02D005E00920F1E7144851
:102B5000006890F83640134850F8240058B1012816
:102B600009D0028AD2070BD0D0E9024700260846D6
:102B7000FDF79EFB0AE00846FDF79AFB4320D8E7E5
:102B80000846FDF795FB4520D3E7761C01CC0028CD
:102B9000FBD0B0002860B81B800068600020C8E748
:102BA00084000020607901204FF080731360131FB0
:102BB00018606FF0010042F8080CA2F138004FF0E5
:102BC00012334FF00332C0E90A234FF0023242625F
:102BD0004FF00132C0E907124FF0113181614FF01F
:102BE000103141614FF0093101614FF00831C1608E
:102BF0004FF0073181604FF0063141604FF00531F1
:102C000040F804194FF004310160704770B5274D4A
:102C100004463F2804D005D3FF280CD02A2070BDDD
:102C2000472070BDFDF740FB0346286890F836004A
:102C3000A04206D007E0FDF737FB0346286890F86E
:102C40003640012500E00025194850F8240068B1FD
:102C5000012810D090F83820164C90F83960A15C0B
:102C6000F643F6B23140A1540AD010E01846FDF701
:102C70001FFB482070BD1846FDF71AFB432070BDAE
:102C80000D4A90F83A10147824EA0101117010F8F6
:102C9000341F41F0080101701846FDF709FB012DB2
:102CA00001D100F0C1FC002070BD000084000020B4
:102CB00060790120980000206A000020FEF7E9BC3E
:102CC00070B5044614480078002824D113480078D1
:102CD000002820D1002C1ED0FDF7E6FA034610484C
:102CE000104D006890F8381090F839606A5CF6432F
:102CF000F6B232406A5406D10B4A90F83A10157871
:102D000025EA0101117004631846FDF7D1FABDE808
:102D1000704000F089BC70BD660000206700002094
:102D200084000020980000206A0000202DE9F04176
:102D300000F052F8FDF7B8FA264D296B491C2963BB
:102D4000FDF7B6FAE879012841D1687A0126002713
:102D500020B101283BD0022802D06F72EC6A32E029
:102D60006E72FBE7FDF7A0FA216B49B3491E2163A0
:102D700026D194F8341011F0370F06D001F0C801B5
:102D800084F8341084F8356001E084F8357094F8E4
:102D90003410090714D404F13804AA79A178DFF8B3
:102DA00034C041EA0201A97121780CF1340C637836
:102DB0001CF80120A4F1380442EA03020CF80120B7
:102DC0006469FDF775FA94F836003F28CAD1BDE86A
:102DD000F08100006400002010B5FEF7B1FC074848
:102DE0000188491C89B20180642905D30021018032
:102DF000BDE8104000F004B810BD000060000020E5
:102E000001480068FFF7FEBCB800002070B588B02C
:102E10004FF420712E4800F0B7FB40212D4800F000
:102E2000B3FB00202A4904466422431C00EB8000C7
:102E30001D4601EBC0009BB203EB8303027001EB64
:102E4000C30380F82540C36023A30362A8B20F2800
:102E5000EBD300EB800001EBC000027080F825404E
:102E60001DA2C46002621D481E4A04601C48048002
:102E7000102010801C4801600120FFF73DFC1B4D15
:102E800028600020FFF738FC194E05AA19A1306010
:102E90002868FFF763FA05AA1BA13068FFF75EFAFE
:102EA000402102910320CDE903401C4A4FF6FD70FA
:102EB000CDE900023D23FC3200211948FFF74AFD0D
:102EC00006AA18A13D20FFF7A3FD08B070BD0000C1
:102ED00018830120988601203F000000B0000020E8
:102EE000AE000020AC000020BC000020B400002098
:102EF000B800002075432F4F532D494920546D725F
:102F00004C6F636B0000000075432F4F532D4949F0
:102F100020546D725369676E616C000098850120C2
:102F20007D2F000875432F4F532D494920546D7252
:102F300000000000032280F825200E4A01291268B3
:102F400013D0816989B1114441610B4A01F0070135
:102F500002EBC10100230A68086042B1C26010613F
:102F60008A88521C8A8003617047C169EBE701229D
:102F7000C360F7E7B00000209886012008B5DFF8AD
:102F80006880DFF868901A4E6A460021D8F8000081
:102F9000FFF7D8FBFFF77CFB3068401C306000F087
:102FA0000700022759F8304013E061693068E5688E
:102FB00081420DD1204600F01DF894F8240002282B
:102FC0000CD084F82570626812B12046A168904741
:102FD0002C46002CE9D1FFF771FBD5E701212046F3
:102FE000FFF7A8FFEFE70000B80000209886012057
:102FF000B000002010B541690E4A01F0070102EB54
:10300000C10200231468C168844203D1116041B138
:103010000B6106E0D0F810C0CCF80C1009B1C1F873
:1030200010C0012180F82510C36003619088401E04
:10303000908010BD9886012070B5244C0025E16970
:10304000491CE161214622788978062A0144C9B2E7
:103050003AD2DFE802F0030A0E1D2D31ED2803D12C
:1030600001202070E570257170BD8C282CD10220C4
:103070000CE020B10021802802D9012201E00121C9
:103080000022114320D1A07060700320207070BD19
:10309000E278802A03D20E4B9854521CE270A17041
:1030A0006078401E10F0FF006070F0D10420EDE762
:1030B000A17049B90520E9E78D2805D16089401C38
:1030C0006081A06AFFF79EFB257070BDC0000020E4
:1030D000D886012070B5FDF73DF9144A1178491CD6
:1030E0001170FDF73BF9124C40F225552946204658
:1030F00000F083FF48B1204601F012F8C0B2FFF79C
:103100009BFF2946204600F061FF40F227752946C3
:10311000204600F072FF28B100F048F8294620460A
:1031200000F054FFBDE87040FFF7C6B9660000200C
:103130000048004010B5044600F018F86064002014
:10314000206410BD10B500F011F805490968D1E9F7
:103150001023C31A1A440A6402490968486410BD5E
:10316000840000208C000020AFF3008070B5FDF7D4
:103170009BF8054600F010F806490A890881821A72
:10318000886992B2841828468C61FDF791F8204630
:1031900070BD0000C00000204FF0804000F061BE14
:1031A0000146014800F0C0BF004800402DE9F04151
:1031B0004A4F04263846BB798189828A0025C08916
:1031C000092B73D2DFE803F00518252F737B4450D9
:1031D0005C0011430BD08C20FFF7E2FF386A401CE3
:1031E00038620120F871B871FD81BDE8F081FD7190
:1031F000BDE8F04100F076B8ED20FFF7D1FF386A66
:10320000401C3862B88908B1022000E00620B8717D
:10321000EBE7C8B2FFF7C4FF386A401C38620320EE
:10322000B871B8892AE02E490C5C2046FFF7B8FF38
:10323000386A401C3862787920447871F889401CDB
:1032400080B2F881B9898842CFD3BE71BD81CCE705
:10325000521CD0B2FFF7A4FF386A401C3862072026
:10326000B871B88A401C09E04320FFF799FF386A1B
:10327000401C38620820B871787943307871B4E71F
:10328000174980310C5C2046FFF78AFF386A401CE2
:103290003862787920447871F889401C80B2F881CE
:1032A000B98A8842A1D3BE71BD829EE713E07879C6
:1032B000FFF776FF386A401C38620520A7E78D20AB
:1032C000FFF76EFF386A401C3862BD713D82788A14
:1032D000401C788289E7BD7189E70000C0000020AA
:1032E00058870120002240F22771014800F0A4BE57
:1032F000004800400B484FF47A710068B0FBF1F0D1
:10330000B0F1807F0DD220F07F414FF0E020491EC8
:103310004161054AF021117000218161072101619D
:103320007047FEE73C00002023ED00E0F0B50546C5
:10333000807A194C4FF00007205C05EB0006F67A06
:10334000A45D04EBC004E6B2144C54F8264004F12A
:103350002404E7602160217C21EA02012174637466
:10336000A4F1240409070BD40D4994F83A208B7971
:103370001A438A71343194F839300A5C1A430A547A
:103380002946204600F00EF8216A19B1204600F0C7
:103390001BF8E5613046F0BD3C91000860790120E2
:1033A0006400002010B590F8382090F839408B1850
:1033B000E443DA7AE4B22240DA7204D18A7A90F8ED
:1033C0003A0082438A7210BD30B510F8383F8278D7
:1033D00090F801C0D2436FEA0C04E4B2D5B2086899
:1033E0000DE000BF00EB030C9CF80B2022408CF892
:1033F0000B2002D1827A2A40827251F8040F0028F1
:10340000F0D130BD30B5154900F10B020B6AD8611F
:1034100093F838C093F839301CF802401C430CF87C
:1034200002400A6A837A02F13802947843EA04037C
:103430008372137801F134045578E05C6FEA050576
:10344000EDB22840A2F13802E05405D192F83A00DA
:103450008A7922EA0000887130BD000064000020F3
:103460000022827211464318491CC9B2DA72082937
:10347000F9D3704710B550210E4800F085F80020B0
:103480000C4A0146431C1C4602EB00109BB202EBA7
:1034900003130170436008A3C360A0B20428F1D3F2
:1034A00002EB00100170416003A1C160034802609B
:1034B00010BD0000F08101203F000000A0000020AE
:1034C00010B54FF4F071114800F05EF800200F4A7B
:1034D0000146431C1C4600EB40009BB202EBC000BF
:1034E00003EB430302EBC3030170436008A3436192
:1034F000A0B21328EDD300EB400002EBC000017036
:10350000416003A141610348026110BD00760120C2
:103510003F0000006400002010B54FF4F26116482F
:1035200000F032F84FF48071144800F02DF8124981
:103530000020421C00EB400404EBC000D3B203EBBC
:10354000430401EBC00004EBC30301EBC30343617D
:103550000BA30365D0B21528EBD300EB400202EBBE
:10356000C00001EBC00006A30022036542610548CC
:10357000C262416210BD0000607A012060790120C2
:103580003F00000064000020002203E0491E00F814
:10359000012B89B20029F9D17047000010B57821BC
:1035A0000E48FFF7F1FF0D4A002000BF00EB40017D
:1035B00002EBC10101F118034B60401C08A380B26B
:1035C0004B610428F2D300EB400002EBC000002165
:1035D000416003A141610348026010BD40820120A7
:1035E0003F000000A400002010B560210C48FFF748
:1035F000CBFF0B4A0020411C8BB200EB400003EBD9
:10360000430302EBC30342F8303088B20328F2D3FD
:1036100000EB4000002142F830100248026010BD6B
:10362000B8820120A800002070B5FCF73DFE0E4DC9
:103630000446A87898B9E87888B900F019F80B48DA
:10364000697950F82100A8622A79914207D0C16BAC
:10365000491CC163E868401CE860FCF73CFE20465A
:10366000BDE87040FCF724BE6400002060790120B2
:103670000649054A01F134038879105C1B5CD25C71
:1036800002EBC000487170473C91000864000020C4
:103690002DE9F04705462DED028B0E4690469946E2
:1036A000DDED0A8A9DED0B8ADDF830A0FCF7FCFD0C
:1036B000394F7C6A002C6BD061697962FCF7F8FDA8
:1036C000266084F83650002684F8346084F835602B
:1036D000266384ED018AC4ED038A04F11C044FEAD9
:1036E000D50244F8148C24F80CAC24F80A9CE67734
:1036F000227705F007014FF0010000FA02F2E176AF
:10370000A27700FA01F0607726606660E660A66046
:103710002662A662666221A0E662C4E90C60A4F19A
:103720001C04304604EB800100F101004E6510F0EE
:10373000FF00F7D02046FFF7C3F82046FFF764F9F3
:10374000FCF7B2FD0146164840F82540F86AC4E986
:10375000050600B18461FC6204F13804BA79A078EE
:1037600040EA0200B8710C48227800F13400647815
:10377000835C43EA04038354387A00F10100387211
:103780000846FCF795FD0020BDEC028BBDE8F087F4
:10379000FCF78EFD4220F7E7640000203F000000A8
:1037A00060790120054C00BFFCF77EFDE169491CF2
:1037B000E161FCF77DFDFFF729F9F5E764000020E2
:1037C000144C02E0C820FFF77BFA60780028F9D09B
:1037D000642160690025B0FBF1F0606118B92570C3
:1037E000FF20FFF713FAFCF75FFDE169C4E9061556
:1037F000FCF75EFDD4E90510B0FBF1F0C0F1640008
:103800002070FFF78BF900F007F86420FFF758FAF3
:10381000E9E70000640000207CB50C4D00246946F7
:103820002046FFF77DF958B955F8240040B101282A
:1038300006D0D0E9021201EB820181640199C164D2
:10384000641CE4B23F2CEAD97CBD00006079012001
:10385000D30707D0920705D50022002902D004C063
:10386000491EFAE770470000044A0029116801D098
:10387000014300E08143116070470000303802408E
:10388000044A0029116801D0014300E0814311601E
:103890007047000040380240044A0029116801D0F6
:1038A000014300E08143116070470000203802406E
:1038B000044A0029116801D0014300E081431160EE
:1038C000704700004438024030B5224B1968224A44
:1038D00011F00C0104D05510042903D0082903D09D
:1038E00002601DE005601BE01A49091F0C68C4F363
:1038F000805C0C68BCF1000F04F03F0402D0B5FB03
:10390000F4F201E0B2FBF4F20C680968C4F3881425
:103910006243C1F30141491C4900B2FBF1F101606E
:1039200019680E4A01F0F0010909545C0168E14090
:1039300041601C6804F4E054A40A145D21FA04F404
:1039400084601B6803F460435B0BD25CD140C160B0
:1039500030BD0000083802400024F4005000002070
:103960002DE9F04F804687B001210320FFF77CFF4F
:103970004FF4003A01215046FFF782FF01268DF8EF
:1039800004600024DFF8D8B04FF400478DF80640FB
:10399000022500978DF8055069465846FDF7C2FF8D
:1039A000DFF8C090072202214846FDF7F9FF072201
:1039B00003214846FDF7F4FF8DF8045004208DF8EC
:1039C000064000908DF805508DF80760694648461E
:1039D000FDF7A8FF082000908DF804508DF80740EF
:1039E00069464846FDF79EFF01215046FFF754FF08
:1039F00000215046FFF750FFADF810400C201A4D43
:103A0000ADF80C40ADF81200CDF80880ADF80E40CE
:103A1000ADF8144002A9284600F026FB4FF4A06040
:103A2000FEF790FC26208DF818008DF819408DF8CF
:103A30001A408DF81B6006A8FEF752FC012240F2E6
:103A40002551284600F0F8FA0121284600F0C4FA72
:103A500039465846FDF7BBFF07B0BDE8F08F0000C0
:103A60000004024000000240004400402DE9FC47F1
:103A7000804601208DF804000027DFF86CA04FF489
:103A800000498DF8067002200D468DF805004C4661
:103A9000CDF80090694656465046FDF743FF214653
:103AA0003046FDF796FF0024104E0CE040213046D2
:103AB00000F09CFA0028F9D018F80410304600F005
:103AC00033FB641CE4B2AC42F0D34021304600F03A
:103AD0008DFA0028F9D00648494607705046FDF790
:103AE00076FFBDE8FC87000000040240004400406F
:103AF000000000200226174C174D00271020FDF76C
:103B0000D4FC2070401E21280BD3FCF7CDFB80464F
:103B1000AE710220FFF77AF80420FFF777F8032050
:103B200011E01F28EAD8FCF7BFFB8046AF71207870
:103B300028700220FEF7A2FF0420FEF79FFF03205B
:103B4000FEF79CFF0120FFF761F84046FCF7B0FB51
:103B5000D4E700001B0100202C000020704700006B
:103B600010B58A0721F003040649130F21440F22E0
:103B70000C689A4094430C600A68984002430A60BB
:103B800010BD0000083801402DE9F04105460E4601
:103B90000024114F1BE028064FF04001384602D4A4
:103BA000FDF715FF01E0FDF714FF80213846FDF712
:103BB0000EFF012003F06AFD80213846FDF709FF62
:103BC000012003F063FD6806050E641CE4B2B442F4
:103BD000E1D3BDE8F08100000004024070B50A4D59
:103BE000044620212846FDF7F2FE03218020FFF73E
:103BF000CBFF09212046FFF7C7FF2846BDE87040EC
:103C00002021FDF7E6BE0000000402402DE9F0414E
:103C100005460E460024104F17E0E8074FF040011C
:103C2000384616D0FDF7D5FE80213846FDF7CFFE89
:103C3000012003F02BFD80213846FDF7CAFE01204C
:103C400003F024FD6D08641CE4B2B442E5D3BDE882
:103C5000F081FDF7BCFEE7E70004024022490020A6
:103C60000A6842F480320A604FF4A0630A6800F1E7
:103C7000010012F4003F01D19842F7D10868800397
:103C800031D519484030026842F08052026017482E
:103C9000026842F480420260134808300268026001
:103CA000026842F400420260026842F4A0520260DC
:103CB000031F0F4A1A600A6842F080720A600A689D
:103CC0009201FCD50B4A40F205611160016821F0B8
:103CD00003010160016841F0020101600168C1F364
:103CE00081010229FAD1704700380240007000407B
:103CF00008544007003C02404FF0E02104280869C6
:103D000003D020F004000861704740F00400FAE797
:103D100010B5FCF7C9FA064A1178491C1170FCF776
:103D2000C7FAFFF703F8BDE81040FEF7C5BB000077
:103D300066000020124810B5016841F4700101606E
:103D40001048016841F0010101600E4A002108326B
:103D5000116002680C4B1A400260031D0B4A1A6086
:103D6000026822F48022026006480C300160FFF7EE
:103D700075FF03494FF000608039086010BD0000F6
:103D800088ED00E000380240FFFFF6FE103000240E
:103D900010B5FEF785FB114C0121204600F063F8B9
:103DA000B8B10121204600F04FF80D48817981B962
:103DB000A0F12C04218A39B9007804F0B5FBA07871
:103DC000401CA070208A20B1208A401E2082012041
:103DD000A070BDE81040FEF76FBB0000000400407B
:103DE0002C0000207FB504460D4601210220FFF77C
:103DF00047FD01940020ADF80050124CADF80800CA
:103E0000ADF802006946204600F040F80122114654
:103E1000204600F033F84FF4A060FEF793FA1D201F
:103E20008DF80C0001218DF80D108DF80E108DF815
:103E30000F1003A8FEF754FA0121204600F007F8FE
:103E40007FBD000000040040C94301827047002983
:103E5000018802D041F0010101E021F0010101805F
:103E60007047406A7047038A002280890B4200EA4B
:103E7000010001D000B1012210467047002A82895A
:103E800001D00A4300E08A438281704730B502883E
:103E9000174B184C98420DD0A0420BD0B0F1804F78
:103EA00008D0154DA84205D0144DA84202D0144D9B
:103EB000A84204D122F0700C4A8842EA0C02114D4B
:103EC000A84207D0104DA84204D022F4407C0A89B1
:103ED00042EA0C0202804A68C2620A88028598425D
:103EE00001D0A04201D1897A01860121818230BDB1
:103EF00000000140000401400004004000080040B0
:103F0000000C00400010004000140040F0B591B0DB
:103F1000FCF720FA294A1178491C1170FCF71EFAA7
:103F2000274C40F22551204600F067F8F0B32046B8
:103F300000F0F6F8234C01266D4621780DF80100BB
:103F4000491CC8B22070684410F8010C242802D122
:103F50008DF80000267020780027284410F8010C06
:103F60003F2804D127702946A069FEF765FB207819
:103F7000284410F8010C262802D18DF80000267084
:103F80002078284410F8010C2A2812D127709DF8B7
:103F90000100232803D16946E069FEF74DFB9DF837
:103FA00001002B2805D16946206A00E001E0FEF7F8
:103FB00043FBFEF781FA11B0F0BD0000660000205F
:103FC0000044004000000020FFF784B80A0A0121E5
:103FD0009140C943018070470029818902D041F492
:103FE000005101E021F40051818170470246002018
:103FF00012880A4200D00120704770B501F01F06F8
:1040000001220025C1F3421302FA06F4012B0FD05E
:10401000022B0FD0838A4FEA11210088234202FA33
:1040200001F200EA020001D000B10125284670BD6E
:104030008389F0E7038AEEE7C1F3421301F01F0C16
:10404000012101FA0CF1012B07D0022B07D014300B
:10405000002A026805D00A4304E00C30F8E710306B
:10406000F6E78A43026070477FB50446008A0D4632
:1040700020F44051E88808432082A08941F20C6175
:104080008843A9882A8911436A8902431143A1817F
:10409000A08A20F44071A8890843A0826846FFF7EF
:1040A00013FC1D48844202D01C48844201D103986D
:1040B00000E00298A1890904002900EBC00101EB8E
:1040C0000010296802DA4FEA410101E04FEA81015C
:1040D000B0FBF1F06422B0FBF2F14FEA01114FEABC
:1040E00011136FF018056B4300EB8300A3891D04C7
:1040F0004FF0320306D503EBC000B0FBF2F000F046
:10410000070005E003EB0010B0FBF2F000F00F0039
:10411000084320817FBD00000010014000140140D1
:104120008088C0F308007047C1F3080181807047A0
:10413000FEE700002DE9F041104F04460D461646FB
:1041400020213846FDF743FC0321A020FFF71CFD8A
:10415000A006000E0621FFF717FD002406E02878D0
:104160000421FFF753FD641CE4B26D1CB442F6D386
:104170003846BDE8F0412021FDF72BBC0004024089
:1041800070B50D4E04460D4620213046FDF71FFC4C
:104190000321A020FFF7F8FCA006000E0621FFF780
:1041A000F3FC04212846FFF731FD3046BDE870409E
:1041B0002021FDF70EBC00000004024003B401986A
:1041C0004100009850EAC12018BF04204A0D18BFD2
:1041D00040F0010040F2FF72B2EB515F08BF40F0C7
:1041E0000200012808BF052002B07047000000004F
:1041F00070B59F482DED020B2DED068B079D25F028
:10420000004484421DDB9B48844202DC0FD10698A7
:1042100068B19DED060B53EC102B51EC100B04F024
:1042200037FABDEC068B02B041EC100B70BD002DCF
:10423000CCBF9FED910B9FED920BBDEC068B02B0B6
:1042400070BD9148844215DA90488442A8BF4FF06F
:10425000FF3440DA9DED060B51EC100BFFF7AEFF7B
:10426000042808BF00F0A8FA9DED060BBDEC068BF4
:1042700002B070BD9DED060B51EC100B03F022FA5D
:1042800041EC100B82488DED060B9FED839B844221
:104290003CDA834884421FDA00249FED83AB51EC63
:1042A000100B53EC1A2B04F0F3F99DED060B41ECC7
:1042B000180B53EC1A2B51EC100B04F089FC53EC47
:1042C000192B04F0C5FD53EC182B04F095FA41ECC2
:1042D000100B8DED060B49E0012453EC192B51EC2A
:1042E000100B04F0D5F99DED060B41EC180B53ECC7
:1042F000192B51EC100B04F0ABFD53EC182B04F010
:104300007BFA41EC100B8DED060B2FE068488442E0
:104310001FDA02249FED68AB51EC100B53EC1A2B03
:1043200004F056FC53EC192B04F0B2F99DED060B8A
:1043300041EC180B53EC1A2B51EC100B04F088FDD8
:1043400053EC182B04F058FA41EC100B8DED060BD2
:104350000CE053EC102B03249FED590B51EC100B88
:1043600004F04AFA41EC100B8DED060B9DED060BA7
:1043700053EC102B51EC100B04F02AFC41EC180B01
:1043800053EC182B04F024FC41EC190B4E48062189
:10439000B0EE490AF0EE690A784400F091F953EC66
:1043A000182B51EC100B04F013FC41EC180B474890
:1043B000B0EE490AF0EE690A0521784400F080F970
:1043C00053EC192B51EC100B04F002FC41EC100BD8
:1043D00051EC180B53EC102B002C0EDA04F058F9AA
:1043E0009DED061B53EC112B04F0F2FB9DED061B1B
:1043F00053EC112B04F020FD35E004F049F99DED5C
:10440000061B53EC112B04F0E3FB41EC100B30487E
:10441000784400EBC40090ED001B51EC100B53EC02
:10442000112B04F015FD9DED061B53EC112B04F030
:104430000FFD41EC100B2748784400EBC40090EDD1
:10444000001B51EC100B53EC112B04F0F5FC41EC6C
:10445000100B002DA2BFBDEC068B02B070BD51EC5D
:10446000100B04F0D7F841EC100BFFE60000000041
:10447000000010440000F07F182D4454FB21F93F48
:10448000182D4454FB21F9BF0000DC3F0000203E02
:104490000000F33F00000000000000000000F03FBB
:1044A0000000E63F000000000000000000000040A7
:1044B0000080034000000000000000000000F83F02
:1044C000000000000000F0BF14B50000CAB40000F6
:1044D00054B400000CB4000070B5694E2DED040B0F
:1044E0002DED028B82B0DDE9053C079ACCF100048A
:1044F00022F000414CEA040441EAD474049D23F004
:104500000040B44205D86C422C4340EAD474B44213
:1045100010D99DED060B53EC102B9DED040B51ECC7
:10452000100B04F0B5F841EC100B02B0BDEC028B9F
:1045300004B070BDA2F14054A4F17F6454EA0C04AD
:104540000BD0022404EAA27444EAD37405439FED1D
:104550004E8B9FED4F2B07D010E09DED040B51ECDF
:10456000100B00F0CBF93BE0002C14BF012C9DEDAB
:10457000040BDAD0022C36D0032C39D051EA0C0CC3
:104580009FED451B9FED460B0AD0B14219D1B042B9
:1045900009D121F0804120F080400791059010E082
:1045A000002BC2DA11E0DFF800C1FC44002C08BF88
:1045B0009CED000BB9D0012C0CD0022C13D0032C95
:1045C00016D0B04219D1002BAFDAB0EE410AF0EEAE
:1045D000610AAAE79CED000B51EC100B04F01AF8ED
:1045E00041EC100BA1E7B0EE480AF0EE680A9CE738
:1045F000B0EE420AF0EE620A97E7401A00153C2836
:1046000016DC002ABCBF10F13C0F9FED290B0FDB1D
:104610009DED060B53EC102B9DED040B51EC100B94
:1046200004F0EAF803F04EF800F068F941EC100BE2
:10463000002C8DED000B3FF478AF012C10D0022C34
:104640009FED1D0B53EC102B9DED000B51EC100B4F
:104650000ED004F0FDFB53EC182B04F0F9FBBFE780
:1046600010EE900A80F0004001909DED000B5CE799
:1046700004F0EEFB53EC182B04F0DEFBB0E7000077
:104680000000F07F00000000182D4454FB21094079
:10469000182D4454FB2109C0182D4454FB21F9BFA7
:1046A000182D4454FB21F93F32B3000000000000F4
:1046B0000000000000000000075C143326A6A13CA7
:1046C00070B505462DED028B4C1E00EBC400B0EE1C
:1046D000408AF0EE608A90ED000B34F0060017D0AF
:1046E00053EC182B51EC100B04F072FA41EC100B48
:1046F000641E05EBC40090ED001B51EC100B53EC55
:10470000112B03F0C5FF41EC100B34F00600E7D18C
:10471000022C36D0042C1CD0062C1CBFBDEC028B06
:1047200070BD53EC182B51EC100B04F051FA95EDC1
:104730000A1B53EC112B03F0ABFF53EC182B04F0C6
:1047400047FA95ED081B53EC112B03F0A1FF41EC48
:10475000100B53EC182B51EC100B04F039FA95EDBB
:10476000061B53EC112B03F093FF53EC182B04F0B2
:104770002FFA95ED041B53EC112B03F089FF41EC4C
:10478000100B53EC182B51EC100B04F021FA95EDA3
:10479000021B53EC112B03F07BFF53EC182B04F09E
:1047A00017FA95ED001B53EC112B03F071FFBDECD4
:1047B000028B41EC100B70BD9FED050B10B553EC57
:1047C000102B51EC100B04F003FA41EC100B10BD50
:1047D0000000000000000010F0B500234FF48062DC
:1047E0005C1E02EBD27504EB650419E05E1C00EE62
:1047F000106A00EB8307B8EEC00AD7ED000A20EE7E
:10480000800A87ED000A00EE106A01EB83075B1C4B
:10481000B8EEC00AD7ED000A20EE800A87ED000A44
:104820009C42E3DA6B10561E1DE000BFA2EB030CA6
:10483000ACF1010C00EE10CA00EB8307B8EEC00A21
:10484000D7ED000A20EE200A87ED000A00EE10CA1C
:1048500001EB83075B1CB8EEC00AD7ED000A20EE1F
:10486000200A87ED000AB342E0DB00221BE000BF14
:1048700002EB650300EB830600EB820796ED000A6E
:10488000D7ED000A01EB830330EE200A86ED000A23
:1048900001EB820693ED000AD6ED000A521C30EEC1
:1048A000200A83ED000A9442E2DC00220FE000BF00
:1048B00002EB650300EB830601EB830356F8046CFF
:1048C00040F8226053F8043C41F82230521C9442D4
:1048D000EEDAF0BDB5EEC00AF1EE10FA05DDF1EE4C
:1048E000C00AC0ED000A002070479FED030A80ED6A
:1048F000000A4FF0FF3070470000000010B541EC97
:10490000100BFFF775FC51EC100B10BD2DE9F047B3
:104910000128089C0A9A70D1052902D00A296DD075
:1049200041E15578002D6AD01079002868D005EB58
:10493000450003EB4000867890F801A090F80480D1
:1049400090F8039090F805C010E000BF05EB45001B
:1049500003EB40006D1C077A8770C7794770877A30
:104960000771477AC770C77A4771EDB2D079401E98
:10497000A842EBDC1079D57900EB400004EB400055
:1049800005EB450503EB4505807805F8040C107927
:10499000D57900EB400004EB400005EB450503EB47
:1049A0004505407805F8050C1079D57900EB4000F5
:1049B00004EB400005EB450503EB4505007905F8E0
:1049C000020C1079D57900EB400004EB400005EBB8
:1049D000450503EB4505C07805F8030C1079D5793A
:1049E00000EB400004EB400005EB450503EB4505FB
:1049F000407905F8010C157914E054E1E8E078E01D
:104A00003CE000BF05EB450004EB40006D1C077A5D
:104A10008770C7794770877A0771477AC770C77AF6
:104A20004771EDB2907A401EA842EBDC907A00EB21
:104A3000400004EB400000F8046C907A00EB40006A
:104A400004EB400000F805AC907A00EB400004EB6A
:104A5000400000F8028C907A00EB400004EB40002C
:104A600000F8039C907A00EB400004EB400000F853
:104A700001CC5078E8B3107900287CD1557805EB4B
:104A8000450003EB400090F8028090F801A090F8F8
:104A9000049090F803C0467910E000BF05EB450094
:104AA00003EB40006D1C077A8770C7794770877ADF
:104AB0000771477AC770C77A4771EDB2D079401E47
:104AC000A842EBDCD07900EB400003EB400000F89B
:104AD000048CD07900EB400003EB400000F805ACFB
:104AE000D07900EB400003EB400000F8029CD07945
:104AF00000E00EE000EB400003EB400000F803CCC8
:104B0000D07900EB400003EB400000F8016C5078D6
:104B100088BB15797DB305EB450003EB4000867833
:104B200090F801A090F8049090F803C090F80580E8
:104B300010E000BF05EB450004EB40006D1C077A58
:104B40008770C7794770877A0771477AC770C77AC5
:104B50004771EDB2907A401EA842EBDC907A00EBF0
:104B6000400004EB400000F8046C907A00EB400039
:104B700004EB400000E016E000F805AC907A00EB92
:104B8000400004EB400000F8029C907A00EB4000EB
:104B900004EB400000F803CC907A00EB400004EBFB
:104BA000400000F8018C14297DD1D17800297BD0F8
:104BB0009079002879D001EB410003EB400090F898
:104BC000028090F801900579C67890F805C051E10F
:104BD000917800296AD05079002868D001EB410013
:104BE00003EB4000857890F8018090F8049090F8ED
:104BF00003C0467910E000BF01EB410003EB400029
:104C0000491C077A8770C7794770877A0771477A96
:104C1000C770C77A4771C9B2107A401E8842EBDC70
:104C20005079117A00EB400004EB400001EB4101A8
:104C300003EB4101807801F8040C5079117A00EB04
:104C4000400004EB400001EB410103EB41014078DF
:104C500001F8050C5079117A00EB400004EB40009C
:104C600001EB410103EB4101007901F8020C50799D
:104C7000117A00EB400004EB400001EB410103EB33
:104C80004101C07801F8030C5079117A00EB400023
:104C900004EB400001EB410103EB4101407901F8D5
:104CA000010C517914E0BDE0A3E168E177E03BE05D
:104CB00001EB410004EB4000491C077A8770C7797B
:104CC0004770877A0771477AC770C77A4771C9B248
:104CD000D07A401E8842EBDCD07A00EB400004EB37
:104CE000400000F8045CD07A00EB400004EB400088
:104CF00000F8058CD07A00EB400004EB400000F88F
:104D0000029CD07A00EB400004EB400000F803CC9A
:104D1000D07A00EB400004EB400000F8016C907882
:104D2000E8B3507900287DD1917801EB410003EB85
:104D30004000857890F80190067990F803C090F8CB
:104D400005800FE001EB410003EB4000491C077AAE
:104D50008770C7794770877A0771477AC770C77AB3
:104D60004771C9B2107A401E8842EBDC107A00EB22
:104D7000400003EB400000F8045C107A00EB4000B8
:104D800003EB400000F8059C107A00EB400003EBB9
:104D9000400000F8026C107A00EB400000E00DE0EB
:104DA00003EB400000F803CC107A00EB400003EB6B
:104DB000400000F8018C9078002848D151790029F2
:104DC00045D001EB410003EB40008378457890F833
:104DD000048090F803C0467910E000BF01EB410069
:104DE00004EB4000491C077A8770C7794770877ABF
:104DF0000771477AC770C77A4771C9B2D07A401E27
:104E00008842EBDCD07A00EB400004EB400000F875
:104E1000043CD07A00EB400004EB400000F8055C55
:104E2000D07A00E013E000EB400004EB400000F813
:104E3000028CD07A00EB400004EB400000F803CC79
:104E4000D07A00EB400004EB400000F8016CBDE8B4
:104E5000F08700BF01EB410003EB4000491C077ADB
:104E60008770C7794770877A0771477AC770C77AA2
:104E70004771C9B2507A401E8842EBDC9079517A72
:104E800000EB400004EB400001EB410103EB41016A
:104E9000807801F8040C9079517A00EB400004EB23
:104EA000400001EB410103EB4101407801F8050CA2
:104EB0009079517A00EB400004EB400001EB410196
:104EC00003EB4101007901F8020C9079517A00EB73
:104ED000400004EB400001EB410103EB4101C078CD
:104EE00001F8030C9079517A00EB400004EB40008C
:104EF00001EB410103EB4101407901F8010C91798B
:104F000010E000BF01EB410004EB4000491C077AB0
:104F10008770C7794770877A0771477AC770C77AF1
:104F20004771C9B2107B401E8842EBDC107B00EB5E
:104F3000400004EB400000F8048C107B00EB4000C4
:104F400004EB400000F8059C107B00EB400004EBF4
:104F5000400000F8025C107B00EB400004EB4000D6
:104F600000F8036C107B00EB400004EB400000F8FD
:104F700001CCD078E8B3907900287FF468AFD1787D
:104F800001EB410003EB400090F8028090F80190A3
:104F90000579C67890F805C010E000BF01EB41002C
:104FA00003EB4000491C077A8770C7794770877AFE
:104FB0000771477AC770C77A4771C9B2507A401EE5
:104FC0008842EBDC507A00EB400003EB400000F835
:104FD000048C507A00EB400003EB400000F8059C85
:104FE000507A00EB400003EB400000F8025C507A7E
:104FF00000E00FE000EB400003EB400000F8036C22
:10500000507A00EB400003EB400000F801CCD07870
:105010000028B2D1917900293FF419AF01EB41008A
:1050200003EB4000837890F801800579C67890F80A
:1050300005C00FE001EB410004EB4000491C077A7A
:105040008770C7794770877A0771477AC770C77AC0
:105050004771C9B2107B401E8842EBDC107B00EB2D
:10506000400004EB400000F8043C107B00EB4000E3
:1050700004EB400000F8058C107B00EB400004EBD3
:10508000400000F8025C107B00EB400004EB4000A5
:1050900000F8036C107B00EB400004EB400000F8CC
:1050A00001CCD4E6C9B261F31F2070472DE9F05F4F
:1050B00007462DED108BADF5635D0D4616469946FE
:1050C0000DF540504FF0000A9FEDFE8AD0F82849B8
:1050D0000DF58050202280ED128A80ED118AFA4968
:1050E0002430FBF7CDFF4FF40070029000200DF547
:1050F0008051059008624FF0010B81ED138AFCF797
:1051000007F9FCF729F89FEDF1AB9FEDF2BBF348EF
:10511000F2494089B1F80C80A0EB080003F0F1FCE3
:1051200053EC1A2B03F054FD53EC1B2B03F050FDF2
:1051300003F07CFA014642F27C00684440F82A10F1
:10514000E6480089A0EB080003F0DBFC53EC1A2BC7
:1051500003F03EFD53EC1B2B03F03AFD03F066FA1F
:10516000014641F27C00684440F82A10242002F0F5
:105170008DFA0AF1010ABAF5806FC8DB42F27C01B0
:105180006944A1F58050FFF727FB43F69401CDF861
:1051900000B06944A1F11800059B029AFBF7E2FAFE
:1051A00007AA02F5835101F52050FBF765FA0DF5CA
:1051B0008050012101620A9803F034FF41EC180B82
:1051C000099803F02FFF41EC100BB0EE481AF0EEF7
:1051D000681AFFF781F943F27C01B0EE409AF0EED5
:1051E000609A694407A8029AFBF72EF902980DF518
:1051F00081534FEA500843F27C0003F128024146F4
:105200006844CDF81080FBF7E7FA0DF5805090ED7B
:10521000120ADFEDB30ADFF8CCA280EE201ABCEE52
:10522000C10A10EE100A80B203F082FC9FEDAE1BA3
:1052300053EC112B03F0E0FA03F036FC42F27C0150
:10524000AAF80000694407AA01F5C050FBF714FA58
:105250000DF5805007A9006A01EBC00ADAF80400D6
:1052600003F0E0FE41EC180BDAF8000003F0DAFE80
:1052700041EC100BB0EE481AF0EE681AFFF72CF96B
:1052800043F27C01B0EE408AF0EE608A694407A8E0
:10529000029AFBF7D9F80DF5815343F27C0003F134
:1052A000240241466844FBF797FA0DF58050406CA4
:1052B00003F0B8FE9FED8E1B53EC112B03F088FC1E
:1052C00003F0F2FB01468C48016040F213509FED61
:1052D0008BFB9FED8CEB814203D88749002008604F
:1052E000C7E07E48844A408A48434FF47A71B0FB55
:1052F000F1F0106000287CD053EC182B51EC190B06
:1053000003F0A6FD03F092F900EE100AFBF734F863
:10531000DFED730A20EE200ABCEEC00A10EE100A80
:105320007A4953EC182B087051EC190B03F090FDDF
:105330008A464AEC100B804651EC100B03F076F9CC
:1053400000EE100AFBF718F8B0EE40CA4AEC108BDA
:1053500051EC100B03F06AF900EE100AFBF70CF8A1
:10536000F0EE400AB7EE000A41F24C000CEE600A83
:105370006844FFF7AFFA5B485F4900880968484313
:1053800000EE100A0DF58051B8EE400AD1ED130A77
:1053900020EE201AB2EE040AC1EE001ABCEEE10AB9
:1053A00081ED160A00EE100AB8EE400A60EE200AFF
:1053B0009FED570A574953EC192B80EE801ABCEE2B
:1053C000C10A10EE100A088051EC180B03F040FDE2
:1053D0009FED51CB53EC1C2B03F0FAFB9FED50DB00
:1053E00053EC1D2B03F008FA9FED4F1B53EC112BD0
:1053F00000E03EE003F02CFDB0EE4F0AF0EE6F0A45
:1054000041EC180B53EC102B03F0E0FC33D29FED72
:10541000469B51EC180B53EC192B03F09DFB02D269
:105420002E490120C87053EC192B51EC180B03F0D6
:10543000CDFC0BD851EC180B9FED3D0B53EC102B12
:1054400003F08AFB02D825490020C8709FED380B75
:1054500051EC180B53EC102B03F0B8FC31D251EC8B
:10546000180B9FED350B53EC102B03F075FB28D276
:10547000B0E0632054E7B0EE4F0AF0EE6F0A53EC51
:10548000102B51EC180B03F067FB1AD851EC180BDA
:105490009FED2B9B53EC192B03F098FC09D853EC90
:1054A0001E2B51EC180B03F057FB02D20B490120C5
:1054B000C87053EC1E2B51EC180B03F087FC4FD82F
:1054C00042E08AE0000000001C9100086666666603
:1054D00066660A40000000000000303F0000002027
:1054E0000000C842220100206666666666E6044047
:1054F0009A9999999999F13F300100200000000094
:10550000000000000000000000E070C01E0100204C
:1055100000007A442801002000000000008076404E
:105520001C2D4454FB21194000000000008056400F
:1055300000000000008066400000000000E07040B5
:1055400000000000008076C09FEDFE0B51EC180BB0
:1055500053EC102B03F000FB02D2FC490020C87072
:105560009FEDFB0B51EC180B53EC102B03F02EFCB2
:1055700009D853EC192B51EC180B03F0EDFA02D2B9
:10558000F2490120C8709FEDF49B51EC180B53ECCD
:10559000192B03F01BFC0DD2B0EE4F0AF0EE6F0A90
:1055A00053EC102B51EC180B03F0D6FA02D8E74954
:1055B0000120C8709FEDE30B51EC180B53EC102B3E
:1055C00003F004FC09D853EC192B51EC180B03F031
:1055D000C3FA02D8DD490020C87000202521CDE99A
:1055E000000103460246212101F09CFFFBF7A0FECB
:1055F000FBF7D2FD1FED4D0A0DF580504FF0000A6C
:1056000080ED120A80ED110AD048D0494089B1F8E6
:105610000C80A0EB080003F074FA53EC1A2B03F093
:10562000D7FA53EC1B2B03F0D3FA02F0FFFF01462D
:1056300042F27C00684440F82A10C4480089A0EB7C
:10564000080003F05EFA53EC1A2B03F0C1FA53EC96
:105650001B2B03F0BDFA02F0E9FF014641F27C008A
:10566000684440F82A10242002F010F80AF1010AD8
:10567000BAF5806FC8DB42F27C016944A1F5805025
:10568000FFF7AAF843F69401CDF800B06944A1F100
:105690001800059B029AFBF765F80DF11C0A0AF544
:1056A0008351524601F52050FAF7E6FF0DF5805080
:1056B000012101620A9803F0B5FC41EC180B09982E
:1056C00003F0B0FC41EC100BB0EE481AF0EE681A93
:1056D000FEF702FF43F27C01B0EE409AF0EE609AD2
:1056E00069445046029AFAF7AFFE0DF5815343F232
:1056F0007C0003F1280268440499FBF76DF80DF56E
:105700008050D0ED120A1FED8A0ADFF8548280EE35
:10571000801ABCEEC10A10EE100A80B203F008FA3B
:105720001FED8F1B53EC112B03F066F803F0BCF94F
:1057300042F27C01A8F800006944524601F5C050CD
:10574000FAF79AFF0DF58050006A0AEBC008D8F806
:10575000040003F067FC41EC180BD8F8000003F0DC
:1057600061FC41EC100BB0EE481AF0EE681AFEF73F
:10577000B3FE43F27C01B0EE408AF0EE608A6944E9
:105780005046029AFAF760FE0DF5815343F27C0011
:1057900003F1240268440499FBF71EF80DF58050CC
:1057A000406C03F03FFC1FEDAE1B53EC112B03F0DC
:1057B0000FFA03F079F901466A48016040F213508C
:1057C000814203D86749002008607EE15F48654A4E
:1057D000408A48434FF47A71B0FBF1F01060002822
:1057E000F3D053EC182B51EC190B03F031FB02F002
:1057F0001DFF00EE100AFAF7BFFD5FEDC70A20EEAD
:10580000200ABCEEC00A10EE100A574953EC182BC0
:10581000087051EC190B03F01BFB8A464AEC100B85
:10582000804651EC100B02F001FF00EE100AFAF76F
:10583000A3FDB0EE408A4AEC108B51EC100B02F045
:10584000F5FE00EE100AFAF797FDF0EE400AB7EE0B
:10585000000A41F24C0008EE600A6844FFF73AF88B
:105860003F48404900880968484300EE100A0DF59A
:105870008051F8EE400A91ED130A20EE801AF2EE04
:10588000040AC1EE201AFCEEE10ACDED030A00EE97
:10589000900AF8EE600A60EE800A1FEDE30A3349D1
:1058A00080EE801ABCEEC10A10EE100A08800020BB
:1058B0004021CDE9000103460246212101F032FEDC
:1058C000FBF746FDFBF778FC9FED290A0DF58050AC
:1058D0004FF0000A80ED120A80ED110A1B48418941
:1058E000B0F80C80A1EB080003F00BF953EC1A2B75
:1058F00003F06EF953EC1B2B03F06AF902F096FEED
:10590000014642F27C00684440F82A100F480089A2
:10591000A0EB080003F0F5F853EC1A2B03F058F94C
:1059200053EC1B2B03F054F902F080FE014641F2C8
:105930007C00684440F82A10242001F0A7FE0AF1F8
:10594000010A17E000000000008066C0000000208F
:105950000000000000207CC000000000008056C055
:1059600024010020340100201F0100202A01002012
:1059700000000000BAF5806FB0DB42F27C016944A0
:10598000A1F58050FEF728FF43F69401CDF800B052
:105990006944A1F11800059B029AFAF7E3FE07AAF1
:1059A00002F5835101F52050FAF766FE0DF580509F
:1059B000012101620A9803F035FB41EC180B0998AC
:1059C00003F030FB41EC100BB0EE481AF0EE681A11
:1059D000FEF782FD43F27C01B0EE409AF0EE609A51
:1059E000694407A8029AFAF72FFD0DF5815343F297
:1059F0007C0003F1280268440499FAF7EDFE0DF5E6
:105A00008050D0ED120A9FEDF70A80EE801ABCEEAE
:105A1000C10A10EE100A80B203F08AF89FEDF21B63
:105A200053EC112B02F0E8FE03F03EF8F04907AA10
:105A3000088042F27C01694401F5C050FAF71CFE6F
:105A40000DF5805007A9006A01EBC008D8F80400E2
:105A500003F0E8FA41EC180BD8F8000003F0E2FA82
:105A600041EC100BB0EE481AF0EE681AFEF734FD68
:105A700043F27C01B0EE408AF0EE608A694407A8E8
:105A8000029AFAF7E1FC0DF5815343F27C0003F131
:105A9000240268440499FAF79FFE0DF58050406C8B
:105AA00003F0C0FA9FEDD31B53EC112B03F090F8D9
:105AB00002F0FAFF0146D148016040F213508142E2
:105AC00005D8CE490020086027E163209DE6CC4838
:105AD000428ACA484A434FF47A71B2FBF1F101603D
