:020000040800F2
:1000000028910120690200082B210008651C0008C6
:1000100029210008E91600083D3F00080000000003
:10002000000000000000000000000000AD390008E2
:100030007517000800000000EB020008393B0008BB
:10004000830200088302000883020008830200087C
:10005000830200088302000883020008830200086C
:10006000830200088302000883020008830200085C
:10007000830200088302000883020008830200084C
:10008000830200088302000883020008830200083C
:10009000830200088302000883020008830200082C
:1000A000830200088302000883020008830200081C
:1000B0008302000883020008B93B0008830200089D
:1000C00083020008830200088302000883020008FC
:1000D00083020008830200082D3D0008D53D00087A
:1000E00083020008830200088302000883020008DC
:1000F00083020008830200088302000883020008CC
:1001000083020008830200088302000883020008BB
:1001100083020008830200088302000883020008AB
:10012000830200088302000883020008830200089B
:10013000830200088302000883020008830200088B
:10014000830200088302000883020008830200087B
:10015000830200088302000883020008830200086B
:10016000830200088302000883020008830200085B
:10017000830200088302000883020008830200084B
:10018000830200088302000800F002F800F05CF827
:100190000AA090E8000C82448344AAF10107DA45E2
:1001A00001D100F051F8AFF2090EBAE80F0013F0D8
:1001B000010F18BFFB1A43F00103184744DE00008B
:1001C00064DE00000A444FF0000C10F8013B13F00D
:1001D000070408BF10F8014B1D1108BF10F8015BA0
:1001E000641E05D010F8016B641E01F8016BF9D193
:1001F00013F0080F1EBF10F8014BAD1C0C1B09D1EA
:100200006D1E58BF01F801CBFAD505E014F8016B5B
:1002100001F8016B6D1EF9D59142D6D370470000ED
:100220000023002400250026103A28BF78C1FBD8FF
:10023000520728BF30C148BF0B6070471FB507F099
:10024000ECFA1FBD10B510BD00F054FF1146FFF7CA
:10025000F5FF06F069F900F072FF03B4FFF7F2FF53
:1002600003BC00F073FF00000948804709480047BD
:10027000FEE7FEE7FEE7FEE7FEE7FEE7FEE7FEE756
:10028000FEE7FEE704480549054A064B70470000B3
:100290005D3B000889010008288B0120289101207E
:1002A000288D0120288D0120EFF3108072B6704751
:1002B00080F3108870471D484FF0FF010170002047
:1002C00080F309881A48012101701A484FF08051C3
:1002D000016062B6FEE717484FF080510160704739
:1002E00014484FF080510160704772B6EFF30980F7
:1002F00028B1203880E8F00F0F490968086000B580
:100300000E4880475DF804EB0D480E490A780270EC
:1003100009480D490A680260106890E8F00F203023
:1003200080F309884EF0040E62B6704722ED00E0BB
:100330005700002004ED00E070000020112B0008A1
:1003400054000020550000207800002072B670474D
:1003500062B67047EFF3108072B6704780F3108872
:100360007047B0FA80F0704790FAA0F0704730BF45
:10037000704720BF70470000DFED2E0AB5EEC00ABF
:1003800060EE200ABDEEE01A11EE100AF1EE10FA4E
:1003900038BF401E00EE100ADFED271AF7EE005AB4
:1003A000B8EEC00ADFED274A244930EEC01A21EE2C
:1003B000210AFCEEC00A10EE900A00EE900A01EB52
:1003C0008000B8EE600ADFED1E0AF0EC012A11EEA3
:1003D000210AF6EE001AB0EC013AF0EC013A20EEF8
:1003E000001A20EE216A40EE615A20EE245A21EED6
:1003F000212A90ED004A00EE602A66EE010A40EEE6
:10040000400A05EE412A70EEA55AF0EE400A41EE90
:10041000210A46EE410A25EE011A00EE641A22EE88
:10042000820A63EEA00A03EE250A44EE010A30EECA
:10043000200A704783F9223E00008043507900086B
:10044000ABAAAA3EABAA2A3E9FED3A0A5FEA920CFB
:1004500053D000BFB0EC011A0B1DF0EC010A21EEE5
:10046000011A00EEA01AB5EEC01AF1EE10FAC6BFDE
:10047000F1EEC10AC1ED000A81ED000AF0EC010ABB
:10048000191DB0EC011A60EEA00A41EE010AF5EE6A
:10049000C00AF1EE10FAC6BFF1EEE00AC3ED000AA1
:1004A00083ED000AB0EC011A0B1DF0EC010A21EEFD
:1004B000011A00EEA01AB5EEC01AF1EE10FAC6BF8E
:1004C000F1EEC10AC1ED000A81ED000AB0EC011A9B
:1004D000191DF0EC010A21EE011A00EEA01AB5EE8A
:1004E000C01AF1EE10FAC6BFF1EEC10AC3ED000A60
:1004F00083ED000ABCF1010CACD112F0030208BF7D
:10050000704700BFF0EC010A0B46B0EC011A091D60
:1005100060EEA00A41EE010AF5EEC00AF1EE10FA13
:10052000C6BFF1EEE00AC3ED000A83ED000A521ED9
:10053000E8D17047000000002DE9F00700EBC10989
:10054000DDE90778D0F800A0C9F800A007EB011496
:10055000D0F804A0251FA9F10406C9F804A003EBF4
:10056000C80907F1080C00F1080402EBC8024B1E91
:1005700031D000BFF2EC011A96ED002A92ED001A7C
:1005800002EBC802B4EC010A121FF4EC012A60EE7F
:10059000210A20EE010A32EE823A02EEA10AD9EDDA
:1005A000001A43EE410A09EBC80902EE610A16ED92
:1005B000012A083E42EE210A02EE410AECEC010A51
:1005C000ACEC010AB1EE400A85ED000A45ED010AE6
:1005D000083D5B1ECED190ED000AD0ED010A07EB7D
:1005E000C10130EE600A81ED000A9FED5D0A81EDE8
:1005F000010AD0ED000A90ED011A70EE810AC7EDF4
:10060000000A87ED010ABDE8F007704770B400EBFF
:10061000C105DDE903C42D1D002904BF70BC70476E
:10062000F2EC011A95ED002A92ED001A02EBC402D9
:10063000B0EC010A121FF0EC012A60EE210A20EE54
:10064000410A32EE823A02EEA10AD3ED001A43EEDD
:10065000010A03EBC40302EE610A15ED012A083D0D
:10066000491E42EE210A02EE010AECEC010AACEC52
:10067000010AD5D170BC70472DE9F04305464469A5
:10068000807983B00F461646012809D0A3892188B6
:100690003846626800F036F9E87901284ED053E018
:1006A000AA88D5E9030307EBC20CD5F808803146C8
:1006B0000CF1040C5AB300BFB0EC011A9CED002AF7
:1006C000D0ED001A00EBC800B7EC010A001FF7ECF0
:1006D000012A521E60EE010A20EE610A32EE823AD1
:1006E00002EE810A93ED001A43EE210A03EBC803E0
:1006F00002EE410A1CED012AACF1080C42EE010A9F
:1007000002EE210AE1EC010AA1EC010AD4D194ED38
:10071000040AA38921883046626800F095FAE879D6
:1007200001281CBF03B0BDE8F083E2892188A368DB
:1007300003B03046BDE8F04300F08CB8E289218870
:100740003846A36800F086F8A868CDE90060D5E9CE
:100750000323A9883846FFF7EFFE03B0BDE8F08316
:100760000000000070B592B2DDF810C055080260BC
:100770008580184EC66006F50056DBB2066100247F
:10078000837180F807C0802A04BF102282600BD0DA
:10079000B2F5007F08BF042212D0B2F5006F14BF7B
:1007A0004FF0FF3401220BD0002B8C4641614FF0FB
:1007B000000307D001222946604600F015FC06E040
:1007C0008260F1E700222946604600F00DFC2046D9
:1007D00070BD00005C7D000870B40025B0EC010A1B
:1007E000A1F1010CF0EC010AB4EEE00AF1EE10FA0E
:1007F0003CBFB0EE600A0125ACF10104A446B4F19F
:10080000004F0ED3F0EC010AB4EEE00AF1EE10FA5C
:100810003CBFB0EE600AA1EB0C05BCF1010CF1D1BC
:1008200013E0002CC8BF00260FDD00BFF0EC010A6A
:10083000B4EEE00AF1EE10FA04D2ACEB0605B0EE2D
:10084000600A4D1B761C641EF0D182ED000A1D600B
:1008500070BC70472DE9F0014E0801244FF0000CE8
:1008600004EB51076146A6F102082CE061452AD24B
:1008700000EBCC0500EBC104D5ED000A94ED000AB5
:10088000C4ED000A85ED000AD5ED010A94ED010AD8
:10089000C4ED010A85ED010A0CEB0705CC1900EB4C
:1008A000C50500EBC404D5ED000A94ED000AC4EDC3
:1008B000000A85ED000AD5ED010A94ED010AC4EDA8
:1008C000010A85ED010A00EBC104B44400EBCC0C35
:1008D00094ED020ADCED000A891CC4ED020A8CEDDD
:1008E000000A94ED030ADCF80450E5608CED010A7F
:1008F000B3F800C089B203EB42034145B6D9BDE865
:10090000F00170472DE9F04F4FEA910C4FF00008CD
:100910004746644608EB0C0505EB0C0909EB0C0691
:1009200000EBC80A00EBC9099AED000AD9ED000AEC
:1009300099ED012A00EBC50530EE201A30EE600A71
:10094000DAED010A00EBC60608F1010870EE821A22
:1009500070EEC20A95ED002AD6ED002A641E32EE32
:10096000222A71EE022A31EE421ACAED002A95EDD2
:10097000012AD6ED012A32EE222A71EE822A71EE88
:10098000C21ACAED012A95ED012AD6ED012A96ED8B
:10099000003A4FEA470A32EE622AD5ED002A02EB0E
:1009A000CA0B72EEC32A9BED003ADBED013A21EE51
:1009B000034A01EEA34A61EE831A41EE631A85ED04
:1009C000004A30EE021A30EE420AC5ED011A02EB7F
:1009D000C70570EEE21A95ED002A70EEA20AD5ED79
:1009E000012A21EE023A0AEB070502EBC5051F4476
:1009F00001EEA23A61EE821A41EE621A89ED003AE6
:100A0000C9ED011AD5ED001A95ED011A20EE212A43
:100A100000EE812A60EEA10A40EE410A86ED002A2E
:100A2000C6ED010A7FF476AF9B044FEA134BE6460E
:100A3000BCF1040F7DD9E0464FEA9C0C4FF0000951
:100A4000CA46BCF1000F75D94FEA490404EB09030B
:100A500002EBC90502EBC40402EBC30395ED001AD7
:100A6000D5ED011A94ED000AD4ED010A93ED002AA8
:100A7000D3ED012AD94453468A4573D203EB0C04C3
:100A800004EB0C0606EB0C0500EBC30700EBC606F7
:100A900097ED003AD6ED003A96ED015A00EBC4040A
:100AA00073EE234A33EE633AD7ED013A00EBC50506
:100AB00033EE854A73EEC53A94ED005AD5ED005AEF
:100AC00035EE255A74EE855A74EEC54AC7ED005AC4
:100AD00094ED015AD5ED015A35EE255A74EE055ABA
:100AE00034EE454AC7ED015A94ED015AD5ED015A4D
:100AF00095ED006A35EE655AD4ED005A75EEC65A8A
:100B000024EE806A04EE206A24EE004A04EEE04AF5
:100B100084ED006A73EEE54A73EEA53A84ED014A6E
:100B200033EE054A33EE453A24EE015A04EEA15A5B
:100B300001E026E01BE064EE814A86ED005A434462
:100B40008B4244EE614A23EE024A03EEA24A63EE70
:100B5000823AC6ED014A43EE623A85ED004AC5EDA0
:100B6000013A8BD30AF1010AE245FFF46DAF4FEA77
:100B70008B434FEA9E0E4FEA134BBEF1040F3FF634
:100B80005AAFA1EB0C0100224B1C4FEA9C04002B36
:100B90008CBF1F46BDE8F08F11190E19331900EBF9
:100BA000C20500EBC60695ED000AD6ED000A95EDEC
:100BB000012A96ED011A70EE201A70EE600A32EEEC
:100BC000010A00EBC10100EBC30332EE411A91EDC3
:100BD000002AD3ED002A6244974232EE222A71EEB7
:100BE000822A31EEC22AC5ED002AD1ED011AD3EDD9
:100BF000012A71EEA21A70EE212AC5ED012A70EECB
:100C0000612A91ED010AD3ED011A93ED003A70EEDD
:100C1000611A91ED000A81ED002AC1ED012A30EE42
:100C2000430A30EEA12A70EEE10A71EE401A31EE6D
:100C3000000A86ED002AC6ED011AC3ED000A83ED15
:100C4000010AA9D8BDE8F08F2DE9F04F4FEA910CC9
:100C50004FF000084746644608EB0C0505EB0C0A0C
:100C60000AEB0C0600EBC80900EBCA0AD9ED000A32
:100C70009AED001ADAED012A00EBC50570EE811A33
:100C800070EEC10A99ED011A00EBC60608F10108E1
:100C900031EE222A31EE621AD5ED002A96ED003AA5
:100CA000641E72EE832A31EEA23A71EEE21A89EDE9
:100CB000003AD5ED012A96ED013A72EE832A32EE22
:100CC000223A32EE622A89ED013AD5ED012A96EDFB
:100CD000013AD6ED003A4FEA470972EEC32A95ED84
:100CE000003A02EBC90B33EE633ADBED003A9BEDC1
:100CF000014A61EEA34A42EE444A22EE232A01EE63
:100D0000842AC5ED004A70EEE21A70EEA20A85ED63
:100D1000012A02EBC70531EE032AD5ED002A31EE98
:100D2000431A95ED013A61EEA23A09EB070502EB91
:100D3000C5051F4442EE433A22EE222A01EE832AE1
:100D4000CAED003A8AED012AD5ED001A95ED012A87
:100D500060EEA12A41EE422A21EE211A00EE821A0B
:100D6000C6ED002A86ED011A7FF476AF9B044FEAA8
:100D7000134BE646BCF1040F7DD9E0464FEA9C0CCC
:100D80004FF00009CA46BCF1000F75D94FEA49047B
:100D900004EB090302EBC90502EBC40402EBC30335
:100DA000D5ED001A95ED012AD4ED000A94ED011A53
:100DB000D3ED002A93ED013AD94453468A4573D2C4
:100DC00003EB0C0404EB0C0606EB0C0500EBC3076D
:100DD00000EBC606D7ED003A96ED004AD6ED015A73
:100DE00000EBC40433EE845A73EEC43A97ED014A23
:100DF00000EBC50574EE254A34EE654AD4ED005A81
:100E000095ED006A75EE865A35EE256A35EE655A1F
:100E100087ED006AD4ED015A95ED016A75EE865AA8
:100E200034EEA56A74EEE54A87ED016AD4ED015A05
:100E300095ED016AD5ED006A75EEC65A94ED006A2B
:100E400036EE666A65EE206A44EEC16A64EEA04A38
:100E500045EE014AC4ED006A34EE065A34EE464AC5
:100E6000C4ED014A73EEE54A73EEA53A64EEA15A69
:100E700045EE425A01E026E01BE025EE215AC6ED80
:100E8000005A43448B4204EE825A63EEA24A44EE77
:100E9000434A24EE224A86ED015A03EE834AC5ED09
:100EA000004A85ED014A8BD30AF1010AE245FFF4BD
:100EB0006DAF4FEA8B434FEA9E0E4FEA134BBEF1E4
:100EC000040F3FF65AAFA1EB0C0100224B1C4FEA76
:100ED0009C06002B8CBF1F46BDE8F08F91198D1921
:100EE000AB1900EBC20400EBC505D4ED000AD5ED4B
:100EF000001AD4ED012A95ED012A30EEA11A70EE08
:100F0000E11A72EE820A00EBC10100EBC30332EE7C
:100F1000C22AD1ED002A93ED003A6244974272EE64
:100F2000832A31EE223A71EE622A23EE003A62EE13
:100F3000802A84ED003A91ED011A93ED013A31EEE9
:100F4000031A30EE813A23EE003A84ED013A30EE96
:100F5000C13AD1ED010A93ED011AD3ED003A30EE1A
:100F6000C11AD1ED000AC1ED002A63EE002A70EE2D
:100F7000E30AC1ED012A71EEC12A31EE811A72EE47
:100F8000201A72EE600A22EE802A21EE001A61EE2B
:100F9000801A85ED002A60EE800AC5ED011A83ED06
:100FA000001AC3ED010A99D8BDE8F08F30B50446A8
:100FB0000D4680782188A389626801280DD02846D3
:100FC000FFF7A0FCE078012818BF30BDE289218836
:100FD0002846A368BDE830403CE494ED040A284666
:100FE000FFF732FEEEE7000010B401801B4C4460B6
:100FF00082704FF0000CC370102925D040291BD0FF
:10100000B1F5807F10D0B1F5806F18BF4FF0FF3C75
:1010100002D010BC6046704701218181C181104916
:101020009FED100A816016E004218181C1810E4983
:101030009FED0E0A81600EE010218181C1810C4973
:101040009FED0C0A816006E040218181C1810A493F
:101050009FED0A0A816080ED040ADAE75CBD0008B2
:101060005CDD00080000803A62DD00080000803B83
:101070007ADD00080000803CDADD00080000803DD9
:1010800010B5203AC0F00B80B1E81850203AA0E823
:101090001850B1E81850A0E81850BFF4F5AF5FEA57
:1010A000027C24BFB1E81850A0E8185044BF18C90A
:1010B00018C0BDE810405FEA827C24BF51F8043BB1
:1010C00040F8043B08BF7047D20728BF31F8023B05
:1010D00048BF11F8012B28BF20F8023B48BF00F899
:1010E000012B7047704770477047000000487047F9
:1010F000C88A01207546FFF7F9FFAE46050069462C
:10110000534620F00700854618B020B5FFF7BAF81F
:10111000BDE820404FF000064FF000074FF00008F8
:101120004FF0000B21F00701AC46ACE8C009ACE879
:10113000C009ACE8C009ACE8C0098D467047044658
:10114000AFF300802046FFF788F870470149182068
:10115000ABBEFEE72600020010B5064C01220023BC
:101160001146204600F060F92046BDE8104000F02E
:1011700095B900000020014010B5064C0023012263
:101180000C21204600F050F92046BDE8104000F048
:1011900085B900000020014010B5064C0023012253
:1011A0000421204600F040F92046BDE8104000F040
:1011B00075B900000020014010B5064C0023012243
:1011C0000721204600F030F92046BDE8104000F02D
:1011D00065B900000020014010B5064C0023012233
:1011E0000D21204600F020F92046BDE8104000F017
:1011F00055B900000021014010B5064C0023012222
:101200000E21204600F010F92046BDE8104000F005
:1012100045B900000021014010B5064C0023012211
:101220000F21204600F000F92046BDE8104000F0F4
:1012300035B900000021014070B59CB001212F4854
:1012400002F03CFA01214FF4E06002F05BFA4FF04B
:10125000007000902A4801902A4802A90024012524
:1012600031C1E802CDE906408000089040110990A4
:101270000AA90594400231C1234E0D9469463046B7
:101280000E9400F04DFA0121304600F03EFA0320A2
:101290008DF8680019958DF86B4019A91B4800F06E
:1012A0006BFA15941694179415A8189400F06AF820
:1012B0000F948DF8404011941394114C8DF84150C7
:1012C0004C3C8DF850500FA9204600F087F80023C1
:1012D00001220821204600F0A7F80121204600F055
:1012E00073F80121204600F065F80121204600F046
:1012F0003FF8204600F0D2F81CB070BD020040005C
:101300004C2101400C0000204064024000040240D7
:1013100010B5064C002301220A21204600F084F873
:101320002046BDE8104000F0B9B80000002201409E
:1013300010B5064C002301220B21204600F074F862
:101340002046BDE8104000F0A9B80000002201408E
:1013500010B5064C002301220C21204600F064F851
:101360002046BDE8104000F099B80000002201407E
:101370000029816802D041F0010101E021F0010162
:1013800081607047094B10B51A68094902EA0102E9
:10139000D0E9001441EA0401D0E9024044EA000423
:1013A00041EA040141EA0201196010BD0423014031
:1013B000E030FCFF0029816802D041F4807101E037
:1013C00021F48071816070470029816802D041F466
:1013D000007101E021F400718160704730B542680E
:1013E0000F4B0C791A400B6842EA04221343436006
:1013F00082680C4B4D791A40D1E9034323438C6832
:1014000044EA4504234313438360C26A097D22F4FE
:101410007002491EC9B242EA0151C16230BD0000EA
:10142000FFFEFFFCFDF7FFC070B5072509290AD9AB
:10143000C468A1F10A0606EB4606B540AC43B340CA
:101440001C43C46007E0046901EB4106B540AC43AE
:10145000B3401C4304611F23072A09D2446B521E68
:1014600002EB820293409C4391400C43446370BD65
:101470000D2A09D2046BD21F02EB820293409C43D7
:1014800091400C43046370BDC46A0D3A02EB8202C2
:1014900093409C4391400C43C46270BD816841F00D
:1014A00080418160704700F009BC10B5044600F02F
:1014B000CDFCA02000F08CFC00F01CFD200A00F008
:1014C00087FC00F017FDE0B200F082FC00F012FD96
:1014D00000F0BCFCA12000F07BFC00F00BFD002024
:1014E00000F03AFC044600F0DBFC204610BD70B56D
:1014F00004460D4600F0AAFCA02000F069FC00F0B4
:10150000F9FC200A00F064FC00F0F4FCE0B200F00A
:101510005FFC00F0EFFC284600F05AFC00F0EAFC0B
:1015200000F0BEFCBDE870400A2004F02BBD7047FF
:1015300010B586B0002000F017FF1F4C606100203E
:1015400000F012FFA061002001F000F8E06100202F
:1015500000F00AFF2062194801AC032300224FF477
:1015600020510FC4012003460090154A0021154860
:1015700001F01AF98DF8140005AA13A10A2001F050
:1015800071F90E4A0423121F0021124801F0C4F819
:101590000323114A0021114801F0BEF80223104A2A
:1015A0000021104801F0B8F800230F4A19460F48EF
:1015B00001F0B2F806B010BD000000205823002052
:1015C00054C30020B1160008537461727420546132
:1015D000736B0000F715000854D300206116000853
:1015E000547301200516000854740120493900087D
:1015F00001F0CABC704704F081FE642004F0C2FC14
:10160000F9E700000C4C0D4E0D4F6F2540F2DC58F1
:10161000E07910B9022001F023FAE0790128F7D12E
:101620003570F86901F018F81020FFF73EFF607080
:10163000404604F0A7FCEBE7667401200901002096
:101640000000002010B501F04BF8FFF771FFBDE876
:1016500010400A2001F004BA704701F09DBC000060
:1016600008B5114C6A460021E06900F095FF0F4B68
:101670000D4AA3F58471921DA1F5847005F0E8F878
:101680000A4B094AA3F58471921DA1F5847004F0F8
:10169000C3FC064B044AA3F58471921DA1F5847026
:1016A00003F062F9DEE700000000002044030020A0
:1016B00008B50A4C0A4D1426E079012801D101F041
:1016C000CFF96A460021686900F074FE04F0E4FF77
:1016D000EE811020FFF7E9FE6070EDE766740120EF
:1016E0000000002001F06ABCFEE770B50025002470
:1016F0000021284602F04AFC641CE4B2042CF7D313
:101700006D1CEDB2162DF2D370BD0029016802D018
:1017100041F0010101E021F001010160704700008A
:1017200030B50368124ACC6813400A682243D1E9F5
:1017300005452C432243CC6922430C6A22434C6A60
:1017400022438C6A22434C6B22438C6B22431A4304
:101750000260426922F00703D1E90B2422431A43B5
:1017600042610A6942604A6882608968C16030BD2E
:101770003F801CF070470000F0B5002201234FF0BD
:10178000030C00BF0D6803FA02F42540A5422DD1D9
:10179000066854000CFA04F5AE4306600E7907683B
:1017A000A6403E4306600E79012E01D0022E12D1D2
:1017B0008668AE4386604D798668A540354385606E
:1017C000456803FA02F6B543456045688E79964050
:1017D000B6B235434560C56856000CFA06F7BD43FE
:1017E000C560CD79A540C4682543C560521C102A48
:1017F000C8D3F0BD4B07DB0E9A40C90810B500EB0B
:101800008100016A0F249C40A1430162016A1143D7
:10181000016210BD0246002012690A4200D0012078
:101820007047418370470183704700002DE9F047FE
:1018300004460E4601210B2002F0A8FB01210D20D9
:1018400002F0A4FB08210E2002F0A0FB08211120C9
:1018500002F09CFB4FF06408274FB4FBF8F5397891
:10186000DFF89890012905D109EB450102220F20EC
:1018700002F066FB387818B90221102002F086FBCE
:1018800008FB15400A25B0FBF5F009EB40014F4677
:101890000222132002F054FBB4FBF5F005FB1040CC
:1018A000B0FBF5F105FB110007EB4001022211200E
:1018B00002F046FBB6FBF8F4DFF840900222A9F1F3
:1018C000140909EB4401104602F03AFB08FB1460CE
:1018D000B0FBF5F009EB40010222052002F030FBDD
:1018E000B6FBF5F005FB106007EB4001BDE8F047E3
:1018F0000222082002F024BB03000020F000002098
:101900002DE9F041044601210C2002F03FFB0821A3
:10191000112002F03BFB42F21077B4FBF7F51D4EAD
:10192000A8B206EB400102220F2002F009FB07FBE0
:1019300015404FF47A75B0FBF5F006EB400102223A
:10194000132002F0FDFAB4FBF5F005FB104064250E
:10195000B0FBF5F006EB40010222112002F0F0FA94
:10196000B4FBF5F005FB10400A25B0FBF5F0143E82
:1019700006EB40010222002002F0E2FAB4FBF5F08F
:1019800005FB104006EB4001BDE8F0410222104685
:1019900002F0D6BAF00000202DE9F04704460D46CB
:1019A0000421072002F0F2FA0821112002F0EEFAD9
:1019B0006427B4FBF7F6DFF87880022208EB4601D3
:1019C0000F2002F0BDFA07FB16400A26B0FBF6F026
:1019D00008EB40010222132002F0B2FAB4FBF6F049
:1019E00006FB104008EB40010222112002F0A8FA89
:1019F000B5FBF7F4A8F11409022209EB44011046E3
:101A000002F09EFA07FB1450B0FBF6F009EB400120
:101A10000222052002F094FAB5FBF6F006FB105006
:101A200008EB4001BDE8F0470222082002F088BA26
:101A3000F00000202DE9F041044601210A2002F0C7
:101A4000A5FA0821112002F0A1FA42F21076B4FBA7
:101A5000F6F51E4FA8B207EB40010222112002F05A
:101A60006FFA06FB15404FF47A76B0FBF6F0A7F15B
:101A7000140505EB40010222002002F061FAB4FBDC
:101A8000F6F006FB10406426B0FBF6F005EB4001D3
:101A90000222104602F054FAB4FBF6F006FB1040A6
:101AA0000A26B0FBF6F005EB40010222052002F009
:101AB00047FAB4FBF6F006FB104007EB4001BDE827
:101AC000F0410222082002F03BBA0000F0000020A2
:101AD0002DE9F04104460821012002F057FA0421C3
:101AE000072002F053FA6426B4FBF6F50F4F0222EA
:101AF00007EB4501104602F023FA06FB15400A25C4
:101B0000B0FBF5F007EB40010222052002F018FAC5
:101B1000B4FBF5F005FB104007F11401BDE8F041FE
:101B200001EB40010222082002F00ABADC0000208A
:101B30002DE9F04104460121042002F027FA082192
:101B4000112002F023FA6426B4FBF6F50F4F0222AF
:101B500007EB4501104602F0F3F906FB15400A2594
:101B6000B0FBF5F007EB40010222052002F0E8F996
:101B7000B4FBF5F005FB104007F11401BDE8F0419E
:101B800001EB40010222082002F0DAB9DC0000205B
:101B90002DE9F04104460421084602F0F7F902213C
:101BA0000A2002F0F3F90821112002F0EFF964266F
:101BB000B4FBF6F50F4F022207EB4501104602F089
:101BC000BFF906FB15400A25B0FBF5F007EB400115
:101BD0000222052002F0B4F9B4FBF5F005FB104039
:101BE00007F11401BDE8F04101EB40010222082099
:101BF00002F0A6B9DC0000201CB50121022001F092
:101C00005DFD4FF43870009001208DF80400002035
:101C10008DF806000220124C8DF80500694620461A
:101C2000FFF7AAFD61152046FFF7FDFD20212046A4
:101C3000FFF7F9FD40212046FFF7F5FD8021204602
:101C4000FFF7F1FD022001F0DDFE292001F0DAFEB0
:101C5000012001F0D7FE032001F0D4FE1CBD0000DE
:101C600000040240FEE700007CB5134E4FF400551F
:101C700029463046FFF7D5FD01208DF804000220EB
:101C80006C008DF80500009469463046FFF774FD3E
:101C900021463046FFF7C5FD022004F091F92946A0
:101CA0003046FFF7C0FD022004F08AF9294630468D
:101CB000FFF7B7FD7CBD0000000402401CB5012108
:101CC000022001F0FBFC4FF4E040009001208DF871
:101CD000040002200A4C8DF8050069462046FFF7F3
:101CE0004BFDA1142046FFF79CFD4FF40051204608
:101CF000FFF799FD4FF480412046FFF794FD1CBD8E
:101D0000000402407CB5134E4FF40055294630467E
:101D1000FFF787FD01208DF8040002206C008DF88C
:101D20000500009469463046FFF726FD21463046FF
:101D3000FFF779FD022004F043F929463046FFF70A
:101D400072FD022004F03CF929463046FFF769FD98
:101D50007CBD0000000402402DE9FC4700241B4E1E
:101D600080464FF480478DF8044000978DF8074077
:101D700069463046FFF700FD0025B9467F10394619
:101D80003046FFF74EFD022004F01AF9394630467E
:101D9000FFF749FD6006040E49463046FFF73AFD5D
:101DA00008B1641CE4B2012004F00AF96D1CEDB224
:101DB000082DE4D3B8F1000F04D0FFF755FF2046FB
:101DC000BDE8FC87FFF79EFFF9E700000004024032
:101DD0002DE9FC47054601208DF8040002201A4E2B
:101DE0004FF480478DF80500009769463046FFF7AD
:101DF000C3FC4FF4005841463046FFF712FDB94688
:101E00000024474628064946304602D4FFF709FD1C
:101E100001E0FFF708FD6806050E022004F0D0F887
:101E200039463046FFF7FFFC022004F0C9F8394676
:101E30003046FFF7F6FC022004F0C2F8641CE4B25E
:101E4000082CDFD3BDE8FC87000402407CB50120EC
:101E50008DF804000220114D4FF480448DF80500E8
:101E6000009469462846FFF787FC21462846FFF77D
:101E7000DAFC661031462846FFF7D5FC032004F053
:101E80009FF821462846FFF7CCFC032004F098F881
:101E900031462846FFF7C5FC7CBD00000004024027
:101EA0007CB501208DF804000220114D4FF48044D0
:101EB0008DF80500009469462846FFF75DFC661022
:101EC00031462846FFF7ADFC21462846FFF7A9FC1E
:101ED000032004F075F831462846FFF7A4FC21469C
:101EE0002846FFF7A0FC032004F06AF87CBD000040
:101EF000000402402DE9FC410024184E4FF48045B7
:101F00008DF8044000958DF8074069463046FFF78C
:101F100033FC29463046FFF786FC012004F050F8D8
:101F20006F1039463046FFF77EFC012004F048F878
:101F300008E0641CE4B2FA2C04D9FFF7B1FF0120D9
:101F4000BDE8FC8129463046FFF764FC0028F0D14B
:101F500039463046FFF765FC0020F1E700040240F7
:101F60002DE9F0479CB001215E4801F0A7FB01215B
:101F70004FF4E06001F0C6FB4FF0806000905A48DB
:101F800001900125594802A9002431C106A8EE029A
:101F90006F034FF480784FF400390594A0E8D00324
:101FA000CDE90B45DFF848A10D94694650460E94E3
:101FB000FFF7B6FB01215046FFF7A7FB4D4802A9EA
:101FC000CDE900404948DFF828A1801C31C106A8AE
:101FD0000594A0E8D003CDE90B45AAF1180A0D94A9
:101FE000694650460E94FFF79BFB01215046FFF7D0
:101FF0008CFB68060090404801903C4802A9001DF7
:1020000031C106A80594A0E8D003394ECDE90B45AF
:1020100018360D94694630460E94FFF781FB012176
:102020003046FFF772FB3F20032615908DF858606D
:102030008DF85B4015A93148FFF79EFB9220159063
:102040008DF858608DF85B4015A92D48FFF794FB7B
:1020500017941894199417A81A94FFF793F90F94EA
:102060008DF84040119413941F4C8DF841504C3C16
:102070008DF850500FA92046FFF7B0F91E4D0FA95B
:102080004C3D2846FFF7AAF91A4E0FA94C3E3046A0
:10209000FFF7A4F901212046FFF796F90121284610
:1020A000FFF792F901213046FFF78EF90121204612
:1020B000FFF780F901212846FFF77CF9012130461E
:1020C000FFF778F901212046FFF752F90121284650
:1020D000FFF74EF901213046FFF74AF91CB0BDE881
:1020E000F0870000050040004C220140080000205D
:1020F000286402404C2001404C210140000802406D
:10210000000002401CB50121084601F0D7FA4FF447
:10211000C050009000208DF8040069460148FFF788
:102120002BFB1CBD00000240FEE770474FF4A0608F
:1021300000F032B870B50F21C478027801234FF057
:10214000E026E4B1124C246804F4E064C4F5E064D1
:10215000C4F30724C4F10405E1404478AC40857819
:102160000D4025430B4C29011155007800F01F014B
:102170008B40400906EB8000C0F8003170BD02F0D2
:102180001F008340500906EB8000C0F8803170BD0D
:102190000CED00E000E400E0024908430249086059
:1021A000704700000000FA050CED00E070470000E9
:1021B00070B505000E46144605D036B10E4880783D
:1021C00028B112200DE004200BE00C2009E0287853
:1021D000012808D0022806D0032804D0042802D001
:1021E0000120107070BDFEF75FF86E61FEF760F8B9
:1021F0000020207070BD00005000002030B587B076
:1022000000F070F82A48002404638470C4700472DB
:10221000C471C460C46184614461447084712146A6
:1022200000F134025454491CC9B20829FAD304718C
:1022300044718462046201F099F801F06BF801F0D6
:1022400043F801F0D5F801F0F9F802AA032520209F
:1022500031C218494FF6FF70CDE9000101F17C024F
:102260003F230021144800F09FFA05AA13A13F2044
:1022700000F0F8FA02AA402031C214494FF6FE706D
:10228000CDE9000101F1FC023E230021104800F0DD
:102290008BFA05AA0FA13E2000F0E4FA00F0E0FC62
:1022A00000F026F807B0BDE83040FFF77FBF000020
:1022B0005000002050770120F935000875432F4F5A
:1022C000532D49492049646C650000005076012077
:1022D0001536000875432F4F532D4949205374611B
:1022E0007400000001490020088070474C00002065
:1022F000704700000449C879012804D18878FF2874
:1023000001D2401C887070475000002070B5144DF9
:10231000E879012822D1FDF7C7FF0446A87820B14B
:10232000401E10F0FF00A87013D1E87888B901F0C2
:10233000C9F80C48697950F82100A8622A799142BD
:1023400007D0C16B491CC163E868401CE860FDF719
:10235000C7FF2046BDE87040FDF7AABF70BD000072
:1023600050000020D077012070B505460E48007857
:1023700008B1002070BDFDF797FF01460B480468C7
:102380000CB1626802600846FDF792FF4CB1012073
:1023900020700020208106A065606061204600F06A
:1023A00089FF204670BD0000520000206000002020
:1023B0003F0000002DE9F04705008846144604D090
:1023C0002878012803D001200AE0042008E02C48E6
:1023D000007808B1022003E02A48007820B10D20DF
:1023E00010700020BDE8F087FDF75EFF6E680746BD
:1023F00000213EB1884638466960FDF759FF84F8F0
:1024000000803AE0DFF880A08946DAF8000010F892
:10241000342F42F002020270417040F8048C2846CA
:1024200000F01AFF3846FDF743FF01F027F8FDF7EB
:102430003BFF0746DAF8000090F8351031B1022969
:1024400008D0294600F0D8FE0A2004E0466A84F845
:10245000009001E00E202070DAF80010384601F1FB
:102460001C0181F8189081F81990C1F80090C1F80A
:102470000490C1F80890FDF71BFF3046B2E700005A
:1024800052000020530000207000002070B50400AE
:102490000D4605D035B12078012805D0012070BD4A
:1024A000042070BD032070BDFDF7FEFE0646A07A35
:1024B00058B1002302222946204600F061FE304632
:1024C000FDF7F6FE00F0DAFF0AE0606820B1304662
:1024D000FDF7EEFE142070BD30466560FDF7E8FEA6
:1024E000002070BD10B5094CE07901280CD1FDF732
:1024F000DBFEA17821B9E178FF2901D2491CE17006
:10250000BDE81040FDF7D4BE10BD00005000002013
:1025100010B50D4CE079012814D1FDF7C5FEE17826
:1025200031B1491E11F0FF01E17001D1A17819B15B
:10253000BDE81040FDF7BCBEFDF7BAFEBDE8104097
:1025400000F09CBF10BD00005000002070B5054693
:102550000E48007808B1002070BDFDF7A5FE0146C9
:102560000B4804680CB1626802600846FDF7A0FEE3
:102570004CB10320207025810020606005A06061BF
:10258000204600F097FE204670BD0000520000205B
:10259000600000203F0000002DE9F047050088465C
:1025A000144604D02878032803D001200AE0042030
:1025B00008E02648007808B1022003E024480078AB
:1025C00018B10D201070BDE8F087FDF76DFE0646CE
:1025D0002889002730B1401E28813046FDF768FE6B
:1025E0002770F0E7DFF86C90D9F8000010F8341F7E
:1025F00041F001010170477040F8048C284600F05A
:102600002BFE3046FDF754FE00F038FFFDF74CFE80
:102610000646D9F8000090F8351031B1022906D0ED
:10262000294600F0E9FD0A2002E0277001E00E20B3
:102630002070D9F8000000F11C000776477607608B
:1026400047603046BDE8F047FDF732BE520000203B
:10265000530000207000002070B5040004D02078E2
:10266000032803D0012070BD042070BDFDF71CFEBF
:102670000546A07A58B1002301221946204600F0F1
:102680007FFD2846FDF714FE00F0F8FE09E02089E2
:102690004FF6FF71884206D2401C20812846FDF784
:1026A00007FE002070BD2846FDF702FE332070BDF6
:1026B00010B5094CE07900280CD100F003FF6079D7
:1026C0000649207151F82000A0622062BDE8104048
:1026D000FDF7F1BD10BD000050000020D0770120B3
:1026E00010B5022000F016FAFDF7DEFD084C0021BF
:1026F000E161FDF7DDFD642000F00CFAFDF7D4FD8B
:10270000E169616101216170BDE81040FDF7D0BD54
:1027100050000020FEF70BBF2DE9FE4305460F4693
:1027200090461C463F2B02D92A20BDE8FE83FDF7C8
:10273000BBFD1A49097819B1FDF7BAFD3C20F4E751
:10274000174E56F8241019B1FDF7B2FD2820ECE71A
:10275000012146F82410FDF7ABFD0023424639461F
:10276000284600F04BF900270146009701973B46A9
:102770003A462046029700F0B5FE050007D0FDF767
:1027800093FD46F82470FDF793FD2846CDE70548F4
:1027900000780128F9D100F071FEF6E75200002020
:1027A000D0770120570000202DE9F04F81462DED14
:1027B000028B83B08A46DDE90F879DED118A129D59
:1027C00093461C463F2B05D92A2003B0BDEC028B53
:1027D000BDE8F08FFDF768FD1D49097819B1FDF7D7
:1027E00067FD3C20F1E71B4E56F8241019B1FDF7A8
:1027F0005FFD2820E9E7012146F82410FDF758FD88
:102800002A463946404600F04DFF2B465A4651466F
:10281000484600F0F3F800978DED018A01460295D5
:10282000424620460E9B00F05DFE050008D0FDF7F5
:102830003BFD002146F82410FDF73AFD2846C4E789
:10284000054800780128F9D100F018FEF6E70000ED
:1028500052000020D077012057000020FEF7C8BEAC
:10286000FEF7C8BE70B505460E4614463F2803D98C
:10287000FF2D01D02A2004E02EB11248007820B1AB
:102880001220107070BD0C20FBE7FDF70DFD014616
:10289000FF2D03D10C48006890F836500B4850F8D3
:1028A0002500432540B1012806D006650846FDF7FE
:1028B000FFFC0020207070BD0846FDF7F9FC257074
:1028C00070BD00005200002070000020D077012071
:1028D00010B504463F2801D32A2010BDFDF7E4FCC3
:1028E00001461F4850F8240058B101280ED090F836
:1028F000342013072FD512F0F70280F834200AD0C5
:102900000BE00846FDF7D4FC462010BD0846FDF755
:10291000CFFC432010BD026B22B10846FDF7C8FC76
:10292000002010BD0F4A00F138008378147843EA84
:102930000403137003780C4A4078D45C44EA000422
:10294000D4540846FDF7B4FC084800780128E7D1C4
:1029500000F094FDE4E70846FDF7AAFC442010BD12
:10296000D07701205600002084000020570000206E
:10297000FEF772BE2DE9F04104460D463F2804D90A
:10298000FF2C02D02A20BDE8F08145B1002028604C
:102990006860FDF789FC0146FF2C02D005E00920A4
:1029A000F1E71448006890F83640134850F82400C6
:1029B00058B1012809D0028AD2070BD0D0E90247CA
:1029C00000260846FDF774FC0AE00846FDF770FC97
:1029D0004320D8E70846FDF76BFC4520D3E7761C7B
:1029E00001CC0028FBD0B0002860B81B80006860D4
:1029F0000020C8E770000020D07701204FF08073DE
:102A00001360131F18606FF0010042F8080CA2F168
:102A100038004FF012334FF00332C0E90A234FF071
:102A2000023242624FF00132C0E907124FF0113119
:102A300081614FF0103141614FF0093101614FF078
:102A40000831C1604FF0073181604FF006314160BD
:102A50004FF0053140F804194FF004310160704720
:102A600070B5274D04463F2804D005D3FF280CD06D
:102A70002A2070BD472070BDFDF716FC034628686C
:102A800090F83600A04206D007E0FDF70DFC0346A3
:102A9000286890F83640012500E00025194850F8D4
:102AA000240068B1012810D090F83820164C90F816
:102AB0003960A15CF643F6B23140A1540AD010E06F
:102AC0001846FDF7F5FB482070BD1846FDF7F0FBF2
:102AD000432070BD0D4A90F83A10147824EA0101A1
:102AE000117010F8341F41F0080101701846FDF70D
:102AF000DFFB012D01D100F0C1FC002070BD000002
:102B000070000020D07701208400002056000020B3
:102B1000FEF7A3BD70B5044614480078002824D100
:102B200013480078002820D1002C1ED0FDF7BCFBF4
:102B300003461048104D006890F8381090F839603E
:102B40006A5CF643F6B232406A5406D10B4A90F8FA
:102B50003A10157825EA0101117004631846FDF753
:102B6000A7FBBDE8704000F089BC70BD520000209A
:102B70005300002070000020840000205600002038
:102B80002DE9F04100F052F8FDF78EFB264D296B40
:102B9000491C2963FDF78CFBE879012841D1687A4B
:102BA0000126002720B101283BD0022802D06F72F5
:102BB000EC6A32E06E72FBE7FDF776FB216B49B3FE
:102BC000491E216326D194F8341011F0370F06D036
:102BD00001F0C80184F8341084F8356001E084F80D
:102BE000357094F83410090714D404F13804AA7924
:102BF000A178DFF834C041EA0201A97121780CF113
:102C0000340C63781CF80120A4F1380442EA030272
:102C10000CF801206469FDF74BFB94F836003F285F
:102C2000CAD1BDE8F08100005000002010B5FEF7C9
:102C300059FD07480188491C89B20180642905D3E0
:102C400000210180BDE8104000F004B810BD000074
:102C50004C00002001480068FFF7FEBCA4000020E3
:102C600070B588B04FF420712E4800F0B7FB4021BA
:102C70002D4800F0B3FB00202A4904466422431C7F
:102C800000EB80001D4601EBC0009BB203EB830309
:102C9000027001EBC30380F82540C36023A30362E5
:102CA000A8B20F28EBD300EB800001EBC00002704C
:102CB00080F825401DA2C46002621D481E4A0460BF
:102CC0001C480480102010801C4801600120FFF780
:102CD0003DFC1B4D28600020FFF738FC194E05AA6B
:102CE00019A130602868FFF763FA05AA1BA13068B4
:102CF000FFF75EFA402102910320CDE903401C4A10
:102D00004FF6FD70CDE900023D23FC320021194849
:102D1000FFF74AFD06AA18A13D20FFF7A3FD08B062
:102D200070BD000088810120088501203F0000005F
:102D30009C0000209A00002098000020A80000209D
:102D4000A0000020A400002075432F4F532D4949B7
:102D500020546D724C6F636B0000000075432F4F61
:102D6000532D494920546D725369676E616C0000A0
:102D700008840120D12D000875432F4F532D494958
:102D800020546D7200000000032280F825200E4AB6
:102D90000129126813D0816989B1114441610B4A3C
:102DA00001F0070102EBC10100230A68086042B18B
:102DB000C26010618A88521C8A8003617047C169B1
:102DC000EBE70122C360F7E79C00002008850120A3
:102DD00008B5DFF86880DFF868901A4E6A4600216F
:102DE000D8F80000FFF7D8FBFFF77CFB3068401CE9
:102DF000306000F00700022759F8304013E06169A5
:102E00003068E56881420DD1204600F01DF894F845
:102E1000240002280CD084F82570626812B1204684
:102E2000A16890472C46002CE9D1FFF771FBD5E74C
:102E300001212046FFF7A8FFEFE70000A4000020D3
:102E4000088501209C00002010B541690E4A01F060
:102E5000070102EBC10200231468C168844203D158
:102E6000116041B10B6106E0D0F810C0CCF80C1035
:102E700009B1C1F810C0012180F82510C3600361B9
:102E80009088401E908010BD0885012070B5244CAC
:102E90000025E169491CE161214622788978062AEA
:102EA0000144C9B23AD2DFE802F0030A0E1D2D3107
:102EB000ED2803D101202070E570257170BD8C28AC
:102EC0002CD102200CE020B10021802802D901225F
:102ED00001E001210022114320D1A0706070032085
:102EE000207070BDE278802A03D20E4B9854521C99
:102EF000E270A1706078401E10F0FF006070F0D1A9
:102F00000420EDE7A17049B90520E9E78D2805D136
:102F10006089401C6081A06AFFF79EFB257070BD30
:102F2000AC0000204885012070B5FDF713FA144A63
:102F30001178491C1170FDF711FA124C40F2255519
:102F40002946204600F05FFF48B1204600F0EEFF22
:102F5000C0B2FFF79BFF2946204600F03DFF40F23C
:102F600027752946204600F04EFF28B100F048F8AA
:102F70002946204600F030FFBDE87040FFF7C6B993
:102F8000520000200048004010B5044600F018F838
:102F900060640020206410BD10B500F011F80549F0
:102FA0000968D1E91023C31A1A440A64024909685E
:102FB000486410BD7000002078000020AFF300804E
:102FC00070B5FDF771F9054600F010F806490A8959
:102FD0000881821A886992B2841828468C61FDF7AC
:102FE00067F9204670BD0000AC0000204FF0804023
:102FF00000F047BE0146014800F09CBF0048004079
:103000002DE9F0414A4F04263846BB798189828AEE
:103010000025C089092B73D2DFE803F00518252F9E
:10302000737B44505C0011430BD08C20FFF7E2FF10
:10303000386A401C38620120F871B871FD81BDE822
:10304000F081FD71BDE8F04100F076B8ED20FFF7AA
:10305000D1FF386A401C3862B88908B1022000E00C
:103060000620B871EBE7C8B2FFF7C4FF386A401C0E
:1030700038620320B871B8892AE02E490C5C2046DA
:10308000FFF7B8FF386A401C3862787920447871BD
:10309000F889401C80B2F881B9898842CFD3BE71CB
:1030A000BD81CCE7521CD0B2FFF7A4FF386A401CA8
:1030B00038620720B871B88A401C09E04320FFF746
:1030C00099FF386A401C38620820B871787943301B
:1030D0007871B4E7174980310C5C2046FFF78AFF0E
:1030E000386A401C3862787920447871F889401C2D
:1030F00080B2F881B98A8842A1D3BE71BD829EE7B1
:1031000013E07879FFF776FF386A401C38620520B3
:10311000A7E78D20FFF76EFF386A401C3862BD714B
:103120003D82788A401C788289E7BD7189E700007A
:10313000AC000020C8850120002240F22771014820
:1031400000F080BE004800400B484FF47A710068E0
:10315000B0FBF1F0B0F1807F0DD220F07F414FF055
:10316000E020491E4161054AF02111700021816172
:10317000072101617047FEE72800002023ED00E0F1
:10318000F0B50546807A194C4FF00007205C05EB3E
:103190000006F67AA45D04EBC004E6B2144C54F8C1
:1031A000264004F12404E7602160217C21EA020129
:1031B00021746374A4F1240409070BD40D4994F815
:1031C0003A208B791A438A71343194F839300A5C89
:1031D0001A430A542946204600F00EF8216A19B114
:1031E000204600F01BF8E5613046F0BD507800083D
:1031F000D07701205000002010B590F8382090F8CA
:1032000039408B18E443DA7AE4B22240DA7204D10E
:103210008A7A90F83A0082438A7210BD30B510F86D
:10322000383F827890F801C0D2436FEA0C04E4B2D0
:10323000D5B208680DE000BF00EB030C9CF80B2032
:1032400022408CF80B2002D1827A2A40827251F8F7
:10325000040F0028F0D130BD30B5154900F10B0244
:103260000B6AD86193F838C093F839301CF80240E3
:103270001C430CF802400A6A837A02F138029478FF
:1032800043EA04038372137801F134045578E05C57
:103290006FEA0505EDB22840A2F13802E05405D1ED
:1032A00092F83A008A7922EA0000887130BD000065
:1032B000500000200022827211464318491CC9B2F6
:1032C000DA720829F9D3704710B550210E4800F082
:1032D00085F800200C4A0146431C1C4602EB0010F6
:1032E0009BB202EB03130170436008A3C360A0B25A
:1032F0000428F1D302EB00100170416003A1C1600A
:103300000348026010BD0000608001203F00000003
:103310008C00002010B54FF4F071114800F05EF8F9
:1033200000200F4A0146431C1C4600EB40009BB2A4
:1033300002EBC00003EB430302EBC30301704360E5
:1033400008A34361A0B21328EDD300EB400002EBC9
:10335000C0000170416003A141610348026110BDDA
:10336000707401203F0000005000002010B54FF4A1
:10337000F261164800F032F84FF48071144800F002
:103380002DF812490020421C00EB400404EBC00061
:10339000D3B203EB430401EBC00004EBC30301EB26
:1033A000C30343610BA30365D0B21528EBD300EB35
:1033B000400202EBC00001EBC00006A3002203653F
:1033C00042610548C262416210BD0000D078012010
:1033D000D07701203F00000050000020002203E0D1
:1033E000491E00F8012B89B20029F9D1704700006D
:1033F00010B578210E48FFF7F1FF0D4A002000BFFD
:1034000000EB400102EBC10101F118034B60401CCD
:1034100008A380B24B610428F2D300EB400002EB1A
:10342000C0000021416003A141610348026010BD5A
:10343000B08001203F0000009000002010B5602106
:103440000C48FFF7CBFF0B4A0020411C8BB200EB6E
:10345000400003EB430302EBC30342F8303088B271
:103460000328F2D300EB4000002142F8301002485C
:10347000026010BD288101209400002070B5FCF787
:1034800013FF0E4D0446A87898B9E87888B900F083
:1034900019F80B48697950F82100A8622A799142FD
:1034A00007D0C16B491CC163E868401CE860FCF7A9
:1034B00012FF2046BDE87040FCF7FABE5000002025
:1034C000D07701200649054A01F134038879105C60
:1034D0001B5CD25C02EBC00048717047507800085A
:1034E000500000202DE9F04705462DED028B0E46D9
:1034F00090469946DDED0A8A9DED0B8ADDF830A0F5
:10350000FCF7D2FE394F7C6A002C6BD0616979627E
:10351000FCF7CEFE266084F83650002684F834602E
:1035200084F83560266384ED018AC4ED038A04F1D2
:103530001C044FEAD50244F8148C24F80CAC24F88F
:103540000A9CE677227705F007014FF0010000FAA8
:1035500002F2E176A27700FA01F0607726606660F9
:10356000E660A6602662A662666221A0E662C4E901
:103570000C60A4F11C04304604EB800100F1010052
:103580004E6510F0FF00F7D02046FFF7C3F8204645
:10359000FFF764F9FCF788FE0146164840F825401D
:1035A000F86AC4E9050600B18461FC6204F13804DC
:1035B000BA79A07840EA0200B8710C48227800F18C
:1035C00034006478835C43EA04038354387A00F15E
:1035D000010038720846FCF76BFE0020BDEC028B40
:1035E000BDE8F087FCF764FE4220F7E750000020BA
:1035F0003F000000D0770120054C00BFFCF754FECF
:10360000E169491CE161FCF753FEFFF729F9F5E791
:1036100050000020144C02E0C820FFF77BFA6078CD
:103620000028F9D0642160690025B0FBF1F06061E9
:1036300018B92570FF20FFF713FAFCF735FEE16992
:10364000C4E90615FCF734FED4E90510B0FBF1F02F
:10365000C0F164002070FFF78BF900F007F86420D8
:10366000FFF758FAE9E70000500000207CB50C4D48
:10367000002469462046FFF77DF958B955F8240023
:1036800040B1012806D0D0E9021201EB8201816429
:103690000199C164641CE4B23F2CEAD97CBD0000EE
:1036A000D0770120D30707D0920705D50022002943
:1036B00002D004C0491EFAE770470000044A0029FE
:1036C000116801D0014300E08143116070470000A0
:1036D00030380240044A0029116801D0014300E05B
:1036E000814311607047000040380240044A0029BD
:1036F000116801D0014300E0814311607047000070
:1037000020380240044A0029116801D0014300E03A
:1037100081431160704700004438024030B5224BAD
:103720001968224A11F00C0104D05510042903D065
:10373000082903D002601DE005601BE01A49091F3B
:103740000C68C4F3805C0C68BCF1000F04F03F040B
:1037500002D0B5FBF4F201E0B2FBF4F20C680968A8
:10376000C4F388146243C1F30141491C4900B2FB10
:10377000F1F1016019680E4A01F0F0010909545C89
:103780000168E14041601C6804F4E054A40A145D3F
:1037900021FA04F484601B6803F460435B0BD25C81
:1037A000D140C16030BD0000083802400024F40060
:1037B0003C0000202DE9F04F804687B00121032016
:1037C000FFF77CFF4FF4003A01215046FFF782FFDC
:1037D00001268DF804600024DFF8D8B04FF40047CC
:1037E0008DF80640022500978DF805506946584629
:1037F000FDF7C2FFDFF8C090072202214846FDF71F
:10380000F9FF072203214846FDF7F4FF8DF8045025
:1038100004208DF8064000908DF805508DF8076063
:1038200069464846FDF7A8FF082000908DF804502F
:103830008DF8074069464846FDF79EFF0121504636
:10384000FFF754FF00215046FFF750FFADF810403E
:103850000C201A4DADF80C40ADF81200CDF80880E0
:10386000ADF80E40ADF8144002A9284600F002FB66
:103870004FF4A060FEF790FC26208DF818008DF81C
:1038800019408DF81A408DF81B6006A8FEF752FC0F
:10389000012240F22551284600F0D4FA01212846A1
:1038A00000F0A0FA39465846FDF7BBFF07B0BDE867
:1038B000F08F00000004024000000240004400407D
:1038C0002DE9FC47804601208DF804000027DFF831
:1038D0006CA04FF400498DF8067002200D468DF85B
:1038E00005004C46CDF80090694656465046FDF717
:1038F00043FF21463046FDF796FF0024104E0CE0B2
:103900004021304600F078FA0028F9D018F8041069
:10391000304600F00FFB641CE4B2AC42F0D340210F
:10392000304600F069FA0028F9D006484946077089
:103930005046FDF776FFBDE8FC870000000402401A
:1039400000440040000000200226164D164C0027BF
:103950001020FDF7AAFD411E287021290BD3E67126
:10396000FCF7A2FC80460120FFF77AF80320FFF75E
:1039700077F8022010E01F29EAD8E7716070FCF7A1
:1039800093FC80460120FEF7A3FF0320FEF7A0FF73
:103990000220FEF79DFF0020FFF762F84046FCF78B
:1039A00087FCD5E7070100206674012070470000FE
:1039B0002DE9F04105460E460024114F1BE0280674
:1039C0004FF04001384602D4FDF72BFF01E0FDF730
:1039D0002AFF80213846FDF724FF012002F0F0FA8B
:1039E00080213846FDF71FFF012002F0E9FA680642
:1039F000050E641CE4B2B442E1D3BDE8F0810000DE
:103A00000004024070B50A4D044620212846FDF707
:103A100008FF03218020FFF7CBFF09212046FFF795
:103A2000C7FF2846BDE870402021FDF7FCBE00001E
:103A3000000402402DE9F04105460E460024104FD7
:103A400017E0E8074FF04001384616D0FDF7EBFECF
:103A500080213846FDF7E5FE012002F0B1FA802111
:103A60003846FDF7E0FE012002F0AAFA6D08641C5A
:103A7000E4B2B442E5D3BDE8F081FDF7D2FEE7E75A
:103A800000040240224900200A6842F480320A60A1
:103A90004FF4A0630A6800F1010012F4003F01D165
:103AA0009842F7D10868800331D519484030026840
:103AB00042F0805202601748026842F4804202607D
:103AC0001348083002680260026842F40042026053
:103AD000026842F4A0520260031F0F4A1A600A688B
:103AE00042F080720A600A689201FCD50B4A40F2EB
:103AF00005611160016821F003010160016841F076
:103B0000020101600168C1F381010229FAD1704705
:103B1000003802400070004008544007003C02405A
:103B20004FF0E0210428086903D020F00400086168
:103B3000704740F00400FAE710B5FCF7B5FB064A01
:103B40001178491C1170FCF7B3FBFFF719F8BDE8B9
:103B50001040FEF7DBBB000052000020124810B5F9
:103B6000016841F4700101601048016841F00101F1
:103B700001600E4A00210832116002680C4B1A40A5
:103B80000260031D0B4A1A60026822F48022026060
:103B900006480C300160FFF775FF03494FF00060E5
:103BA0008039086010BD000088ED00E00038024058
:103BB000FFFFF6FE1030002410B5FEF79BFB104C03
:103BC0000121204600F05FF8B0B10121204600F04D
:103BD0004BF80C48C17979B90B4CE18939B9407877
:103BE00003F086F8A078401CA070E08920B1E0893D
:103BF000401EE0810120A070BDE81040FEF786BBAA
:103C00000008004066740120000000207FB50446D3
:103C10000D4601210420FFF75DFD0194ADF8005031
:103C20000024104DADF80840ADF802406946284622
:103C300000F03CF801221146284600F02FF81E2023
:103C40008DF80C008DF80D4003208DF80E0001203A
:103C50008DF80F0003A8FEF76DFA0121284600F049
:103C600006F87FBD00080040C94301827047002963
:103C7000018802D041F0010101E021F00101018041
:103C80007047406A7047038A002280890B4200EA2D
:103C9000010001D000B1012210467047002A82893C
:103CA00001D00A4300E08A438281704730B5028820
:103CB000174B184C98420DD0A0420BD0B0F1804F5A
:103CC00008D0154DA84205D0144DA84202D0144D7D
:103CD000A84204D122F0700C4A8842EA0C02114D2D
:103CE000A84207D0104DA84204D022F4407C0A8993
:103CF00042EA0C0202804A68C2620A88028598423F
:103D000001D0A04201D1897A01860121818230BD92
:103D10000000014000040140000400400008004091
:103D2000000C00400010004000140040F0B591B0BD
:103D3000FCF710FB244A1178491C1170FCF70EFBAC
:103D4000224C40F22551204600F05DF8B8B32046E1
:103D500000F0ECF81E4C01266D4621780DF80100AC
:103D6000491CC8B22070684410F8010C242802D104
:103D70008DF80000267020780027284410F8010CE8
:103D80003F2804D1277029466069FEF77FFB207821
:103D9000284410F8010C262802D18DF80000267066
:103DA0002078284410F8010C2A2808D127709DF8A3
:103DB0000100232803D16946A069FEF767FBFEF7DF
:103DC000A5FA11B0F0BD00005200002000440040F0
:103DD00000000020FFF7A8B80A0A01219140C9435A
:103DE000018070470029818902D041F4005101E02F
:103DF00021F40051818170470246002012880A4256
:103E000000D00120704770B501F01F060122002587
:103E1000C1F3421302FA06F4012B0FD0022B0FD08C
:103E2000838A4FEA11210088234202FA01F200EA54
:103E3000020001D000B10125284670BD8389F0E75A
:103E4000038AEEE7C1F3421301F01F0C012101FACE
:103E50000CF1012B07D0022B07D01430002A026886
:103E600005D00A4304E00C30F8E71030F6E78A4347
:103E7000026070477FB50446008A0D4620F4405129
:103E8000E88808432082A08941F20C618843A98810
:103E90002A8911436A8902431143A181A08A20F42F
:103EA0004071A8890843A0826846FFF737FC1D4887
:103EB000844202D01C48844201D1039800E0029859
:103EC000A1890904002900EBC00101EB0010296859
:103ED00002DA4FEA410101E04FEA8101B0FBF1F063
:103EE0006422B0FBF2F14FEA01114FEA11136FF0B7
:103EF00018056B4300EB8300A3891D044FF03203C8
:103F000006D503EBC000B0FBF2F000F0070005E0BF
:103F100003EB0010B0FBF2F000F00F00084320812B
:103F20007FBD000000100140001401408088C0F3F4
:103F300008007047C1F3080181807047FEE7000068
:103F40002DE9F041104F04460D4616462021384613
:103F5000FDF767FC0321A020FFF72AFDA006000E55
:103F60000621FFF725FD002406E028780421FFF74D
:103F700061FD641CE4B26D1CB442F6D33846BDE862
:103F8000F0412021FDF74FBC0004024070B50D4EFA
:103F900004460D4620213046FDF743FC0321A020B6
:103FA000FFF706FDA006000E0621FFF701FD042124
:103FB0002846FFF73FFD3046BDE870402021FDF761
:103FC00032BC00000004024003B401984100009894
:103FD00050EAC12018BF04204A0D18BF40F001006C
:103FE00040F2FF72B2EB515F08BF40F002000128BF
:103FF00008BF052002B0704770B59F482DED020B39
:104000002DED068B079D25F0004484421DDB9B4867
:10401000844202DC0FD1069868B19DED060B53EC8B
:10402000102B51EC100B02F0BDFEBDEC068B02B064
:1040300041EC100B70BD002DCCBF9FED910B9FED9F
:10404000920BBDEC068B02B070BD9148844215DA2C
:1040500090488442A8BF4FF0FF3440DA9DED060B34
:1040600051EC100BFFF7B0FF042808BF00F0A8FACE
:104070009DED060BBDEC068B02B070BD9DED060BF1
:1040800051EC100B01F0B8FF41EC100B82488DEDA4
:10409000060B9FED839B84423CDA834884421FDAFF
:1040A00000249FED83AB51EC100B53EC1A2B02F064
:1040B00079FE9DED060B41EC180B53EC1A2B51ECDD
:1040C000100B03F00FF953EC192B03F04BFA53ECE0
:1040D000182B02F01BFF41EC100B8DED060B49E095
:1040E000012453EC192B51EC100B02F05BFE9DEDFB
:1040F000060B41EC180B53EC192B51EC100B03F091
:1041000031FA53EC182B02F001FF41EC100B8DED4E
:10411000060B2FE0684884421FDA02249FED68AB4B
:1041200051EC100B53EC1A2B03F0DCF853EC192B69
:1041300002F038FE9DED060B41EC180B53EC1A2BE8
:1041400051EC100B03F00EFA53EC182B02F0DEFECC
:1041500041EC100B8DED060B0CE053EC102B0324FF
:104160009FED590B51EC100B02F0D0FE41EC100BFF
:104170008DED060B9DED060B53EC102B51EC100B47
:1041800003F0B0F841EC180B53EC182B03F0AAF82D
:1041900041EC190B4E480621B0EE490AF0EE690ACF
:1041A000784400F091F953EC182B51EC100B03F00C
:1041B00099F841EC180B4748B0EE490AF0EE690A4D
:1041C0000521784400F080F953EC192B51EC100BC9
:1041D00003F088F841EC100B51EC180B53EC102B4A
:1041E000002C0EDA02F0DEFD9DED061B53EC112BC8
:1041F00003F078F89DED061B53EC112B03F0A6F9A4
:1042000035E002F0CFFD9DED061B53EC112B03F0C2
:1042100069F841EC100B3048784400EBC40090ED95
:10422000001B51EC100B53EC112B03F09BF99DED8F
:10423000061B53EC112B03F095F941EC100B2748AA
:10424000784400EBC40090ED001B51EC100B53ECD4
:10425000112B03F07BF941EC100B002DA2BFBDEC3C
:10426000068B02B070BD51EC100B02F05DFD41EC0D
:10427000100BFFE600000000000010440000F07F7B
:10428000182D4454FB21F93F182D4454FB21F9BF4C
:104290000000DC3F0000203E0000F33F0000000073
:1042A000000000000000F03F0000E63F00000000BA
:1042B00000000000000000400080034000000000FB
:1042C000000000000000F83F000000000000F0BF08
:1042D000249E0000DA9D0000649D00001C9D0000EB
:1042E00070B5694E2DED040B2DED028B82B0DDE92A
:1042F000053C079ACCF1000422F000414CEA04048A
:1043000041EAD474049D23F00040B44205D86C42C5
:104310002C4340EAD474B44210D99DED060B53EC03
:10432000102B9DED040B51EC100B02F03BFD41EC0A
:10433000100B02B0BDEC028B04B070BDA2F1405472
:10434000A4F17F6454EA0C040BD0022404EAA274A2
:1043500044EAD37405439FED4E8B9FED4F2B07D05E
:1043600010E09DED040B51EC100B00F0CBF93BE09D
:10437000002C14BF012C9DED040BDAD0022C36D09A
:10438000032C39D051EA0C0C9FED451B9FED460BD9
:104390000AD0B14219D1B04209D121F0804120F0B8
:1043A00080400791059010E0002BC2DA11E0DFF8A1
:1043B00000C1FC44002C08BF9CED000BB9D0012CBF
:1043C0000CD0022C13D0032C16D0B04219D1002BE4
:1043D000AFDAB0EE410AF0EE610AAAE79CED000BFD
:1043E00051EC100B02F0A0FC41EC100BA1E7B0EE79
:1043F000480AF0EE680A9CE7B0EE420AF0EE620A64
:1044000097E7401A00153C2816DC002ABCBF10F1C3
:104410003C0F9FED290B0FDB9DED060B53EC102B92
:104420009DED040B51EC100B02F070FD01F0E4FD6A
:1044300000F068F941EC100B002C8DED000B3FF4FF
:1044400078AF012C10D0022C9FED1D0B53EC102BDC
:104450009DED000B51EC100B0ED003F083F853ECE4
:10446000182B03F07FF8BFE710EE900A80F00040B1
:1044700001909DED000B5CE703F074F853EC182BF2
:1044800003F064F8B0E700000000F07F00000000D7
:10449000182D4454FB210940182D4454FB2109C018
:1044A000182D4454FB21F9BF182D4454FB21F93F2A
:1044B000429C00000000000000000000000000001E
:1044C000075C143326A6A13C70B505462DED028B82
:1044D0004C1E00EBC400B0EE408AF0EE608A90ED16
:1044E000000B34F0060017D053EC182B51EC100BD6
:1044F00002F0F8FE41EC100B641E05EBC40090EDD9
:10450000001B51EC100B53EC112B02F04BFC41EC57
:10451000100B34F00600E7D1022C36D0042C1CD04E
:10452000062C1CBFBDEC028B70BD53EC182B51EC5C
:10453000100B02F0D7FE95ED0A1B53EC112B02F085
:1045400031FC53EC182B02F0CDFE95ED081B53EC1B
:10455000112B02F027FC41EC100B53EC182B51EC03
:10456000100B02F0BFFE95ED061B53EC112B02F071
:1045700019FC53EC182B02F0B5FE95ED041B53EC1F
:10458000112B02F00FFC41EC100B53EC182B51ECEB
:10459000100B02F0A7FE95ED021B53EC112B02F05D
:1045A00001FC53EC182B02F09DFE95ED001B53EC23
:1045B000112B02F0F7FBBDEC028B41EC100B70BD30
:1045C0009FED050B10B553EC102B51EC100B02F0C6
:1045D00089FE41EC100B10BD00000000000000102F
:1045E000F0B500234FF480625C1E02EBD27504EB41
:1045F000650419E05E1C00EE106A00EB8307B8EE5C
:10460000C00AD7ED000A20EE800A87ED000A00EE0E
:10461000106A01EB83075B1CB8EEC00AD7ED000AF5
:1046200020EE800A87ED000A9C42E3DA6B10561EEA
:104630001DE000BFA2EB030CACF1010C00EE10CAB0
:1046400000EB8307B8EEC00AD7ED000A20EE200A7F
:1046500087ED000A00EE10CA01EB83075B1CB8EE81
:10466000C00AD7ED000A20EE200A87ED000AB34207
:10467000E0DB00221BE000BF02EB650300EB8306DA
:1046800000EB820796ED000AD7ED000A01EB8303E9
:1046900030EE200A86ED000A01EB820693ED000A57
:1046A000D6ED000A521C30EE200A83ED000A944237
:1046B000E2DC00220FE000BF02EB650300EB8306A3
:1046C00001EB830356F8046C40F8226053F8043C75
:1046D00041F82230521C9442EEDAF0BDB5EEC00A29
:1046E000F1EE10FA05DDF1EEC00AC0ED000A00207F
:1046F00070479FED030A80ED000A4FF0FF307047CE
:104700000000000010B541EC100BFFF775FC51ECF8
:10471000100B10BD2DE9F0430128089A6CD1052932
:1047200002D00A2939D02DE0547803EBC4008578F3
:1047300090F801C090F8068006790BE003EBC40006
:10474000641C877A8770477A4770877B8771077BFD
:104750000771E4B2D079401EA042EFDCD07903EBC0
:10476000C00000F8065CD07903EBC00000F807CC6D
:10477000D07903EBC00000F8028CD07903EBC000C5
:1047800000F8046C14295FD1D17803EBC100847860
:10479000457890F806C0067942E0957803EBC504A9
:1047A000A67894F8019094F806C094F804800BE081
:1047B00003EBC5046D1CA77AA770677A6770A77BA7
:1047C000A771277B2771EDB2147A641EAC42EFDC2F
:1047D000147A03EBC40404F8066C147A03EBC404E3
:1047E00004F8079C147A03EBC40404F802CC147A8E
:1047F00003EBC40404F8048C022825D1052925D034
:104800000A295CD050E000BF03EBC100491C877A45
:104810008770477A4770877B8771077B0771C9B2BA
:10482000507A8842F0D8C0B203EBC0008470507A4E
:1048300003EBC0004570507A03EBC00080F806C05F
:10484000507A03EBC0000671BDE8F083147903EBE6
:10485000C400C578467890F807C090F805800BE052
:1048600003EBC400641CC77AC770477A4770C77BE4
:10487000C771477B4771E4B2907A401EA042EFDCDB
:10488000907A03EBC00000F8055C907A03EBC0005F
:1048900000F8076C907A03EBC00000F801CC907A26
:1048A00003EBC00000F8038C1429CDD1917903EB00
:1048B000C100C4784578C67990F805C03AE05179CE
:1048C00003EBC100C4784578C67990F805C00BE0C9
:1048D00003EBC100491CC77AC770477A4770C77B92
:1048E000C771477B4771C9B2D07A401E8842EFDC5E
:1048F000D07A03EBC00000F8054CD07A03EBC0007F
:1049000000F8075CD07A03EBC00000F8016CD07AA5
:1049100003EBC00000F803CC96E700BF03EBC10037
:10492000491CC77AC770477A4770C77BC771477BF6
:104930004771C9B2107B8842F0D8C0B203EBC00007
:10494000C470107B03EBC0004570107B03EBC0000C
:10495000C671107B03EBC00080F805C074E7C9B2D4
:1049600061F31F20704700002DE9F05F06462DED32
:10497000108BADF5635D0C4617461D464FF00008E1
:104980009FEDFE8A0DF58050202280ED078A80ED94
:10499000088A43F66400FA496844FCF771FB4FF457
:1049A000007002900020014604900DF580504FF0F9
:1049B000010A816180ED098AFCF7AAFCFCF7CCFBB7
:1049C000DFF8C0B3BBF80A00BBF80C90A0EB0900FD
:1049D00002F021FC9FEDEC1B53EC112B02F082FC4A
:1049E0009FEDEB1B53EC112B02F07CFC02F0A8F9BD
:1049F000014641F24C00684440F82810BBF808001A
:104A0000A0EB090002F007FC9FEDDF0B53EC102B2D
:104A100002F068FC9FEDDE0B53EC102B02F062FC01
:104A200002F08EF9014642F24C00684440F828102A
:104A3000242001F0C5FA08F101089FEDD7EB9FEDA6
:104A4000D8BB9FEDD9CB9FEDDAFB9FEDDBABB8F583
:104A5000806FB7DB41F24C01694401F58050FFF7EC
:104A6000BFFD43F684016944A1F13809CDF800A0E7
:104A70004846049B029AFBF775FE05AAA9F5C051AA
:104A80004846FBF7F9FD0DF5805101208861089833
:104A900002F052FE41EC180B079802F04DFE41EC7B
:104AA000100BB0EE481AF0EE681AFFF719FCB0EEE2
:104AB000409AF0EE609AA9F5006105A8029AFBF70A
:104AC000C3FC029841F218034FEA50086B441A1DC8
:104AD0004146A9F50060CDF80C80FBF77DFE0DF591
:104AE0008050D0ED070A9FEDB60A80EE801ABCEE2A
:104AF000C10A10EE100A80B202F0A4FB53EC1A2B8C
:104B000002F004FA02F05AFBAE4905AA0880A9F5A2
:104B100020514846FBF7B0FD0DF5805005A980698E
:104B200001EBC009D9F8040002F006FE41EC180BB5
:104B3000D9F8000002F000FE41EC100BB0EE481A6C
:104B4000F0EE681AFFF7CCFB43F24C01B0EE408A5E
:104B5000F0EE608A694405A8029AFBF775FC41F201
:104B6000180343F24C006B440DF5815241466844F2
:104B7000FBF732FE0DF58050006A02F0DDFD9FED7F
:104B8000921B53EC112B02F0ADFB02F017FBBBF8AC
:104B90001020D946424342F21070B2FBF0F18C482B
:104BA00053EC182B016051EC190B02F0DBFC8B4627
:104BB0004BEC100B804651EC100B02F0C1F800EEEC
:104BC000100AFBF7D9FBDFED7E0A824920EE200AAE
:104BD000BCEEC00A10EE100A4BEC108B087051ECC2
:104BE000100B02F0ADF800EE100AFBF7C5FBB0EEBB
:104BF00040DA4BEC108B51EC100B02F0A1F800EEF8
:104C0000100AFBF7B9FBF0EE400AB7EE000A41F2DA
:104C100024000DEE600A6844FFF760FD69486C49A6
:104C20000DF5805C00880968DCED090A484300EE58
:104C3000100AB2EE041AB8EE400A20EE200AC0EEC6
:104C4000011ABCEEE10A10EE101A00EE100AB8EEDE
:104C5000400A20EE200ADFED600ACCF848105F49D8
:104C600080EE201A53EC192BBCEEC10A10EE100A8C
:104C7000088051EC180B02F075FC9FED591B53ECAA
:104C8000112B02F02FFB9FED581B53EC112B02F060
:104C90003DF99FED579BB0EE491AF0EE691A53ECBF
:104CA000112B02F05FFC41EC180B9FED53DB53EC32
:104CB0001D2B02F015FC2FD253EC192B51EC180BC5
:104CC00002F0D4FA02D2012089F8030053EC192B28
:104CD00051EC180B02F004FC0BD89FED490B51EC82
:104CE000180B53EC102B02F0C1FA02D8002089F8FF
:104CF00003009FED430B51EC180B53EC102B02F00B
:104D0000EFFB39D251EC180B9FED3F0B53EC102BFE
:104D100002F0ACFA30D2AFE053EC1D2B51EC180B83
:104D200002F0A4FA28D853EC1E2B51EC180B02F019
:104D3000D7FB09D853EC1B2B51EC180B02F096FA59
:104D400002D2012089F8030053EC1B2B51EC180B05
:104D500002F0C6FB09D853EC1C2B51EC180B02F0E7
:104D600085FA02D2002089F803009FED290B51EC4F
:104D7000180B53EC102B4FE081E000000000000006
:104D800030780008000000206666666666660A40A5
:104D9000000000000000303F00000000008076C0EE
:104DA0000000000000E070C000000000008066C04D
:104DB00000000000008056C06666666666E6044035
:104DC0000000C8420E0100209A9999999999F13FE3
:104DD0001C0100200A01002000007A441401002078
:104DE00000000000008076401C2D4454FB21194037
:104DF000000000000080564000000000000000009D
:104E000000000000008066400000000000E07040EC
:104E10000000000000207CC002F062FB09D853ECC7
:104E20001E2B51EC180B02F021FA02D2012089F856
:104E3000030053EC1F2B51EC180B02F051FB0DD269
:104E4000B0EE4D0AF0EE6D0A53EC102B51EC180B3E
:104E500002F00CFA02D8012089F8030053EC1C2B55
:104E600051EC180B02F03CFB09D853EC1F2B51EC12
:104E7000180B02F0FBF902D8002089F8030000208B
:104E80002521CDE9000103460246212100F0E4FF7F
:104E9000FCF74EFAFCF780F91FED48FA0DF580504B
:104EA0004FF00008B0EE4F0A80ED070A80ED080AC7
:104EB0001FED4B8B1FED4A9BDFF814B5BBF80A10B2
:104EC000BBF80C90A1EB090002F0A5F953EC182BEC
:104ED00002F008FA53EC192B02F004FA01F030FF4B
:104EE000014641F24C00684440F82810BBF8080025
:104EF000A0EB090002F08FF953EC182B02F0F2F945
:104F000053EC192B02F0EEF901F01AFF014642F2C0
:104F10004C00684440F82810242001F051F808F1B2
:104F200001084FF4806BD845C6DB41F24C0169445F
:104F300001F58050FFF754FB43F684016944A1F169
:104F40003808CDF800A04046049B029AFBF70AFC03
:104F50000DF114094A46A8F5C0514046FBF78CFBF9
:104F60000DF5805101208861089802F0E5FB41ECC5
:104F70001B0B079802F0E0FB41EC100BB0EE4B1A54
:104F8000F0EE6B1AFFF7ACF9B0EE40CAF0EE60CA73
:104F9000A8F500614846029AFBF756FA41F2180359
:104FA0006B441A1DA8F500600399FBF715FC0DF57D
:104FB0008050D0ED070A1FED7E0A80EE801ABCEE0D
:104FC000C10A10EE100A80B202F03CF953EC1A2B21
:104FD00001F09CFF02F0F2F8FE494A460880A8F56D
:104FE00020514046FBF748FB0DF58050806909EBE6
:104FF000C008D8F8040002F09FFB41EC1B0BD8F866
:10500000000002F099FB41EC100BB0EE4B1AF0EEF1
:105010006B1AFFF765F943F24C01B0EE40BAF0EEBF
:1050200060BA69444846029AFBF70EFA41F2180347
:1050300043F24C006B440DF5815268440399FBF731
:10504000CBFB0DF58050006A02F076FB1FEDA2EB62
:1050500053EC1E2B02F046F902F0B0F8DC4953EC99
:105060001B2B098A414342F21070B1FBF0F1DA4880
:10507000016051EC1C0B02F075FA894649EC100BEB
:10508000804651EC100B01F05BFE00EE100AFBF7BE
:1050900073F95FEDB50AD14920EE200ABCEEC00AD3
:1050A00010EE100A49EC108B087051EC100B01F057
:1050B00047FE00EE100AFBF75FF9B0EE40BA49EC8C
:1050C000108B51EC100B01F03BFE00EE100AFBF7C9
:1050D00053F9B7EE00CAF0EE400AB0EE4C0A41F2C6
:1050E00024000BEE600A6844FFF7F8FAB948BA49A1
:1050F00000880968484300EE100A0DF58051B8EEAB
:10510000400AD1ED090A20EE201AB2EE040AC1EEDF
:10511000001ABCEEE10A81ED110A00EE100AB8EEA9
:10512000400A60EE200A5FEDD4FAAD49B0EE6F0A96
:1051300080EE801ABCEEC10A10EE100A0880002032
:105140004021CDE9000103460246212100F084FE02
:10515000FCF7FEF8FCF730F80DF58050B0EE4F0A82
:1051600080ED070A1FEDFB0ADFF864B280ED080A44
:105170004FF00008BBF80A10BBF80C90A1EB090037
:1051800002F049F853EC182B02F0ACF853EC192B51
:1051900002F0A8F801F0D4FD014641F24C00684449
:1051A00040F82810BBF80800A0EB090002F033F823
:1051B00053EC182B02F096F853EC192B02F092F8EE
:1051C00001F0BEFD014642F24C00684440F8281050
:1051D000242000F0F5FE08F10108B8F5806FC9DB66
:1051E00041F24C08E844414608F58050FFF7F8F9D1
:1051F00043F684016944CDF800A0A1F13800049B76
:10520000029AFBF7AFFA08F5805105AA01F5C050E4
:10521000FBF732FA0DF5805001218161089802F008
:105220008BFA41EC1B0B079802F086FA41EC100B4D
:10523000B0EE4B1AF0EE6B1AFFF752F8B0EE40BA30
:10524000F0EE60BA08F5005105A8029AFBF7FCF8E9
:10525000A8F134094B46A8F1300208F50050039933
:10526000FBF7BAFA0DF5805090ED071ADFED5DCA35
:10527000B0EE6C0AC1EE000ABCEEE00A10EE100AB5
:1052800080B201F0DFFF53EC1A2B01F03FFE01F07A
:1052900095FF554905AA0880414608F52050FBF7BF
:1052A000EBF90DF5805005A9806901EBC008D8F82D
:1052B000040002F041FA41EC1A0BD8F8000002F0A9
:1052C0003BFA41EC100BB0EE4A1AF0EE6A1AFFF707
:1052D00007F843F24C01B0EE40AAF0EE60AA694430
:1052E00005A8029AFBF7B0F843F24C004B460DF5C7
:1052F000815268440399FBF76FFA0DF58050006AFC
:1053000002F01AFA53EC1E2B01F0ECFF01F056FFED
:105310002F4953EC1A2B098A414342F21070B1FB1A
:10532000F0F13248016051EC1B0B02F01BF9894689
:1053300049EC100B804651EC100B01F001FD00EE22
:10534000100AFBF719F8F0EE6C0A294920EE200A42
:10535000BCEEC00A10EE100A49EC108B087051EC3C
:10536000100B01F0EDFC00EE100AFBF705F8B0EEB3
:1053700040AA49EC108B51EC100B01F0E1FC00EE5F
:10538000100AFAF7F9FFF0EE400AB0EE4C0A41F2CB
:1053900024000AEE600A6844FFF7A0F91248134996
:1053A00000880968484300EE100A0DF58051B8EEF8
:1053B000400AD1ED090A20EE201AB2EE040AC1EE2D
:1053C000001ABCEEE10A10EE10BA00EE100A11E06D
:1053D0000000002010010020200100200B0100200F
:1053E000160100200000C842120100202401002004
:1053F0000C010020B8EE400AFD4960EE200AB0EE34
:105400006F0A80EE801ABCEEC10A10EE100A088006
:10541000FBF77EFFFBF7B0FE4FF00008F548F549BB
:105420004089B1F80C90A0EB090001F0F4FE53ECB8
:10543000182B01F057FF53EC192B01F053FF01F02B
:105440007FFC014641F24C00684440F82810E948CE
:105450000089A0EB090001F0DEFE53EC182B01F0EF
:1054600041FF53EC192B01F03DFF01F069FC0146AF
:1054700042F24C00684440F82810242000F0A0FDBF
:1054800008F10108B8F5806FC8DB41F24C016944AE
:1054900001F580584046FFF7A3F843F68401CDF8A4
:1054A00000A06944A1F1380A5046049B029AFBF718
:1054B00059F90DF114094A4641465046FBF7DCF80C
:1054C0000DF5805101208861089802F035F941EC12
:1054D000180B079802F030F941EC100BB0EE481AA7
:1054E000F0EE681AFEF7FCFEB0EE409AF0EE609A1D
:1054F0004A46A8F580515046FBF7BEF80DF580509E
:10550000806909EBC008D8F8040002F015F941ECF5
:10551000180BD8F8000002F00FF941EC100BB0EEB8
:10552000481AF0EE681AFEF7DBFEB0EE408AF0EEA5
:10553000608A53EC102B51EC190B02F013F88946DA
:1055400049EC100B804653EC1D2B51EC100B01F075
:10555000C7FF76D249EC108B9FEDA71B51EC100BC7
:1055600053EC112B01F0BEFE9FEDA51B53EC112B4C
:1055700001F0CCFC01F022FE80B2763877E000200A
:1055800000E001209B494FF00008434608712121AB
:10559000CDE900814246404600F05EFC9A489B49B6
:1055A0000088098801449A480088084401F04AFEAE
:1055B0009FED981B53EC112B01F094FE9FED971B70
:1055C00053EC112B01F0A2FC01F0F8FD9549994A2A
:1055D0000023088094480168944800680144944876
:1055E000006801440320B1FBF0F1116092490A7890
:1055F000924909780A44924909781144B1FBF0F0C4
:1056000090491A46087041F24400684403C80144B6
:1056100001EB0B006421B0FBF1F08B49DFF82CB2F9
:1056200008805E21CDE900819BF80100194600F059
:10563000F5FFDFF8C0E19EF8050001281AD046E02A
:10564000FFE753EC192B51EC180B01F08BFF9FED8A
:105650006A1B53EC112B01F045FE9FED691B53ECC7
:10566000112B01F053FC01F0A9FD80B2EE380428A3
:1056700087D884E7744822469EF807900088BEF8D1
:1056800010A060F31F4292B24FF6FF780021A2EB08
:10569000000C00BF43F66400684430F811300CFB86
:1056A00003F2B2EB090001D4024600E04242424557
:1056B00005DC002800DA40421FFA80F89A46491CAF
:1056C0001029E7DBAEF810A002218EF80510604922
:1056D000287808705B4803785D2B73D29EF803002E
:1056E00001286FD1287800286CD0574800881428EA
:1056F0003CD395F80380697A06E000BF04EBC8024A
:1057000012793AB108F101084145F7DA95F80680B7
:10571000297B29E04FF0010A2F21CDE900A104EBFC
:10572000C8099BF8010099F801105346524600F051
:1057300075FFCDE902A6CDF804A0049499F80600FF
:10574000009099F8022099F80110012308F0FF0059
:1057500001F0D0F823463246142105E104EBC802DB
:10576000527952B108F101084145F7DA0A2871D39C
:10577000297A95F80280491E32E04FF0010A2F2065
:10578000CDE900A004EBC8099BF8010099F80110CD
:105790000223524600F042FF0220CDE90206CDF876
:1057A00004A0049499F80700009099F8032099F850
:1057B0000110012308F0FF0001F09CF82346324657
:1057C000142106E1DAE000BFCDE90075FEF7A2FF83
:1057D0002FE300BF04EBC802127942B108F10108BF
:1057E0004145F7DAE97A95F80580491E5EE032E036
:1057F000180100200000002000000000008076401A
:105800001C2D4454FB2119400E01002010010020E2
:105810001201002083C0CAA145B6FB3F0000000072
:10582000000008402A0100201C0100202001002067
:1058300024010020300100200A0100200B0100207B
:105840000C010020280100202C010020667401209A
:105850000D0100202CE04FF0010A2F20CDE900A01F
:1058600004EBC8099BF8010099F801105346524611
:1058700000F0D4FECDE902A6CDF804A0049499F876
:105880000600009099F8022099F80110012308F011
:10589000FF0001F02FF8234632460A2164E000BFE2
:1058A00004EBC802527952B108F101084145F7DA18
:1058B000052863D3E87995F80180401E2AE04FF06F
:1058C000010A2F20CDE900A004EBC8099BF80100D4
:1058D00099F801100223524600F0A0FE0220CDE903
:1058E0000206CDF804A0049499F80700009099F8F6
:1058F000032099F80110012308F0FF0000F0FAFFDF
:10590000234632460A2164E004EBC801097941B11B
:1059100008F101084045F7DAA87A95F80480401E9E
:105920002AE04FF0010A2F21CDE900A104EBC809BC
:105930009BF8010099F801105346524600F06EFEA4
:10594000CDE902A6CDF804A0049499F806000090D1
:1059500099F8022099F80110012308F0FF0000F0E7
:10596000C9FF23463246052101202DE704EBC8017B
:10597000497951B108F101084045F7DA5E2B03D3AC
:105980009EF80300012826D085E04FF0010A2F2160
:10599000CDE900A104EBC8099BF8010099F80110BA
:1059A0000223524600F03AFE0220CDE90206CDF86D
:1059B00004A0049499F80700009099F8032099F83E
:1059C0000110012308F0FF0000F094FF2346324647
:1059D00005210220F8E62878B0B3E87995F801802F
:1059E000401E06E004EBC8010979012979D008F1CD
:1059F00001084045F6DAA87A95F80480401E06E0D2
:105A000004EBC801497901296CD008F1010840452F
:105A1000F6DA287A95F80280401E0EE069780023B5
:105A200008F0FF0000F066FF03E200BF04EBC801CE
:105A300009790129DAD008F101084045F6DAE87A57
:105A400095F80580401E08E025E000BF04EBC80182
:105A500049790129D8D008F101084045F6DA95F8CE
:105A60000380687A07E000BF04EBC80109790129C7
:105A700037D008F101084045F6DA95F80680287B12
:105A800007E000BF04EBC80149790129BCD008F147
:105A900001084045F6DAEA4890F800A0BAF15D0F37
:105AA00014D29EF80300012810D1397871B1E54A6B
:105AB000138809E006EBC00898F802209A4202D247
:105AC00098F805207AB1401C8142F3DADE4890F85C
:105AD0000090B9F15D0F29D29EF80300012812D081
