:020000040800F2
:10000000B88E0120690200082F1F0008691B000834
:100010002D1F0008ED150008B93C00080000000085
:100020000000000000000000000000002937000868
:100030007916000800000000EB020008B53800083F
:10004000830200088302000883020008830200087C
:10005000830200088302000883020008830200086C
:10006000830200088302000883020008830200085C
:10007000830200088302000883020008830200084C
:10008000830200088302000883020008830200083C
:10009000830200088302000883020008830200082C
:1000A000830200088302000883020008830200081C
:1000B0008302000883020008353900088302000823
:1000C00083020008830200088302000883020008FC
:1000D0008302000883020008A93A0008513B000887
:1000E00083020008830200088302000883020008DC
:1000F00083020008830200088302000883020008CC
:1001000083020008830200088302000883020008BB
:1001100083020008830200088302000883020008AB
:10012000830200088302000883020008830200089B
:10013000830200088302000883020008830200088B
:10014000830200088302000883020008830200087B
:10015000830200088302000883020008830200086B
:10016000830200088302000883020008830200085B
:10017000830200088302000883020008830200084B
:10018000830200088302000800F002F800F05CF827
:100190000AA090E8000C82448344AAF10107DA45E2
:1001A00001D100F051F8AFF2090EBAE80F0013F0D8
:1001B000010F18BFFB1A43F0010318471CDA0000B7
:1001C0003CDA00000A444FF0000C10F8013B13F039
:1001D000070408BF10F8014B1D1108BF10F8015BA0
:1001E000641E05D010F8016B641E01F8016BF9D193
:1001F00013F0080F1EBF10F8014BAD1C0C1B09D1EA
:100200006D1E58BF01F801CBFAD505E014F8016B5B
:1002100001F8016B6D1EF9D59142D6D370470000ED
:100220000023002400250026103A28BF78C1FBD8FF
:10023000520728BF30C148BF0B6070471FB507F099
:10024000E8F81FBD10B510BD00F022FF1146FFF702
:10025000F5FF05F039FF00F040FF03B4FFF7F2FFB0
:1002600003BC00F041FF00000948804709480047EF
:10027000FEE7FEE7FEE7FEE7FEE7FEE7FEE7FEE756
:10028000FEE7FEE704480549054A064B70470000B3
:10029000D938000889010008B8880120B88E0120EB
:1002A000B88A0120B88A0120EFF3108072B6704737
:1002B00080F3108870471D484FF0FF010170002047
:1002C00080F309881A48012101701A484FF08051C3
:1002D000016062B6FEE717484FF080510160704739
:1002E00014484FF080510160704772B6EFF30980F7
:1002F00028B1203880E8F00F0F490968086000B580
:100300000E4880475DF804EB0D480E490A780270EC
:1003100009480D490A680260106890E8F00F203023
:1003200080F309884EF0040E62B6704722ED00E0BB
:100330005300002004ED00E06C00002015290008A7
:1003400050000020510000207400002072B6704759
:1003500062B67047EFF3108072B6704780F3108872
:100360007047B0FA80F0704790FAA0F0704730BF45
:10037000704720BF70470000DFED2E0AB5EEC00ABF
:1003800060EE200ABDEEE01A11EE100AF1EE10FA4E
:1003900038BF401E00EE100ADFED271AF7EE005AB4
:1003A000B8EEC00ADFED274A244930EEC01A21EE2C
:1003B000210AFCEEC00A10EE900A00EE900A01EB52
:1003C0008000B8EE600ADFED1E0AF0EC012A11EEA3
:1003D000210AF6EE001AB0EC013AF0EC013A20EEF8
:1003E000001A20EE216A40EE615A20EE245A21EED6
:1003F000212A90ED004A00EE602A66EE010A40EEE6
:10040000400A05EE412A70EEA55AF0EE400A41EE90
:10041000210A46EE410A25EE011A00EE641A22EE88
:10042000820A63EEA00A03EE250A44EE010A30EECA
:10043000200A704783F9223E000080432875000897
:10044000ABAAAA3EABAA2A3E9FED3A0A5FEA920CFB
:1004500053D000BFB0EC011A0B1DF0EC010A21EEE5
:10046000011A00EEA01AB5EEC01AF1EE10FAC6BFDE
:10047000F1EEC10AC1ED000A81ED000AF0EC010ABB
:10048000191DB0EC011A60EEA00A41EE010AF5EE6A
:10049000C00AF1EE10FAC6BFF1EEE00AC3ED000AA1
:1004A00083ED000AB0EC011A0B1DF0EC010A21EEFD
:1004B000011A00EEA01AB5EEC01AF1EE10FAC6BF8E
:1004C000F1EEC10AC1ED000A81ED000AB0EC011A9B
:1004D000191DF0EC010A21EE011A00EEA01AB5EE8A
:1004E000C01AF1EE10FAC6BFF1EEC10AC3ED000A60
:1004F00083ED000ABCF1010CACD112F0030208BF7D
:10050000704700BFF0EC010A0B46B0EC011A091D60
:1005100060EEA00A41EE010AF5EEC00AF1EE10FA13
:10052000C6BFF1EEE00AC3ED000A83ED000A521ED9
:10053000E8D17047000000002DE9F00700EBC10989
:10054000DDE90778D0F800A0C9F800A007EB011496
:10055000D0F804A0251FA9F10406C9F804A003EBF4
:10056000C80907F1080C00F1080402EBC8024B1E91
:1005700031D000BFF2EC011A96ED002A92ED001A7C
:1005800002EBC802B4EC010A121FF4EC012A60EE7F
:10059000210A20EE010A32EE823A02EEA10AD9EDDA
:1005A000001A43EE410A09EBC80902EE610A16ED92
:1005B000012A083E42EE210A02EE410AECEC010A51
:1005C000ACEC010AB1EE400A85ED000A45ED010AE6
:1005D000083D5B1ECED190ED000AD0ED010A07EB7D
:1005E000C10130EE600A81ED000A9FED5D0A81EDE8
:1005F000010AD0ED000A90ED011A70EE810AC7EDF4
:10060000000A87ED010ABDE8F007704770B400EBFF
:10061000C105DDE903C42D1D002904BF70BC70476E
:10062000F2EC011A95ED002A92ED001A02EBC402D9
:10063000B0EC010A121FF0EC012A60EE210A20EE54
:10064000410A32EE823A02EEA10AD3ED001A43EEDD
:10065000010A03EBC40302EE610A15ED012A083D0D
:10066000491E42EE210A02EE010AECEC010AACEC52
:10067000010AD5D170BC70472DE9F04305464469A5
:10068000807983B00F461646012809D0A3892188B6
:100690003846626800F036F9E87901284ED053E018
:1006A000AA88D5E9030307EBC20CD5F808803146C8
:1006B0000CF1040C5AB300BFB0EC011A9CED002AF7
:1006C000D0ED001A00EBC800B7EC010A001FF7ECF0
:1006D000012A521E60EE010A20EE610A32EE823AD1
:1006E00002EE810A93ED001A43EE210A03EBC803E0
:1006F00002EE410A1CED012AACF1080C42EE010A9F
:1007000002EE210AE1EC010AA1EC010AD4D194ED38
:10071000040AA38921883046626800F095FAE879D6
:1007200001281CBF03B0BDE8F083E2892188A368DB
:1007300003B03046BDE8F04300F08CB8E289218870
:100740003846A36800F086F8A868CDE90060D5E9CE
:100750000323A9883846FFF7EFFE03B0BDE8F08316
:100760000000000070B592B2DDF810C055080260BC
:100770008580184EC66006F50056DBB2066100247F
:10078000837180F807C0802A04BF102282600BD0DA
:10079000B2F5007F08BF042212D0B2F5006F14BF7B
:1007A0004FF0FF3401220BD0002B8C4641614FF0FB
:1007B000000307D001222946604600F015FC06E040
:1007C0008260F1E700222946604600F00DFC2046D9
:1007D00070BD00003479000870B40025B0EC010A47
:1007E000A1F1010CF0EC010AB4EEE00AF1EE10FA0E
:1007F0003CBFB0EE600A0125ACF10104A446B4F19F
:10080000004F0ED3F0EC010AB4EEE00AF1EE10FA5C
:100810003CBFB0EE600AA1EB0C05BCF1010CF1D1BC
:1008200013E0002CC8BF00260FDD00BFF0EC010A6A
:10083000B4EEE00AF1EE10FA04D2ACEB0605B0EE2D
:10084000600A4D1B761C641EF0D182ED000A1D600B
:1008500070BC70472DE9F0014E0801244FF0000CE8
:1008600004EB51076146A6F102082CE061452AD24B
:1008700000EBCC0500EBC104D5ED000A94ED000AB5
:10088000C4ED000A85ED000AD5ED010A94ED010AD8
:10089000C4ED010A85ED010A0CEB0705CC1900EB4C
:1008A000C50500EBC404D5ED000A94ED000AC4EDC3
:1008B000000A85ED000AD5ED010A94ED010AC4EDA8
:1008C000010A85ED010A00EBC104B44400EBCC0C35
:1008D00094ED020ADCED000A891CC4ED020A8CEDDD
:1008E000000A94ED030ADCF80450E5608CED010A7F
:1008F000B3F800C089B203EB42034145B6D9BDE865
:10090000F00170472DE9F04F4FEA910C4FF00008CD
:100910004746644608EB0C0505EB0C0909EB0C0691
:1009200000EBC80A00EBC9099AED000AD9ED000AEC
:1009300099ED012A00EBC50530EE201A30EE600A71
:10094000DAED010A00EBC60608F1010870EE821A22
:1009500070EEC20A95ED002AD6ED002A641E32EE32
:10096000222A71EE022A31EE421ACAED002A95EDD2
:10097000012AD6ED012A32EE222A71EE822A71EE88
:10098000C21ACAED012A95ED012AD6ED012A96ED8B
:10099000003A4FEA470A32EE622AD5ED002A02EB0E
:1009A000CA0B72EEC32A9BED003ADBED013A21EE51
:1009B000034A01EEA34A61EE831A41EE631A85ED04
:1009C000004A30EE021A30EE420AC5ED011A02EB7F
:1009D000C70570EEE21A95ED002A70EEA20AD5ED79
:1009E000012A21EE023A0AEB070502EBC5051F4476
:1009F00001EEA23A61EE821A41EE621A89ED003AE6
:100A0000C9ED011AD5ED001A95ED011A20EE212A43
:100A100000EE812A60EEA10A40EE410A86ED002A2E
:100A2000C6ED010A7FF476AF9B044FEA134BE6460E
:100A3000BCF1040F7DD9E0464FEA9C0C4FF0000951
:100A4000CA46BCF1000F75D94FEA490404EB09030B
:100A500002EBC90502EBC40402EBC30395ED001AD7
:100A6000D5ED011A94ED000AD4ED010A93ED002AA8
:100A7000D3ED012AD94453468A4573D203EB0C04C3
:100A800004EB0C0606EB0C0500EBC30700EBC606F7
:100A900097ED003AD6ED003A96ED015A00EBC4040A
:100AA00073EE234A33EE633AD7ED013A00EBC50506
:100AB00033EE854A73EEC53A94ED005AD5ED005AEF
:100AC00035EE255A74EE855A74EEC54AC7ED005AC4
:100AD00094ED015AD5ED015A35EE255A74EE055ABA
:100AE00034EE454AC7ED015A94ED015AD5ED015A4D
:100AF00095ED006A35EE655AD4ED005A75EEC65A8A
:100B000024EE806A04EE206A24EE004A04EEE04AF5
:100B100084ED006A73EEE54A73EEA53A84ED014A6E
:100B200033EE054A33EE453A24EE015A04EEA15A5B
:100B300001E026E01BE064EE814A86ED005A434462
:100B40008B4244EE614A23EE024A03EEA24A63EE70
:100B5000823AC6ED014A43EE623A85ED004AC5EDA0
:100B6000013A8BD30AF1010AE245FFF46DAF4FEA77
:100B70008B434FEA9E0E4FEA134BBEF1040F3FF634
:100B80005AAFA1EB0C0100224B1C4FEA9C04002B36
:100B90008CBF1F46BDE8F08F11190E19331900EBF9
:100BA000C20500EBC60695ED000AD6ED000A95EDEC
:100BB000012A96ED011A70EE201A70EE600A32EEEC
:100BC000010A00EBC10100EBC30332EE411A91EDC3
:100BD000002AD3ED002A6244974232EE222A71EEB7
:100BE000822A31EEC22AC5ED002AD1ED011AD3EDD9
:100BF000012A71EEA21A70EE212AC5ED012A70EECB
:100C0000612A91ED010AD3ED011A93ED003A70EEDD
:100C1000611A91ED000A81ED002AC1ED012A30EE42
:100C2000430A30EEA12A70EEE10A71EE401A31EE6D
:100C3000000A86ED002AC6ED011AC3ED000A83ED15
:100C4000010AA9D8BDE8F08F2DE9F04F4FEA910CC9
:100C50004FF000084746644608EB0C0505EB0C0A0C
:100C60000AEB0C0600EBC80900EBCA0AD9ED000A32
:100C70009AED001ADAED012A00EBC50570EE811A33
:100C800070EEC10A99ED011A00EBC60608F10108E1
:100C900031EE222A31EE621AD5ED002A96ED003AA5
:100CA000641E72EE832A31EEA23A71EEE21A89EDE9
:100CB000003AD5ED012A96ED013A72EE832A32EE22
:100CC000223A32EE622A89ED013AD5ED012A96EDFB
:100CD000013AD6ED003A4FEA470972EEC32A95ED84
:100CE000003A02EBC90B33EE633ADBED003A9BEDC1
:100CF000014A61EEA34A42EE444A22EE232A01EE63
:100D0000842AC5ED004A70EEE21A70EEA20A85ED63
:100D1000012A02EBC70531EE032AD5ED002A31EE98
:100D2000431A95ED013A61EEA23A09EB070502EB91
:100D3000C5051F4442EE433A22EE222A01EE832AE1
:100D4000CAED003A8AED012AD5ED001A95ED012A87
:100D500060EEA12A41EE422A21EE211A00EE821A0B
:100D6000C6ED002A86ED011A7FF476AF9B044FEAA8
:100D7000134BE646BCF1040F7DD9E0464FEA9C0CCC
:100D80004FF00009CA46BCF1000F75D94FEA49047B
:100D900004EB090302EBC90502EBC40402EBC30335
:100DA000D5ED001A95ED012AD4ED000A94ED011A53
:100DB000D3ED002A93ED013AD94453468A4573D2C4
:100DC00003EB0C0404EB0C0606EB0C0500EBC3076D
:100DD00000EBC606D7ED003A96ED004AD6ED015A73
:100DE00000EBC40433EE845A73EEC43A97ED014A23
:100DF00000EBC50574EE254A34EE654AD4ED005A81
:100E000095ED006A75EE865A35EE256A35EE655A1F
:100E100087ED006AD4ED015A95ED016A75EE865AA8
:100E200034EEA56A74EEE54A87ED016AD4ED015A05
:100E300095ED016AD5ED006A75EEC65A94ED006A2B
:100E400036EE666A65EE206A44EEC16A64EEA04A38
:100E500045EE014AC4ED006A34EE065A34EE464AC5
:100E6000C4ED014A73EEE54A73EEA53A64EEA15A69
:100E700045EE425A01E026E01BE025EE215AC6ED80
:100E8000005A43448B4204EE825A63EEA24A44EE77
:100E9000434A24EE224A86ED015A03EE834AC5ED09
:100EA000004A85ED014A8BD30AF1010AE245FFF4BD
:100EB0006DAF4FEA8B434FEA9E0E4FEA134BBEF1E4
:100EC000040F3FF65AAFA1EB0C0100224B1C4FEA76
:100ED0009C06002B8CBF1F46BDE8F08F91198D1921
:100EE000AB1900EBC20400EBC505D4ED000AD5ED4B
:100EF000001AD4ED012A95ED012A30EEA11A70EE08
:100F0000E11A72EE820A00EBC10100EBC30332EE7C
:100F1000C22AD1ED002A93ED003A6244974272EE64
:100F2000832A31EE223A71EE622A23EE003A62EE13
:100F3000802A84ED003A91ED011A93ED013A31EEE9
:100F4000031A30EE813A23EE003A84ED013A30EE96
:100F5000C13AD1ED010A93ED011AD3ED003A30EE1A
:100F6000C11AD1ED000AC1ED002A63EE002A70EE2D
:100F7000E30AC1ED012A71EEC12A31EE811A72EE47
:100F8000201A72EE600A22EE802A21EE001A61EE2B
:100F9000801A85ED002A60EE800AC5ED011A83ED06
:100FA000001AC3ED010A99D8BDE8F08F30B50446A8
:100FB0000D4680782188A389626801280DD02846D3
:100FC000FFF7A0FCE078012818BF30BDE289218836
:100FD0002846A368BDE830403CE494ED040A284666
:100FE000FFF732FEEEE7000010B401801B4C4460B6
:100FF00082704FF0000CC370102925D040291BD0FF
:10100000B1F5807F10D0B1F5806F18BF4FF0FF3C75
:1010100002D010BC6046704701218181C181104916
:101020009FED100A816016E004218181C1810E4983
:101030009FED0E0A81600EE010218181C1810C4973
:101040009FED0C0A816006E040218181C1810A493F
:101050009FED0A0A816080ED040ADAE734B90008DE
:1010600034D900080000803A3AD900080000803BDB
:1010700052D900080000803CB2D900080000803D31
:10108000704770477047000000487047548801203F
:101090007546FFF7F9FFAE4605006946534620F056
:1010A0000700854618B020B5FFF7ECF8BDE82040F2
:1010B0004FF000064FF000074FF000084FF0000B14
:1010C00021F00701AC46ACE8C009ACE8C009ACE8C7
:1010D000C009ACE8C0098D4670470446AFF30080F4
:1010E0002046FFF7BAF8704701491820ABBEFEE76B
:1010F0002600020010B5064C0122002311462046AE
:1011000000F050F92046BDE8104000F085B900001D
:101110000020014010B5064C002301220421204686
:1011200000F040F92046BDE8104000F075B900001D
:101130000020014010B5064C002301220721204663
:1011400000F030F92046BDE8104000F065B900001D
:101150000020014010B5064C002301220D2120463D
:1011600000F020F92046BDE8104000F055B900001D
:101170000021014010B5064C002301220E2120461B
:1011800000F010F92046BDE8104000F045B900001D
:101190000021014010B5064C002301220F212046FA
:1011A00000F000F92046BDE8104000F035B900001D
:1011B0000021014070B59CB001212F4802F080F958
:1011C00001214FF4E06002F09FF94FF000700090B1
:1011D0002A4801902A4802A90024012531C1E802C9
:1011E000CDE9064080000890401109900AA90594B5
:1011F000400231C1234E0D94694630460E9400F0F2
:1012000011FA0121304600F002FA03208DF868003F
:1012100019958DF86B4019A91B4800F02FFA159409
:101220001694179415A8189400F06AF80F948DF886
:10123000404011941394114C8DF841504C3C8DF862
:1012400050500FA9204600F087F800230122082102
:10125000204600F0A7F80121204600F073F8012194
:10126000204600F065F80121204600F03FF82046B6
:1012700000F0D2F81CB070BD020040004C210140CB
:101280000A000020406402400004024010B5064CF1
:10129000002301220A21204600F084F82046BDE800
:1012A000104000F0B9B800000022014010B5064C13
:1012B000002301220B21204600F074F82046BDE8EF
:1012C000104000F0A9B800000022014010B5064C03
:1012D000002301220C21204600F064F82046BDE8DE
:1012E000104000F099B800000022014000298168F8
:1012F00002D041F0010101E021F00101816070475D
:10130000094B10B51A68094902EA0102D0E9001434
:1013100041EA0401D0E9024044EA000441EA040140
:1013200041EA0201196010BD04230140E030FCFFD6
:101330000029816802D041F4807101E021F48071BC
:10134000816070470029816802D041F4007101E09A
:1013500021F400718160704730B542680F4B0C7901
:101360001A400B6842EA04221343436082680C4B24
:101370004D791A40D1E9034323438C6844EA45047C
:10138000234313438360C26A097D22F47002491E1D
:10139000C9B242EA0151C16230BD0000FFFEFFFC4C
:1013A000FDF7FFC070B5072509290AD9C468A1F166
:1013B0000A0606EB4606B540AC43B3401C43C46086
:1013C00007E0046901EB4106B540AC43B3401C4360
:1013D00004611F23072A09D2446B521E02EB8202CA
:1013E00093409C4391400C43446370BD0D2A09D245
:1013F000046BD21F02EB820293409C4391400C434A
:10140000046370BDC46A0D3A02EB820293409C43B0
:1014100091400C43C46270BD816841F0804181609D
:10142000704700F0A3BB70B504460D4600F004FC05
:10143000A02000F0BFFB00F05BFC200A00F0BAFB2C
:1014400000F056FCE0B200F0B5FB00F051FC28467D
:1014500000F0B0FB00F04CFC00F01CFCBDE870405C
:101460000A2004F05FBB704710B586B0002000F082
:101470007DFE1C4C2061002000F078FE60610020A1
:1014800000F066FFA061002000F070FEE0611648E9
:1014900001AC032300224FF420510FC40120034666
:1014A0000090124A0021124801F080F88DF81400D3
:1014B00005AA10A10A2001F0D7F80B4A0423121F35
:1014C00000210F4801F02AF803230E4A00210E489C
:1014D00001F024F802230D4A00210D4801F01EF806
:1014E00006B010BD00000020E4210020E0C1002073
:1014F000BD1500085374617274205461736B000051
:101500001B150008E0D100206D150008E0710120D6
:101510002915000801F03ABC704704F0BFFC6420B4
:1015200004F000FBF9E70000074E084C4FF47A7511
:10153000F07910B9022001F095F9A06900F08EFF52
:10154000284604F0EFFAF3E7F271012000000020D2
:1015500010B500F0C7FFFFF787FFBDE810400A2075
:1015600001F080B9704701F019BC000008B5114CBA
:101570006A460021A06900F011FF0F4B0D4AA3F14C
:101580005001121DA1F1500004F024FF0A4B094A3A
:10159000A3F15001121DA1F1500004F00DFB064B08
:1015A000044AA3F15001121DA1F1500003F09CF870
:1015B000DEE7000000000020D001002008B5084D43
:1015C000084C0A26E879012801D101F04BF96A4656
:1015D0000021206900F0F0FD04F020FEA681F1E773
:1015E000F27101200000002001F0EABBFEE770B5B7
:1015F000002500240021284602F086FB641CE4B28A
:10160000042CF7D36D1CEDB2162DF2D370BD00295A
:10161000016802D041F0010101E021F00101016007
:101620007047000030B50368124ACC6813400A685E
:101630002243D1E905452C432243CC6922430C6A5D
:1016400022434C6A22438C6A22434C6B22438C6BAC
:1016500022431A430260426922F00703D1E90B24B6
:1016600022431A4342610A6942604A68826089687B
:10167000C16030BD3F801CF070470000F0B5002213
:1016800001234FF0030C00BF0D6803FA02F425405C
:10169000A5422DD1066854000CFA04F5AE4306604D
:1016A0000E790768A6403E4306600E79012E01D0F0
:1016B000022E12D18668AE4386604D798668A540B9
:1016C00035438560456803FA02F6B54345604568D1
:1016D0008E799640B6B235434560C56856000CFA1F
:1016E00006F7BD43C560CD79A540C4682543C560F4
:1016F000521C102AC8D3F0BD4B07DB0E9A40C90814
:1017000010B500EB8100016A0F249C40A1430162E7
:10171000016A1143016210BD0246002012690A42AB
:1017200000D001207047418370470183704700005B
:101730002DE9F04704460E4601210B2002F0E4FAA1
:1017400001210D2002F0E0FA08210E2002F0DCFA5F
:101750000821112002F0D8FA4FF06408274FB4FB9B
:10176000F8F53978DFF89890012905D109EB4501A2
:1017700002220F2002F0A2FA387818B902211020B4
:1017800002F0C2FA08FB15400A25B0FBF5F009EBA0
:1017900040014F460222132002F090FAB4FBF5F00C
:1017A00005FB1040B0FBF5F105FB110007EB400114
:1017B0000222112002F082FAB6FBF8F4DFF8409022
:1017C0000222A9F1140909EB4401104602F076FA4D
:1017D00008FB1460B0FBF5F009EB40010222052084
:1017E00002F06CFAB6FBF5F005FB106007EB400168
:1017F000BDE8F0470222082002F060BA0300002092
:10180000EC0000202DE9F041044601210C2002F0FB
:101810007BFA0821112002F077FA42F21077B4FB2C
:10182000F7F51D4EA8B206EB400102220F2002F090
:1018300045FA07FB15404FF47A75B0FBF5F006EB5F
:1018400040010222132002F039FAB4FBF5F005FB47
:1018500010406425B0FBF5F006EB40010222112098
:1018600002F02CFAB4FBF5F005FB10400A25B0FBA2
:10187000F5F0143E06EB40010222002002F01EFAB1
:10188000B4FBF5F005FB104006EB4001BDE8F0416C
:101890000222104602F012BAEC0000202DE9F047B7
:1018A00004460D460421072002F02EFA08211120DB
:1018B00002F02AFA6427B4FBF7F6DFF878800222F8
:1018C00008EB46010F2002F0F9F907FB16400A2643
:1018D000B0FBF6F008EB40010222132002F0EEF913
:1018E000B4FBF6F006FB104008EB40010222112089
:1018F00002F0E4F9B5FBF7F4A8F11409022209EBB0
:101900004401104602F0DAF907FB1450B0FBF6F080
:1019100009EB40010222052002F0D0F9B5FBF6F0F8
:1019200006FB105008EB4001BDE8F04702220820FA
:1019300002F0C4B9EC0000202DE9F0410446012179
:101940000A2002F0E1F90821112002F0DDF942F24B
:101950001076B4FBF6F51E4FA8B207EB4001022249
:10196000112002F0ABF906FB15404FF47A76B0FB7C
:10197000F6F0A7F1140505EB40010222002002F069
:101980009DF9B4FBF6F006FB10406426B0FBF6F0C0
:1019900005EB40010222104602F090F9B4FBF6F08C
:1019A00006FB10400A26B0FBF6F005EB40010222D0
:1019B000052002F083F9B4FBF6F006FB104007EBBC
:1019C0004001BDE8F0410222082002F077B9000092
:1019D000EC0000202DE9F04104460821012002F02E
:1019E00093F90421072002F08FF96426B4FBF6F581
:1019F0000F4F022207EB4501104602F05FF906FB8C
:101A000015400A25B0FBF5F007EB40010222052046
:101A100002F054F9B4FBF5F005FB104007F1140196
:101A2000BDE8F04101EB40010222082002F046B976
:101A3000D80000202DE9F04104460121042002F0E5
:101A400063F90821112002F05FF96426B4FBF6F572
:101A50000F4F022207EB4501104602F02FF906FB5B
:101A600015400A25B0FBF5F007EB400102220520E6
:101A700002F024F9B4FBF5F005FB104007F1140166
:101A8000BDE8F04101EB40010222082002F016B946
:101A9000D80000202DE9F04104460421084602F058
:101AA00033F902210A2002F02FF90821112002F057
:101AB0002BF96426B4FBF6F50F4F022207EB450124
:101AC000104602F0FBF806FB15400A25B0FBF5F0C6
:101AD00007EB40010222052002F0F0F8B4FBF5F01C
:101AE00005FB104007F11401BDE8F04101EB400196
:101AF0000222082002F0E2B8D80000201CB5012123
:101B0000022001F0DDFC4FF43870009001208DF8C8
:101B1000040000208DF806000220124C8DF805000C
:101B200069462046FFF7AAFD61152046FFF7FDFD37
:101B300020212046FFF7F9FD40212046FFF7F5FD63
:101B400080212046FFF7F1FD022001F019FE292037
:101B500001F016FE012001F013FE032001F010FE3B
:101B60001CBD000000040240FEE700001CB501217E
:101B7000022001F0A5FC4FF4E040009001208DF818
:101B8000040002200A4C8DF8050069462046FFF744
:101B900075FDA1142046FFF7C6FD4FF40051204605
:101BA000FFF7C3FD4FF480412046FFF7BEFD1CBD8B
:101BB000000402402DE9FC4705460121022001F006
:101BC0007FFC01208DF8040002201A4E4FF480475C
:101BD0008DF80500009769463046FFF74FFD4FF43A
:101BE000005841463046FFF79EFDB946002447465F
:101BF00028064946304602D4FFF795FD01E0FFF77D
:101C000094FD6806050E022003F0AAFF394630460F
:101C1000FFF78BFD022003F0A3FF39463046FFF7A4
:101C200082FD022003F09CFF641CE4B2082CDFD389
:101C3000BDE8FC87000402407CB50121022001F0D0
:101C40003FFC01208DF804000220114D4FF4804428
:101C50008DF80500009469462846FFF70FFD2146E0
:101C60002846FFF762FD661031462846FFF75DFD06
:101C7000042003F075FF21462846FFF754FD042099
:101C800003F06EFF31462846FFF74DFD7CBD000096
:101C9000000402407CB50121022001F011FC01206A
:101CA0008DF804000220114D4FF480448DF805009A
:101CB000009469462846FFF7E1FC66103146284645
:101CC000FFF731FD21462846FFF72DFD042003F0E4
:101CD00047FF31462846FFF728FD21462846FFF7F3
:101CE00024FD042003F03CFF7CBD00000004024002
:101CF0007CB500240121022001F0E2FB00208DF8D8
:101D00000400164E4FF480458DF807000095694693
:101D10003046FFF7B3FC29463046FFF706FD0120A9
:101D200003F01EFF6D1029463046FFF7FEFC012030
:101D300003F016FF0A4807E0641CE4B2FA2C03D94A
:101D4000FFF7A8FF01207CBDD0F838110029F3D19E
:101D500029463046FFF7E7FC00207CBD0004024026
:101D6000008040422DE9F0479CB001215E4801F01F
:101D7000A7FB01214FF4E06001F0C6FB4FF080604B
:101D800000905A4801900125594802A9002431C108
:101D900006A8EE026F034FF480784FF400390594E3
:101DA000A0E8D003CDE90B45DFF848A10D946946C2
:101DB00050460E94FFF736FC01215046FFF727FCF2
:101DC0004D4802A9CDE900404948DFF828A1801C10
:101DD00031C106A80594A0E8D003CDE90B45AAF1CE
:101DE000180A0D94694650460E94FFF71BFC01211A
:101DF0005046FFF70CFC68060090404801903C48B4
:101E000002A9001D31C106A80594A0E8D003394EEF
:101E1000CDE90B4518360D94694630460E94FFF710
:101E200001FC01213046FFF7F2FB3F20032615900D
:101E30008DF858608DF85B4015A93148FFF71EFCFE
:101E4000922015908DF858608DF85B4015A92D48AB
:101E5000FFF714FC17941894199417A81A94FFF715
:101E60004FFA0F948DF84040119413941F4C8DF845
:101E700041504C3C8DF850500FA92046FFF76CFAAA
:101E80001E4D0FA94C3D2846FFF766FA1A4E0FA9C2
:101E90004C3E3046FFF760FA01212046FFF752FA28
:101EA00001212846FFF74EFA01213046FFF74AFA92
:101EB00001212046FFF73CFA01212846FFF738FAB6
:101EC00001213046FFF734FA01212046FFF70EFAD0
:101ED00001212846FFF70AFA01213046FFF706FAEA
:101EE0001CB0BDE8F0870000050040004C22014016
:101EF00006000020286402404C2001404C21014093
:101F000000080240000002401CB50121084601F013
:101F1000D7FA4FF4C050009000208DF804006946B5
:101F20000148FFF7ABFB1CBD00000240FEE7704715
:101F30004FF4A06000F032B870B50F21C478027879
:101F400001234FF0E026E4B1124C246804F4E0646D
:101F5000C4F5E064C4F30724C4F10405E140447807
:101F6000AC4085780D4025430B4C29011155007874
:101F700000F01F018B40400906EB8000C0F80031E3
:101F800070BD02F01F008340500906EB8000C0F8CE
:101F9000803170BD0CED00E000E400E00249084330
:101FA00002490860704700000000FA050CED00E0EF
:101FB0007047000070B505000E46144605D036B1D6
:101FC0000E48807828B112200DE004200BE00C2090
:101FD00009E02878012808D0022806D0032804D078
:101FE000042802D00120107070BDFEF75DF96E610B
:101FF000FEF75EF90020207070BD00004C0000204C
:1020000030B587B000F070F82A480024046384706B
:10201000C4700472C471C460C4618461446144705A
:102020008471214600F134025454491CC9B2082974
:10203000FAD3047144718462046201F099F801F0EA
:102040006BF801F043F801F0D5F801F0F9F802AAB5
:102050000325202031C218494FF6FF70CDE9000159
:1020600001F17C023F230021144800F09FFA05AAE9
:1020700013A13F2000F0F8FA02AA402031C214490F
:102080004FF6FE70CDE9000101F1FC023E23002174
:10209000104800F08BFA05AA0FA13E2000F0E4FAE8
:1020A00000F0E0FC00F026F807B0BDE83040FFF794
:1020B0007FBF00004C000020DC740120FD330008CD
:1020C00075432F4F532D49492049646C650000002A
:1020D000DC7301201934000875432F4F532D4949F3
:1020E000205374617400000001490020088070478B
:1020F00048000020704700000449C879012804D135
:102100008878FF2801D2401C887070474C0000205E
:1021100070B5144DE879012822D1FEF7C5F80446C0
:10212000A87820B1401E10F0FF00A87013D1E87805
:1021300088B901F0C9F80C48697950F82100A86203
:102140002A79914207D0C16B491CC163E868401CE1
:10215000E860FEF7C5F82046BDE87040FEF7A8B875
:1021600070BD00004C0000205C75012070B5054674
:102170000E48007808B1002070BDFEF795F80146C2
:102180000B4804680CB1626802600846FEF790F8DC
:102190004CB1012020700020208106A065606061A4
:1021A000204600F089FF204670BD00004E00002050
:1021B0005C0000203F0000002DE9F0470500884644
:1021C000144604D02878012803D001200AE0042016
:1021D00008E02C48007808B1022003E02A48007883
:1021E00020B10D2010700020BDE8F087FEF75CF8EC
:1021F0006E68074600213EB1884638466960FEF7A2
:1022000057F884F800803AE0DFF880A08946DAF8D1
:10221000000010F8342F42F002020270417040F8C2
:10222000048C284600F01AFF3846FEF741F801F00A
:1022300027F8FEF739F80746DAF8000090F835106D
:1022400031B1022908D0294600F0D8FE0A2004E066
:10225000466A84F8009001E00E202070DAF8001041
:10226000384601F11C0181F8189081F81990C1F8E5
:102270000090C1F80490C1F80890FEF719F83046B4
:10228000B2E700004E0000204F0000206C0000204C
:1022900070B504000D4605D035B12078012805D071
:1022A000012070BD042070BD032070BDFDF7FCFF50
:1022B0000646A07A58B1002302222946204600F0A3
:1022C00061FE3046FDF7F4FF00F0DAFF0AE06068D7
:1022D00020B13046FDF7ECFF142070BD304665603C
:1022E000FDF7E6FF002070BD10B5094CE07901282C
:1022F0000CD1FDF7D9FFA17821B9E178FF2901D2EE
:10230000491CE170BDE81040FDF7D2BF10BD0000D0
:102310004C00002010B50D4CE079012814D1FDF7D8
:10232000C3FFE17831B1491E11F0FF01E17001D125
:10233000A17819B1BDE81040FDF7BABFFDF7B8FFAD
:10234000BDE8104000F09CBF10BD00004C00002014
:1023500070B505460E48007808B1002070BDFDF745
:10236000A3FF01460B4804680CB16268026008468E
:10237000FDF79EFF4CB10320207025810020606096
:1023800005A06061204600F097FE204670BD000069
:102390004E0000205C0000203F0000002DE9F047C7
:1023A00005008846144604D02878032803D001206D
:1023B0000AE0042008E02648007808B1022003E083
:1023C0002448007818B10D201070BDE8F087FDF7A3
:1023D0006BFF06462889002730B1401E2881304611
:1023E000FDF766FF2770F0E7DFF86C90D9F8000082
:1023F00010F8341F41F001010170477040F8048C5F
:10240000284600F02BFE3046FDF752FF00F038FF63
:10241000FDF74AFF0646D9F8000090F8351031B1B3
:10242000022906D0294600F0E9FD0A2002E02770C3
:1024300001E00E202070D9F8000000F11C000776A2
:102440004776076047603046BDE8F047FDF730BF8C
:102450004E0000204F0000206C00002070B50400EA
:1024600004D02078032803D0012070BD042070BD63
:10247000FDF71AFF0546A07A58B10023012219463C
:10248000204600F07FFD2846FDF712FF00F0F8FE21
:1024900009E020894FF6FF71884206D2401C208156
:1024A0002846FDF705FF002070BD2846FDF700FF18
:1024B000332070BD10B5094CE07900280CD100F034
:1024C00003FF60790649207151F82000A062206264
:1024D000BDE81040FDF7EFBE10BD00004C0000202D
:1024E0005C75012010B5022000F016FAFDF7DCFE45
:1024F000084C0021E161FDF7DBFE642000F00CFADE
:10250000FDF7D2FEE169616101216170BDE8104013
:10251000FDF7CEBE4C000020FEF7A5BF2DE9FE431F
:1025200005460F4690461C463F2B02D92A20BDE89F
:10253000FE83FDF7B9FE1A49097819B1FDF7B8FE17
:102540003C20F4E7174E56F8241019B1FDF7B0FE01
:102550002820ECE7012146F82410FDF7A9FE00230E
:1025600042463946284600F04BF9002701460097BD
:1025700001973B463A462046029700F0B5FE05001B
:1025800007D0FDF791FE46F82470FDF791FE28462E
:10259000CDE7054800780128F9D100F071FEF6E793
:1025A0004E0000205C750120530000202DE9F04F03
:1025B00081462DED028B83B08A46DDE90F879DEDC4
:1025C000118A129D93461C463F2B05D92A2003B041
:1025D000BDEC028BBDE8F08FFDF766FE1D49097862
:1025E00019B1FDF765FE3C20F1E71B4E56F82410AB
:1025F00019B1FDF75DFE2820E9E7012146F8241016
:10260000FDF756FE2A463946404600F04DFF2B4660
:102610005A465146484600F0F3F800978DED018A7E
:1026200001460295424620460E9B00F05DFE0500E5
:1026300008D0FDF739FE002146F82410FDF738FEDA
:102640002846C4E7054800780128F9D100F018FEB3
:10265000F6E700004E0000205C75012053000020CA
:10266000FEF758BFFEF758BF70B505460E46144634
:102670003F2803D9FF2D01D02A2004E02EB11248B3
:10268000007820B11220107070BD0C20FBE7FDF720
:102690000BFE0146FF2D03D10C48006890F8365020
:1026A0000B4850F82500432540B1012806D00665A7
:1026B0000846FDF7FDFD0020207070BD0846FDF7BF
:1026C000F7FD257070BD00004E0000206C0000205A
:1026D0005C75012010B504463F2801D32A2010BDA7
:1026E000FDF7E2FD01461F4850F8240058B10128CB
:1026F0000ED090F8342013072FD512F0F70280F88F
:1027000034200AD00BE00846FDF7D2FD462010BD6C
:102710000846FDF7CDFD432010BD026B22B10846EF
:10272000FDF7C6FD002010BD0F4A00F13800837888
:10273000147843EA0403137003780C4A4078D45C9D
:1027400044EA0004D4540846FDF7B2FD0848007876
:102750000128E7D100F094FDE4E70846FDF7A8FD65
:10276000442010BD5C750120520000208000002034
:1027700053000020FEF7F6BE2DE9F04104460D4659
:102780003F2804D9FF2C02D02A20BDE8F08145B1B2
:10279000002028606860FDF787FD0146FF2C02D00D
:1027A00005E00920F1E71448006890F83640134826
:1027B00050F8240058B1012809D0028AD2070BD062
:1027C000D0E9024700260846FDF772FD0AE00846F8
:1027D000FDF76EFD4320D8E70846FDF769FD45206B
:1027E000D3E7761C01CC0028FBD0B0002860B81BD2
:1027F000800068600020C8E76C0000205C75012044
:102800004FF080731360131F18606FF0010042F8DF
:10281000080CA2F138004FF012334FF00332C0E938
:102820000A234FF0023242624FF00132C0E9071230
:102830004FF0113181614FF0103141614FF009319A
:1028400001614FF00831C1604FF0073181604FF0F6
:10285000063141604FF0053140F804194FF0043162
:102860000160704770B5274D04463F2804D005D35A
:10287000FF280CD02A2070BD472070BDFDF714FD45
:102880000346286890F83600A04206D007E0FDF71E
:102890000BFD0346286890F83640012500E000252E
:1028A000194850F8240068B1012810D090F8382059
:1028B000164C90F83960A15CF643F6B23140A15451
:1028C0000AD010E01846FDF7F3FC482070BD18460A
:1028D000FDF7EEFC432070BD0D4A90F83A101478D5
:1028E00024EA0101117010F8341F41F00801017051
:1028F0001846FDF7DDFC012D01D100F0C1FC0020E0
:1029000070BD00006C0000205C750120800000207C
:1029100052000020FEF727BE70B504461448007828
:10292000002824D113480078002820D1002C1ED084
:10293000FDF7BAFC03461048104D006890F83810B7
:1029400090F839606A5CF643F6B232406A5406D1B8
:102950000B4A90F83A10157825EA010111700463CA
:102960001846FDF7A5FCBDE8704000F089BC70BDBD
:102970004E0000204F0000206C000020800000204E
:10298000520000202DE9F04100F052F8FDF78CFCD8
:10299000264D296B491C2963FDF78AFCE87901283B
:1029A00041D1687A0126002720B101283BD00228B6
:1029B00002D06F72EC6A32E06E72FBE7FDF774FCD6
:1029C000216B49B3491E216326D194F8341011F0CC
:1029D000370F06D001F0C80184F8341084F8356050
:1029E00001E084F8357094F83410090714D404F128
:1029F0003804AA79A178DFF834C041EA0201A9714C
:102A000021780CF1340C63781CF80120A4F138040F
:102A100042EA03020CF801206469FDF749FC94F8CE
:102A200036003F28CAD1BDE8F08100004C000020EC
:102A300010B5FEF7D9FD07480188491C89B201800D
:102A4000642905D300210180BDE8104000F004B8DE
:102A500010BD00004800002001480068FFF7FEBCE0
:102A6000A000002070B588B04FF420712E4800F00F
:102A7000B7FB40212D4800F0B3FB00202A49044653
:102A80006422431C00EB80001D4601EBC0009BB29A
:102A900003EB8303027001EBC30380F82540C3609E
:102AA00023A30362A8B20F28EBD300EB800001EB55
:102AB000C000027080F825401DA2C46002621D485B
:102AC0001E4A04601C480480102010801C480160CD
:102AD0000120FFF73DFC1B4D28600020FFF738FC6C
:102AE000194E05AA19A130602868FFF763FA05AAF4
:102AF0001BA13068FFF75EFA402102910320CDE967
:102B000003401C4A4FF6FD70CDE900023D23FC3224
:102B100000211948FFF74AFD06AA18A13D20FFF73A
:102B2000A3FD08B070BD0000147F01209482012035
:102B30003F00000098000020960000209400002034
:102B4000A40000209C000020A000002075432F4F0F
:102B5000532D494920546D724C6F636B0000000087
:102B600075432F4F532D494920546D725369676E39
:102B7000616C000094810120D52B000875432F4F14
:102B8000532D494920546D7200000000032280F843
:102B900025200E4A0129126813D0816989B1114498
:102BA00041610B4A01F0070102EBC10100230A68F1
:102BB000086042B1C26010618A88521C8A80036139
:102BC0007047C169EBE70122C360F7E79800002076
:102BD0009482012008B5DFF86880DFF868901A4E0B
:102BE0006A460021D8F80000FFF7D8FBFFF77CFB0E
:102BF0003068401C306000F00700022759F8304070
:102C000013E061693068E56881420DD1204600F02B
:102C10001DF894F8240002280CD084F8257062680E
:102C200012B12046A16890472C46002CE9D1FFF74D
:102C300071FBD5E701212046FFF7A8FFEFE7000071
:102C4000A0000020948201209800002010B5416966
:102C50000E4A01F0070102EBC10200231468C168AB
:102C6000844203D1116041B10B6106E0D0F810C07D
:102C7000CCF80C1009B1C1F810C0012180F8251062
:102C8000C36003619088401E908010BD9482012033
:102C900070B5244C0025E169491CE1612146227888
:102CA0008978062A0144C9B23AD2DFE802F0030A61
:102CB0000E1D2D31ED2803D101202070E570257106
:102CC00070BD8C282CD102200CE020B1002180287E
:102CD00002D9012201E001210022114320D1A0707C
:102CE00060700320207070BDE278802A03D20E4B02
:102CF0009854521CE270A1706078401E10F0FF00E2
:102D00006070F0D10420EDE7A17049B90520E9E732
:102D10008D2805D16089401C6081A06AFFF79EFB69
:102D2000257070BDA8000020D482012070B5FDF789
:102D300011FB144A1178491C1170FDF70FFB124C5E
:102D400040F225552946204600F01BFF48B1204699
:102D500000F0AAFFC0B2FFF79BFF2946204600F013
:102D6000F9FE40F227752946204600F00AFF28B1F7
:102D700000F048F82946204600F0ECFEBDE870401F
:102D8000FFF7C6B94E0000200048004010B50446C9
:102D900000F018F860640020206410BD10B500F049
:102DA00011F805490968D1E91023C31A1A440A64C5
:102DB00002490968486410BD6C00002074000020BE
:102DC000AFF3008070B5FDF76FFA054600F010F81C
:102DD00006490A890881821A886992B284182846AD
:102DE0008C61FDF765FA204670BD0000A800002048
:102DF0004FF0804000F003BE0146014800F058BF8C
:102E0000004800402DE9F0414A4F04263846BB797E
:102E10008189828A0025C089092B73D2DFE803F0FB
:102E20000518252F737B44505C0011430BD08C2078
:102E3000FFF7E2FF386A401C38620120F871B87170
:102E4000FD81BDE8F081FD71BDE8F04100F076B88C
:102E5000ED20FFF7D1FF386A401C3862B88908B10D
:102E6000022000E00620B871EBE7C8B2FFF7C4FF0C
:102E7000386A401C38620320B871B8892AE02E49AC
:102E80000C5C2046FFF7B8FF386A401C386278793E
:102E900020447871F889401C80B2F881B989884251
:102EA000CFD3BE71BD81CCE7521CD0B2FFF7A4FFD7
:102EB000386A401C38620720B871B88A401C09E0A3
:102EC0004320FFF799FF386A401C38620820B87128
:102ED000787943307871B4E7174980310C5C20462B
:102EE000FFF78AFF386A401C38627879204478718D
:102EF000F889401C80B2F881B98A8842A1D3BE719A
:102F0000BD829EE713E07879FFF776FF386A401CB0
:102F100038620520A7E78D20FFF76EFF386A401C56
:102F20003862BD713D82788A401C788289E7BD7124
:102F300089E70000A800002054830120002240F20D
:102F40002771014800F03CBE004800400B484FF498
:102F50007A710068B0FBF1F0B0F1807F0DD220F003
:102F60007F414FF0E020491E4161054AF021117078
:102F700000218161072101617047FEE724000020E4
:102F800023ED00E0F0B50546807A194C4FF00007BC
:102F9000205C05EB0006F67AA45D04EBC004E6B203
:102FA000144C54F8264004F12404E7602160217C8D
:102FB00021EA020121746374A4F1240409070BD4EB
:102FC0000D4994F83A208B791A438A71343194F878
:102FD00039300A5C1A430A542946204600F00EF89C
:102FE000216A19B1204600F01BF8E5613046F0BDBA
:102FF000267400085C7501204C00002010B590F884
:10300000382090F839408B18E443DA7AE4B2224051
:10301000DA7204D18A7A90F83A0082438A7210BD3B
:1030200030B510F8383F827890F801C0D2436FEA8B
:103030000C04E4B2D5B208680DE000BF00EB030C4D
:103040009CF80B2022408CF80B2002D1827A2A4077
:10305000827251F8040F0028F0D130BD30B5154907
:1030600000F10B020B6AD86193F838C093F839303D
:103070001CF802401C430CF802400A6A837A02F1F1
:103080003802947843EA04038372137801F134041C
:103090005578E05C6FEA0505EDB22840A2F13802F0
:1030A000E05405D192F83A008A7922EA000088714A
:1030B00030BD00004C0000200022827211464318EF
:1030C000491CC9B2DA720829F9D3704710B55021EA
:1030D0000E4800F085F800200C4A0146431C1C46AF
:1030E00002EB00109BB202EB03130170436008A3D4
:1030F000C360A0B20428F1D302EB0010017041605C
:1031000003A1C1600348026010BD0000EC7D0120F6
:103110003F0000008800002010B54FF4F071114806
:1031200000F05EF800200F4A0146431C1C4600EBED
:1031300040009BB202EBC00003EB430302EBC3036E
:103140000170436008A34361A0B21328EDD300EBE4
:10315000400002EBC0000170416003A141610348DF
:10316000026110BDFC7101203F0000004C000020F6
:1031700010B54FF4F261164800F032F84FF4807148
:10318000144800F02DF812490020421C00EB4004C6
:1031900004EBC000D3B203EB430401EBC00004EB2B
:1031A000C30301EBC30343610BA30365D0B215282E
:1031B000EBD300EB400202EBC00001EBC00006A322
:1031C0000022036542610548C262416210BD0000F1
:1031D0005C7601205C7501203F0000004C0000205F
:1031E000002203E0491E00F8012B89B20029F9D121
:1031F0007047000010B578210E48FFF7F1FF0D4A27
:10320000002000BF00EB400102EBC10101F11803F7
:103210004B60401C08A380B24B610428F2D300EB42
:10322000400002EBC0000021416003A1416103485E
:10323000026010BD3C7E01203F0000008C00002099
:1032400010B560210C48FFF7CBFF0B4A0020411C52
:103250008BB200EB400003EB430302EBC30342F8E5
:10326000303088B20328F2D300EB4000002142F84E
:1032700030100248026010BDB47E01209000002092
:1032800070B5FDF711F80E4D0446A87898B9E878A6
:1032900088B900F019F80B48697950F82100A86244
:1032A0002A79914207D0C16B491CC163E868401C70
:1032B000E860FDF710F82046BDE87040FCF7F8BF65
:1032C0004C0000205C7501200649054A01F13403D9
:1032D0008879105C1B5CD25C02EBC00048717047BF
:1032E000267400084C0000202DE9F04705462DED1E
:1032F000028B0E4690469946DDED0A8A9DED0B8ABB
:10330000DDF830A0FCF7D0FF394F7C6A002C6BD081
:1033100061697962FCF7CCFF266084F8365000269C
:1033200084F8346084F83560266384ED018AC4ED46
:10333000038A04F11C044FEAD50244F8148C24F8E3
:103340000CAC24F80A9CE677227705F007014FF0D1
:10335000010000FA02F2E176A27700FA01F060774C
:1033600026606660E660A6602662A662666221A0AC
:10337000E662C4E90C60A4F11C04304604EB800151
:1033800000F101004E6510F0FF00F7D02046FFF776
:10339000C3F82046FFF764F9FCF786FF014616489C
:1033A00040F82540F86AC4E9050600B18461FC6272
:1033B00004F13804BA79A07840EA0200B8710C48E8
:1033C000227800F134006478835C43EA0403835478
:1033D000387A00F1010038720846FCF769FF0020D6
:1033E000BDEC028BBDE8F087FCF762FF4220F7E7F7
:1033F0004C0000203F0000005C750120054C00BF20
:10340000FCF752FFE169491CE161FCF751FFFFF74E
:1034100029F9F5E74C000020144C02E0C820FFF722
:103420007BFA60780028F9D0642160690025B0FB40
:10343000F1F0606118B92570FF20FFF713FAFCF76F
:1034400033FFE169C4E90615FCF732FFD4E9051042
:10345000B0FBF1F0C0F164002070FFF78BF900F0D1
:1034600007F86420FFF758FAE9E700004C00002055
:103470007CB50C4D002469462046FFF77DF958B90C
:1034800055F8240040B1012806D0D0E9021201EB22
:10349000820181640199C164641CE4B23F2CEAD9C1
:1034A0007CBD00005C750120D30707D0920705D5CD
:1034B0000022002902D004C0491EFAE7704700002C
:1034C000044A0029116801D0014300E081431160E2
:1034D0007047000030380240044A0029116801D0CA
:1034E000014300E081431160704700004038024012
:1034F000044A0029116801D0014300E081431160B2
:103500007047000020380240044A0029116801D0A9
:10351000014300E0814311607047000044380240DD
:1035200030B5224B1968224A11F00C0104D0551015
:10353000042903D0082903D002601DE005601BE0C8
:103540001A49091F0C68C4F3805C0C68BCF1000FB9
:1035500004F03F0402D0B5FBF4F201E0B2FBF4F258
:103560000C680968C4F388146243C1F30141491C23
:103570004900B2FBF1F1016019680E4A01F0F00157
:103580000909545C0168E14041601C6804F4E0549E
:10359000A40A145D21FA04F484601B6803F46043F8
:1035A0005B0BD25CD140C16030BD000008380240E6
:1035B0000024F400380000202DE9F04F804687B049
:1035C00001210320FFF77CFF4FF4003A0121504610
:1035D000FFF782FF01268DF804600024DFF8D8B0E1
:1035E0004FF400478DF80640022500978DF80550EE
:1035F00069465846FEF742F8DFF8C09007220221DC
:103600004846FEF779F8072203214846FEF774F88A
:103610008DF8045004208DF8064000908DF8055078
:103620008DF8076069464846FEF728F808200090A4
:103630008DF804508DF8074069464846FEF71EF89D
:1036400001215046FFF754FF00215046FFF750FF7D
:10365000ADF810400C201A4DADF80C40ADF812003A
:10366000CDF80880ADF80E40ADF8144002A9284608
:1036700000F0BEFA4FF4A060FEF790FC26208DF813
:1036800018008DF819408DF81A408DF81B6006A8B7
:10369000FEF752FC012240F22551284600F090FA34
:1036A0000121284600F05CFA39465846FEF73BF8FF
:1036B00007B0BDE8F08F00000004024000000240A7
:1036C000004400402DE9F047DFF8509006460D46D3
:1036D0004FF4004841464846FEF727F80024104FB3
:1036E0000BE04021384600F045FA0028F9D0315D62
:1036F000384600F0DDFA641CE4B2AC42F1D340215C
:10370000384600F037FA0028F9D006490020087042
:1037100041464846BDE8F047FEF705B800040240C0
:103720000044004000000020704700002DE9F041F7
:1037300005460E460024114F1BE028064FF04001BD
:10374000384602D4FDF7EFFF01E0FDF7EEFF8021E0
:103750003846FDF7E8FF012002F002FA80213846E2
:10376000FDF7E3FF012002F0FBF96806050E641C7B
:10377000E4B2B442E1D3BDE8F081000000040240AD
:1037800070B50A4D044620212846FDF7CCFF0321E1
:103790008020FFF7CBFF09212046FFF7C7FF28460F
:1037A000BDE870402021FDF7C0BF000000040240CA
:1037B0002DE9F04105460E460024104F17E0E807BA
:1037C0004FF04001384616D0FDF7AFFF8021384654
:1037D000FDF7A9FF012002F0C3F980213846FDF76B
:1037E000A4FF012002F0BCF96D08641CE4B2B442ED
:1037F000E5D3BDE8F081FDF796FFE7E7000402405E
:10380000224900200A6842F480320A604FF4A06323
:103810000A6800F1010012F4003F01D19842F7D18B
:103820000868800331D519484030026842F0805260
:1038300002601748026842F4804202601348083070
:1038400002680260026842F400420260026842F4C8
:10385000A0520260031F0F4A1A600A6842F0807289
:103860000A600A689201FCD50B4A40F205611160BA
:10387000016821F003010160016841F0020101606B
:103880000168C1F381010229FAD170470038024072
:103890000070004008544007003C02404FF0E02117
:1038A0000428086903D020F004000861704740F044
:1038B0000400FAE710B5FCF7F7FC064A1178491C3A
:1038C0001170FCF7F5FCFFF75DF8BDE81040FEF75E
:1038D0001FBC00004E000020124810B5016841F4E2
:1038E000700101601048016841F0010101600E4A59
:1038F00000210832116002680C4B1A400260031D5F
:103900000B4A1A60026822F48022026006480C30DA
:103910000160FFF775FF03494FF0006080390860D0
:1039200010BD000088ED00E000380240FFFFF6FE09
:103930001030002410B5FEF7DFFB104C01212046AB
:1039400000F05FF8B0B10121204600F04BF80C48C0
:10395000C17979B90B4CA18939B9407802F0C2FF1D
:10396000A078401CA070A08920B1A089401EA08131
:103970000120A070BDE81040FEF7CABB000800405F
:10398000F2710120000000207FB504460D460121A0
:103990000420FFF7A1FD0194ADF800500024104D64
:1039A000ADF80840ADF802406946284600F03CF802
:1039B00001221146284600F02FF81E208DF80C0039
:1039C0008DF80D4003208DF80E0001208DF80F00BA
:1039D00003A8FEF7B1FA0121284600F006F87FBDE2
:1039E00000080040C943018270470029018802D0C5
:1039F00041F0010101E021F0010101807047406ABE
:103A00007047038A002280890B4200EA010001D03E
:103A100000B1012210467047002A828901D00A4372
:103A200000E08A438281704730B50288174B184CFA
:103A300098420DD0A0420BD0B0F1804F08D0154D68
:103A4000A84205D0144DA84202D0144DA84204D17A
:103A500022F0700C4A8842EA0C02114DA84207D0AD
:103A6000104DA84204D022F4407C0A8942EA0C029C
:103A700002804A68C2620A880285984201D0A04248
:103A800001D1897A01860121818230BD0000014087
:103A9000000401400004004000080040000C004009
:103AA0000010004000140040F0B591B0FCF752FC4B
:103AB000244A1178491C1170FCF750FC224C40F24A
:103AC0002551204600F05DF8B8B3204600F0ECF830
:103AD0001E4C01266D4621780DF80100491CC8B224
:103AE0002070684410F8010C242802D18DF80000E1
:103AF000267020780027284410F8010C3F2804D1B4
:103B0000277029462069FEF7C3FB2078284410F867
:103B1000010C262802D18DF8000026702078284458
:103B200010F8010C2A2808D127709DF801002328DD
:103B300003D169466069FEF7ABFBFEF7E9FA11B005
:103B4000F0BD00004E0000200044004000000020B6
:103B5000FFF7ECB80A0A01219140C9430180704780
:103B60000029818902D041F4005101E021F4005183
:103B7000818170470246002012880A4200D001204D
:103B8000704770B501F01F0601220025C1F34213F2
:103B900002FA06F4012B0FD0022B0FD0838A4FEAD2
:103BA00011210088234202FA01F200EA020001D04A
:103BB00000B10125284670BD8389F0E7038AEEE74E
:103BC000C1F3421301F01F0C012101FA0CF1012B8A
:103BD00007D0022B07D01430002A026805D00A4310
:103BE00004E00C30F8E71030F6E78A4302607047D3
:103BF0007FB50446008A0D4620F44051E88808430A
:103C00002082A08941F20C618843A9882A89114346
:103C10006A8902431143A181A08A20F44071A889D6
:103C20000843A0826846FFF77BFC1D48844202D00F
:103C30001C48844201D1039800E00298A18909043C
:103C4000002900EBC00101EB0010296802DA4FEAFD
:103C5000410101E04FEA8101B0FBF1F06422B0FBC9
:103C6000F2F14FEA01114FEA11136FF018056B439F
:103C700000EB8300A3891D044FF0320306D503EB4C
:103C8000C000B0FBF2F000F0070005E003EB00100D
:103C9000B0FBF2F000F00F00084320817FBD000070
:103CA00000100140001401408088C0F308007047F4
:103CB000C1F3080181807047FEE700002DE9F04163
:103CC000104F04460D46164620213846FDF72BFDC1
:103CD0000321A020FFF72AFDA006000E0621FFF712
:103CE00025FD002406E028780421FFF761FD641C0F
:103CF000E4B26D1CB442F6D33846BDE8F041202151
:103D0000FDF713BD0004024070B50D4E04460D468C
:103D100020213046FDF707FD0321A020FFF706FD17
:103D2000A006000E0621FFF701FD04212846FFF73B
:103D30003FFD3046BDE870402021FDF7F6BC000095
:103D40000004024003B401984100009850EAC120E9
:103D500018BF04204A0D18BF40F0010040F2FF7266
:103D6000B2EB515F08BF40F00200012808BF0520F8
:103D700002B070470000000070B59F482DED020BA7
:103D80002DED068B079D25F0004484421DDB9B48EA
:103D9000844202DC0FD1069868B19DED060B53EC0E
:103DA000102B51EC100B02F0F9FDBDEC068B02B0AC
:103DB00041EC100B70BD002DCCBF9FED910B9FED22
:103DC000920BBDEC068B02B070BD9148844215DAAF
:103DD00090488442A8BF4FF0FF3440DA9DED060BB7
:103DE00051EC100BFFF7AEFF042808BF00F0A8FA53
:103DF0009DED060BBDEC068B02B070BD9DED060B74
:103E000051EC100B01F0C8FE41EC100B82488DED17
:103E1000060B9FED839B84423CDA834884421FDA81
:103E200000249FED83AB51EC100B53EC1A2B02F0E6
:103E3000B5FD9DED060B41EC180B53EC1A2B51EC24
:103E4000100B03F04BF853EC192B03F087F953ECEC
:103E5000182B02F057FE41EC100B8DED060B49E0DC
:103E6000012453EC192B51EC100B02F097FD9DED42
:103E7000060B41EC180B53EC192B51EC100B03F013
:103E80006DF953EC182B02F03DFE41EC100B8DED5B
:103E9000060B2FE0684884421FDA02249FED68ABCE
:103EA00051EC100B53EC1A2B03F018F853EC192BB0
:103EB00002F074FD9DED060B41EC180B53EC1A2B30
:103EC00051EC100B03F04AF953EC182B02F01AFED8
:103ED00041EC100B8DED060B0CE053EC102B032482
:103EE0009FED590B51EC100B02F00CFE41EC100B46
:103EF0008DED060B9DED060B53EC102B51EC100BCA
:103F000002F0ECFF41EC180B53EC182B02F0E6FF2B
:103F100041EC190B4E480621B0EE490AF0EE690A51
:103F2000784400F091F953EC182B51EC100B02F08F
:103F3000D5FF41EC180B4748B0EE490AF0EE690A8C
:103F40000521784400F080F953EC192B51EC100B4B
:103F500002F0C4FF41EC100B51EC180B53EC102B8A
:103F6000002C0EDA02F01AFD9DED061B53EC112B0E
:103F700002F0B4FF9DED061B53EC112B03F0E2F8A9
:103F800035E002F00BFD9DED061B53EC112B02F00A
:103F9000A5FF41EC100B3048784400EBC40090EDD5
:103FA000001B51EC100B53EC112B03F0D7F89DEDD7
:103FB000061B53EC112B03F0D1F841EC100B2748F2
:103FC000784400EBC40090ED001B51EC100B53EC57
:103FD000112B03F0B7F841EC100B002DA2BFBDEC84
:103FE000068B02B070BD51EC100B02F099FC41EC55
:103FF000100BFFE600000000000010440000F07FFE
:10400000182D4454FB21F93F182D4454FB21F9BFCE
:104010000000DC3F0000203E0000F33F00000000F5
:10402000000000000000F03F0000E63F000000003C
:10403000000000000000004000800340000000007D
:10404000000000000000F83F000000000000F0BF8A
:104050007C9C0000329C0000BC9B0000749B000014
:1040600070B5694E2DED040B2DED028B82B0DDE9AC
:10407000053C079ACCF1000422F000414CEA04040C
:1040800041EAD474049D23F00040B44205D86C4248
:104090002C4340EAD474B44210D99DED060B53EC86
:1040A000102B9DED040B51EC100B02F077FC41EC52
:1040B000100B02B0BDEC028B04B070BDA2F14054F5
:1040C000A4F17F6454EA0C040BD0022404EAA27425
:1040D00044EAD37405439FED4E8B9FED4F2B07D0E1
:1040E00010E09DED040B51EC100B00F0CBF93BE020
:1040F000002C14BF012C9DED040BDAD0022C36D01D
:10410000032C39D051EA0C0C9FED451B9FED460B5B
:104110000AD0B14219D1B04209D121F0804120F03A
:1041200080400791059010E0002BC2DA11E0DFF823
:1041300000C1FC44002C08BF9CED000BB9D0012C41
:104140000CD0022C13D0032C16D0B04219D1002B66
:10415000AFDAB0EE410AF0EE610AAAE79CED000B7F
:1041600051EC100B02F0DCFB41EC100BA1E7B0EEC0
:10417000480AF0EE680A9CE7B0EE420AF0EE620AE6
:1041800097E7401A00153C2816DC002ABCBF10F146
:104190003C0F9FED290B0FDB9DED060B53EC102B15
:1041A0009DED040B51EC100B02F0ACFC01F0F4FCA3
:1041B00000F068F941EC100B002C8DED000B3FF482
:1041C00078AF012C10D0022C9FED1D0B53EC102B5F
:1041D0009DED000B51EC100B0ED002F0BFFF53EC25
:1041E000182B02F0BBFFBFE710EE900A80F00040F2
:1041F00001909DED000B5CE702F0B0FF53EC182B33
:1042000002F0A0FFB0E700000000F07F0000000017
:10421000182D4454FB210940182D4454FB2109C09A
:10422000182D4454FB21F9BF182D4454FB21F93FAC
:104230009A9A00000000000000000000000000004A
:10424000075C143326A6A13C70B505462DED028B04
:104250004C1E00EBC400B0EE408AF0EE608A90ED98
:10426000000B34F0060017D053EC182B51EC100B58
:1042700002F034FE41EC100B641E05EBC40090ED1F
:10428000001B51EC100B53EC112B02F087FB41EC9F
:10429000100B34F00600E7D1022C36D0042C1CD0D1
:1042A000062C1CBFBDEC028B70BD53EC182B51ECDF
:1042B000100B02F013FE95ED0A1B53EC112B02F0CC
:1042C0006DFB53EC182B02F009FE95ED081B53EC27
:1042D000112B02F063FB41EC100B53EC182B51EC4B
:1042E000100B02F0FBFD95ED061B53EC112B02F0B9
:1042F00055FB53EC182B02F0F1FD95ED041B53EC2C
:10430000112B02F04BFB41EC100B53EC182B51EC32
:10431000100B02F0E3FD95ED021B53EC112B02F0A4
:104320003DFB53EC182B02F0D9FD95ED001B53EC2F
:10433000112B02F033FBBDEC028B41EC100B70BD76
:104340009FED050B10B553EC102B51EC100B02F048
:10435000C5FD41EC100B10BD000000000000001076
:10436000F0B500234FF480625C1E02EBD27504EBC3
:10437000650419E05E1C00EE106A00EB8307B8EEDE
:10438000C00AD7ED000A20EE800A87ED000A00EE91
:10439000106A01EB83075B1CB8EEC00AD7ED000A78
:1043A00020EE800A87ED000A9C42E3DA6B10561E6D
:1043B0001DE000BFA2EB030CACF1010C00EE10CA33
:1043C00000EB8307B8EEC00AD7ED000A20EE200A02
:1043D00087ED000A00EE10CA01EB83075B1CB8EE04
:1043E000C00AD7ED000A20EE200A87ED000AB3428A
:1043F000E0DB00221BE000BF02EB650300EB83065D
:1044000000EB820796ED000AD7ED000A01EB83036B
:1044100030EE200A86ED000A01EB820693ED000AD9
:10442000D6ED000A521C30EE200A83ED000A9442B9
:10443000E2DC00220FE000BF02EB650300EB830625
:1044400001EB830356F8046C40F8226053F8043CF7
:1044500041F82230521C9442EEDAF0BDB5EEC00AAB
:10446000F1EE10FA05DDF1EEC00AC0ED000A002001
:1044700070479FED030A80ED000A4FF0FF30704750
:104480000000000010B541EC100BFFF775FC51EC7B
:10449000100B10BD2DE9F0430128089A6CD10529B5
:1044A00002D00A2939D02DE0547803EBC400857876
:1044B00090F801C090F8068006790BE003EBC40089
:1044C000641C877A8770477A4770877B8771077B80
:1044D0000771E4B2D079401EA042EFDCD07903EB43
:1044E000C00000F8065CD07903EBC00000F807CCF0
:1044F000D07903EBC00000F8028CD07903EBC00048
:1045000000F8046C14295FD1D17803EBC1008478E2
:10451000457890F806C0067942E0957803EBC5042B
:10452000A67894F8019094F806C094F804800BE003
:1045300003EBC5046D1CA77AA770677A6770A77B29
:10454000A771277B2771EDB2147A641EAC42EFDCB1
:10455000147A03EBC40404F8066C147A03EBC40465
:1045600004F8079C147A03EBC40404F802CC147A10
:1045700003EBC40404F8048C022825D1052925D0B6
:104580000A295CD050E000BF03EBC100491C877AC8
:104590008770477A4770877B8771077B0771C9B23D
:1045A000507A8842F0D8C0B203EBC0008470507AD1
:1045B00003EBC0004570507A03EBC00080F806C0E2
:1045C000507A03EBC0000671BDE8F083147903EB69
:1045D000C400C578467890F807C090F805800BE0D5
:1045E00003EBC400641CC77AC770477A4770C77B67
:1045F000C771477B4771E4B2907A401EA042EFDC5E
:10460000907A03EBC00000F8055C907A03EBC000E1
:1046100000F8076C907A03EBC00000F801CC907AA8
:1046200003EBC00000F8038C1429CDD1917903EB82
:10463000C100C4784578C67990F805C03AE0517950
:1046400003EBC100C4784578C67990F805C00BE04B
:1046500003EBC100491CC77AC770477A4770C77B14
:10466000C771477B4771C9B2D07A401E8842EFDCE0
:10467000D07A03EBC00000F8054CD07A03EBC00001
:1046800000F8075CD07A03EBC00000F8016CD07A28
:1046900003EBC00000F803CC96E700BF03EBC100BA
:1046A000491CC77AC770477A4770C77BC771477B79
:1046B0004771C9B2107B8842F0D8C0B203EBC0008A
:1046C000C470107B03EBC0004570107B03EBC0008F
:1046D000C671107B03EBC00080F805C074E7C9B257
:1046E00061F31F20704700002DE9F05F06462DEDB5
:1046F000108BADF5625D0C4617461D464FF0000865
:10470000DFEDFEDA0DF580504FF0010AB0EE6D0AD4
:1047100080ED060A80ED070A4FF4007002900DF557
:104720008050CDF81080C0F8148080ED080AFCF7A6
:10473000ADFDFCF7DFFCDFF8C8B300BFBBF8080035
:10474000BBF80A90A0EB090002F061FB9FEDED0BB6
:1047500053EC102B02F0C2FB9FEDEC1B53EC112B22
:1047600002F0BCFB02F0E8F8014642F2280068447F
:1047700040F82810BBF80600A0EB090002F047FB48
:104780009FEDE01B53EC112B02F0A8FB9FEDDF1B0C
:1047900053EC112B02F0A2FB02F0CEF8014641F2DD
:1047A0002800684440F82810242001F0D9F908F1C5
:1047B00001089FEDD8CB9FEDD9EB9FEDDAFB9FED84
:1047C000DBAB9FEDDCBBB8F5806FB7DB42F22801B5
:1047D0006944A1F58050FFF7C3FD0DF56151CDF897
:1047E00000A0A1F11800049B029AFBF7BBFF41F265
:1047F0002801694405AA01F52050FBF73DFF0DF59E
:10480000805001214161089802F092FD41EC180BA3
:10481000079802F08DFD41EC100BB0EE481AF0EE57
:10482000681AFFF71DFC43F22801B0EE409AF0EE43
:10483000609A694405A8029AFBF706FE029841F2C5
:10484000140341086B4443F2280088461A1D68444B
:104850000391FBF7C1FF0DF5805090ED060A9FED27
:10486000B7DAC0EE0D0ABCEEE00A10EE100A80B214
:1048700002F0E4FA9FEDB21B53EC112B02F042F967
:1048800002F098FAB04905AA088042F2280169446A
:1048900001F5C050FBF7F0FE0DF5805005A9406909
:1048A00001EBC0000090406802F042FD41EC180BA3
:1048B0000098006802F03CFD41EC100BB0EE481A85
:1048C000F0EE681AFFF7CCFB43F22801B0EE408A05
:1048D000F0EE608A694405A8029AFBF7B5FD41F243
:1048E00014036B4443F2280003F108024146684474
:1048F000FBF772FF0DF58050DFF8509290ED070A3C
:10490000C0EE0D0ABCEEE00A10EE100A02F096FAB4
:104910009FED8F1B53EC112B02F0E0FA02F04AFAE4
:10492000C9F8000053EC182B51EC190B02F016FCDF
:104930008046009102F000F800EE100AFBF71CFD23
:1049400020EE0D0A8449BCEEC00A10EE100A087071
:10495000009941EC108B51EC100B01F0EDFF00EED3
:10496000100AFBF709FD0099B0EE40DA41EC108B1C
:1049700051EC100B01F0E0FF00EE100AFBF7FCFC1D
:10498000F0EE400AB7EE000A0DF581500DEE600A18
:10499000FFF764FD6C48D9F800100DF5805C0088C5
:1049A000DCED080A484300EE100AB2EE041AB8EE35
:1049B000400A20EE200AC0EE011ABCEEE10A8CED9E
:1049C000090A00EE100AB8EE400A20EE200ADFEDD8
:1049D000630A634953EC192B80EE201ABCEEC10A1E
:1049E00010EE100A088051EC180B02F0B7FB9FED97
:1049F0005D1B53EC112B02F071FA9FED5C1B53EC25
:104A0000112B02F07FF853EC1C2B02F0A7FB41ECBA
:104A1000180B53EC1E2B02F05FFB32D253EC1C2B15
:104A200051EC180B02F01EFA02D201208BF80300A1
:104A300053EC1C2B51EC180B02F04EFB0BD89FEDE6
:104A40004D0B51EC180B53EC102B02F00BFA02D863
:104A500000208BF803009FED470B51EC180B53EC33
:104A6000102B02F039FB0BD29FED440B51EC180BCD
:104A700053EC102B02F0F6F902D200218BF8031050
:104A8000A9E053EC1E2B51EC180B02F0EBF97DD88A
:104A900053EC1F2B51EC180B02F01EFB09D853EC02
:104AA0001A2B51EC180B02F0DDF902D201208BF821
:104AB000030053EC1A2B51EC180B02F00DFB09D834
:104AC00053EC1B2B51EC180B02F0CCF902D2002056
:104AD0008BF803009FED2B0B51EC180B53EC102BB4
:104AE00002F0FAFA09D853EC1F2B51EC180B02F024
:104AF000B9F902D201208BF8030048E00000000061
:104B0000000000206666666666660A4000000000D7
:104B10000000303F00000000008056400000000010
:104B20000000000000000000008076C000000000CF
:104B300000E070C000000000008066C00000C842B5
:104B40006666666666E604400A01002018010020D9
:104B5000A52C431CEBE2F03F0601002000007A4444
:104B60001001002000000000008076401C2D4454FD
:104B7000FB2119400000000000806640000000009A
:104B800000E070400000000000207CC023E09FEDAA
:104B9000FE9B51EC180B53EC192B02F09DFA09D235
:104BA00053EC1E2B51EC180B02F05CF902D80120DB
:104BB0008BF8030053EC1B2B51EC180B02F08CFA12
:104BC00009D853EC192B51EC180B02F04BF902D811
:104BD00000208BF8030000202521CDE900010346C9
:104BE0000246212100F008FFFCF760FBFCF792FA77
:104BF0000DF58050F0EE6DEAC0ED06EA1FED3F8B3B
:104C00001FED3E9BC0ED07EA4FF00008DFF880B3D0
:104C1000BBF80810BBF80A90A1EB090002F0F7F806
:104C200053EC182B02F05AF953EC192B02F056F9F9
:104C300001F082FE014642F22800684440F8281044
:104C4000BBF80600A0EB090002F0E1F853EC182BCA
:104C500002F044F953EC192B02F040F901F06CFE1C
:104C6000014641F22800684440F82810242000F052
:104C700077FF08F10108B8F5806FC7DB42F2280121
:104C80006944A1F58050FFF76BFB0DF56151A1F16F
:104C90001808CDF800A04046049B029AFBF762FD7D
:104CA0000DF114094A46A8F520514046FBF7E4FCF3
:104CB0000DF5805101204861089802F039FB41EC64
:104CC0001A0B079802F034FB41EC100BB0EE4A1AB5
:104CD000F0EE6A1AFFF7C4F9A8F5006BB0EE40BA1F
:104CE000F0EE60BA59464846029AFBF7ADFB09F56B
:104CF00080531A1D58460399FBF76EFD0DF5805041
:104D0000D0ED060A1FED73EA80EE8E0ABCEEC00AF3
:104D100010EE100A80B202F091F81FED77CB53EC41
:104D20001C2B01F0EFFE02F045F89A494A46088034
:104D3000A8F5C0514046FBF79FFC0DF58050406937
:104D400009EBC008D8F8040002F0F2FA41EC1A0BA3
:104D5000D8F8000002F0ECFA41EC100BB0EE4A1A61
:104D6000F0EE6A1AFFF77CF9B0EE40AAF0EE60AA06
:104D700059464846029AFBF767FB09F5805303F151
:104D8000080258460399FBF727FD0DF58050DFF820
:104D900008B290ED070AC0EE0E0ABCEEE00A10EE73
:104DA000100A02F04BF81FED96DB53EC1D2B02F0BE
:104DB00095F801F0FFFFCBF8000053EC1A2B51ECF3
:104DC0001B0B02F0CBF9894649EC100B804651ECE5
:104DD000100B01F0B1FD00EE100AFBF7CDFA20EE4A
:104DE0000E0A6E49BCEEC00A10EE100A49EC108B98
:104DF000087051EC100B01F09FFD00EE100AFBF75C
:104E0000BBFAF0EE40AA49EC108B51EC100B01F00C
:104E100093FD00EE100AFBF7AFFAB7EE00AAF0EE32
:104E2000400AB0EE4A0A0DF581500AEEE00AFFF79B
:104E300015FB5848DBF80010B2EE04BA008848436E
:104E400000EE100A0DF58051F8EE400A91ED080AC7
:104E500060EE800A80EE8B1AFCEEC10A10EE90BA6A
:104E600000EE900AF8EE600A60EE800A5FEDC5AAD7
:104E70004B4980EEAA0ABCEEC00A10EE100A088068
:104E800000204021CDE9000103460246212100F027
:104E9000B3FDFCF71BFAFCF74DF90DF58050C0EDA2
:104EA00006EA1FEDEA0A4FF0000880ED070A3848CD
:104EB0000189B0F80A90A1EB090001F0A8FF53ECBA
:104EC000182B02F00BF853EC192B02F007F801F045
:104ED00033FD014642F22800684440F828102C486F
:104EE000C088A0EB090001F092FF53EC182B01F0F1
:104EF000F5FF53EC192B01F0F1FF01F01DFD014608
:104F000041F22800684440F82810242000F028FED0
:104F100008F10108B8F5806FC9DB42F22801694445
:104F2000A1F58050FFF71CFA0DF56151CDF800A0F6
:104F3000A1F11800049B029AFBF714FC41F228012E
:104F4000694405AA01F52050FBF796FB0DF580504A
:104F500001214161089802F0EBF941EC180B079828
:104F600002F0E6F941EC100BB0EE481AF0EE681AC8
:104F7000FFF776F843F22801B0EE409AF0EE609A1F
:104F8000694405A8029A0DE000000000008056C0A8
:104F9000000000200C0100201C010020070100205F
:104FA00012010020FBF750FA41F214036B4443F264
:104FB00028001A1D68440399FBF70EFC0DF580507C
:104FC00090ED061A9FEDFE0AC1EE000ABCEEE00A63
:104FD00010EE100A80B201F031FF53EC1C2B01F0EF
:104FE00091FD01F0E7FEF74905AA088042F2280189
:104FF000694401F5C050FBF73FFB0DF5805005A952
:10500000406901EBC008D8F8040002F091F941ECC6
:10501000180BD8F8000002F08BF941EC100BB0EE41
:10502000481AF0EE681AFFF71BF843F22801B0EEB9
:10503000408AF0EE608A694405A8029AFBF704FAF8
:1050400041F214036B4443F2280003F10802684460
:105050000399FBF7C1FB0DF5805090ED070A9FED1A
:10506000D81AC0EE010ABCEEE00A10EE100A01F0F8
:10507000E5FE53EC1D2B01F031FF01F09BFE0146D4
:10508000D14853EC182B016051EC190B02F066F873
:10509000894649EC100B804651EC100B01F04CFC9A
:1050A00000EE100AFBF768F9DFEDC50AC74920EEEC
:1050B000200ABCEEC00A10EE100A49EC108B0870F2
:1050C00051EC100B01F038FC00EE100AFBF754F91C
:1050D00049EC118BB0EE408A51EC110B01F02CFC25
:1050E00000EE100AFBF748F908EE40AA0DF58150D2
:1050F000B0EE4A0AFFF7B2F9B248B3494FF0000ADE
:10510000008809685346484300EE100A0DF58051A7
:105110005246F8EE400A91ED080AAD4960EE800A69
:1051200080EE8B1AFCEEC10A10EE908A00EE900A17
:10513000F8EE600A20EE800AC0EE2A0ABCEEE00A11
:1051400010EE100A08802121CDE900A1504600F0A0
:1051500053FCA048A0490088098808449949098857
:10516000084401F06BFE9FED9D1B53EC112B01F0E9
:10517000B5FE9FED9C1B53EC112B01F0C3FC01F01D
:1051800019FE9A490322DFF87C92088098489949D1
:1051900000230068096808448B4909680844B0FB8B
:1051A000F2F09549086095480178954800780144E7
:1051B000864800780844B0FBF2F089F800000DF54D
:1051C00080501A46416A01EB0B0040446421B0FB59
:1051D000F1F0DFF83482DFF834B21946A8F80000A5
:1051E000CDF800A09BF8010000F0E8FF8848A17A04
:1051F00001704FF4FA6000F095FC99F800305A2BDA
:1052000079D28448C078012875D12878002872D0D6
:10521000B8F8000014283FD395F80380697A05E0B8
:1052200004EBC80212793AB108F101084145F7DAF6
:1052300095F80680297B2DE04FF0010A04EBC809A0
:10524000CDF800A099F801109BF801005346524692
:1052500000F0B4FFCDE902A6CDF804A0049499F8BB
:105260000600009099F8022099F80110012308F037
:10527000FF0001F035F940F6B83000F053FC23464A
:10528000324614210FE100BF04EBC802527952B13B
:1052900008F101084145F7DA0A2873D3297A95F80D
:1052A0000280491E34E04FF0010A04EBC809CDF832
:1052B00000A099F801109BF801000223524600F06B
:1052C0007DFF0220CDE90206CDF804A0049499F8F0
:1052D0000700009099F8032099F80110012308F0C5
:1052E000FF0001F0FDF840F6B83000F01BFC23464B
:1052F0003246142110E1C5E0CDE90075FFF7CAF888
:1053000062E300BF04EBC802127942B108F1010860
:105310004145F7DAE97A95F80580491E30E04FF00B
:10532000010A04EBC809CDF800A099F801109BF818
:1053300001005346524600F041FFCDE902A6CDF8E8
:1053400004A0049499F80600009099F8022099F8B6
:105350000110012308F0FF0001F0C2F82C4899F871
:105360000110017040F6B83000F0DCFB23463246F5
:105370000A2198E004EBC802527952B108F1010801
:105380004145F7DA05287DD3E87995F80180401E7C
:105390005AE04FF0010A04EBC809CDF800A099F8D3
:1053A00001109BF801000223524600F007FF022083
:1053B000CDE90206CDF804A0049499F807002BE08B
:1053C0000000C8420E01002020010020080100203A
:1053D000140100200A0100200C01002083C0CAA192
:1053E00045B6FB3F000000000000084026010020F9
:1053F000180100201C0100202C01002006010020C3
:10540000070100202401002028010020F271012062
:105410000901002000000020009099F8032099F86D
:105420000110012308F0FF0001F05AF840F6B830EF
:1054300000F078FB234632460A216DE004EBC801F8
:10544000097941B108F101084045F7DAA87A95F8E1
:105450000480401E30E04FF0010A04EBC809CDF88B
:1054600000A099F801109BF801005346524600F045
:10547000A5FECDE902A6CDF804A0049499F8060093
:10548000009000E01AE099F8022099F80110012339
:1054900008F0FF0001F024F840F6B83000F042FBBD
:1054A000234632460521012026E700BF04EBC80150
:1054B000497951B108F101084045F7DA5F2B03D96A
:1054C000FB48C078012829D09BE04FF0010A04EB8B
:1054D000C809CDF800A099F801109BF8010002233B
:1054E000524600F06BFE0220CDE90206CDF804A082
:1054F000049499F80700009099F8032099F8011096
:10550000012308F0FF0000F0EBFF40F6B83000F098
:1055100009FB2346324605210220EDE62878A8B390
:10552000E87995F80180401E07E000BF04EBC80150
:105530000979012947D008F101084045F6DAA87A2F
:1055400095F80480401E06E004EBC8014979012962
:105550007CD008F101084045F6DA287A95F80280F7
:10556000401E0CE040F6B83000F0DCFA2CE200BF40
:1055700004EBC8010979012925D008F1010840454B
:10558000F6DAE87A95F80580401E08E039E000BFB9
:1055900004EBC80149790129DAD008F10108404536
:1055A000F6DA95F80380687A07E000BF04EBC801DB
:1055B0000979012907D008F101084045F6DA95F884
:1055C0000680287B1BE0002004EBC8050090012327
:1055D00069789BF801001A4600F0F0FD0120CDE942
:1055E000020604940190A8790090AA7827E000BFF1
:1055F00004EBC801497901290ED008F101084045A2
:10560000F6DAAC4890F800A0BAF15A0F32D2A848A6
:10561000C07801281BD02DE0002004EBC8050090C5
:1056200069789BF801000223012200F0C7FD0221E6
:1056300001AA0120049443C2E8790090EA786978CD
:10564000002308F0FF0000F04BFF8BE75AE13978A8
:1056500081B1994A012013880AE000BF06EBC00817
:1056600098F802209A4202D298F805206AB1401CAC
:105670008142F3DA914890F80090B9F15A0F27D29D
:105680008B48C078012810D022E001242F21CDE9D9
:10569000004106EBC000234641789BF801002246FA
:1056A00000F0AAF988F805405CE7397881B1844AAE
:1056B000012013880AE000BF06EBC00898F8032019
:1056C0009A4202D298F806206AB1401C8142F3DA6D
:1056D0007C4890F800C0BCF15A0F27D27448C078BB
:1056E000012810D022E001242F21CDE9004106EB52
:1056F000C000022341789BF80100224600F07CF9AB
:1057000088F806402EE7397881B16F4A0120138866
:105710000AE000BF06EBC00898F804209A4202D2C3
:1057200098F8072052B1401C8142F3DABAF15F0FBA
:1057300020D95F48C078012810D01BE001242F2118
:10574000CDE9004106EBC000032341789BF801003E
:10575000224600F051F988F8074003E7397849B14B
:10576000012005E006EBC0025279012A0AD0401C54
:105770008142F7DAB9F15F0F20D94D48C07801288E
:105780000FD01BE02F210025CDE9005106EBC0040E
:10579000012361789BF801001A4600F02DF965712C
:1057A000E0E6397851B1012006E000BF06EBC00207
:1057B0009279012A0AD0401C8142F7DABCF15F0FCE
:1057C00020D93B48C07801280FD01BE02F210025AD
:1057D000CDE9005106EBC0049BF80100617802237B
:1057E000012200F009F9A571BCE6397891B30120D6
:1057F00006E000BF06EBC002D279012A06D0401CA9
:105800008142F7DA2A4BD87878B1DDE02F210025E4
:10581000CDE9005106EBC0049BF801006178032339
:10582000012200F0E9F8E5719CE6297881B395F84A
:105830000380697A08E000BF04EBC8021279012AEC
:105840003FF4C1AE08F101084145F5DA95F806804C
:10585000297B08E077E000BF04EBC8025279012AF7
:1058600050D008F101084145F6DA297A95F802800E
:10587000491E06E004EBC8021279012AE0D008F1C3
:1058800001084145F6DAE97A95F80580491E08E0F5
:1058900033E000BF04EBC8025279012A32D008F18C
:1058A00001084145F6DAE97995F80180491E14E0CE
:1058B0000000002006010020100100200701002048
:1058C00012010020080100201401002004EBC8028E
:1058D0001279012AB4D008F101084145F6DAA97A13
:1058E00095F80480491E06E004EBC8025279012AAB
:1058F00008D008F101084145F6DA397819B398461D
:1059000090B161E0002004EBC805009069789BF835
:1059100001000223012200F051FC02200121CDE907
:105920000110CDE9036487E601204FF4FA7905E020
:1059300006EBC0025279012A06D0401C8142F7DAF8
:1059400098F8030090B13FE02F210025CDE90051E8
:1059500006EBC004012361789BF801001A4600F0B1
:105960004BF86571484600F0DDF8E9E7397859B33E
:10597000012005E006EBC0029279012A06D0401C06
:105980008142F7DA98F8030090B11DE02F2200253C
:10599000CDE9005206EBC0049BF8010061780223B8
:1059A000012200F029F8A571484600F0BBF8E9E7AC
:1059B000397849B1012005E006EBC002D279012A0D
:1059C00009D0401C8142F7DA0DF5625D0020BDEC84
:1059D000108BBDE8F09F2F210025CDE9005106EB8B
:1059E000C0049BF8010061780323012200F004F851
:1059F000E5714846B8E50000F0B42426DDE904C4AA
:105A000029483F25252C12D0402C22D0212C37D0DC
:105A10002F2C47D1067041708270C37080F804C08B
:105A2000447185710721F0BC1F48FDF74BBE1F492B
:105A3000067009884170090A81701D490968C170A2
:105A4000090A01711B4909884171090A81711A49C2
:105A500010E01A49067009884170090A81701849D6
:105A60000968C170090A0171164909884171090A5A
:105A7000817115490978C171047245720A21D2E712
:105A80001249067009884170090A81701049096835
:105A9000C170090A01710F4909884171090A8171B0
:105AA0000D49E7E7F0BC7047E47101200A010020CE
:105AB0001801002010010020060100200C01002028
:105AC0001C01002012010020070100200E0100200F
:105AD00020010020140100200801002010B56FF003
