:020000040800F2
:1000000028CA002069020008072600080920000805
:100010000526000879170008AD440008000000001C
:10002000000000000000000000000000B53E0008D5
:100030000518000800000000EB02000869400008F5
:10004000830200088302000883020008830200087C
:10005000830200088302000883020008830200086C
:10006000830200088302000883020008830200085C
:10007000830200088302000883020008830200084C
:10008000830200088302000883020008830200083C
:10009000830200088302000883020008830200082C
:1000A000830200088302000883020008830200081C
:1000B00083020008E9400008830200088302000868
:1000C00083020008830200088302000883020008FC
:1000D00083020008830200088942000845430008A3
:1000E0000918000883020008830200088302000840
:1000F00083020008830200088302000883020008CC
:1001000083020008830200088302000883020008BB
:1001100083020008830200088302000883020008AB
:10012000830200088302000883020008830200089B
:10013000830200088302000883020008830200088B
:10014000830200088302000883020008830200087B
:10015000830200088302000883020008830200086B
:10016000830200088302000883020008830200085B
:10017000830200088302000883020008830200084B
:10018000830200088302000800F002F800F05CF827
:100190000AA090E8000C82448344AAF10107DA45E2
:1001A00001D100F051F8AFF2090EBAE80F0013F0D8
:1001B000010F18BFFB1A43F001031847A40D0100FB
:1001C000C40D01000A444FF0000C10F8013B13F07D
:1001D000070408BF10F8014B1D1108BF10F8015BA0
:1001E000641E05D010F8016B641E01F8016BF9D193
:1001F00013F0080F1EBF10F8014BAD1C0C1B09D1EA
:100200006D1E58BF01F801CBFAD505E014F8016B5B
:1002100001F8016B6D1EF9D59142D6D370470000ED
:100220000023002400250026103A28BF78C1FBD8FF
:10023000520728BF30C148BF0B6070471FB50AF096
:100240009EFA1FBD10B510BD00F054FF1146FFF718
:10025000F5FF08F00FFF00F072FF03B4FFF7F2FFA5
:1002600003BC00F073FF00000948804709480047BD
:10027000FEE7FEE7FEE7FEE7FEE7FEE7FEE7FEE756
:10028000FEE7FEE704480549054A064B70470000B3
:100290008D4000088901000828C4002028CA0020D9
:1002A00028C6002028C60020EFF3108072B67047E1
:1002B00080F3108870471D484FF0FF010170002047
:1002C00080F309881A48012101701A484FF08051C3
:1002D000016062B6FEE717484FF080510160704739
:1002E00014484FF080510160704772B6EFF30980F7
:1002F00028B1203880E8F00F0F490968086000B580
:100300000E4880475DF804EB0D480E490A780270EC
:1003100009480D490A680260106890E8F00F203023
:1003200080F309884EF0040E62B6704722ED00E0BB
:100330006300002004ED00E07C000020ED2F0008A9
:1003400060000020610000208400002072B6704729
:1003500062B67047EFF3108072B6704780F3108872
:100360007047B0FA80F0704790FAA0F0704730BF45
:10037000704720BF70470000DFED2E0AB5EEC00ABF
:1003800060EE200ABDEEE01A11EE100AF1EE10FA4E
:1003900038BF401E00EE100ADFED271AF7EE005AB4
:1003A000B8EEC00ADFED274A244930EEC01A21EE2C
:1003B000210AFCEEC00A10EE900A00EE900A01EB52
:1003C0008000B8EE600ADFED1E0AF0EC012A11EEA3
:1003D000210AF6EE001AB0EC013AF0EC013A20EEF8
:1003E000001A20EE216A40EE615A20EE245A21EED6
:1003F000212A90ED004A00EE602A66EE010A40EEE6
:10040000400A05EE412A70EEA55AF0EE400A41EE90
:10041000210A46EE410A25EE011A00EE641A22EE88
:10042000820A63EEA00A03EE250A44EE010A30EECA
:10043000200A704783F9223E00008043B4A80008D8
:10044000ABAAAA3EABAA2A3E9FED3A0A5FEA920CFB
:1004500053D000BFB0EC011A0B1DF0EC010A21EEE5
:10046000011A00EEA01AB5EEC01AF1EE10FAC6BFDE
:10047000F1EEC10AC1ED000A81ED000AF0EC010ABB
:10048000191DB0EC011A60EEA00A41EE010AF5EE6A
:10049000C00AF1EE10FAC6BFF1EEE00AC3ED000AA1
:1004A00083ED000AB0EC011A0B1DF0EC010A21EEFD
:1004B000011A00EEA01AB5EEC01AF1EE10FAC6BF8E
:1004C000F1EEC10AC1ED000A81ED000AB0EC011A9B
:1004D000191DF0EC010A21EE011A00EEA01AB5EE8A
:1004E000C01AF1EE10FAC6BFF1EEC10AC3ED000A60
:1004F00083ED000ABCF1010CACD112F0030208BF7D
:10050000704700BFF0EC010A0B46B0EC011A091D60
:1005100060EEA00A41EE010AF5EEC00AF1EE10FA13
:10052000C6BFF1EEE00AC3ED000A83ED000A521ED9
:10053000E8D17047000000002DE9F00700EBC10989
:10054000DDE90778D0F800A0C9F800A007EB011496
:10055000D0F804A0251FA9F10406C9F804A003EBF4
:10056000C80907F1080C00F1080402EBC8024B1E91
:1005700031D000BFF2EC011A96ED002A92ED001A7C
:1005800002EBC802B4EC010A121FF4EC012A60EE7F
:10059000210A20EE010A32EE823A02EEA10AD9EDDA
:1005A000001A43EE410A09EBC80902EE610A16ED92
:1005B000012A083E42EE210A02EE410AECEC010A51
:1005C000ACEC010AB1EE400A85ED000A45ED010AE6
:1005D000083D5B1ECED190ED000AD0ED010A07EB7D
:1005E000C10130EE600A81ED000A9FED5D0A81EDE8
:1005F000010AD0ED000A90ED011A70EE810AC7EDF4
:10060000000A87ED010ABDE8F007704770B400EBFF
:10061000C105DDE903C42D1D002904BF70BC70476E
:10062000F2EC011A95ED002A92ED001A02EBC402D9
:10063000B0EC010A121FF0EC012A60EE210A20EE54
:10064000410A32EE823A02EEA10AD3ED001A43EEDD
:10065000010A03EBC40302EE610A15ED012A083D0D
:10066000491E42EE210A02EE010AECEC010AACEC52
:10067000010AD5D170BC70472DE9F04305464469A5
:10068000807983B00F461646012809D0A3892188B6
:100690003846626800F036F9E87901284ED053E018
:1006A000AA88D5E9030307EBC20CD5F808803146C8
:1006B0000CF1040C5AB300BFB0EC011A9CED002AF7
:1006C000D0ED001A00EBC800B7EC010A001FF7ECF0
:1006D000012A521E60EE010A20EE610A32EE823AD1
:1006E00002EE810A93ED001A43EE210A03EBC803E0
:1006F00002EE410A1CED012AACF1080C42EE010A9F
:1007000002EE210AE1EC010AA1EC010AD4D194ED38
:10071000040AA38921883046626800F095FAE879D6
:1007200001281CBF03B0BDE8F083E2892188A368DB
:1007300003B03046BDE8F04300F08CB8E289218870
:100740003846A36800F086F8A868CDE90060D5E9CE
:100750000323A9883846FFF7EFFE03B0BDE8F08316
:100760000000000070B592B2DDF810C055080260BC
:100770008580184EC66006F50056DBB2066100247F
:10078000837180F807C0802A04BF102282600BD0DA
:10079000B2F5007F08BF042212D0B2F5006F14BF7B
:1007A0004FF0FF3401220BD0002B8C4641614FF0FB
:1007B000000307D001222946604600F015FC06E040
:1007C0008260F1E700222946604600F00DFC2046D9
:1007D00070BD0000C0AC000870B40025B0EC010A88
:1007E000A1F1010CF0EC010AB4EEE00AF1EE10FA0E
:1007F0003CBFB0EE600A0125ACF10104A446B4F19F
:10080000004F0ED3F0EC010AB4EEE00AF1EE10FA5C
:100810003CBFB0EE600AA1EB0C05BCF1010CF1D1BC
:1008200013E0002CC8BF00260FDD00BFF0EC010A6A
:10083000B4EEE00AF1EE10FA04D2ACEB0605B0EE2D
:10084000600A4D1B761C641EF0D182ED000A1D600B
:1008500070BC70472DE9F0014E0801244FF0000CE8
:1008600004EB51076146A6F102082CE061452AD24B
:1008700000EBCC0500EBC104D5ED000A94ED000AB5
:10088000C4ED000A85ED000AD5ED010A94ED010AD8
:10089000C4ED010A85ED010A0CEB0705CC1900EB4C
:1008A000C50500EBC404D5ED000A94ED000AC4EDC3
:1008B000000A85ED000AD5ED010A94ED010AC4EDA8
:1008C000010A85ED010A00EBC104B44400EBCC0C35
:1008D00094ED020ADCED000A891CC4ED020A8CEDDD
:1008E000000A94ED030ADCF80450E5608CED010A7F
:1008F000B3F800C089B203EB42034145B6D9BDE865
:10090000F00170472DE9F04F4FEA910C4FF00008CD
:100910004746644608EB0C0505EB0C0909EB0C0691
:1009200000EBC80A00EBC9099AED000AD9ED000AEC
:1009300099ED012A00EBC50530EE201A30EE600A71
:10094000DAED010A00EBC60608F1010870EE821A22
:1009500070EEC20A95ED002AD6ED002A641E32EE32
:10096000222A71EE022A31EE421ACAED002A95EDD2
:10097000012AD6ED012A32EE222A71EE822A71EE88
:10098000C21ACAED012A95ED012AD6ED012A96ED8B
:10099000003A4FEA470A32EE622AD5ED002A02EB0E
:1009A000CA0B72EEC32A9BED003ADBED013A21EE51
:1009B000034A01EEA34A61EE831A41EE631A85ED04
:1009C000004A30EE021A30EE420AC5ED011A02EB7F
:1009D000C70570EEE21A95ED002A70EEA20AD5ED79
:1009E000012A21EE023A0AEB070502EBC5051F4476
:1009F00001EEA23A61EE821A41EE621A89ED003AE6
:100A0000C9ED011AD5ED001A95ED011A20EE212A43
:100A100000EE812A60EEA10A40EE410A86ED002A2E
:100A2000C6ED010A7FF476AF9B044FEA134BE6460E
:100A3000BCF1040F7DD9E0464FEA9C0C4FF0000951
:100A4000CA46BCF1000F75D94FEA490404EB09030B
:100A500002EBC90502EBC40402EBC30395ED001AD7
:100A6000D5ED011A94ED000AD4ED010A93ED002AA8
:100A7000D3ED012AD94453468A4573D203EB0C04C3
:100A800004EB0C0606EB0C0500EBC30700EBC606F7
:100A900097ED003AD6ED003A96ED015A00EBC4040A
:100AA00073EE234A33EE633AD7ED013A00EBC50506
:100AB00033EE854A73EEC53A94ED005AD5ED005AEF
:100AC00035EE255A74EE855A74EEC54AC7ED005AC4
:100AD00094ED015AD5ED015A35EE255A74EE055ABA
:100AE00034EE454AC7ED015A94ED015AD5ED015A4D
:100AF00095ED006A35EE655AD4ED005A75EEC65A8A
:100B000024EE806A04EE206A24EE004A04EEE04AF5
:100B100084ED006A73EEE54A73EEA53A84ED014A6E
:100B200033EE054A33EE453A24EE015A04EEA15A5B
:100B300001E026E01BE064EE814A86ED005A434462
:100B40008B4244EE614A23EE024A03EEA24A63EE70
:100B5000823AC6ED014A43EE623A85ED004AC5EDA0
:100B6000013A8BD30AF1010AE245FFF46DAF4FEA77
:100B70008B434FEA9E0E4FEA134BBEF1040F3FF634
:100B80005AAFA1EB0C0100224B1C4FEA9C04002B36
:100B90008CBF1F46BDE8F08F11190E19331900EBF9
:100BA000C20500EBC60695ED000AD6ED000A95EDEC
:100BB000012A96ED011A70EE201A70EE600A32EEEC
:100BC000010A00EBC10100EBC30332EE411A91EDC3
:100BD000002AD3ED002A6244974232EE222A71EEB7
:100BE000822A31EEC22AC5ED002AD1ED011AD3EDD9
:100BF000012A71EEA21A70EE212AC5ED012A70EECB
:100C0000612A91ED010AD3ED011A93ED003A70EEDD
:100C1000611A91ED000A81ED002AC1ED012A30EE42
:100C2000430A30EEA12A70EEE10A71EE401A31EE6D
:100C3000000A86ED002AC6ED011AC3ED000A83ED15
:100C4000010AA9D8BDE8F08F2DE9F04F4FEA910CC9
:100C50004FF000084746644608EB0C0505EB0C0A0C
:100C60000AEB0C0600EBC80900EBCA0AD9ED000A32
:100C70009AED001ADAED012A00EBC50570EE811A33
:100C800070EEC10A99ED011A00EBC60608F10108E1
:100C900031EE222A31EE621AD5ED002A96ED003AA5
:100CA000641E72EE832A31EEA23A71EEE21A89EDE9
:100CB000003AD5ED012A96ED013A72EE832A32EE22
:100CC000223A32EE622A89ED013AD5ED012A96EDFB
:100CD000013AD6ED003A4FEA470972EEC32A95ED84
:100CE000003A02EBC90B33EE633ADBED003A9BEDC1
:100CF000014A61EEA34A42EE444A22EE232A01EE63
:100D0000842AC5ED004A70EEE21A70EEA20A85ED63
:100D1000012A02EBC70531EE032AD5ED002A31EE98
:100D2000431A95ED013A61EEA23A09EB070502EB91
:100D3000C5051F4442EE433A22EE222A01EE832AE1
:100D4000CAED003A8AED012AD5ED001A95ED012A87
:100D500060EEA12A41EE422A21EE211A00EE821A0B
:100D6000C6ED002A86ED011A7FF476AF9B044FEAA8
:100D7000134BE646BCF1040F7DD9E0464FEA9C0CCC
:100D80004FF00009CA46BCF1000F75D94FEA49047B
:100D900004EB090302EBC90502EBC40402EBC30335
:100DA000D5ED001A95ED012AD4ED000A94ED011A53
:100DB000D3ED002A93ED013AD94453468A4573D2C4
:100DC00003EB0C0404EB0C0606EB0C0500EBC3076D
:100DD00000EBC606D7ED003A96ED004AD6ED015A73
:100DE00000EBC40433EE845A73EEC43A97ED014A23
:100DF00000EBC50574EE254A34EE654AD4ED005A81
:100E000095ED006A75EE865A35EE256A35EE655A1F
:100E100087ED006AD4ED015A95ED016A75EE865AA8
:100E200034EEA56A74EEE54A87ED016AD4ED015A05
:100E300095ED016AD5ED006A75EEC65A94ED006A2B
:100E400036EE666A65EE206A44EEC16A64EEA04A38
:100E500045EE014AC4ED006A34EE065A34EE464AC5
:100E6000C4ED014A73EEE54A73EEA53A64EEA15A69
:100E700045EE425A01E026E01BE025EE215AC6ED80
:100E8000005A43448B4204EE825A63EEA24A44EE77
:100E9000434A24EE224A86ED015A03EE834AC5ED09
:100EA000004A85ED014A8BD30AF1010AE245FFF4BD
:100EB0006DAF4FEA8B434FEA9E0E4FEA134BBEF1E4
:100EC000040F3FF65AAFA1EB0C0100224B1C4FEA76
:100ED0009C06002B8CBF1F46BDE8F08F91198D1921
:100EE000AB1900EBC20400EBC505D4ED000AD5ED4B
:100EF000001AD4ED012A95ED012A30EEA11A70EE08
:100F0000E11A72EE820A00EBC10100EBC30332EE7C
:100F1000C22AD1ED002A93ED003A6244974272EE64
:100F2000832A31EE223A71EE622A23EE003A62EE13
:100F3000802A84ED003A91ED011A93ED013A31EEE9
:100F4000031A30EE813A23EE003A84ED013A30EE96
:100F5000C13AD1ED010A93ED011AD3ED003A30EE1A
:100F6000C11AD1ED000AC1ED002A63EE002A70EE2D
:100F7000E30AC1ED012A71EEC12A31EE811A72EE47
:100F8000201A72EE600A22EE802A21EE001A61EE2B
:100F9000801A85ED002A60EE800AC5ED011A83ED06
:100FA000001AC3ED010A99D8BDE8F08F30B50446A8
:100FB0000D4680782188A389626801280DD02846D3
:100FC000FFF7A0FCE078012818BF30BDE289218836
:100FD0002846A368BDE830403CE494ED040A284666
:100FE000FFF732FEEEE7000010B401801B4C4460B6
:100FF00082704FF0000CC370102925D040291BD0FF
:10100000B1F5807F10D0B1F5806F18BF4FF0FF3C75
:1010100002D010BC6046704701218181C181104916
:101020009FED100A816016E004218181C1810E4983
:101030009FED0E0A81600EE010218181C1810C4973
:101040009FED0C0A816006E040218181C1810A493F
:101050009FED0A0A816080ED040ADAE7C0EC00081F
:10106000C00C01080000803AC60C01080000803B5B
:10107000DE0C01080000803C3E0D01080000803DB0
:1010800010B5203AC0F00B80B1E81850203AA0E823
:101090001850B1E81850A0E81850BFF4F5AF5FEA57
:1010A000027C24BFB1E81850A0E8185044BF18C90A
:1010B00018C0BDE810405FEA827C24BF51F8043BB1
:1010C00040F8043B08BF7047D20728BF31F8023B05
:1010D00048BF11F8012B28BF20F8023B48BF00F899
:1010E000012B7047704770477047000000487047F9
:1010F000C8C300207546FFF7F9FFAE4605006946F4
:10110000534620F00700854618B020B5FFF7BAF81F
:10111000BDE820404FF000064FF000074FF00008F8
:101120004FF0000B21F00701AC46ACE8C009ACE879
:10113000C009ACE8C009ACE8C0098D467047044658
:10114000AFF300802046FFF788F870470149182068
:10115000ABBEFEE72600020010B5064C01220023BC
:101160001146204600F070F92046BDE8104000F01E
:10117000A5B900000020014010B5064C0023012253
:101180000C21204600F060F92046BDE8104000F038
:1011900095B900000020014010B5064C0023012243
:1011A0000421204600F050F92046BDE8104000F030
:1011B00085B900000020014010B5064C0023012233
:1011C0000721204600F040F92046BDE8104000F01D
:1011D00075B900000020014010B5064C0023012223
:1011E0000D21204600F030F92046BDE8104000F007
:1011F00065B900000021014010B5064C0023012212
:101200000E21204600F020F92046BDE8104000F0F5
:1012100055B900000021014010B5064C0023012201
:101220000F21204600F010F92046BDE8104000F0E4
:1012300045B900000021014070B59CB001212F4844
:1012400002F0AAFC01214FF4E06002F0C9FC4FF06B
:10125000007000902A4801902A4802A90024012524
:1012600031C1E802CDE906408000089040110990A4
:101270000AA90594400231C1234E0D9469463046B7
:101280000E9400F095FA0121304600F086FA032012
:101290008DF8680019958DF86B4019A91B4800F06E
:1012A0005FFB15941694179415A8189400F07AF81B
:1012B0000F948DF8404011941394114C8DF84150C7
:1012C0004C3C8DF850500FA9204600F097F80023B1
:1012D00001220821204600F0B7F80121204600F045
:1012E00083F80121204600F075F80121204600F026
:1012F0004FF8204600F0E2F81CB070BD020040003C
:101300004C2101400E0000204064024000040240D5
:1013100010B5064C002301220A21204600F094F863
:101320002046BDE8104000F0C9B80000002201408E
:1013300010B5064C002301220B21204600F084F852
:101340002046BDE8104000F0B9B80000002201407E
:1013500010B5064C002301220C21204600F074F841
:101360002046BDE8104000F0A9B80000002201406E
:1013700010B5064C012200231146204600F064F807
:101380002046BDE8104000F099B80000002201405E
:101390000029816802D041F0010101E021F0010142
:1013A00081607047094B10B51A68094902EA0102C9
:1013B000D0E9001441EA0401D0E9024044EA000403
:1013C00041EA040141EA0201196010BD0423014011
:1013D000E030FCFF0029816802D041F4807101E017
:1013E00021F48071816070470029816802D041F446
:1013F000007101E021F400718160704730B54268EE
:101400000F4B0C791A400B6842EA042213434360E5
:1014100082680C4B4D791A40D1E9034323438C6811
:1014200044EA4504234313438360C26A097D22F4DE
:101430007002491EC9B242EA0151C16230BD0000CA
:10144000FFFEFFFCFDF7FFC070B5072509290AD98B
:10145000C468A1F10A0606EB4606B540AC43B340AA
:101460001C43C46007E0046901EB4106B540AC438E
:10147000B3401C4304611F23072A09D2446B521E48
:1014800002EB820293409C4391400C43446370BD45
:101490000D2A09D2046BD21F02EB820293409C43B7
:1014A00091400C43046370BDC46A0D3A02EB8202A2
:1014B00093409C4391400C43C46270BD816841F0ED
:1014C00080418160704700F0CBBD10B5044600F04C
:1014D0008FFEA02000F04EFE00F0DEFE200A00F09D
:1014E00049FE00F0D9FEE0B200F044FE00F0D4FE68
:1014F00000F07EFEA12000F03DFE00F0CDFE0020B9
:1015000000F0FCFD044600F09DFE204610BD70B5C5
:1015100004460D4600F06CFEA02000F02BFE00F00B
:10152000BBFE200A00F026FE00F0B6FEE0B200F09E
:1015300021FE00F0B1FE284600F01CFE00F0ACFEDB
:1015400000F080FEBDE870400A2007F011B8704737
:1015500038B5002001F076F91D4CA061002001F0A3
:1015600071F9E061002001F05FFA6062002001F093
:1015700069F92062002001F057FAA0626A4615A1BD
:101580000A2001F0DDFB0523154A0021154801F072
:1015900031FB0423144A0021144801F02BFB0323E0
:1015A000134A0021134801F025FB0223124A0021AF
:1015B000124801F01FFB0123114A0021114801F0DC
:1015C00019FB0023104A1946104801F013FB38BDDF
:1015D000000000205374617274205461736B00002A
:1015E000540900201716000854AA0020BD16000850
:1015F00054AB002025160008540A00203D170008AF
:1016000054AC0020253E000854AD0020D59B0008B6
:1016100001F028BF704707F0D7FB642006F0A8FF51
:10162000F9E700001CB51B4C1B4E002540F2DC57AF
:10163000E07910B9032001F081FCE079012825D17F
:1016400016496F200870606A01F074FAE08AC8B128
:10165000401EE0824FF02F08CDE90058012370783A
:101660001A46002107F084FDCDE900587078022366
:101670000122002107F07CFDE08A012802D102202E
:10168000A071E5821020FFF720FF7070384606F049
:101690006FFFCDE70000002066AD00202D01002087
:1016A00010B501F08BFAFFF753FFBDE810400A2098
:1016B00001F044BC704701F0DDBE00001CB51D4DBB
:1016C0001D4C0126022701AA0021686A01F0D2F907
:1016D000194B0094143BA3F1C602A2F1C601A1F577
:1016E000A57007F0B7FE144B0096A3F11402A2F503
:1016F000C671A1F5A57006F085FF0F4B0097A3F109
:101700001402A2F1C601A1F5047006F07BFF0A499C
:101710001439A1F2D62007F0EDF8074B0094143BE2
:10172000A3F1C602A2F1C601A1F5A57004F074F8F8
:10173000C9E70000000000204204002008B50B4C5F
:101740000B4E1425E079012802D1022001F0F6FBAE
:101750006A460021A06901F09BF807F051FD6582FF
:101760001020FFF7B2FE7070ECE7000000000020D0
:1017700066AD002001F090BEFEE770B500250024A4
:101780000021284602F0BAFE641CE4B2042CF7D310
:101790006D1CEDB2162DF2D370BD0029016802D088
:1017A00041F0010101E021F00101016070470000FA
:1017B00030B50368124ACC6813400A682243D1E965
:1017C00005452C432243CC6922430C6A22434C6AD0
:1017D00022438C6A22434C6B22438C6B22431A4374
:1017E0000260426922F00703D1E90B2422431A4325
:1017F00042610A6942604A6882608968C16030BD9E
:101800003F801CF07047000010B500F0E1FF4FF47E
:101810008054204600F05AF838B14FF47A7006F040
:10182000C5FE0548806A01F085F9204600F006F8FB
:10183000BDE8104000F0D8BF00000020014908605A
:1018400070470000143C014030B5012185B00846C6
:1018500002F0A2F90121880302F0C2F900248DF8F8
:1018600010404FF480558DF8134003A9124803959A
:1018700000F076F80C21002002F01EFB8DF80440E9
:1018800010208DF80500012400958DF8064068466B
:1018900000F02CF828208DF808008DF809408DF80C
:1018A0000A408DF80B4002A800F0B2FE284600F076
:1018B00005F805B030BD00000000024002490A688A
:1018C00002430A6070470000103C0140064A01468E
:1018D00000201268044B0A4014331B680B4202D0EC
:1018E000002A00D001207047003C014030B51B4960
:1018F0008379026863B30B6893430B600A1D136816
:101900000468A343136002790A44136804682343FC
:101910001360124A083213680468A3431360131D4E
:101920001C680568AC431C6090F805C0BCF1100F42
:1019300005D061440A68006802430A6030BD11683E
:10194000046821431160196800680143196030BDC3
:101950000079084401689143016030BD003C0140BA
:10196000F0B5002201234FF0030C00BF0D6803FA0D
:1019700002F42540A5422DD1066854000CFA04F566
:10198000AE4306600E790768A6403E4306600E79B6
:10199000012E01D0022E12D18668AE4386604D79A9
:1019A0008668A54035438560456803FA02F6B5436D
:1019B000456045688E799640B6B235434560C56846
:1019C00056000CFA06F7BD43C560CD79A540C46842
:1019D0002543C560521C102AC8D3F0BD4B07DB0E4F
:1019E0009A40C90810B500EB8100016A0F249C40A1
:1019F000A1430162016A1143016210BD0246002049
:101A000012690A4200D00120704741837047018368
:101A1000704700002DE9F04104460E4604210C20D9
:101A200002F06CFD01210E2002F068FD0121112061
:101A300002F064FD01210F2002F060FD414D287885
:101A4000012803D10121062002F058FD287818B999
:101A50000121052002F052FD3B4D2878012807D1D5
:101A60000421084602F04AFD0121072002F046FD4C
:101A70002878022807D10221042002F03FFD02212C
:101A8000072002F03BFD2878032807D1012104201C
:101A900002F034FD0421072002F030FD4FF064080D
:101AA0002A4FB4FBF8F53978012907D126480222DC
:101AB000293000EB4501102002F0FAFC387818B903
:101AC0000521112002F01AFD08FB15400A25B0FB84
:101AD000F5F04746DFF87080022208F1010808EBB4
:101AE0004001122002F0E4FCB4FBF5F005FB1040CD
:101AF000B0FBF5F105FB110008EB400102221420B8
:101B000002F0D6FCB6FBF7F4022208EB44011046C3
:101B100002F0CEFC07FB1460B0FBF5F008F11404F2
:101B200004EB400102220A2002F0C2FCB6FBF5F0F1
:101B300005FB106004EB4001BDE8F04102220820E3
:101B400002F0B6BC01000020E800002003000020E5
:101B50002DE9F041044601210C2002F0CFFC334D69
:101B60002878012803D10121062002F0C7FC28783B
:101B700018B90121052002F0C1FC01210F2002F05B
:101B8000BDFC2B4D2878012803D10421084602F022
:101B9000B5FC2878022803D10221042002F0AEFC13
:101BA0002878032803D10121042002F0A7FC42F287
:101BB0001077B4FBF7F51E4EA8B2761C06EB400179
:101BC0000222102002F074FC07FB15404FF47A75D6
:101BD000B0FBF5F006EB40010222122002F068FC97
:101BE000B4FBF5F005FB10406425B0FBF5F006EB07
:101BF00040010222142002F05BFCB4FBF5F005FB6F
:101C000010400A25B0FBF5F006EB4001022200204F
:101C100002F04EFCB4FBF5F005FB104006EB400172
:101C2000BDE8F0410222104602F042BC0100002053
:101C3000E80000202DE9F04104460D460821072068
:101C400002F05CFC284E3078012803D101210620E7
:101C500002F054FC307818B90121052002F04EFC46
:101C600001210F2002F04AFC4FF06408B4FBF8F6A3
:101C70001E4F022207EB4601102002F019FC08FB60
:101C800016400A26B0FBF6F007EB400102221220B4
:101C900002F00EFCB4FBF6F006FB104007EB40012F
:101CA0000222142002F004FCB5FBF8F4022207EB38
:101CB0004401104602F0FCFB08FB1450B0FBF6F0A8
:101CC00007F1140404EB400102220A2002F0F0FBA9
:101CD000B5FBF6F006FB105004EB4001BDE8F04107
:101CE0000222082002F0E4BB01000020E9000020ED
:101CF0002DE9F041044605210F2002F0FFFB324D93
:101D00002878012803D10121062002F0F7FB28786A
:101D100018B90121052002F0F1FB2C4D287801288B
:101D200003D10121072002F0E9FB2878022803D122
:101D30000221072002F0E2FB2878032803D10421C6
:101D4000072002F0DBFB42F21077B4FBF7F51F4EE1
:101D5000A8B2761C06EB40010222142002F0A8FB78
:101D600007FB15404FF47A75B0FBF5F006EB400128
:101D70000222002002F09CFBB4FBF5F005FB1040B2
:101D80006425B0FBF5F006EB40010222104602F09C
:101D90008FFBB4FBF5F005FB10400A25B0FBF5F016
:101DA000143606EB40010222284602F081FBB4FB08
:101DB000F5F005FB104006EB4001BDE8F0410222C2
:101DC000082002F075BB000001000020E8000020A0
:101DD00070B504460821062002F090FB0821072078
:101DE00002F08CFB01210F2002F088FB6426B4FB7B
:101DF000F6F51048022200EB4501104602F058FBB0
:101E000006FB15400A25B0FBF5F00A4E02221436F7
:101E100006EB4001284602F04BFBB4FBF5F005FB56
:101E2000104006EB4001BDE870400222082002F09D
:101E30003FBB0000E900002070B5044604210E20DD
:101E400002F05CFB1A4D2878012803D101210620FD
:101E500002F054FB287818B90121052002F04EFB4E
:101E600001210F2002F04AFB6426B4FBF6F511486D
:101E7000022200EB4501104602F01AFB06FB15405A
:101E80000A25B0FBF5F00B4E0222143606EB40019A
:101E9000284602F00DFBB4FBF5F005FB104006EB05
:101EA0004001BDE870400222082002F001BB0000A2
:101EB00001000020E900002070B5044608210D2033
:101EC00002F01CFB1A4D2878012803D101210620BD
:101ED00002F014FB287818B90121052002F00EFB4E
:101EE00001210F2002F00AFB6426B4FBF6F511482D
:101EF000022200EB4501104602F0DAFA06FB15401B
:101F00000A25B0FBF5F00B4E0222143606EB400119
:101F1000284602F0CDFAB4FBF5F005FB104006EBC5
:101F20004001BDE870400222082002F0C1BA000062
:101F300001000020E90000201CB50121022001F071
:101F40002BFE4FF43870009001208DF80400002023
:101F50008DF806000220124C8DF8050069462046D7
:101F6000FFF7FEFC61152046FFF751FD20212046BA
:101F7000FFF74DFD40212046FFF749FD8021204617
:101F8000FFF745FD022001F0D5FF292001F0D2FF27
:101F9000012001F0CFFF032001F0CCFF1CBD0000A9
:101FA000000402402DE9F041164E05464FF400773B
:101FB00039463046FFF729FD002440213046FFF71F
:101FC00024FD28064FF08001304602D4FFF71DFDA6
:101FD00001E0FFF71CFD032006F0E8FA402130463F
:101FE000FFF715FD6806641C050EE4B2082CE4D367
:101FF0000A2006F0DBFA39463046BDE8F041FFF72B
:1020000006BD000000040240FEE700007CB5134E50
:102010004FF4005529463046FFF7F7FC01208DF8B4
:10202000040002206C008DF80500009469463046DB
:10203000FFF796FC21463046FFF7E7FC022006F04A
:10204000B5FA29463046FFF7E2FC022006F0AEFA68
:1020500029463046FFF7D9FC7CBD00000004024051
:102060001CB50121022001F097FD4FF4E0400090E3
:1020700001208DF8040002200A4C8DF80500694605
:102080002046FFF76DFCA1142046FFF7BEFC4FF47D
:1020900000512046FFF7BBFC4FF480412046FFF77C
:1020A000B6FC1CBD000402407CB5134E4FF4005535
:1020B00029463046FFF7A9FC01208DF804000220D4
:1020C0006C008DF80500009469463046FFF748FC27
:1020D00021463046FFF79BFC022006F067FA2946AE
:1020E0003046FFF794FC022006F060FA294630469D
:1020F000FFF78BFC7CBD0000000402402DE9FC478B
:1021000000241B4E80464FF480478DF80440009712
:102110008DF8074069463046FFF722FC0025B94696
:102120007F1039463046FFF770FC022006F03EFA79
:1021300039463046FFF76BFC6006040E49463046D0
:10214000FFF75CFC08B1641CE4B2012006F02EFA33
:102150006D1CEDB2082DE4D3B8F1000F04D0FFF7E9
:1021600055FF2046BDE8FC87FFF79EFFF9E700001A
:10217000000402402DE9FC47054601208DF80400CB
:1021800002201A4E4FF480478DF8050000976946EB
:102190003046FFF7E5FB4FF4005841463046FFF765
:1021A00034FCB9460024474628064946304602D446
:1021B000FFF72BFC01E0FFF72AFC6806050E022062
:1021C00006F0F4F939463046FFF721FC022006F00C
:1021D000EDF939463046FFF718FC022006F0E6F923
:1021E000641CE4B2082CDFD3BDE8FC870004024085
:1021F0007CB501208DF804000220114D4FF480447D
:102200008DF80500009469462846FFF7A9FB214692
:102210002846FFF7FCFB661031462846FFF7F7FB20
:10222000032006F0C3F921462846FFF7EEFB032002
:1022300006F0BCF931462846FFF7E7FB7CBD0000FD
:10224000000402407CB501208DF804000220114DED
:102250004FF480448DF80500009469462846FFF746
:102260007FFB661031462846FFF7CFFB2146284604
:10227000FFF7CBFB032006F099F931462846FFF71C
:10228000C6FB21462846FFF7C2FB032006F08EF965
:102290007CBD0000000402402DE9FC410024184EE2
:1022A0004FF480458DF8044000958DF8074069464D
:1022B0003046FFF755FB29463046FFF7A8FB0120C3
:1022C00006F074F96F1039463046FFF7A0FB012085
:1022D00006F06CF908E0641CE4B2FA2C04D9FFF7AC
:1022E000B1FF0120BDE8FC8129463046FFF786FB9F
:1022F0000028F0D139463046FFF787FB0020F1E790
:10230000000402402DE9F0479CB001215E4801F035
:1023100043FC01214FF4E06001F062FC4FF080606B
:1023200000905A4801900125594802A9002431C162
:1023300006A8EE026F034FF480784FF4003905943D
:10234000A0E8D003CDE90B45DFF848A10D9469461C
:1023500050460E94FFF72CFA01215046FFF71DFA64
:102360004D4802A9CDE900404948DFF828A1801C6A
:1023700031C106A80594A0E8D003CDE90B45AAF128
:10238000180A0D94694650460E94FFF711FA012180
:102390005046FFF702FA68060090404801903C481A
:1023A00002A9001D31C106A80594A0E8D003394E4A
:1023B000CDE90B4518360D94694630460E94FFF76B
:1023C000F7F901213046FFF7E8F93F200326159081
:1023D0008DF858608DF85B4015A93148FFF7C0FAB9
:1023E000922015908DF858608DF85B4015A92D4806
:1023F000FFF7B6FA17941894199417A81A94FEF7D1
:10240000D1FF0F948DF84040119413941F4C8DF818
:1024100041504C3C8DF850500FA92046FEF7EEFF7E
:102420001E4D0FA94C3D2846FEF7E8FF1A4E0FA996
:102430004C3E3046FEF7E2FF01212046FEF7D4FF76
:1024400001212846FEF7D0FF01213046FEF7CCFFE0
:1024500001212046FEF7BEFF01212846FEF7BAFF04
:1024600001213046FEF7B6FF01212046FEF790FF1E
:1024700001212846FEF78CFF01213046FEF788FF38
:102480001CB0BDE8F0870000050040004C22014070
:102490000A000020286402404C2001404C210140E9
:1024A00000080240000002401CB50121084601F06E
:1024B00073FB4FF4C050009000208DF80400694673
:1024C0000148FFF74DFA1CBD000002402DE9F04124
:1024D00006000D46144602D0012E05D009E0012D5C
:1024E00007D134B9332002E01DB914B92D20FFF70C
:1024F00059FD46EA050757EA040002D12B20FFF7F1
:1025000051FD012E01D03EB110E0012D01D05DB191
:102510000CE05CB9352004E0012D07D1012C05D178
:102520005320FFF73FFD01E0012C01D017B106E079
:102530004D20F6E7012C02D14B20FFF733FD012E91
:102540000AD0022E0ED1022D0CD1022C0AD101206C
:10255000BDE8F041FFF726BD012D03D1012C01D1CB
:102560005520F5E7BDE8F0812DE9F04106000D4664
:10257000144602D0012E05D009E0012D07D134B94F
:10258000B32002E01DB914B9AD20FFF70BFD46EAF8
:10259000050757EA040002D1AB20FFF703FD012E27
:1025A00001D03EB110E0012D01D05DB10CE05CB96D
:1025B000B52004E0012D07D1012C05D1D320FFF770
:1025C000F1FC01E0012C01D017B106E0CD20F6E7C7
:1025D000012C02D1CB20FFF7E5FC012E0AD0022E00
:1025E0000ED1022D0CD1022C0AD18120BDE8F04180
:1025F000FFF7D8BC012D03D1012C01D1D520F5E77F
:10260000BDE8F081FEE770474FF4A06000F032B8FB
:1026100070B50F21C478027801234FF0E026E4B1B1
:10262000124C246804F4E064C4F5E064C4F30724A5
:10263000C4F10405E1404478AC4085780D40254361
:102640000B4C29011155007800F01F018B40400907
:1026500006EB8000C0F8003170BD02F01F0083401F
:10266000500906EB8000C0F8803170BD0CED00E031
:1026700000E400E002490843024908607047000096
:102680000000FA050CED00E07047000070B5050091
:102690000E46144605D036B10E48807828B1122077
:1026A0000DE004200BE00C2009E02878012808D078
:1026B000022806D0032804D0042802D0012010707C
:1026C00070BDFDF7F1FD6E61FDF7F2FD0020207099
:1026D00070BD00005C00002030B587B000F070F8DD
:1026E0002A48002404638470C4700472C471C460F6
:1026F000C4618461446144708471214600F13402F4
:102700005454491CC9B20829FAD304714471846233
:10271000046201F099F801F06BF801F043F801F060
:10272000D5F801F0F9F802AA0325202031C2184992
:102730004FF6FF70CDE9000101F17C023F2300213B
:10274000144800F09FFA05AA13A13F2000F0F8FA00
:1027500002AA402031C214494FF6FE70CDE90001B3
:1027600001F1FC023E230021104800F08BFA05AA7B
:102770000FA13E2000F0E4FA00F0E0FC00F026F8A3
:1027800007B0BDE83040FFF77FBF00005C000020CD
:1027900050B00020D53A000875432F4F532D4949BA
:1027A0002049646C6500000050AF0020F13A000839
:1027B00075432F4F532D4949205374617400000015
:1027C0000149002008807047580000207047000031
:1027D0000449C879012804D18878FF2801D2401C17
:1027E000887070475C00002070B5144DE8790128AE
:1027F00022D1FDF759FD0446A87820B1401E10F003
:10280000FF00A87013D1E87888B901F0C9F80C4826
:10281000697950F82100A8622A79914207D0C16BEA
:10282000491CC163E868401CE860FDF759FD20467B
:10283000BDE87040FDF73CBD70BD00005C000020AD
:10284000D0B0002070B505460E48007808B10020D1
:1028500070BDFDF729FD01460B4804680CB16268A4
:1028600002600846FDF724FD4CB1012020700020D5
:10287000208106A065606061204600F089FF204647
:1028800070BD00005E0000206C0000203F000000D2
:102890002DE9F04705008846144604D02878012821
:1028A00003D001200AE0042008E02C48007808B199
:1028B000022003E02A48007820B10D20107000208B
:1028C000BDE8F087FDF7F0FC6E68074600213EB1D9
:1028D000884638466960FDF7EBFC84F800803AE0F2
:1028E000DFF880A08946DAF8000010F8342F42F0B3
:1028F00002020270417040F8048C284600F01AFF72
:102900003846FDF7D5FC01F027F8FDF7CDFC07466A
:10291000DAF8000090F8351031B1022908D02946C4
:1029200000F0D8FE0A2004E0466A84F8009001E036
:102930000E202070DAF80010384601F11C0181F8F1
:10294000189081F81990C1F80090C1F80490C1F86E
:102950000890FDF7ADFC3046B2E700005E000020B5
:102960005F0000207C00002070B504000D4605D0FB
:1029700035B12078012805D0012070BD042070BD3C
:10298000032070BDFDF790FC0646A07A58B10023E5
:1029900002222946204600F061FE3046FDF788FC01
:1029A00000F0DAFF0AE0606820B13046FDF780FCF5
:1029B000142070BD30466560FDF77AFC002070BDC4
:1029C00010B5094CE07901280CD1FDF76DFCA17818
:1029D00021B9E178FF2901D2491CE170BDE810401E
:1029E000FDF766BC10BD00005C00002010B50D4C6A
:1029F000E079012814D1FDF757FCE17831B1491E87
:102A000011F0FF01E17001D1A17819B1BDE81040CA
:102A1000FDF74EBCFDF74CFCBDE8104000F09CBF3C
:102A200010BD00005C00002070B505460E4800781F
:102A300008B1002070BDFDF737FC01460B48046863
:102A40000CB1626802600846FDF732FC4CB103200D
:102A5000207025810020606005A06061204600F0A4
:102A600097FE204670BD00005E0000206C00002034
:102A70003F0000002DE9F04705008846144604D0C9
:102A80002878032803D001200AE0042008E0264823
:102A9000007808B1022003E02448007818B10D2026
:102AA0001070BDE8F087FDF7FFFB06462889002778
:102AB00030B1401E28813046FDF7FAFB2770F0E761
:102AC000DFF86C90D9F8000010F8341F41F00101D4
:102AD0000170477040F8048C284600F02BFE304609
:102AE000FDF7E6FB00F038FFFDF7DEFB0646D9F800
:102AF000000090F8351031B1022906D0294600F0C7
:102B0000E9FD0A2002E0277001E00E202070D9F8CC
:102B1000000000F11C0007764776076047603046EA
:102B2000BDE8F047FDF7C4BB5E0000205F00002059
:102B30007C00002070B5040004D02078032803D066
:102B4000012070BD042070BDFDF7AEFB0546A07AE4
:102B500058B1002301221946204600F07FFD284687
:102B6000FDF7A6FB00F0F8FE09E020894FF6FF71A3
:102B7000884206D2401C20812846FDF799FB0020A0
:102B800070BD2846FDF794FB332070BD10B5094C8D
:102B9000E07900280CD100F003FF6079064920712C
:102BA00051F82000A0622062BDE81040FDF783BB11
:102BB00010BD00005C000020D0B0002010B5022045
:102BC00000F016FAFDF770FB084C0021E161FDF7FB
:102BD0006FFB642000F00CFAFDF766FBE1696161B0
:102BE00001216170BDE81040FDF762BB5C00002070
:102BF000FEF7ADBC2DE9FE4305460F4690461C4648
:102C00003F2B02D92A20BDE8FE83FDF74DFB1A4970
:102C1000097819B1FDF74CFB3C20F4E7174E56F844
:102C2000241019B1FDF744FB2820ECE7012146F8F8
:102C30002410FDF73DFB002342463946284600F0AC
:102C40004BF900270146009701973B463A4620463C
:102C5000029700F0B5FE050007D0FDF725FB46F80A
:102C60002470FDF725FB2846CDE7054800780128AC
:102C7000F9D100F071FEF6E75E000020D0B0002030
:102C8000630000202DE9F04F81462DED028B83B0CB
:102C90008A46DDE90F879DED118A129D93461C46F9
:102CA0003F2B05D92A2003B0BDEC028BBDE8F08F85
:102CB000FDF7FAFA1D49097819B1FDF7F9FA3C2038
:102CC000F1E71B4E56F8241019B1FDF7F1FA282050
:102CD000E9E7012146F82410FDF7EAFA2A463946C9
:102CE000404600F04DFF2B465A465146484600F0FC
:102CF000F3F800978DED018A014602954246204681
:102D00000E9B00F05DFE050008D0FDF7CDFA002116
:102D100046F82410FDF7CCFA2846C4E705480078A9
:102D20000128F9D100F018FEF6E700005E0000204F
:102D3000D0B0002063000020FEF76ABCFEF76ABC3A
:102D400070B505460E4614463F2803D9FF2D01D025
:102D50002A2004E02EB11248007820B11220107011
:102D600070BD0C20FBE7FDF79FFA0146FF2D03D154
:102D70000C48006890F836500B4850F82500432561
:102D800040B1012806D006650846FDF791FA0020FB
:102D9000207070BD0846FDF78BFA257070BD0000ED
:102DA0005E0000207C000020D0B0002010B504465A
:102DB0003F2801D32A2010BDFDF776FA01461F48AF
:102DC00050F8240058B101280ED090F83420130791
:102DD0002FD512F0F70280F834200AD00BE0084615
:102DE000FDF766FA462010BD0846FDF761FA43205C
:102DF00010BD026B22B10846FDF75AFA002010BD43
:102E00000F4A00F138008378147843EA0403137002
:102E100003780C4A4078D45C44EA0004D454084651
:102E2000FDF746FA084800780128E7D100F094FD44
:102E3000E4E70846FDF73CFA442010BDD0B000207E
:102E4000620000209000002063000020FEF732BCEA
:102E50002DE9F04104460D463F2804D9FF2C02D04D
:102E60002A20BDE8F08145B1002028606860FDF7A8
:102E70001BFA0146FF2C02D005E00920F1E71448B7
:102E8000006890F83640134850F8240058B10128E3
:102E900009D0028AD2070BD0D0E9024700260846A3
:102EA000FDF706FA0AE00846FDF702FA4320D8E7E4
:102EB0000846FDF7FDF94520D3E7761C01CC002834
:102EC000FBD0B0002860B81B800068600020C8E715
:102ED0007C000020D0B000204FF080731360131FDF
:102EE00018606FF0010042F8080CA2F138004FF0B2
:102EF00012334FF00332C0E90A234FF0023242622C
:102F00004FF00132C0E907124FF0113181614FF0EB
:102F1000103141614FF0093101614FF00831C1605A
:102F20004FF0073181604FF0063141604FF00531BD
:102F300040F804194FF004310160704770B5274D17
:102F400004463F2804D005D3FF280CD02A2070BDAA
:102F5000472070BDFDF7A8F90346286890F83600B1
:102F6000A04206D007E0FDF79FF90346286890F8D5
:102F70003640012500E00025194850F8240068B1CA
:102F8000012810D090F83820164C90F83960A15CD8
:102F9000F643F6B23140A1540AD010E01846FDF7CE
:102FA00087F9482070BD1846FDF782F9432070BDAF
:102FB0000D4A90F83A10147824EA0101117010F8C3
:102FC000341F41F0080101701846FDF771F9012D19
:102FD00001D100F0C1FC002070BD00007C00002089
:102FE000D0B000209000002062000020FEF763BBFC
:102FF00070B5044614480078002824D1134800789E
:10300000002820D1002C1ED0FDF74EF903461048B1
:10301000104D006890F8381090F839606A5CF643FB
:10302000F6B232406A5406D10B4A90F83A1015783D
:1030300025EA0101117004631846FDF739F9BDE86E
:10304000704000F089BC70BD5E0000205F00002071
:103050007C00002090000020620000202DE9F0415B
:1030600000F052F8FDF720F9264D296B491C296321
:10307000FDF71EF9E879012841D1687A0126002779
:1030800020B101283BD0022802D06F72EC6A32E0F6
:103090006E72FBE7FDF708F9216B49B3491E216306
:1030A00026D194F8341011F0370F06D001F0C80182
:1030B00084F8341084F8356001E084F8357094F8B1
:1030C0003410090714D404F13804AA79A178DFF880
:1030D00034C041EA0201A97121780CF1340C637803
:1030E0001CF80120A4F1380442EA03020CF8012084
:1030F0006469FDF7DDF894F836003F28CAD1BDE8D1
:10310000F08100005C00002010B5FEF733FB07489B
:103110000188491C89B20180642905D300210180FE
:10312000BDE8104000F004B810BD000058000020B9
:1031300001480068FFF7FEBCB000002070B588B001
:103140004FF420712E4800F0B7FB40212D4800F0CD
:10315000B3FB00202A4904466422431C00EB800094
:103160001D4601EBC0009BB203EB8303027001EB31
:10317000C30380F82540C36023A30362A8B20F28CD
:10318000EBD300EB800001EBC000027080F825401B
:103190001DA2C46002621D481E4A04601C480480CF
:1031A000102010801C4801600120FFF73DFC1B4DE2
:1031B00028600020FFF738FC194E05AA19A13060DD
:1031C0002868FFF763FA05AA1BA13068FFF75EFACB
:1031D000402102910320CDE903401C4A4FF6FD70C7
:1031E000CDE900023D23FC3200211948FFF74AFDDA
:1031F00006AA18A13D20FFF7A3FD08B070BD00008E
:1032000088BA002008BE00203F000000A80000206F
:10321000A6000020A4000020B4000020AC00002084
:10322000B000002075432F4F532D494920546D7233
:103230004C6F636B0000000075432F4F532D4949BD
:1032400020546D725369676E616C000008BD0020E8
:10325000AD32000875432F4F532D494920546D72EC
:1032600000000000032280F825200E4A0129126880
:1032700013D0816989B1114441610B4A01F0070102
:1032800002EBC10100230A68086042B1C26010610C
:103290008A88521C8A8003617047C169EBE701226A
:1032A000C360F7E7A800002008BE002008B5DFF8DB
:1032B0006880DFF868901A4E6A460021D8F800004E
:1032C000FFF7D8FBFFF77CFB3068401C306000F054
:1032D0000700022759F8304013E061693068E5685B
:1032E00081420DD1204600F01DF894F824000228F8
:1032F0000CD084F82570626812B12046A16890470E
:103300002C46002CE9D1FFF771FBD5E701212046BF
:10331000FFF7A8FFEFE70000B000002008BE002084
:10332000A800002010B541690E4A01F0070102EB28
:10333000C10200231468C168844203D1116041B105
:103340000B6106E0D0F810C0CCF80C1009B1C1F840
:1033500010C0012180F82510C36003619088401ED1
:10336000908010BD08BE002070B5244C0025E16996
:10337000491CE161214622788978062A0144C9B2B4
:103380003AD2DFE802F0030A0E1D2D31ED2803D1F9
:1033900001202070E570257170BD8C282CD1022091
:1033A0000CE020B10021802802D9012201E0012196
:1033B0000022114320D1A07060700320207070BDE6
:1033C000E278802A03D20E4B9854521CE270A1700E
:1033D0006078401E10F0FF006070F0D10420EDE72F
:1033E000A17049B90520E9E78D2805D16089401C05
:1033F0006081A06AFFF79EFB257070BDB8000020B9
:1034000048BE002070B5FCF7A5FF144A1178491C8E
:103410001170FCF7A3FF124C40F2255529462046B7
:1034200000F0A9FF48B1204601F038F8C0B2FFF71C
:103430009BFF2946204600F087FF40F2277529466A
:10344000204600F098FF28B100F048F829462046B1
:1034500000F07AFFBDE87040FFF7C6B95E000020BB
:103460000048004010B5044600F018F860640020E1
:10347000206410BD10B500F011F805490968D1E9C4
:103480001023C31A1A440A6402490968486410BD2B
:103490007C00002084000020AFF3008070B5FCF7B2
:1034A00003FF054600F010F806490A890881821AD0
:1034B000886992B2841828468C61FCF7F9FE204690
:1034C00070BD0000B80000204FF0804000F087BEC3
:1034D0000146014800F0E6BF004800402DE9F041F8
:1034E0004A4F04263846BB798189828A0025C089E3
:1034F000092B73D2DFE803F00518252F737B4450A6
:103500005C0011430BD08C20FFF7E2FF386A401CAF
:1035100038620120F871B871FD81BDE8F081FD715C
:10352000BDE8F04100F076B8ED20FFF7D1FF386A32
:10353000401C3862B88908B1022000E00620B8714A
:10354000EBE7C8B2FFF7C4FF386A401C38620320BB
:10355000B871B8892AE02E490C5C2046FFF7B8FF05
:10356000386A401C3862787920447871F889401CA8
:1035700080B2F881B9898842CFD3BE71BD81CCE7D2
:10358000521CD0B2FFF7A4FF386A401C38620720F3
:10359000B871B88A401C09E04320FFF799FF386AE8
:1035A000401C38620820B871787943307871B4E7EC
:1035B000174980310C5C2046FFF78AFF386A401CAF
:1035C0003862787920447871F889401C80B2F8819B
:1035D000B98A8842A1D3BE71BD829EE713E0787993
:1035E000FFF776FF386A401C38620520A7E78D2078
:1035F000FFF76EFF386A401C3862BD713D82788AE1
:10360000401C788289E7BD7189E70000B80000207E
:10361000C8BE0020002240F22771014800F0CABE57
:10362000004800400B484FF47A710068B0FBF1F09D
:10363000B0F1807F0DD220F07F414FF0E020491E95
:103640004161054AF021117000218161072101616A
:103650007047FEE73400002023ED00E0F0B505469A
:10366000807A194C4FF00007205C05EB0006F67AD3
:10367000A45D04EBC004E6B2144C54F8264004F1F7
:103680002404E7602160217C21EA02012174637433
:10369000A4F1240409070BD40D4994F83A208B793E
:1036A0001A438A71343194F839300A5C1A430A5447
:1036B0002946204600F00EF8216A19B1204600F094
:1036C0001BF8E5613046F0BDB4A70008D0B000207B
:1036D0005C00002010B590F8382090F839408B1825
:1036E000E443DA7AE4B22240DA7204D18A7A90F8BA
:1036F0003A0082438A7210BD30B510F8383F8278A4
:1037000090F801C0D2436FEA0C04E4B2D5B2086865
:103710000DE000BF00EB030C9CF80B2022408CF85E
:103720000B2002D1827A2A40827251F8040F0028BD
:10373000F0D130BD30B5154900F10B020B6AD861EC
:1037400093F838C093F839301CF802401C430CF849
:1037500002400A6A837A02F13802947843EA040349
:103760008372137801F134045578E05C6FEA050543
:10377000EDB22840A2F13802E05405D192F83A00A7
:103780008A7922EA0000887130BD00005C000020C8
:103790000022827211464318491CC9B2DA72082904
:1037A000F9D3704710B550210E4800F085F800207D
:1037B0000C4A0146431C1C4602EB00109BB202EB74
:1037C00003130170436008A3C360A0B20428F1D3BF
:1037D00002EB00100170416003A1C1600348026068
:1037E00010BD000060B900203F00000098000020DC
:1037F00010B54FF4F071114800F05EF800200F4A48
:103800000146431C1C4600EB40009BB202EBC0008B
:1038100003EB430302EBC3030170436008A343615E
:10382000A0B21328EDD300EB400002EBC000017002
:10383000416003A141610348026110BD70AD0020E9
:103840003F0000005C00002010B54FF4F261164804
:1038500000F032F84FF48071144800F02DF812494E
:103860000020421C00EB400404EBC000D3B203EB89
:10387000430401EBC00004EBC30301EBC30343614A
:103880000BA30365D0B21528EBD300EB400202EB8B
:10389000C00001EBC00006A3002203654261054899
:1038A000C262416210BD0000D0B10020D0B0002043
:1038B0003F0000005C000020002203E0491E00F8E9
:1038C000012B89B20029F9D17047000010B5782189
:1038D0000E48FFF7F1FF0D4A002000BF00EB40014A
:1038E00002EBC10101F118034B60401C08A380B238
:1038F0004B610428F2D300EB400002EBC000002132
:10390000416003A141610348026010BDB0B90020CD
:103910003F0000009C00002010B560210C48FFF71C
:10392000CBFF0B4A0020411C8BB200EB400003EBA5
:10393000430302EBC30342F8303088B20328F2D3CA
:1039400000EB4000002142F830100248026010BD38
:1039500028BA0020A000002070B5FCF7A5FC0E4D91
:103960000446A87898B9E87888B900F019F80B48A7
:10397000697950F82100A8622A79914207D0C16B79
:10398000491CC163E868401CE860FCF7A4FC2046C1
:10399000BDE87040FCF78CBC5C000020D0B000207B
:1039A0000649054A01F134038879105C1B5CD25C3E
:1039B00002EBC00048717047B4A700085C0000200B
:1039C0002DE9F04705462DED028B0E4690469946AF
:1039D000DDED0A8A9DED0B8ADDF830A0FCF764FC72
:1039E000394F7C6A002C6BD061697962FCF760FC0E
:1039F000266084F83650002684F8346084F83560F8
:103A0000266384ED018AC4ED038A04F11C044FEAA5
:103A1000D50244F8148C24F80CAC24F80A9CE67700
:103A2000227705F007014FF0010000FA02F2E1767B
:103A3000A27700FA01F0607726606660E660A66013
:103A40002662A662666221A0E662C4E90C60A4F167
:103A50001C04304604EB800100F101004E6510F0BB
:103A6000FF00F7D02046FFF7C3F82046FFF764F9C0
:103A7000FCF71AFC0146164840F82540F86AC4E9EC
:103A8000050600B18461FC6204F13804BA79A078BB
:103A900040EA0200B8710C48227800F134006478E2
:103AA000835C43EA04038354387A00F101003872DE
:103AB0000846FCF7FDFB0020BDEC028BBDE8F0875B
:103AC000FCF7F6FB4220F7E75C0000203F00000017
:103AD000D0B00020054C00BFFCF7E6FBE169491CB3
:103AE000E161FCF7E5FBFFF729F9F5E75C00002051
:103AF000144C02E0C820FFF77BFA60780028F9D068
:103B0000642160690025B0FBF1F0606118B925708F
:103B1000FF20FFF713FAFCF7C7FBE169C4E90615BC
:103B2000FCF7C6FBD4E90510B0FBF1F0C0F164006E
:103B30002070FFF78BF900F007F86420FFF758FAC0
:103B4000E9E700005C0000207CB50C4D00246946CC
:103B50002046FFF77DF958B955F8240040B10128F7
:103B600006D0D0E9021201EB820181640199C1649F
:103B7000641CE4B23F2CEAD97CBD0000D0B0002028
:103B8000D30707D0920705D50022002902D004C030
:103B9000491EFAE770470000044A0029116801D065
:103BA000014300E08143116070470000303802405B
:103BB000044A0029116801D0014300E081431160EB
:103BC0007047000040380240044A0029116801D0C3
:103BD000014300E08143116070470000203802403B
:103BE000044A0029116801D0014300E081431160BB
:103BF000704700004438024030B5224B1968224A11
:103C000011F00C0104D05510042903D0082903D069
:103C100002601DE005601BE01A49091F0C68C4F32F
:103C2000805C0C68BCF1000F04F03F0402D0B5FBCF
:103C3000F4F201E0B2FBF4F20C680968C4F38814F2
:103C40006243C1F30141491C4900B2FBF1F101603B
:103C500019680E4A01F0F0010909545C0168E1405D
:103C600041601C6804F4E054A40A145D21FA04F4D1
:103C700084601B6803F460435B0BD25CD140C1607D
:103C800030BD0000083802400024F4004800002045
:103C90002DE9F04F804687B001210320FFF77CFF1C
:103CA0004FF4003A01215046FFF782FF01268DF8BC
:103CB00004600024DFF8D8B04FF400478DF80640C8
:103CC000022500978DF8055069465846FDF748FED5
:103CD000DFF8C090072202214846FDF77FFE072249
:103CE00003214846FDF77AFE8DF8045004208DF834
:103CF000064000908DF805508DF8076069464846EB
:103D0000FDF72EFE082000908DF804508DF8074036
:103D100069464846FDF724FE01215046FFF754FF4F
:103D200000215046FFF750FFADF810400C201A4D0F
:103D3000ADF80C40ADF81200CDF80880ADF80E409B
:103D4000ADF8144002A9284600F04CFB4FF4A060E7
:103D5000FEF790FC26208DF818008DF819408DF89C
:103D60001A408DF81B6006A8FEF752FC012240F2B3
:103D70002551284600F01EFB0121284600F0EAFAF2
:103D800039465846FDF741FE07B0BDE8F08F000008
:103D90000004024000000240004400402DE9FC47BE
:103DA000804601208DF804000027DFF86CA04FF456
:103DB00000498DF8067002200D468DF805004C462E
:103DC000CDF80090694656465046FDF7C9FD21469C
:103DD0003046FDF71CFE0024104E0CE0402130461A
:103DE00000F0C2FA0028F9D018F80410304600F0AC
:103DF00059FB641CE4B2AC42F0D34021304600F0E1
:103E0000B3FA0028F9D00648494607705046FDF736
:103E1000FCFDBDE8FC8700000004024000440040B7
:103E200000000020204D214E1020FDF74EFB287091
:103E3000401E212818D3FCF737FA04460220F071FF
:103E4000FFF77CF80420FFF779F80320FFF776F8F6
:103E50002046FCF72DFA022211461046FEF784FB9D
:103E6000642004F085FBDFE71F28DDD8FCF71CFA8F
:103E70000022044611461046FEF776FB00200C494E
:103E8000F071287848700220FEF790FF0420FEF7BA
:103E90008DFF0320FEF78AFF0120FFF74FF8204631
:103EA000FCF706FAC0E700002B010020000000200C
:103EB00066AD00207047000010B58A0721F00304AA
:103EC0000649130F21440F220C689A4094430C605A
:103ED0000A68984002430A6010BD0000083801409B
:103EE0002DE9F04105460E460024114F1BE028063F
:103EF0004FF04001384602D4FDF787FD01E0FDF7A1
:103F000086FD80213846FDF780FD012004F04EFB40
:103F100080213846FDF77BFD012004F047FB680651
:103F2000050E641CE4B2B442E1D3BDE8F0810000A8
:103F30000004024070B50A4D044620212846FDF7D2
:103F400064FD03218020FFF7CBFF09212046FFF706
:103F5000C7FF2846BDE870402021FDF758BD00008E
:103F6000000402402DE9F04105460E460024104FA2
:103F700017E0E8074FF04001384616D0FDF747FD3F
:103F800080213846FDF741FD012004F00FFB802120
:103F90003846FDF73CFD012004F008FB6D08641C69
:103FA000E4B2B442E5D3BDE8F081FDF72EFDE7E7CA
:103FB00000040240224900200A6842F480320A606C
:103FC0004FF4A0630A6800F1010012F4003F01D130
:103FD0009842F7D10868800331D51948403002680B
:103FE00042F0805202601748026842F48042026048
:103FF0001348083002680260026842F4004202601E
:10400000026842F4A0520260031F0F4A1A600A6855
:1040100042F080720A600A689201FCD50B4A40F2B5
:1040200005611160016821F003010160016841F040
:10403000020101600168C1F381010229FAD17047D0
:10404000003802400070004008544007003C024025
:104050004FF0E0210428086903D020F00400086133
:10406000704740F00400FAE710B5FCF71DF9064A66
:104070001178491C1170FCF71BF9FEF7EFFFBDE842
:104080001040FEF7B1BB00005E000020124810B5E2
:10409000016841F4700101601048016841F00101BC
:1040A00001600E4A00210832116002680C4B1A4070
:1040B0000260031D0B4A1A60026822F4802202602B
:1040C00006480C300160FFF775FF03494FF00060B0
:1040D0008039086010BD000088ED00E00038024023
:1040E000FFFFF6FE1030002410B5FEF771FB184CF0
:1040F0000121204600F075F828B30121204600F088
:1041000061F8144CE07978B9608A40B91248407877
:1041100005F03EFDA078401CA070608A20B180B2FE
:10412000401E60820120A0700C48017821B1491E18
:1041300011F0FF01017006D106482C3082794179D7
:104140000079FEF7C3F9BDE81040FEF74DBB000053
:10415000000400400000002066AD00203101002076
:104160007FB504460D4601210220FFF721FD019491
:104170000020ADF80050124CADF80800ADF8020078
:104180006946204600F040F801221146204600F022
:1041900033F84FF4A060FEF76DFA1D208DF80C0087
:1041A00001218DF80D108DF80E108DF80F1003A859
:1041B000FEF72EFA0121204600F007F87FBD00002F
:1041C00000040040C943018270470029018802D0E1
:1041D00041F0010101E021F0010101807047406AD6
:1041E0007047038A002280890B4200EA010001D057
:1041F00000B1012210467047002A828901D00A438B
:1042000000E08A438281704730B50288174B184C12
:1042100098420DD0A0420BD0B0F1804F08D0154D80
:10422000A84205D0144DA84202D0144DA84204D192
:1042300022F0700C4A8842EA0C02114DA84207D0C5
:10424000104DA84204D022F4407C0A8942EA0C02B4
:1042500002804A68C2620A880285984201D0A04260
:1042600001D1897A01860121818230BD000001409F
:10427000000401400004004000080040000C004021
:104280000010004000140040F0B591B0FCF762F857
:10429000294A1178491C1170FCF760F8274C40F24C
:1042A0002551204600F067F8F0B3204600F0F6F8FC
:1042B000234C01266D4621780DF80100491CC8B237
:1042C0002070684410F8010C242802D18DF80000F9
:1042D000267020780027284410F8010C3F2804D1CC
:1042E00027702946A069FEF73FFB2078284410F884
:1042F000010C262802D18DF8000026702078284471
:1043000010F8010C2A2812D127709DF801002328EB
:1043100003D16946E069FEF727FB9DF801002B28D1
:1043200005D16946206A00E001E0FEF71DFBFEF7BB
:104330005BFA11B0F0BD00005E00002000440040B8
:1043400000000020FFF75EB80A0A01219140C9432E
:10435000018070470029818902D041F4005101E0B9
:1043600021F40051818170470246002012880A42E0
:1043700000D00120704770B501F01F060122002512
:10438000C1F3421302FA06F4012B0FD0022B0FD017
:10439000838A4FEA11210088234202FA01F200EADF
:1043A000020001D000B10125284670BD8389F0E7E5
:1043B000038AEEE7C1F3421301F01F0C012101FA59
:1043C0000CF1012B07D0022B07D01430002A026811
:1043D00005D00A4304E00C30F8E71030F6E78A43D2
:1043E000026070477FB50446008A0D4620F44051B4
:1043F000E88808432082A08941F20C618843A9889B
:104400002A8911436A8902431143A181A08A20F4B9
:104410004071A8890843A0826846FFF7EDFB1D485C
:10442000844202D01C48844201D1039800E00298E3
:10443000A1890904002900EBC00101EB00102968E3
:1044400002DA4FEA410101E04FEA8101B0FBF1F0ED
:104450006422B0FBF2F14FEA01114FEA11136FF041
:1044600018056B4300EB8300A3891D044FF0320352
:1044700006D503EBC000B0FBF2F000F0070005E04A
:1044800003EB0010B0FBF2F000F00F0008432081B6
:104490007FBD000000100140001401408088C0F37F
:1044A00008007047C1F3080181807047FEE70000F3
:1044B0002DE9F041104F04460D461646202138469E
:1044C000FDF7A3FA0321A020FFF70AFDA006000EC6
:1044D0000621FFF705FD002406E028780421FFF7F8
:1044E00041FD641CE4B26D1CB442F6D33846BDE80D
:1044F000F0412021FDF78BBA0004024070B50D4E4B
:1045000004460D4620213046FDF77FFA0321A02006
:10451000FFF7E6FCA006000E0621FFF7E1FC0421F0
:104520002846FFF71FFD3046BDE870402021FDF70B
:104530006EBA00000004024003B4019841000098E4
:1045400050EAC12018BF04204A0D18BF40F00100F6
:1045500040F2FF72B2EB515F08BF40F00200012849
:1045600008BF052002B0704770B59F482DED020BC3
:104570002DED068B079D25F0004484421DDB9B48F2
:10458000844202DC0FD1069868B19DED060B53EC16
:10459000102B51EC100B05F0B7FBBDEC068B02B0F5
:1045A00041EC100B70BD002DCCBF9FED910B9FED2A
:1045B000920BBDEC068B02B070BD9148844215DAB7
:1045C00090488442A8BF4FF0FF3440DA9DED060BBF
:1045D00051EC100BFFF7B0FF042808BF00F0A8FA59
:1045E0009DED060BBDEC068B02B070BD9DED060B7C
:1045F00051EC100B03F0F6FF41EC100B82488DEDEF
:10460000060B9FED839B84423CDA834884421FDA89
:1046100000249FED83AB51EC100B53EC1A2B05F0EB
:1046200073FB9DED060B41EC180B53EC1A2B51EC70
:10463000100B05F009FE53EC192B05F045FF53EC68
:10464000182B05F015FC41EC100B8DED060B49E025
:10465000012453EC192B51EC100B05F055FB9DED8B
:10466000060B41EC180B53EC192B51EC100B05F019
:104670002BFF53EC182B05F0FBFB41EC100B8DEDE1
:10468000060B2FE0684884421FDA02249FED68ABD6
:1046900051EC100B53EC1A2B05F0D6FD53EC192BF3
:1046A00005F032FB9DED060B41EC180B53EC1A2B79
:1046B00051EC100B05F008FF53EC182B05F0D8FB5C
:1046C00041EC100B8DED060B0CE053EC102B03248A
:1046D0009FED590B51EC100B05F0CAFB41EC100B90
:1046E0008DED060B9DED060B53EC102B51EC100BD2
:1046F00005F0AAFD41EC180B53EC182B05F0A4FDB6
:1047000041EC190B4E480621B0EE490AF0EE690A59
:10471000784400F091F953EC182B51EC100B05F094
:1047200093FD41EC180B4748B0EE490AF0EE690AD8
:104730000521784400F080F953EC192B51EC100B53
:1047400005F082FD41EC100B51EC180B53EC102BD3
:10475000002C0EDA05F0D8FA9DED061B53EC112B58
:1047600005F072FD9DED061B53EC112B05F0A0FE2C
:1047700035E005F0C9FA9DED061B53EC112B05F051
:1047800063FD41EC100B3048784400EBC40090ED21
:10479000001B51EC100B53EC112B05F095FE9DED19
:1047A000061B53EC112B05F08FFE41EC100B274834
:1047B000784400EBC40090ED001B51EC100B53EC5F
:1047C000112B05F075FE41EC100B002DA2BFBDECC6
:1047D000068B02B070BD51EC100B05F057FA41EC9E
:1047E000100BFFE600000000000010440000F07F06
:1047F000182D4454FB21F93F182D4454FB21F9BFD7
:104800000000DC3F0000203E0000F33F00000000FD
:10481000000000000000F03F0000E63F0000000044
:104820000000000000000040008003400000000085
:10483000000000000000F83F000000000000F0BF92
:1048400014C80000CAC7000054C700000CC700000D
:1048500070B5694E2DED040B2DED028B82B0DDE9B4
:10486000053C079ACCF1000422F000414CEA040414
:1048700041EAD474049D23F00040B44205D86C4250
:104880002C4340EAD474B44210D99DED060B53EC8E
:10489000102B9DED040B51EC100B05F035FA41EC9B
:1048A000100B02B0BDEC028B04B070BDA2F14054FD
:1048B000A4F17F6454EA0C040BD0022404EAA2742D
:1048C00044EAD37405439FED4E8B9FED4F2B07D0E9
:1048D00010E09DED040B51EC100B00F0CBF93BE028
:1048E000002C14BF012C9DED040BDAD0022C36D025
:1048F000032C39D051EA0C0C9FED451B9FED460B64
:104900000AD0B14219D1B04209D121F0804120F042
:1049100080400791059010E0002BC2DA11E0DFF82B
:1049200000C1FC44002C08BF9CED000BB9D0012C49
:104930000CD0022C13D0032C16D0B04219D1002B6E
:10494000AFDAB0EE410AF0EE610AAAE79CED000B87
:1049500051EC100B05F09AF941EC100BA1E7B0EE09
:10496000480AF0EE680A9CE7B0EE420AF0EE620AEE
:1049700097E7401A00153C2816DC002ABCBF10F14E
:104980003C0F9FED290B0FDB9DED060B53EC102B1D
:104990009DED040B51EC100B05F06AFA03F022FEBA
:1049A00000F068F941EC100B002C8DED000B3FF48A
:1049B00078AF012C10D0022C9FED1D0B53EC102B67
:1049C0009DED000B51EC100B0ED005F07DFD53EC6E
:1049D000182B05F079FDBFE710EE900A80F000403B
:1049E00001909DED000B5CE705F06EFD53EC182B7C
:1049F00005F05EFDB0E700000000F07F0000000061
:104A0000182D4454FB210940182D4454FB2109C0A2
:104A1000182D4454FB21F9BF182D4454FB21F93FB4
:104A200032C600000000000000000000000000008E
:104A3000075C143326A6A13C70B505462DED028B0C
:104A40004C1E00EBC400B0EE408AF0EE608A90EDA0
:104A5000000B34F0060017D053EC182B51EC100B60
:104A600005F0F2FB41EC100B641E05EBC40090ED69
:104A7000001B51EC100B53EC112B05F045F941ECE8
:104A8000100B34F00600E7D1022C36D0042C1CD0D9
:104A9000062C1CBFBDEC028B70BD53EC182B51ECE7
:104AA000100B05F0D1FB95ED0A1B53EC112B05F013
:104AB0002BF953EC182B05F0C7FB95ED081B53ECB5
:104AC000112B05F021F941EC100B53EC182B51EC94
:104AD000100B05F0B9FB95ED061B53EC112B05F0FF
:104AE00013F953EC182B05F0AFFB95ED041B53ECB9
:104AF000112B05F009F941EC100B53EC182B51EC7C
:104B0000100B05F0A1FB95ED021B53EC112B05F0EA
:104B1000FBF853EC182B05F097FB95ED001B53ECBD
:104B2000112B05F0F1F8BDEC028B41EC100B70BDC0
:104B30009FED050B10B553EC102B51EC100B05F04D
:104B400083FB41EC100B10BD0000000000000010C2
:104B5000F0B500234FF480625C1E02EBD27504EBCB
:104B6000650419E05E1C00EE106A00EB8307B8EEE6
:104B7000C00AD7ED000A20EE800A87ED000A00EE99
:104B8000106A01EB83075B1CB8EEC00AD7ED000A80
:104B900020EE800A87ED000A9C42E3DA6B10561E75
:104BA0001DE000BFA2EB030CACF1010C00EE10CA3B
:104BB00000EB8307B8EEC00AD7ED000A20EE200A0A
:104BC00087ED000A00EE10CA01EB83075B1CB8EE0C
:104BD000C00AD7ED000A20EE200A87ED000AB34292
:104BE000E0DB00221BE000BF02EB650300EB830665
:104BF00000EB820796ED000AD7ED000A01EB830374
:104C000030EE200A86ED000A01EB820693ED000AE1
:104C1000D6ED000A521C30EE200A83ED000A9442C1
:104C2000E2DC00220FE000BF02EB650300EB83062D
:104C300001EB830356F8046C40F8226053F8043CFF
:104C400041F82230521C9442EEDAF0BDB5EEC00AB3
:104C5000F1EE10FA05DDF1EEC00AC0ED000A002009
:104C600070479FED030A80ED000A4FF0FF30704758
:104C70000000000010B541EC100BFFF775FC51EC83
:104C8000100B10BD2DE9F0470128089C0A9A70D13D
:104C9000052902D00A296DD041E15578002D6AD04E
:104CA0001079002868D005EB450003EB40008678BA
:104CB00090F801A090F8048090F8039090F805C057
:104CC00010E000BF05EB450003EB40006D1C077AC8
:104CD0008770C7794770877A0771477AC770C77A34
:104CE0004771EDB2D079401EA842EBDC1079D5793E
:104CF00000EB400004EB400005EB450503EB4505E8
:104D0000807805F8040C1079D57900EB400004EBAD
:104D1000400005EB450503EB4505407805F8050C1B
:104D20001079D57900EB400004EB400005EB450518
:104D300003EB4505007905F8020C1079D57900EBF5
:104D4000400004EB400005EB450503EB4505C0784A
:104D500005F8030C1079D57900EB400004EB400016
:104D600005EB450503EB4505407905F8010C157980
:104D700014E054E1E8E078E03CE000BF05EB4500DA
:104D800004EB40006D1C077A8770C7794770877AFB
:104D90000771477AC770C77A4771EDB2907A401EA3
:104DA000A842EBDC907A00EB400004EB400000F8F6
:104DB000046C907A00EB400004EB400000F805AC76
:104DC000907A00EB400004EB400000F8028C907AEF
:104DD00000EB400004EB400000F8039C907A00EBED
:104DE000400004EB400000F801CC5078E8B31079A3
:104DF00000287CD1557805EB450003EB400090F886
:104E0000028090F801A090F8049090F803C04679D1
:104E100010E000BF05EB450003EB40006D1C077A76
:104E20008770C7794770877A0771477AC770C77AE2
:104E30004771EDB2D079401EA842EBDCD07900EB8F
:104E4000400003EB400000F8048CD07900EB4000F8
:104E500003EB400000F805ACD07900EB400003EB19
:104E6000400000F8029CD07900E00EE000EB40002A
:104E700003EB400000F803CCD07900EB400003EBDB
:104E8000400000F8016C507888BB15797DB305EBC4
:104E9000450003EB4000867890F801A090F804905C
:104EA00090F803C090F8058010E000BF05EB4500C6
:104EB00004EB40006D1C077A8770C7794770877ACA
:104EC0000771477AC770C77A4771EDB2907A401E72
:104ED000A842EBDC907A00EB400004EB400000F8C5
:104EE000046C907A00EB400004EB400000E016E018
:104EF00000F805AC907A00EB400004EB400000F8AD
:104F0000029C907A00EB400004EB400000F803CCD8
:104F1000907A00EB400004EB400000F8018C14296B
:104F20007DD1D17800297BD09079002879D001EB10
:104F3000410003EB400090F8028090F80190057961
:104F4000C67890F805C051E1917800296AD050796F
:104F5000002868D001EB410003EB4000857890F811
:104F6000018090F8049090F803C0467910E000BFEB
:104F700001EB410003EB4000491C077A8770C779B9
:104F80004770877A0771477AC770C77A4771C9B285
:104F9000107A401E8842EBDC5079117A00EB400019
:104FA00004EB400001EB410103EB4101807801F883
:104FB000040C5079117A00EB400004EB400001EB47
:104FC000410103EB4101407801F8050C5079117A59
:104FD00000EB400004EB400001EB410103EB410119
:104FE000007901F8020C5079117A00EB400004EBD3
:104FF000400001EB410103EB4101C07801F8030CD3
:105000005079117A00EB400004EB400001EB4101C4
:1050100003EB4101407901F8010C517914E0BDE046
:10502000A3E168E177E03BE001EB410004EB4000E5
:10503000491C077A8770C7794770877A0771477A62
:10504000C770C77A4771C9B2D07A401E8842EBDC7C
:10505000D07A00EB400004EB400000F8045CD07A0A
:1050600000EB400004EB400000F8058CD07A00EB28
:10507000400004EB400000F8029CD07A00EB4000B6
:1050800004EB400000F803CCD07A00EB400004EBC6
:10509000400000F8016C9078E8B3507900287DD189
:1050A000917801EB410003EB4000857890F8019086
:1050B000067990F803C090F805800FE001EB4100FD
:1050C00003EB4000491C077A8770C7794770877ADD
:1050D0000771477AC770C77A4771C9B2107A401E04
:1050E0008842EBDC107A00EB400003EB400000F854
:1050F000045C107A00EB400003EB400000F8059CD4
:10510000107A00EB400003EB400000F8026C107ACC
:1051100000EB400000E00DE003EB400000F803CCA2
:10512000107A00EB400003EB400000F8018C90780F
:10513000002848D15179002945D001EB410003EB0B
:1051400040008378457890F8048090F803C0467951
:1051500010E000BF01EB410004EB4000491C077A5E
:105160008770C7794770877A0771477AC770C77A9F
:105170004771C9B2D07A401E8842EBDCD07A00EB8E
:10518000400004EB400000F8043CD07A00EB400003
:1051900004EB400000F8055CD07A00E013E000EB7F
:1051A000400004EB400000F8028CD07A00EB400095
:1051B00004EB400000F803CCD07A00EB400004EB95
:1051C000400000F8016CBDE8F08700BF01EB410032
:1051D00003EB4000491C077A8770C7794770877ACC
:1051E0000771477AC770C77A4771C9B2507A401EB3
:1051F0008842EBDC9079517A00EB400004EB4000F0
:1052000001EB410103EB4101807801F8040C907936
:10521000517A00EB400004EB400001EB410103EB4D
:105220004101407801F8050C9079517A00EB40007B
:1052300004EB400001EB410103EB4101007901F86F
:10524000020C9079517A00EB400004EB400001EB36
:10525000410103EB4101C07801F8030C9079517AC8
:1052600000EB400004EB400001EB410103EB410186
:10527000407901F8010C917910E000BF01EB410089
:1052800004EB4000491C077A8770C7794770877A1A
:105290000771477AC770C77A4771C9B2107B401E41
:1052A0008842EBDC107B00EB400004EB400000F890
:1052B000048C107B00EB400004EB400000F8059CE0
:1052C000107B00EB400004EB400000F8025C107B18
:1052D00000EB400004EB400000F8036C107B00EB97
:1052E000400004EB400000F801CCD078E8B390799E
:1052F00000287FF468AFD17801EB410003EB400058
:1053000090F8028090F801900579C67890F805C071
:1053100010E000BF01EB410003EB4000491C077A9D
:105320008770C7794770877A0771477AC770C77ADD
:105330004771C9B2507A401E8842EBDC507A00EBCC
:10534000400003EB400000F8048C507A00EB400072
:1053500003EB400000F8059C507A00EB400003EBA3
:10536000400000F8025C507A00E00FE000EB4000E3
:1053700003EB400000F8036C507A00EB400003EBB5
:10538000400000F801CCD0780028B2D191790029F2
:105390003FF419AF01EB410003EB4000837890F834
:1053A00001800579C67890F805C00FE001EB410057
:1053B00004EB4000491C077A8770C7794770877AE9
:1053C0000771477AC770C77A4771C9B2107B401E10
:1053D0008842EBDC107B00EB400004EB400000F85F
:1053E000043C107B00EB400004EB400000F8058C0F
:1053F000107B00EB400004EB400000F8025C107BE7
:1054000000EB400004EB400000F8036C107B00EB65
:10541000400004EB400000F801CCD4E6F0B50129CF
:1054200073D110B1012839D035E05C78002C34D02C
:1054300004EB840502EB45052E7995F801C095F83B
:1054400007E00CE004EB840502EB45050544641C11
:10545000AF7B2F71EF7A6F706F7CEF71E4B2DD7903
:105460006D1EA542EEDCDC7904EB840402EB4404FF
:10547000044404F8066CDC7904EB840402EB440475
:10548000044404F809CCDC7904EB840402EB440402
:10549000044404F803EC02283AD0ECE01C79002C18
:1054A00077D004EB840502EB4506751C767995F8F8
:1054B00001C095F807E00CE004EB840502EB45051C
:1054C0000544641CAF7B2F71EF7A6F706F7CEF71B6
:1054D000E4B29D7A6D1EA542EEDC9C7A04EB840456
:1054E00002EB4404044404F8066C9C7A04EB840444
:1054F00002EB4404044404F809CC9C7A04EB8404D1
:1055000002EB4404044404F803EC032931D0B2E074
:105510005C7B002C76D004EB840502EB4506B51CC1
:10552000B67995F801C095F807E00CE004EB840526
:1055300002EB45050544641CAF7B2F71EF7A6F7059
:105540006F7CEF71E4B29D7B6D1EA542EEDC9C7B0F
:1055500004EB840402EB4404044404F8066C9C7BD2
:1055600004EB840402EB4404044404F809CC9C7B5F
:105570007AE010B1012846D035E09978002908D0AA
:1055800001EB810402EB4404257994F801C0E6792B
:105590000DE09AE001EB810402EB44040444491C51
:1055A000A77B2771E77A6770677CE771C9B21C7ABD
:1055B000641E8C42EEDC197A01EB810102EB4101A1
:1055C000014401F8065C197A01EB810102EB41010B
:1055D000014401F809CC197A01EB810102EB410188
:1055E000014401F8036C02286FD1D97B00296CD0EB
:1055F00001EB810402EB4405AC1CAD79667894F8AC
:1056000007C04CE037E05C79002C5ED004EB8405E9
:1056100002EB4506751C767995F801C095F807E010
:105620000DE000BF04EB840502EB45050544641C56
:10563000AF7B2F71EF7A6F706F7CEF71E4B2DD7A20
:105640006D1EA542EEDCDC7A04EB840402EB44041C
:10565000044404F8066CDC7A04EB840402EB440492
:10566000044404F809CCDC7A04EB840402EB44041F
:10567000044404F803EC062927D138B301286BD081
:105680005BE000BF01EB810402EB44040444491CCD
:10569000A77B2771E77A6770677CE771C9B21C7CCA
:1056A000641E8C42EEDC197C01EB810102EB4101AE
:1056B000014401F8065C197C01EB810102EB410118
:1056C000014401F8096C197C9AE076E0FFE7D9788B
:1056D000002972D001EB810402EB4404257966783D
:1056E00094F807C00DE000BF01EB810402EB440415
:1056F0000444491CA77B2771E77A6770677CE771D0
:10570000C9B25C7A641E8C42EEDC597A01EB8101ED
:1057100002EB4101014401F8065C597A01EB810179
:1057200002EB4101014401F8096C597A01EB810156
:1057300002EB4101014401F803CC022867D1597CF6
:10574000002964D001EB810402EB4405AC1CAD7967
:10575000667894F807C03EE09979002957D001EBAC
:10576000810402EB44056C1C6D79667894F807C0DF
:105770000DE000BF01EB810402EB44040444491C2A
:10578000A77B2771E77A6770677CE771C9B21C7BDA
:10579000641E8C42EEDC197B01EB810102EB4101BE
:1057A000014401F8065C197B01EB810102EB410128
:1057B000014401F8096C197B22E028E001EB810427
:1057C00002EB44040444491CA77B2771E77A677005
:1057D000677CE771C9B29C7C641E8C42EEDC997CCC
:1057E00001EB810102EB4101014401F8065C997C67
:1057F00001EB810102EB4101014401F8096C997C44
:1058000001EB810102EB4101084400F803CCF0BD3B
:10581000C9B261F31F2070472DE9F05F04462DEDFA
:10582000108BADF5635D894617461D460DF540505A
:105830004FF0000A9FEDFC0AD0F828690DF5805062
:1058400080ED120A9FEDF80A202280ED110AF74937
:105850002430FBF715FC4FF4007002900020014645
:1058600005904FF0010B0DF580509FEDEF0A01629E
:1058700080ED130AEE48007A9FEDEEEB9FEDEFFB13
:105880009FEDF0AB01287DD1FBF742FDFBF774FCE7
:10589000B0EE4A8AF0EE6A8A9FEDEC9BE448E44958
:1058A0008089B1F80E80A0EB080004F066FC53EC90
:1058B000182B04F0C9FC53EC192B04F0C5FC04F0C0
:1058C000F1F9014642F26C00684440F82A10D848C9
:1058D0004089A0EB080004F050FC53EC182B04F0B6
:1058E000B3FC53EC192B04F0AFFC04F0DBF90146D8
:1058F00041F26C00684440F82A10242002F056FE61
:105900000AF1010ABAF5806FC8DB42F26C01694402
:10591000A1F580584046FFF71BF943F68401CDF806
:1059200000B06944A1F11800059B029AFAF71AFF2A
:105930000DF11C0A5246414608F52050FAF79CFE2C
:105940000DF58050012101620A9804F0A7FE41EC98
:105950001B0B099804F0A2FE41EC100BB0EE4B1AA1
:10596000F0EE6B1AFEF774FF08F58051B0EE40CAF6
:10597000F0EE60CA524601F5C050FAF77DFE0DF513
:10598000805000E07BE1006A0AEBC008D8F8040010
:1059900004F084FE41EC1B0BD8F8000004F07EFEFE
:1059A00041EC100BB0EE4B1AF0EE6B1AFEF750FF05
:1059B000B0EE40BAF0EE60BA53EC102B51EC1C0B79
:1059C00004F082FD8A464AEC100B80469FEDA1DB75
:1059D00051EC100B53EC1D2B04F034FD7DD24AEC3E
:1059E000108BB0EE4E1AF0EE6E1A53EC112B51ECF8
:1059F000100B04F029FCB0EE4F0AF0EE6F0A53ECE6
:105A0000102B04F035FA04F08BFB80B27638DCE022
:105A1000002000E0012086490871FBF7A9FCFBF794
:105A2000CBFB4FF0000A824881498089B1F80E8093
:105A3000A0EB080004F0A1FB53EC182B04F004FCCD
:105A400053EC192B04F000FC04F02CF9014642F24F
:105A50006C00684440F82A1075484089A0EB0800A3
:105A600004F08BFB53EC182B04F0EEFB53EC192BDA
:105A700004F0EAFB04F016F9014641F26C006844B8
:105A800040F82A10242002F091FD0AF1010ABAF52B
:105A9000806FC8DB42F26C016944A1F58058404632
:105AA000FFF756F843F68401CDF800B06944A1F140
:105AB0001800059B029AFAF755FE0DF11C0A524692
:105AC000414608F52050FAF7D7FD0DF58051012029
:105AD00008620A9804F0E2FD00E05CE041EC180B7B
