:020000040800F2
:1000000008CB002029020008931E0008CD1A000822
:10001000911E000871150008F93B0008000000005F
:100020000000000000000000000000008D36000805
:10003000FD15000800000000AB0200081938000898
:10004000430200084302000843020008430200087C
:10005000430200084302000843020008430200086C
:10006000430200084302000843020008430200085C
:10007000430200084302000843020008430200084C
:10008000430200084302000843020008430200083C
:10009000430200084302000843020008430200082C
:1000A000430200084302000843020008430200081C
:1000B0004302000843020008993800084302000880
:1000C00043020008430200084302000843020008FC
:1000D00043020008430200080D3A0008913A000864
:1000E00043020008430200084302000843020008DC
:1000F00043020008430200084302000843020008CC
:1001000043020008430200084302000843020008BB
:1001100043020008430200084302000843020008AB
:10012000430200084302000843020008430200089B
:10013000430200084302000843020008430200088B
:10014000430200084302000843020008430200087B
:10015000430200084302000843020008430200086B
:10016000430200084302000843020008430200085B
:10017000430200084302000843020008430200084B
:10018000430200084302000800F002F800F03CF8C7
:100190000AA090E8000C82448344AAF10107DA45E2
:1001A00001D100F031F8AFF2090EBAE80F0013F0F8
:1001B000010F18BFFB1A43F0010318477CC500006C
:1001C0009CC50000103A24BF78C878C1FAD85207FD
:1001D00024BF30C830C144BF04680C6070470000C1
:1001E0000023002400250026103A28BF78C1FBD840
:1001F000520728BF30C148BF0B6070471FB505F0DC
:10020000B8FE1FBD10B510BD00F022FF1146FFF76C
:10021000F5FF04F0D1FE00F040FF03B4FFF7F2FF5A
:1002200003BC00F041FF000009488047094800472F
:10023000FEE7FEE7FEE7FEE7FEE7FEE7FEE7FEE796
:10024000FEE7FEE704480549054A064B70470000F3
:100250003D3800088901000808C5002008CB0020AF
:1002600008C7002008C70020EFF3108072B670475F
:1002700080F3108870471D484FF0FF010170002087
:1002800080F309881A48012101701A484FF0805103
:10029000016062B6FEE717484FF080510160704779
:1002A00014484FF080510160704772B6EFF3098037
:1002B00028B1203880E8F00F0F490968086000B5C0
:1002C0000E4880475DF804EB0D480E490A7802702D
:1002D00009480D490A680260106890E8F00F203064
:1002E00080F309884EF0040E62B6704722ED00E0FC
:1002F0004B00002004ED00E0640000207928000895
:1003000048000020490000206C00002072B67047B1
:1003100062B67047EFF3108072B6704780F31088B2
:100320007047B0FA80F0704790FAA0F0704730BF85
:10033000704720BF70470000DFED2E0AB5EEC00AFF
:1003400060EE200ABDEEE01A11EE100AF1EE10FA8E
:1003500038BF401E00EE100ADFED271AF7EE005AF4
:10036000B8EEC00ADFED274A244930EEC01A21EE6C
:10037000210AFCEEC00A10EE900A00EE900A01EB92
:100380008000B8EE600ADFED1E0AF0EC012A11EEE3
:10039000210AF6EE001AB0EC013AF0EC013A20EE38
:1003A000001A20EE216A40EE615A20EE245A21EE16
:1003B000212A90ED004A00EE602A66EE010A40EE26
:1003C000400A05EE412A70EEA55AF0EE400A41EED1
:1003D000210A46EE410A25EE011A00EE641A22EEC9
:1003E000820A63EEA00A03EE250A44EE010A30EE0B
:1003F000200A704783F9223E00008043886000088D
:10040000ABAAAA3EABAA2A3E9FED3A0A5FEA920C3B
:1004100053D000BFB0EC011A0B1DF0EC010A21EE25
:10042000011A00EEA01AB5EEC01AF1EE10FAC6BF1E
:10043000F1EEC10AC1ED000A81ED000AF0EC010AFB
:10044000191DB0EC011A60EEA00A41EE010AF5EEAA
:10045000C00AF1EE10FAC6BFF1EEE00AC3ED000AE1
:1004600083ED000AB0EC011A0B1DF0EC010A21EE3D
:10047000011A00EEA01AB5EEC01AF1EE10FAC6BFCE
:10048000F1EEC10AC1ED000A81ED000AB0EC011ADB
:10049000191DF0EC010A21EE011A00EEA01AB5EECA
:1004A000C01AF1EE10FAC6BFF1EEC10AC3ED000AA0
:1004B00083ED000ABCF1010CACD112F0030208BFBD
:1004C000704700BFF0EC010A0B46B0EC011A091DA1
:1004D00060EEA00A41EE010AF5EEC00AF1EE10FA54
:1004E000C6BFF1EEE00AC3ED000A83ED000A521E1A
:1004F000E8D17047000000002DE9F00700EBC109CA
:10050000DDE90778D0F800A0C9F800A007EB0114D6
:10051000D0F804A0251FA9F10406C9F804A003EB34
:10052000C80907F1080C00F1080402EBC8024B1ED1
:1005300031D000BFF2EC011A96ED002A92ED001ABC
:1005400002EBC802B4EC010A121FF4EC012A60EEBF
:10055000210A20EE010A32EE823A02EEA10AD9ED1A
:10056000001A43EE410A09EBC80902EE610A16EDD2
:10057000012A083E42EE210A02EE410AECEC010A91
:10058000ACEC010AB1EE400A85ED000A45ED010A26
:10059000083D5B1ECED190ED000AD0ED010A07EBBD
:1005A000C10130EE600A81ED000A9FED5D0A81ED28
:1005B000010AD0ED000A90ED011A70EE810AC7ED34
:1005C000000A87ED010ABDE8F007704770B400EB40
:1005D000C105DDE903C42D1D002904BF70BC7047AF
:1005E000F2EC011A95ED002A92ED001A02EBC4021A
:1005F000B0EC010A121FF0EC012A60EE210A20EE95
:10060000410A32EE823A02EEA10AD3ED001A43EE1D
:10061000010A03EBC40302EE610A15ED012A083D4D
:10062000491E42EE210A02EE010AECEC010AACEC92
:10063000010AD5D170BC70472DE9F04305464469E5
:10064000807983B00F461646012809D0A3892188F6
:100650003846626800F036F9E87901284ED053E058
:10066000AA88D5E9030307EBC20CD5F80880314608
:100670000CF1040C5AB300BFB0EC011A9CED002A37
:10068000D0ED001A00EBC800B7EC010A001FF7EC30
:10069000012A521E60EE010A20EE610A32EE823A11
:1006A00002EE810A93ED001A43EE210A03EBC80320
:1006B00002EE410A1CED012AACF1080C42EE010ADF
:1006C00002EE210AE1EC010AA1EC010AD4D194ED79
:1006D000040AA38921883046626800F095FAE87917
:1006E00001281CBF03B0BDE8F083E2892188A3681C
:1006F00003B03046BDE8F04300F08CB8E2892188B1
:100700003846A36800F086F8A868CDE90060D5E90E
:100710000323A9883846FFF7EFFE03B0BDE8F08356
:100720000000000070B592B2DDF810C055080260FC
:100730008580184EC66006F50056DBB206610024BF
:10074000837180F807C0802A04BF102282600BD01A
:10075000B2F5007F08BF042212D0B2F5006F14BFBB
:100760004FF0FF3401220BD0002B8C4641614FF03B
:10077000000307D001222946604600F015FC06E080
:100780008260F1E700222946604600F00DFC204619
:1007900070BD00009464000870B40025B0EC010A3C
:1007A000A1F1010CF0EC010AB4EEE00AF1EE10FA4E
:1007B0003CBFB0EE600A0125ACF10104A446B4F1DF
:1007C000004F0ED3F0EC010AB4EEE00AF1EE10FA9D
:1007D0003CBFB0EE600AA1EB0C05BCF1010CF1D1FD
:1007E00013E0002CC8BF00260FDD00BFF0EC010AAB
:1007F000B4EEE00AF1EE10FA04D2ACEB0605B0EE6E
:10080000600A4D1B761C641EF0D182ED000A1D604B
:1008100070BC70472DE9F0014E0801244FF0000C28
:1008200004EB51076146A6F102082CE061452AD28B
:1008300000EBCC0500EBC104D5ED000A94ED000AF5
:10084000C4ED000A85ED000AD5ED010A94ED010A18
:10085000C4ED010A85ED010A0CEB0705CC1900EB8C
:10086000C50500EBC404D5ED000A94ED000AC4ED03
:10087000000A85ED000AD5ED010A94ED010AC4EDE8
:10088000010A85ED010A00EBC104B44400EBCC0C75
:1008900094ED020ADCED000A891CC4ED020A8CED1D
:1008A000000A94ED030ADCF80450E5608CED010ABF
:1008B000B3F800C089B203EB42034145B6D9BDE8A5
:1008C000F00170472DE9F04F4FEA910C4FF000080E
:1008D0004746644608EB0C0505EB0C0909EB0C06D2
:1008E00000EBC80A00EBC9099AED000AD9ED000A2D
:1008F00099ED012A00EBC50530EE201A30EE600AB2
:10090000DAED010A00EBC60608F1010870EE821A62
:1009100070EEC20A95ED002AD6ED002A641E32EE72
:10092000222A71EE022A31EE421ACAED002A95ED12
:10093000012AD6ED012A32EE222A71EE822A71EEC8
:10094000C21ACAED012A95ED012AD6ED012A96EDCB
:10095000003A4FEA470A32EE622AD5ED002A02EB4E
:10096000CA0B72EEC32A9BED003ADBED013A21EE91
:10097000034A01EEA34A61EE831A41EE631A85ED44
:10098000004A30EE021A30EE420AC5ED011A02EBBF
:10099000C70570EEE21A95ED002A70EEA20AD5EDB9
:1009A000012A21EE023A0AEB070502EBC5051F44B6
:1009B00001EEA23A61EE821A41EE621A89ED003A26
:1009C000C9ED011AD5ED001A95ED011A20EE212A84
:1009D00000EE812A60EEA10A40EE410A86ED002A6F
:1009E000C6ED010A7FF476AF9B044FEA134BE6464F
:1009F000BCF1040F7DD9E0464FEA9C0C4FF0000992
:100A0000CA46BCF1000F75D94FEA490404EB09034B
:100A100002EBC90502EBC40402EBC30395ED001A17
:100A2000D5ED011A94ED000AD4ED010A93ED002AE8
:100A3000D3ED012AD94453468A4573D203EB0C0403
:100A400004EB0C0606EB0C0500EBC30700EBC60637
:100A500097ED003AD6ED003A96ED015A00EBC4044A
:100A600073EE234A33EE633AD7ED013A00EBC50546
:100A700033EE854A73EEC53A94ED005AD5ED005A2F
:100A800035EE255A74EE855A74EEC54AC7ED005A04
:100A900094ED015AD5ED015A35EE255A74EE055AFA
:100AA00034EE454AC7ED015A94ED015AD5ED015A8D
:100AB00095ED006A35EE655AD4ED005A75EEC65ACA
:100AC00024EE806A04EE206A24EE004A04EEE04A36
:100AD00084ED006A73EEE54A73EEA53A84ED014AAF
:100AE00033EE054A33EE453A24EE015A04EEA15A9C
:100AF00001E026E01BE064EE814A86ED005A4344A3
:100B00008B4244EE614A23EE024A03EEA24A63EEB0
:100B1000823AC6ED014A43EE623A85ED004AC5EDE0
:100B2000013A8BD30AF1010AE245FFF46DAF4FEAB7
:100B30008B434FEA9E0E4FEA134BBEF1040F3FF674
:100B40005AAFA1EB0C0100224B1C4FEA9C04002B76
:100B50008CBF1F46BDE8F08F11190E19331900EB39
:100B6000C20500EBC60695ED000AD6ED000A95ED2C
:100B7000012A96ED011A70EE201A70EE600A32EE2C
:100B8000010A00EBC10100EBC30332EE411A91ED03
:100B9000002AD3ED002A6244974232EE222A71EEF7
:100BA000822A31EEC22AC5ED002AD1ED011AD3ED19
:100BB000012A71EEA21A70EE212AC5ED012A70EE0B
:100BC000612A91ED010AD3ED011A93ED003A70EE1E
:100BD000611A91ED000A81ED002AC1ED012A30EE83
:100BE000430A30EEA12A70EEE10A71EE401A31EEAE
:100BF000000A86ED002AC6ED011AC3ED000A83ED56
:100C0000010AA9D8BDE8F08F2DE9F04F4FEA910C09
:100C10004FF000084746644608EB0C0505EB0C0A4C
:100C20000AEB0C0600EBC80900EBCA0AD9ED000A72
:100C30009AED001ADAED012A00EBC50570EE811A73
:100C400070EEC10A99ED011A00EBC60608F1010821
:100C500031EE222A31EE621AD5ED002A96ED003AE5
:100C6000641E72EE832A31EEA23A71EEE21A89ED29
:100C7000003AD5ED012A96ED013A72EE832A32EE62
:100C8000223A32EE622A89ED013AD5ED012A96ED3B
:100C9000013AD6ED003A4FEA470972EEC32A95EDC4
:100CA000003A02EBC90B33EE633ADBED003A9BED01
:100CB000014A61EEA34A42EE444A22EE232A01EEA3
:100CC000842AC5ED004A70EEE21A70EEA20A85EDA4
:100CD000012A02EBC70531EE032AD5ED002A31EED9
:100CE000431A95ED013A61EEA23A09EB070502EBD2
:100CF000C5051F4442EE433A22EE222A01EE832A22
:100D0000CAED003A8AED012AD5ED001A95ED012AC7
:100D100060EEA12A41EE422A21EE211A00EE821A4B
:100D2000C6ED002A86ED011A7FF476AF9B044FEAE8
:100D3000134BE646BCF1040F7DD9E0464FEA9C0C0C
:100D40004FF00009CA46BCF1000F75D94FEA4904BB
:100D500004EB090302EBC90502EBC40402EBC30375
:100D6000D5ED001A95ED012AD4ED000A94ED011A93
:100D7000D3ED002A93ED013AD94453468A4573D204
:100D800003EB0C0404EB0C0606EB0C0500EBC307AD
:100D900000EBC606D7ED003A96ED004AD6ED015AB3
:100DA00000EBC40433EE845A73EEC43A97ED014A63
:100DB00000EBC50574EE254A34EE654AD4ED005AC1
:100DC00095ED006A75EE865A35EE256A35EE655A60
:100DD00087ED006AD4ED015A95ED016A75EE865AE9
:100DE00034EEA56A74EEE54A87ED016AD4ED015A46
:100DF00095ED016AD5ED006A75EEC65A94ED006A6C
:100E000036EE666A65EE206A44EEC16A64EEA04A78
:100E100045EE014AC4ED006A34EE065A34EE464A05
:100E2000C4ED014A73EEE54A73EEA53A64EEA15AA9
:100E300045EE425A01E026E01BE025EE215AC6EDC0
:100E4000005A43448B4204EE825A63EEA24A44EEB7
:100E5000434A24EE224A86ED015A03EE834AC5ED49
:100E6000004A85ED014A8BD30AF1010AE245FFF4FD
:100E70006DAF4FEA8B434FEA9E0E4FEA134BBEF124
:100E8000040F3FF65AAFA1EB0C0100224B1C4FEAB6
:100E90009C06002B8CBF1F46BDE8F08F91198D1961
:100EA000AB1900EBC20400EBC505D4ED000AD5ED8B
:100EB000001AD4ED012A95ED012A30EEA11A70EE48
:100EC000E11A72EE820A00EBC10100EBC30332EEBD
:100ED000C22AD1ED002A93ED003A6244974272EEA5
:100EE000832A31EE223A71EE622A23EE003A62EE54
:100EF000802A84ED003A91ED011A93ED013A31EE2A
:100F0000031A30EE813A23EE003A84ED013A30EED6
:100F1000C13AD1ED010A93ED011AD3ED003A30EE5A
:100F2000C11AD1ED000AC1ED002A63EE002A70EE6D
:100F3000E30AC1ED012A71EEC12A31EE811A72EE87
:100F4000201A72EE600A22EE802A21EE001A61EE6B
:100F5000801A85ED002A60EE800AC5ED011A83ED46
:100F6000001AC3ED010A99D8BDE8F08F30B50446E8
:100F70000D4680782188A389626801280DD0284613
:100F8000FFF7A0FCE078012818BF30BDE289218876
:100F90002846A368BDE830403CE494ED040A2846A6
:100FA000FFF732FEEEE7000010B401801B4C4460F6
:100FB00082704FF0000CC370102925D040291BD03F
:100FC000B1F5807F10D0B1F5806F18BF4FF0FF3CB6
:100FD00002D010BC6046704701218181C181104957
:100FE0009FED100A816016E004218181C1810E49C4
:100FF0009FED0E0A81600EE010218181C1810C49B4
:101000009FED0C0A816006E040218181C1810A497F
:101010009FED0A0A816080ED040ADAE794A40008D3
:1010200094C400080000803A9AC400080000803B85
:10103000B2C400080000803C12C500080000803DDA
:10104000704770477047000000487047A8C40020F0
:101050007546FFF7F9FFAE4605006946534620F096
:101060000700854618B020B5FFF7ECF8BDE8204032
:101070004FF000064FF000074FF000084FF0000B54
:1010800021F00701AC46ACE8C009ACE8C009ACE807
:10109000C009ACE8C0098D4670470446AFF3008034
:1010A0002046FFF7BAF8704701491820ABBEFEE7AB
:1010B0002600020010B5064C0122002311462046EE
:1010C00000F050F92046BDE8104000F085B900005E
:1010D0000020014010B5064C0023012204212046C7
:1010E00000F040F92046BDE8104000F075B900005E
:1010F0000020014010B5064C0023012207212046A4
:1011000000F030F92046BDE8104000F065B900005D
:101110000020014010B5064C002301220D2120467D
:1011200000F020F92046BDE8104000F055B900005D
:101130000021014010B5064C002301220E2120465B
:1011400000F010F92046BDE8104000F045B900005D
:101150000021014010B5064C002301220F2120463A
:1011600000F000F92046BDE8104000F035B900005D
:101170000021014070B59CB001212F4802F052F9C6
:1011800001214FF4E06002F071F94FF0007000901F
:101190002A4801902A4802A90024012531C1E80209
:1011A000CDE9064080000890401109900AA90594F5
:1011B000400231C1234E0D94694630460E9400F032
:1011C000F3F90121304600F0E4F903208DF86800BE
:1011D00019958DF86B4019A91B4800F011FA159468
:1011E0001694179415A8189400F06AF80F948DF8C7
:1011F000404011941394114C8DF841504C3C8DF8A3
:1012000050500FA9204600F087F800230122082142
:10121000204600F0A7F80121204600F073F80121D4
:10122000204600F065F80121204600F03FF82046F6
:1012300000F0D2F81CB070BD020040004C2101400B
:1012400008000020406402400004024010B5064C33
:10125000002301220A21204600F084F82046BDE840
:10126000104000F0B9B800000022014010B5064C53
:10127000002301220B21204600F074F82046BDE82F
:10128000104000F0A9B800000022014010B5064C43
:10129000002301220C21204600F064F82046BDE81E
:1012A000104000F099B80000002201400029816838
:1012B00002D041F0010101E021F00101816070479D
:1012C000094B10B51A68094902EA0102D0E9001475
:1012D00041EA0401D0E9024044EA000441EA040181
:1012E00041EA0201196010BD04230140E030FCFF17
:1012F0000029816802D041F4807101E021F48071FD
:10130000816070470029816802D041F4007101E0DA
:1013100021F400718160704730B542680F4B0C7941
:101320001A400B6842EA04221343436082680C4B64
:101330004D791A40D1E9034323438C6844EA4504BC
:10134000234313438360C26A097D22F47002491E5D
:10135000C9B242EA0151C16230BD0000FFFEFFFC8C
:10136000FDF7FFC070B5072509290AD9C468A1F1A6
:101370000A0606EB4606B540AC43B3401C43C460C6
:1013800007E0046901EB4106B540AC43B3401C43A0
:1013900004611F23072A09D2446B521E02EB82020A
:1013A00093409C4391400C43446370BD0D2A09D285
:1013B000046BD21F02EB820293409C4391400C438A
:1013C000046370BDC46A0D3A02EB820293409C43F1
:1013D00091400C43C46270BD816841F080418160DE
:1013E000704700F075BB70B504460D4600F0D6FBA3
:1013F000A02000F091FB00F02DFC200A00F08CFBF7
:1014000000F028FCE0B200F087FB00F023FC284647
:1014100000F082FB00F01EFC00F0EEFBBDE8704027
:101420000A2003F057BC704710B586B0002000F0CA
:101430004FFE1C4CE060002000F04AFE20610020BE
:1014400000F038FF6061002000F042FEA061164805
:1014500001AC032300224FF480710FC40120034626
:101460000090124A0021124801F052F88DF8140041
:1014700005AA10A10A2001F0A9F80B4A0323121FA4
:1014800000210F4800F0FCFF02230E4A00210E4805
:1014900000F0F6FF04230D4A00210D4800F0F0FF94
:1014A00006B010BD0000002028060020240A0020FD
:1014B000411500085374617274205461736B00000D
:1014C000DB14000824AA00202915000824AE0020FF
:1014D000E914000801F00CBC704703F057FC0A2027
:1014E00003F0F8FBF9E70000064D074CE87910B966
:1014F000042001F069F9606900F062FF642003F0E4
:10150000E9FBF3E744AE00200000002010B500F036
:101510009BFFFFF789FFBDE810400A2001F054B996
:10152000704701F0EDBB000008B5044C6A4600218D
:10153000606900F0E5FE02F03DFFF7E700000020E3
:1015400008B5084D084C0A26E879012801D101F0B8
:101550003BF96A460021E06800F0E0FD03F0BEFDC3
:101560006681F1E744AE00200000002001F0DABB04
:10157000FEE770B5002500240021284602F064FB38
:10158000641CE4B2042CF7D36D1CEDB2162DF2D31B
:1015900070BD0029016802D041F0010101E021F095
:1015A000010101607047000030B50368124ACC6841
:1015B00013400A682243D1E905452C432243CC69F4
:1015C00022430C6A22434C6A22438C6A22434C6BAE
:1015D00022438C6B22431A430260426922F00703C4
:1015E000D1E90B2422431A4342610A6942604A68E6
:1015F00082608968C16030BD3F801CF07047000088
:10160000F0B5002201234FF0030C00BF0D6803FA70
:1016100002F42540A5422DD1066854000CFA04F5C9
:10162000AE4306600E790768A6403E4306600E7919
:10163000012E01D0022E12D18668AE4386604D790C
:101640008668A54035438560456803FA02F6B543D0
:10165000456045688E799640B6B235434560C568A9
:1016600056000CFA06F7BD43C560CD79A540C468A5
:101670002543C560521C102AC8D3F0BD4B07DB0EB2
:101680009A40C90810B500EB8100016A0F249C4004
:10169000A1430162016A1143016210BD02460020AC
:1016A00012690A4200D001207047418370470183CC
:1016B000704700002DE9F04704460D4601210B203C
:1016C00002F0C2FA01210D2002F0BEFA08210E201C
:1016D00002F0BAFA0821112002F0B6FA6427B4FB2E
:1016E000F7F6DFF88080022208EB46010F2002F0B7
:1016F00085FA07FB16400A26B0FBF6F008EB40011E
:101700000222132002F07AFAB4FBF6F006FB104036
:10171000B0FBF6F106FB110008EB4001022211209C
:1017200002F06CFAB5FBF7F4A8F11409022209EBF8
:101730004401104602F062FA07FB1450B0FBF6F0C9
:1017400009EB40010222052002F058FAB5FBF6F041
:1017500006FB105008EB4001BDE8F04702220820CC
:1017600002F04CBAE40000202DE9F04104460121CA
:101770000C2002F069FA0821112002F065FA42F209
:101780001077B4FBF7F51D4EA8B206EB400102221C
:101790000F2002F033FA07FB15404FF47A75B0FBC7
:1017A000F5F006EB40010222132002F027FAB4FB09
:1017B000F5F005FB10406425B0FBF5F006EB4001A9
:1017C0000222112002F01AFAB4FBF5F005FB1040DA
:1017D0000A25B0FBF5F0143E06EB40010222002082
:1017E00002F00CFAB4FBF5F005FB104006EB4001EB
:1017F000BDE8F0410222104602F000BAE4000020E9
:101800002DE9F04704460D460421072002F01CFA9A
:101810000821112002F018FA6427B4FBF7F6DFF86C
:101820007880022208EB46010F2002F0E7F907FB5F
:1018300016400A26B0FBF6F008EB40010222132006
:1018400002F0DCF9B4FBF6F006FB104008EB4001B7
:101850000222112002F0D2F9B5FBF7F4A8F1140925
:10186000022209EB4401104602F0C8F907FB1450AC
:10187000B0FBF6F009EB40010222052002F0BEF9B0
:10188000B5FBF6F006FB105008EB4001BDE8F04751
:101890000222082002F0B2B9E40000202DE9F04154
:1018A000044601210A2002F0CFF90821112002F09C
:1018B000CBF942F21076B4FBF6F51E4FA8B207EB57
:1018C00040010222112002F099F906FB15404FF465
:1018D0007A76B0FBF6F0A7F1140505EB4001022281
:1018E000002002F08BF9B4FBF6F006FB10406426F2
:1018F000B0FBF6F005EB40010222104602F07EF943
:10190000B4FBF6F006FB10400A26B0FBF6F005EB40
:1019100040010222052002F071F9B4FBF6F006FB4B
:10192000104007EB4001BDE8F0410222082002F020
:1019300065B90000E40000202DE9F04104460821CB
:10194000012002F081F90421072002F07DF96426CC
:10195000B4FBF6F50F4F022207EB4501104602F0EB
:101960004DF906FB15400A25B0FBF5F007EB4001E9
:101970000222052002F042F9B4FBF5F005FB10400D
:1019800007F11401BDE8F04101EB400102220820FB
:1019900002F034B9D00000202DE9F04104460121C5
:1019A000042002F051F90821112002F04DF96426BB
:1019B000B4FBF6F50F4F022207EB4501104602F08B
:1019C0001DF906FB15400A25B0FBF5F007EB4001B9
:1019D0000222052002F012F9B4FBF5F005FB1040DD
:1019E00007F11401BDE8F04101EB4001022208209B
:1019F00002F004B9D00000202DE9F0410446042192
:101A0000084602F021F902210A2002F01DF90821FE
:101A1000112002F019F96426B4FBF6F50F4F0222EB
:101A200007EB4501104602F0E9F806FB15400A25D0
:101A3000B0FBF5F007EB40010222052002F0DEF8D2
:101A4000B4FBF5F005FB104007F11401BDE8F041CF
:101A500001EB40010222082002F0D0B8D0000020A3
:101A60001CB50121022001F0DDFC4FF4387000901C
:101A700001208DF8040000208DF806000220124C91
:101A80008DF8050069462046FFF7BAFD611520462E
:101A9000FFF70DFE20212046FFF709FE40212046DA
:101AA000FFF705FE80212046FFF701FE022001F02E
:101AB00019FE292001F016FE012001F013FE03207B
:101AC00001F010FE1CBD000000040240FEE7000013
:101AD0001CB50121022001F0A5FC4FF4E04000906C
:101AE00001208DF8040002200A4C8DF8050069469B
:101AF0002046FFF785FDA1142046FFF7D6FD4FF4E1
:101B000000512046FFF7D3FD4FF480412046FFF7F8
:101B1000CEFD1CBD000402402DE9FC470546012115
:101B2000022001F07FFC01208DF8040002201A4EF3
:101B30004FF480478DF80500009769463046FFF75F
:101B40005FFD4FF4005841463046FFF7AEFDB94601
:101B50000024474628064946304602D4FFF7A5FD33
:101B600001E0FFF7A4FD6806050E022003F0D0F89F
:101B700039463046FFF79BFD022003F0C9F839468D
:101B80003046FFF792FD022003F0C2F8641CE4B275
:101B9000082CDFD3BDE8FC87000402407CB501219E
:101BA000022001F03FFC01208DF804000220114DBD
:101BB0004FF480448DF80500009469462846FFF7ED
:101BC0001FFD21462846FFF772FD66103146284664
:101BD000FFF76DFD042003F09BF821462846FFF730
:101BE00064FD042003F094F831462846FFF75DFDBC
:101BF0007CBD0000000402407CB50121022001F000
:101C000011FC01208DF804000220114D4FF4804496
:101C10008DF80500009469462846FFF7F1FC661030
:101C200031462846FFF741FD21462846FFF73DFD96
:101C3000042003F06DF831462846FFF738FD2146B1
:101C40002846FFF734FD042003F062F87CBD000055
:101C5000000402407CB500240121022001F0E2FBD7
:101C600000208DF80400164E4FF480458DF80700D3
:101C7000009569463046FFF7C3FC29463046FFF71A
:101C800016FD012003F044F86D1029463046FFF799
:101C90000EFD012003F03CF80A4807E0641CE4B2A2
:101CA000FA2C03D9FFF7A8FF01207CBDD0F838112A
:101CB0000029F3D129463046FFF7F7FC00207CBD10
:101CC00000040240008040422DE9F0479CB0012111
:101CD0005E4801F0A7FB01214FF4E06001F0C6FB74
:101CE0004FF0806000905A4801900125594802A9A0
:101CF000002431C106A8EE026F034FF480784FF440
:101D000000390594A0E8D003CDE90B45DFF848A1E0
:101D10000D94694650460E94FFF746FC012150464B
:101D2000FFF737FC4D4802A9CDE900404948DFF8EC
:101D300028A1801C31C106A80594A0E8D003CDE9F4
:101D40000B45AAF1180A0D94694650460E94FFF708
:101D50002BFC01215046FFF71CFC68060090404810
:101D600001903C4802A9001D31C106A80594A0E8D5
:101D7000D003394ECDE90B4518360D9469463046EF
:101D80000E94FFF711FC01213046FFF702FC3F20C3
:101D9000032615908DF858608DF85B4015A93148E1
:101DA000FFF72EFC922015908DF858608DF85B405F
:101DB00015A92D48FFF724FC17941894199417A817
:101DC0001A94FFF77DFA0F948DF840401194139404
:101DD0001F4C8DF841504C3C8DF850500FA92046B7
:101DE000FFF79AFA1E4D0FA94C3D2846FFF794FACB
:101DF0001A4E0FA94C3E3046FFF78EFA01212046BD
:101E0000FFF780FA01212846FFF77CFA01213046CE
:101E1000FFF778FA01212046FFF76AFA01212846E8
:101E2000FFF766FA01213046FFF762FA01212046EA
:101E3000FFF73CFA01212846FFF738FA0121304626
:101E4000FFF734FA1CB0BDE8F08700000500400041
:101E50004C22014004000020286402404C20014034
:101E60004C21014000080240000002401CB5012145
:101E7000084601F0D7FA4FF4C050009000208DF8CA
:101E8000040069460148FFF7BBFB1CBD000002408F
:101E9000FEE770474FF4A06000F032B870B50F2134
:101EA000C478027801234FF0E026E4B1124C246894
:101EB00004F4E064C4F5E064C4F30724C4F1040549
:101EC000E1404478AC4085780D4025430B4C290116
:101ED0001155007800F01F018B40400906EB80008F
:101EE000C0F8003170BD02F01F008340500906EBBE
:101EF0008000C0F8803170BD0CED00E000E400E02F
:101F00000249084302490860704700000000FA05D2
:101F10000CED00E07047000070B505000E46144659
:101F200005D036B10E48807828B112200DE004208B
:101F30000BE00C2009E02878012808D0022806D000
:101F4000032804D0042802D00120107070BDFEF7D1
:101F50008BF96E61FEF78CF90020207070BD0000D7
:101F60004400002030B587B000F070F82A48002403
:101F700004638470C4700472C471C460C4618461F9
:101F8000446144708471214600F134025454491C68
:101F9000C9B20829FAD3047144718462046201F061
:101FA00099F801F06BF801F043F801F0D5F801F071
:101FB000F9F802AA0325202031C218494FF6FF7014
:101FC000CDE9000101F17C023F230021144800F01B
:101FD0009FFA05AA13A13F2000F0F8FA02AA4020B8
:101FE00031C214494FF6FE70CDE9000101F1FC0247
:101FF0003E230021104800F08BFA05AA0FA13E20D5
:1020000000F0E4FA00F0E0FC00F026F807B0BDE8CC
:102010003040FFF77FBF00004400002030B10020B7
:102020006133000875432F4F532D49492049646C93
:102030006500000030B000207D33000875432F4F4D
:10204000532D494920537461740000000149002058
:102050000880704740000020704700000449C8799C
:10206000012804D18878FF2801D2401C887070476D
:102070004400002070B5144DE879012822D1FEF704
:10208000F3F80446A87820B1401E10F0FF00A870B5
:1020900013D1E87888B901F0C9F80C48697950F88B
:1020A0002100A8622A79914207D0C16B491CC16303
:1020B000E868401CE860FEF7F3F82046BDE8704091
:1020C000FEF7D6B870BD000044000020B0B100207B
:1020D00070B505460E48007808B1002070BDFEF7C7
:1020E000C3F801460B4804680CB1626802600846F8
:1020F000FEF7BEF84CB1012020700020208106A020
:1021000065606061204600F089FF204670BD0000D8
:1021100046000020540000203F0000002DE9F04759
:1021200005008846144604D02878012803D00120F1
:102130000AE0042008E02C48007808B1022003E0FF
:102140002A48007820B10D2010700020BDE8F087EB
:10215000FEF78AF86E68074600213EB18846384689
:102160006960FEF785F884F800803AE0DFF880A027
:102170008946DAF8000010F8342F42F002020270AB
:10218000417040F8048C284600F01AFF3846FEF7EC
:102190006FF801F027F8FEF767F80746DAF8000055
:1021A00090F8351031B1022908D0294600F0D8FE48
:1021B0000A2004E0466A84F8009001E00E202070B6
:1021C000DAF80010384601F11C0181F8189081F806
:1021D0001990C1F80090C1F80490C1F80890FEF77A
:1021E00047F83046B2E700004600002047000020D4
:1021F0006400002070B504000D4605D035B120788C
:10220000012805D0012070BD042070BD032070BDE1
:10221000FEF72AF80646A07A58B100230222294682
:10222000204600F061FE3046FEF722F800F0DAFFAB
:102230000AE0606820B13046FEF71AF8142070BD3D
:1022400030466560FEF714F8002070BD10B5094CEB
:10225000E07901280CD1FEF707F8A17821B9E178DF
:10226000FF2901D2491CE170BDE81040FEF700B81B
:1022700010BD00004400002010B50D4CE07901288D
:1022800014D1FDF7F1FFE17831B1491E11F0FF01E2
:10229000E17001D1A17819B1BDE81040FDF7E8BFA8
:1022A000FDF7E6FFBDE8104000F09CBF10BD000048
:1022B0004400002070B505460E48007808B10020A3
:1022C00070BDFDF7D1FF01460B4804680CB1626890
:1022D00002600846FDF7CCFF4CB103202070258139
:1022E0000020606005A06061204600F097FE204657
:1022F00070BD000046000020540000203F00000098
:102300002DE9F04705008846144604D028780328B4
:1023100003D001200AE0042008E02648007808B134
:10232000022003E02448007818B10D201070BDE8A9
:10233000F087FDF799FF06462889002730B1401E37
:1023400028813046FDF794FF2770F0E7DFF86C90A6
:10235000D9F8000010F8341F41F0010101704770F6
:1023600040F8048C284600F02BFE3046FDF780FF35
:1023700000F038FFFDF778FF0646D9F8000090F826
:10238000351031B1022906D0294600F0E9FD0A20B6
:1023900002E0277001E00E202070D9F8000000F163
:1023A0001C0007764776076047603046BDE8F04777
:1023B000FDF75EBF460000204700002064000020BB
:1023C00070B5040004D02078032803D0012070BD2C
:1023D000042070BDFDF748FF0546A07A58B10023E0
:1023E00001221946204600F07FFD2846FDF740FFF8
:1023F00000F0F8FE09E020894FF6FF71884206D20E
:10240000401C20812846FDF733FF002070BD284680
:10241000FDF72EFF332070BD10B5094CE079002880
:102420000CD100F003FF60790649207151F82000BB
:10243000A0622062BDE81040FDF71DBF10BD000086
:1024400044000020B0B1002010B5022000F016FAC0
:10245000FDF70AFF084C0021E161FDF709FF642048
:1024600000F00CFAFDF700FFE16961610121617084
:10247000BDE81040FDF7FCBE44000020FEF7D3BFCE
:102480002DE9FE4305460F4690461C463F2B02D9D8
:102490002A20BDE8FE83FDF7E7FE1A49097819B145
:1024A000FDF7E6FE3C20F4E7174E56F8241019B16C
:1024B000FDF7DEFE2820ECE7012146F82410FDF7A9
:1024C000D7FE002342463946284600F04BF9002744
:1024D0000146009701973B463A462046029700F096
:1024E000B5FE050007D0FDF7BFFE46F82470FDF7E6
:1024F000BFFE2846CDE7054800780128F9D100F055
:1025000071FEF6E746000020B0B100204B0000202D
:102510002DE9F04F81462DED028B83B08A46DDE92F
:102520000F879DED118A129D93461C463F2B05D9BE
:102530002A2003B0BDEC028BBDE8F08FFDF794FEBE
:102540001D49097819B1FDF793FE3C20F1E71B4EB8
:1025500056F8241019B1FDF78BFE2820E9E7012178
:1025600046F82410FDF784FE2A463946404600F01E
:102570004DFF2B465A465146484600F0F3F8009767
:102580008DED018A01460295424620460E9B00F0E1
:102590005DFE050008D0FDF767FE002146F8241017
:1025A000FDF766FE2846C4E7054800780128F9D102
:1025B00000F018FEF6E7000046000020B0B1002051
:1025C0004B000020FEF786BFFEF786BF70B50546BC
:1025D0000E4614463F2803D9FF2D01D02A2004E0DF
:1025E0002EB11248007820B11220107070BD0C205E
:1025F000FBE7FDF739FE0146FF2D03D10C480068CB
:1026000090F836500B4850F82500432540B101287A
:1026100006D006650846FDF72BFE0020207070BD31
:102620000846FDF725FE257070BD0000460000201D
:1026300064000020B0B1002010B504463F2801D34B
:102640002A2010BDFDF710FE01461F4850F8240057
:1026500058B101280ED090F8342013072FD512F06E
:10266000F70280F834200AD00BE00846FDF700FEA0
:10267000462010BD0846FDF7FBFD432010BD026B50
:1026800022B10846FDF7F4FD002010BD0F4A00F10D
:1026900038008378147843EA0403137003780C4AF3
:1026A0004078D45C44EA0004D4540846FDF7E0FDC9
:1026B000084800780128E7D100F094FDE4E70846D7
:1026C000FDF7D6FD442010BDB0B100204A00002027
:1026D000780000204B000020FEF722BF2DE9F041DA
:1026E00004460D463F2804D9FF2C02D02A20BDE81D
:1026F000F08145B1002028606860FDF7B5FD014616
:10270000FF2C02D005E00920F1E71448006890F89A
:102710003640134850F8240058B1012809D0028AE5
:10272000D2070BD0D0E9024700260846FDF7A0FDEE
:102730000AE00846FDF79CFD4320D8E70846FDF770
:1027400097FD4520D3E7761C01CC0028FBD0B000D4
:102750002860B81B800068600020C8E76400002083
:10276000B0B100204FF080731360131F18606FF03A
:10277000010042F8080CA2F138004FF012334FF07C
:102780000332C0E90A234FF0023242624FF00132B5
:10279000C0E907124FF0113181614FF010314161F2
:1027A0004FF0093101614FF00831C1604FF007313E
:1027B00081604FF0063141604FF0053140F8041957
:1027C0004FF004310160704770B5274D04463F2833
:1027D00004D005D3FF280CD02A2070BD472070BD3F
:1027E000FDF742FD0346286890F83600A04206D067
:1027F00007E0FDF739FD0346286890F836400125CB
:1028000000E00025194850F8240068B1012810D0D4
:1028100090F83820164C90F83960A15CF643F6B277
:102820003140A1540AD010E01846FDF721FD4820A0
:1028300070BD1846FDF71CFD432070BD0D4A90F891
:102840003A10147824EA0101117010F8341F41F095
:10285000080101701846FDF70BFD012D01D100F0B4
:10286000C1FC002070BD000064000020B0B1002059
:10287000780000204A000020FEF753BE70B50446E1
:1028800014480078002824D113480078002820D16B
:10289000002C1ED0FDF7E8FC03461048104D0068E0
:1028A00090F8381090F839606A5CF643F6B232401E
:1028B0006A5406D10B4A90F83A10157825EA0101BE
:1028C000117004631846FDF7D3FCBDE8704000F0BA
:1028D00089BC70BD46000020470000206400002035
:1028E000780000204A0000202DE9F04100F052F865
:1028F000FDF7BAFC264D296B491C2963FDF7B8FC8E
:10290000E879012841D1687A0126002720B1012801
:102910003BD0022802D06F72EC6A32E06E72FBE7A5
:10292000FDF7A2FC216B49B3491E216326D194F81F
:10293000341011F0370F06D001F0C80184F83410BC
:1029400084F8356001E084F8357094F83410090794
:1029500014D404F13804AA79A178DFF834C041EA2C
:102960000201A97121780CF1340C63781CF8012064
:10297000A4F1380442EA03020CF801206469FDF76F
:1029800077FC94F836003F28CAD1BDE8F0810000FA
:102990004400002010B5FEF7E9FD07480188491CF6
:1029A00089B20180642905D300210180BDE810406F
:1029B00000F004B810BD000040000020014800688D
:1029C000FFF7FEBC9800002070B588B04FF420716E
:1029D0002E4800F0B7FB40212D4800F0B3FB00204B
:1029E0002A4904466422431C00EB80001D4601EB8B
:1029F000C0009BB203EB8303027001EBC30380F8BA
:102A00002540C36023A30362A8B20F28EBD300EBD9
:102A1000800001EBC000027080F825401DA2C46058
:102A200002621D481E4A04601C4804801020108069
:102A30001C4801600120FFF73DFC1B4D2860002071
:102A4000FFF738FC194E05AA19A130602868FFF776
:102A500063FA05AA1BA13068FFF75EFA40210291D4
:102A60000320CDE903401C4A4FF6FD70CDE900027A
:102A70003D23FC3200211948FFF74AFD06AA18A1A0
:102A80003D20FFF7A3FD08B070BD000068BB00202B
:102A9000E8BE00203F000000900000208E000020D3
:102AA0008C0000209C000020940000209800002052
:102AB00075432F4F532D494920546D724C6F636BF2
:102AC0000000000075432F4F532D494920546D726B
:102AD0005369676E616C0000E8BD0020392B000867
:102AE00075432F4F532D494920546D72000000004B
:102AF000032280F825200E4A0129126813D081692B
:102B000089B1114441610B4A01F0070102EBC10197
:102B100000230A68086042B1C26010618A88521CB2
:102B20008A8003617047C169EBE70122C360F7E760
:102B300090000020E8BE002008B5DFF86880DFF8CC
:102B400068901A4E6A460021D8F80000FFF7D8FBBB
:102B5000FFF77CFB3068401C306000F00700022764
:102B600059F8304013E061693068E56881420DD161
:102B7000204600F01DF894F8240002280CD084F8B8
:102B80002570626812B12046A16890472C46002C3F
:102B9000E9D1FFF771FBD5E701212046FFF7A8FF38
:102BA000EFE7000098000020E8BE00209000002021
:102BB00010B541690E4A01F0070102EBC102002382
:102BC0001468C168844203D1116041B10B6106E011
:102BD000D0F810C0CCF80C1009B1C1F810C0012118
:102BE00080F82510C36003619088401E908010BD5E
:102BF000E8BE002070B5244C0025E169491CE16164
:102C0000214622788978062A0144C9B23AD2DFE8FF
:102C100002F0030A0E1D2D31ED2803D10120207092
:102C2000E570257170BD8C282CD102200CE020B1FC
:102C30000021802802D9012201E001210022114354
:102C400020D1A07060700320207070BDE278802ACF
:102C500003D20E4B9854521CE270A1706078401E53
:102C600010F0FF006070F0D10420EDE7A17049B9C9
:102C70000520E9E78D2805D16089401C6081A06AA4
:102C8000FFF79EFB257070BDA000002028BF00202C
:102C900070B5FDF73FFB144A1178491C1170FDF720
:102CA0003DFB124C40F225552946204600F009FF15
:102CB00048B1204600F098FFC0B2FFF79BFF2946BD
:102CC000204600F0E7FE40F227752946204600F036
:102CD000F8FE28B100F048F82946204600F0DAFE58
:102CE000BDE87040FFF7C6B946000020004800402C
:102CF00010B5044600F018F860640020206410BD90
:102D000010B500F011F805490968D1E91023C31A7C
:102D10001A440A6402490968486410BD640000202E
:102D20006C000020AFF3008070B5FDF79DFA0546FA
:102D300000F010F806490A890881821A886992B25F
:102D4000841828468C61FDF793FA204670BD000078
:102D5000A00000204FF0804000F003BE0146014873
:102D600000F046BF004800402DE9F0414A4F0426DC
:102D70003846BB798189828A0025C089092B73D2A4
:102D8000DFE803F00518252F737B44505C001143E6
:102D90000BD08C20FFF7E2FF386A401C386201201C
:102DA000F871B871FD81BDE8F081FD71BDE8F041B9
:102DB00000F076B8ED20FFF7D1FF386A401C38628A
:102DC000B88908B1022000E00620B871EBE7C8B26C
:102DD000FFF7C4FF386A401C38620320B871B88915
:102DE0002AE02E490C5C2046FFF7B8FF386A401CE9
:102DF0003862787920447871F889401C80B2F88173
:102E0000B9898842CFD3BE71BD81CCE7521CD0B204
:102E1000FFF7A4FF386A401C38620720B871B88AEF
:102E2000401C09E04320FFF799FF386A401C3862D4
:102E30000820B871787943307871B4E71749803148
:102E40000C5C2046FFF78AFF386A401C38627879AC
:102E500020447871F889401C80B2F881B98A884290
:102E6000A1D3BE71BD829EE713E07879FFF776FFAC
:102E7000386A401C38620520A7E78D20FFF76EFFF7
:102E8000386A401C3862BD713D82788A401C788265
:102E900089E7BD7189E70000A0000020A8BF0020DD
:102EA000002240F22771014800F02ABE004800408D
:102EB0000B484FF47A710068B0FBF1F0B0F1807FFD
:102EC0000DD220F07F414FF0E020491E4161054ABC
:102ED000F021117000218161072101617047FEE737
:102EE0001C00002023ED00E0F0B50546807A194C67
:102EF0004FF00007205C05EB0006F67AA45D04EBBA
:102F0000C004E6B2144C54F8264004F12404E760EF
:102F10002160217C21EA020121746374A4F124045C
:102F200009070BD40D4994F83A208B791A438A711A
:102F3000343194F839300A5C1A430A542946204641
:102F400000F00EF8216A19B1204600F01BF8E56187
:102F50003046F0BD865F0008B0B10020440000207C
:102F600010B590F8382090F839408B18E443DA7A9D
:102F7000E4B22240DA7204D18A7A90F83A008243AD
:102F80008A7210BD30B510F8383F827890F801C0D1
:102F9000D2436FEA0C04E4B2D5B208680DE000BF7A
:102FA00000EB030C9CF80B2022408CF80B2002D184
:102FB000827A2A40827251F8040F0028F0D130BD85
:102FC00030B5154900F10B020B6AD86193F838C08F
:102FD00093F839301CF802401C430CF802400A6A8E
:102FE000837A02F13802947843EA040383721378F7
:102FF00001F134045578E05C6FEA0505EDB2284034
:10300000A2F13802E05405D192F83A008A7922EA16
:103010000000887130BD0000440000200022827250
:1030200011464318491CC9B2DA720829F9D370470E
:1030300010B550210E4800F085F800200C4A0146DA
:10304000431C1C4602EB00109BB202EB0313017001
:10305000436008A3C360A0B20428F1D302EB0010C0
:103060000170416003A1C1600348026010BD00000F
:1030700040BA00203F0000008000002010B54FF44F
:10308000F071114800F05EF800200F4A0146431C21
:103090001C4600EB40009BB202EBC00003EB430375
:1030A00002EBC3030170436008A34361A0B213287D
:1030B000EDD300EB400002EBC0000170416003A1C2
:1030C00041610348026110BD50AE00203F00000086
:1030D0004400002010B54FF4F261164800F032F8B9
:1030E0004FF48071144800F02DF812490020421C62
:1030F00000EB400404EBC000D3B203EB430401EB4C
:10310000C00004EBC30301EBC30343610BA30365DE
:10311000D0B21528EBD300EB400202EBC00001EB6C
:10312000C00006A30022036542610548C2624162F5
:1031300010BD0000B0B20020B0B100203F00000080
:1031400044000020002203E0491E00F8012B89B250
:103150000029F9D17047000010B578210E48FFF71B
:10316000F1FF0D4A002000BF00EB400102EBC1015E
:1031700001F118034B60401C08A380B24B61042886
:10318000F2D300EB400002EBC0000021416003A13C
:1031900041610348026010BD90BA00203F0000006A
:1031A0008400002010B560210C48FFF7CBFF0B4ACC
:1031B0000020411C8BB200EB400003EB430302EB09
:1031C000C30342F8303088B20328F2D300EB40004A
:1031D000002142F830100248026010BD08BB0020F8
:1031E0008800002070B5FDF73FF80E4D0446A87822
:1031F00098B9E87888B900F019F80B48697950F85F
:103200002100A8622A79914207D0C16B491CC16391
:10321000E868401CE860FDF73EF82046BDE87040D5
:10322000FDF726B844000020B0B100200649054A49
:1032300001F134038879105C1B5CD25C02EBC000A6
:1032400048717047865F0008440000202DE9F04770
:1032500005462DED028B0E4690469946DDED0A8A15
:103260009DED0B8ADDF830A0FCF7FEFF394F7C6A3C
:10327000002C6BD061697962FCF7FAFF266084F854
:103280003650002684F8346084F83560266384ED77
:10329000018AC4ED038A04F11C044FEAD50244F804
:1032A000148C24F80CAC24F80A9CE677227705F0FD
:1032B00007014FF0010000FA02F2E176A27700FA6E
:1032C00001F0607726606660E660A6602662A6620E
:1032D000666221A0E662C4E90C60A4F11C043046D9
:1032E00004EB800100F101004E6510F0FF00F7D003
:1032F0002046FFF7C3F82046FFF764F9FCF7B4FF58
:103300000146164840F82540F86AC4E9050600B1B0
:103310008461FC6204F13804BA79A07840EA0200C2
:10332000B8710C48227800F134006478835C43EA79
:1033300004038354387A00F1010038720846FCF720
:1033400097FF0020BDEC028BBDE8F087FCF790FFF3
:103350004220F7E7440000203F000000B0B1002009
:10336000054C00BFFCF780FFE169491CE161FCF7F7
:103370007FFFFFF729F9F5E744000020144C02E035
:10338000C820FFF77BFA60780028F9D064216069D3
:103390000025B0FBF1F0606118B92570FF20FFF740
:1033A00013FAFCF761FFE169C4E90615FCF760FF59
:1033B000D4E90510B0FBF1F0C0F164002070FFF714
:1033C0008BF900F007F86420FFF758FAE9E70000EE
:1033D000440000207CB50C4D002469462046FFF7D0
:1033E0007DF958B955F8240040B1012806D0D0E93C
:1033F000021201EB820181640199C164641CE4B290
:103400003F2CEAD97CBD0000B0B10020D30707D023
:10341000920705D50022002902D004C0491EFAE710
:1034200070470000044A0029116801D0014300E000
:10343000814311607047000030380240044A00297F
:10344000116801D0014300E0814311607047000022
:1034500040380240044A0029116801D0014300E0CD
:10346000814311607047000020380240044A00295F
:10347000116801D0014300E08143116070470000F2
:103480004438024030B5224B1968224A11F00C0131
:1034900004D05510042903D0082903D002601DE090
:1034A00005601BE01A49091F0C68C4F3805C0C68B6
:1034B000BCF1000F04F03F0402D0B5FBF4F201E0D0
:1034C000B2FBF4F20C680968C4F388146243C1F3D8
:1034D0000141491C4900B2FBF1F1016019680E4A33
:1034E00001F0F0010909545C0168E14041601C6889
:1034F00004F4E054A40A145D21FA04F484601B6807
:1035000003F460435B0BD25CD140C16030BD00006E
:10351000083802400024F400300000202DE9F04F6C
:10352000804687B001210320FFF77CFF4FF4003A6B
:1035300001215046FFF782FF01268DF80460002428
:10354000DFF8D8B04FF400478DF806400225009709
:103550008DF8055069465846FEF752F8DFF8C090DE
:10356000072202214846FEF789F807220321484630
:10357000FEF784F88DF8045004208DF80640009082
:103580008DF805508DF8076069464846FEF738F813
:10359000082000908DF804508DF807406946484691
:1035A000FEF72EF801215046FFF754FF0021504648
:1035B000FFF750FFADF810400C201A4DADF80C404D
:1035C000ADF81200CDF80880ADF80E40ADF814400B
:1035D00002A9284600F0ACFA4FF4A060FEF790FC78
:1035E00026208DF818008DF819408DF81A408DF8B6
:1035F0001B6006A8FEF752FC012240F22551284626
:1036000000F07EFA0121284600F04AFA3946584671
:10361000FEF74BF807B0BDE8F08F00000004024051
:1036200000000240004400402DE9F047DFF85090D0
:1036300006460D464FF4004841464846FEF737F827
:103640000024104F0BE04021384600F033FA0028E8
:10365000F9D0315D384600F0CBFA641CE4B2AC42DC
:10366000F1D34021384600F025FA0028F9D0064968
:103670000020087041464846BDE8F047FEF715B8FF
:103680000004024000440040000000207047000099
:103690002DE9F04105460E460024114F1BE0280697
:1036A0004FF04001384602D4FDF7FFFF01E0FDF77F
:1036B000FEFF80213846FDF7F8FF012001F028FBCE
:1036C00080213846FDF7F3FF012001F021FB680659
:1036D000050E641CE4B2B442E1D3BDE8F081000001
:1036E0000004024070B50A4D044620212846FDF72B
:1036F000DCFF03218020FFF7CBFF09212046FFF7E5
:10370000C7FF2846BDE870402021FDF7D0BF00006C
:10371000000402402DE9F04105460E460024104FFA
:1037200017E0E8074FF04001384616D0FDF7BFFF1D
:1037300080213846FDF7B9FF012001F0E9FA802128
:103740003846FDF7B4FF012001F0E2FA6D08641C71
:10375000E4B2B442E5D3BDE8F081FDF7A6FFE7E7A8
:1037600000040240224900200A6842F480320A60C4
:103770004FF4A0630A6800F1010012F4003F01D188
:103780009842F7D10868800331D519484030026863
:1037900042F0805202601748026842F480420260A0
:1037A0001348083002680260026842F40042026076
:1037B000026842F4A0520260031F0F4A1A600A68AE
:1037C00042F080720A600A689201FCD50B4A40F20E
:1037D00005611160016821F003010160016841F099
:1037E000020101600168C1F381010229FAD1704729
:1037F000003802400070004008544007003C02407E
:103800004FF0E0210428086903D020F0040008618B
:10381000704740F00400FAE710B5FCF725FD064AB2
:103820001178491C1170FCF723FDFFF75DF8BDE826
:103830001040FEF71FBC000046000020124810B5E3
:10384000016841F4700101601048016841F0010114
:1038500001600E4A00210832116002680C4B1A40C8
:103860000260031D0B4A1A60026822F48022026083
:1038700006480C300160FFF775FF03494FF0006008
:103880008039086010BD000088ED00E0003802407B
:10389000FFFFF6FE1030002410B5FEF7DFFB104CE2
:1038A0000121204600F05FF8B0B10121204600F070
:1038B0004BF80C48C17979B90B4C618939B940781A
:1038C00001F046FEA078401CA070608920B160899C
:1038D000401E60810120A070BDE81040FEF7CABB09
:1038E0000008004044AE0020000000207FB50446E0
:1038F0000D4601210420FFF7A1FD0194ADF8005011
:103900000024104DADF80840ADF802406946284645
:1039100000F03CF801221146284600F02FF81E2046
:103920008DF80C008DF80D4003208DF80E0001205D
:103930008DF80F0003A8FEF7B1FA0121284600F028
:1039400006F87FBD00080040C94301827047002986
:10395000018802D041F0010101E021F00101018064
:103960007047406A7047038A002280890B4200EA50
:10397000010001D000B1012210467047002A82895F
:1039800001D00A4300E08A438281704730B5028843
:10399000174B184C98420DD0A0420BD0B0F1804F7D
:1039A00008D0154DA84205D0144DA84202D0144DA0
:1039B000A84204D122F0700C4A8842EA0C02114D50
:1039C000A84207D0104DA84204D022F4407C0A89B6
:1039D00042EA0C0202804A68C2620A880285984262
:1039E00001D0A04201D1897A01860121818230BDB6
:1039F00000000140000401400004004000080040B5
:103A0000000C0040001000400014004010B590B0C1
:103A1000FCF780FC1B4A1178491C1170FCF77EFCF6
:103A2000194C40F22551204600F04BF820B32046B7
:103A300000F0DAF8154A6B4611780DF80100491CC0
:103A4000C8B21070684410F8010C262803D18DF814
:103A50000000012010701078184410F8010C2A287A
:103A60000AD1002010709DF801001946232807D0C4
:103A7000D2F80C00FEF7BEFBFEF7FCFA10B010BD4A
:103A80001069F7E7460000200044004000000020D5
:103A9000FFF7FEB80A0A01219140C943018070472F
:103AA0000029818902D041F4005101E021F4005144
:103AB000818170470246002012880A4200D001200E
:103AC000704770B501F01F0601220025C1F34213B3
:103AD00002FA06F4012B0FD0022B0FD0838A4FEA93
:103AE00011210088234202FA01F200EA020001D00B
:103AF00000B10125284670BD8389F0E7038AEEE70F
:103B0000C1F3421301F01F0C012101FA0CF1012B4A
:103B100007D0022B07D01430002A026805D00A43D0
:103B200004E00C30F8E71030F6E78A430260704793
:103B30007FB50446008A0D4620F44051E8880843CA
:103B40002082A08941F20C618843A9882A89114307
:103B50006A8902431143A181A08A20F44071A88997
:103B60000843A0826846FFF78DFC1D48844202D0BE
:103B70001C48844201D1039800E00298A1890904FD
:103B8000002900EBC00101EB0010296802DA4FEABE
:103B9000410101E04FEA8101B0FBF1F06422B0FB8A
:103BA000F2F14FEA01114FEA11136FF018056B4360
:103BB00000EB8300A3891D044FF0320306D503EB0D
:103BC000C000B0FBF2F000F0070005E003EB0010CE
:103BD000B0FBF2F000F00F00084320817FBD000031
:103BE00000100140001401408088C0F308007047B5
:103BF000C1F3080181807047FEE700002DE9F04124
:103C0000104F04460D46164620213846FDF74DFD5F
:103C10000321A020FFF73CFDA006000E0621FFF7C0
:103C200037FD002406E028780421FFF773FD641CAB
:103C3000E4B26D1CB442F6D33846BDE8F041202111
:103C4000FDF735BD0004024070B50D4E04460D462B
:103C500020213046FDF729FD0321A020FFF718FDA4
:103C6000A006000E0621FFF713FD04212846FFF7EA
:103C700051FD3046BDE870402021FDF718BD000021
:103C80000004024003B401984100009850EAC120AA
:103C900018BF04204A0D18BF40F0010040F2FF7227
:103CA000B2EB515F08BF40F00200012808BF0520B9
:103CB00002B070470000000070B59F482DED020B68
:103CC0002DED068B079D25F0004484421DDB9B48AB
:103CD000844202DC0FD1069868B19DED060B53ECCF
:103CE000102B51EC100B01F087FCBDEC068B02B0E1
:103CF00041EC100B70BD002DCCBF9FED910B9FEDE3
:103D0000920BBDEC068B02B070BD9148844215DA6F
:103D100090488442A8BF4FF0FF3440DA9DED060B77
:103D200051EC100BFFF7AEFF042808BF00F0A8FA13
:103D30009DED060BBDEC068B02B070BD9DED060B34
:103D400051EC100B01F000F841EC100B82488DEDA6
:103D5000060B9FED839B84423CDA834884421FDA42
:103D600000249FED83AB51EC100B53EC1A2B01F0A8
:103D700043FC9DED060B41EC180B53EC1A2B51EC58
:103D8000100B01F091FE53EC192B01F097FF53EC4F
:103D9000182B01F0D9FC41EC100B8DED060B49E01E
:103DA000012453EC192B51EC100B01F025FC9DED77
:103DB000060B41EC180B53EC192B51EC100B01F0D6
:103DC0007DFF53EC182B01F0BFFC41EC100B8DED87
:103DD000060B2FE0684884421FDA02249FED68AB8F
:103DE00051EC100B53EC1A2B01F05EFE53EC192B27
:103DF00001F002FC9DED060B41EC180B53EC1A2B65
:103E000051EC100B01F05AFF53EC182B01F09CFC05
:103E100041EC100B8DED060B0CE053EC102B032442
:103E20009FED590B51EC100B01F08EFC41EC100B87
:103E30008DED060B9DED060B53EC102B51EC100B8A
:103E400001F032FE41EC180B53EC182B01F02CFE64
:103E500041EC190B4E480621B0EE490AF0EE690A12
:103E6000784400F091F953EC182B51EC100B01F051
:103E70001BFE41EC180B4748B0EE490AF0EE690A08
:103E80000521784400F080F953EC192B51EC100B0C
:103E900001F00AFE41EC100B51EC180B53EC102B07
:103EA000002C0EDA01F0A8FB9DED061B53EC112B44
:103EB00001F0FAFD9DED061B53EC112B01F0F2FE13
:103EC00035E001F099FB9DED061B53EC112B01F041
:103ED000EBFD41EC100B3048784400EBC40090ED52
:103EE000001B51EC100B53EC112B01F0E7FE9DED84
:103EF000061B53EC112B01F0E1FE41EC100B27489F
:103F0000784400EBC40090ED001B51EC100B53EC17
:103F1000112B01F0C7FE41EC100B002DA2BFBDEC30
:103F2000068B02B070BD51EC100B01F027FB41EC89
:103F3000100BFFE600000000000010440000F07FBE
:103F4000182D4454FB21F93F182D4454FB21F9BF8F
:103F50000000DC3F0000203E0000F33F00000000B6
:103F6000000000000000F03F0000E63F00000000FD
:103F7000000000000000004000800340000000003E
:103F8000000000000000F83F000000000000F0BF4B
:103F90009C88000052880000DC87000094870000A5
:103FA00070B5694E2DED040B2DED028B82B0DDE96D
:103FB000053C079ACCF1000422F000414CEA0404CD
:103FC00041EAD474049D23F00040B44205D86C4209
:103FD0002C4340EAD474B44210D99DED060B53EC47
:103FE000102B9DED040B51EC100B01F005FB41EC87
:103FF000100B02B0BDEC028B04B070BDA2F14054B6
:10400000A4F17F6454EA0C040BD0022404EAA274E5
:1040100044EAD37405439FED4E8B9FED4F2B07D0A1
:1040200010E09DED040B51EC100B00F0B7F93BE0F4
:10403000002C14BF012C9DED040BDAD0022C36D0DD
:10404000032C39D051EA0C0C9FED451B9FED460B1C
:104050000AD0B14219D1B04209D121F0804120F0FB
:1040600080400791059010E0002BC2DA11E0DFF8E4
:1040700000C1FC44002C08BF9CED000BB9D0012C02
:104080000CD0022C13D0032C16D0B04219D1002B27
:10409000AFDAB0EE410AF0EE610AAAE79CED000B40
:1040A00051EC100B01F06AFA41EC100BA1E7B0EEF5
:1040B000480AF0EE680A9CE7B0EE420AF0EE620AA7
:1040C00097E7401A00153C2816DC002ABCBF10F107
:1040D0003C0F9FED290B0FDB9DED060B53EC102BD6
:1040E0009DED040B51EC100B01F02EFB00F02CFEAB
:1040F00000F054F941EC100B002C8DED000B3FF457
:1041000078AF012C10D0022C9FED1D0B53EC102B1F
:104110009DED000B51EC100B0ED001F0CFFD53ECD8
:10412000182B01F0CBFDBFE710EE900A80F00040A5
:1041300001909DED000B5CE701F0C0FD53EC182BE6
:1041400001F0B0FDB0E700000000F07F00000000CB
:10415000182D4454FB210940182D4454FB2109C05B
:10416000182D4454FB21F9BF182D4454FB21F93F6D
:10417000BA860000000000000000000000000000FF
:10418000075C143326A6A13C70B505462DED028BC5
:104190004C1E00EBC400B0EE408AF0EE608A90ED59
:1041A000000B34F0060017D053EC182B51EC100B19
:1041B00001F07AFC41EC100B641E05EBC40090ED9D
:1041C000001B51EC100B53EC112B01F015FA41ECD4
:1041D000100B34F00600E7D1022C36D0042C1CD092
:1041E000062C1CBFBDEC028B70BD53EC182B51ECA0
:1041F000100B01F059FC95ED0A1B53EC112B01F04B
:10420000FBF953EC182B01F04FFC95ED081B53EC18
:10421000112B01F0F1F941EC100B53EC182B51EC80
:10422000100B01F041FC95ED061B53EC112B01F036
:10423000E3F953EC182B01F037FC95ED041B53EC1C
:10424000112B01F0D9F941EC100B53EC182B51EC68
:10425000100B01F029FC95ED021B53EC112B01F022
:10426000CBF953EC182B01F01FFC95ED001B53EC20
:10427000112B01F0C1F9BDEC028B41EC100B70BDAC
:104280009FED050B10B553EC102B51EC100B01F00A
:104290000BFC41EC100B10BD0000000000000010F2
:1042A000F0B500234FF480625C1E02EBD27504EB84
:1042B000650419E05E1C00EE106A00EB8307B8EE9F
:1042C000C00AD7ED000A20EE800A87ED000A00EE52
:1042D000106A01EB83075B1CB8EEC00AD7ED000A39
:1042E00020EE800A87ED000A9C42E3DA6B10561E2E
:1042F0001DE000BFA2EB030CACF1010C00EE10CAF4
:1043000000EB8307B8EEC00AD7ED000A20EE200AC2
:1043100087ED000A00EE10CA01EB83075B1CB8EEC4
:10432000C00AD7ED000A20EE200A87ED000AB3424A
:10433000E0DB00221BE000BF02EB650300EB83061D
:1043400000EB820796ED000AD7ED000A01EB83032C
:1043500030EE200A86ED000A01EB820693ED000A9A
:10436000D6ED000A521C30EE200A83ED000A94427A
:10437000E2DC00220FE000BF02EB650300EB8306E6
:1043800001EB830356F8046C40F8226053F8043CB8
:1043900041F82230521C9442EEDAF0BD10B541ECE7
:1043A000100BFFF789FC51EC100B10BDC9B261F383
:1043B0001F2070472DE9F05F00242DED0C8BADF52B
:1043C000924DDFEDFECA0DF580500146C0ED04CAE6
:1043D000C0ED05CA4FF40078A24601268C60FCF7B8
:1043E00035FFFCF767FEDFF8D8B39FEDF6AB9FED26
:1043F000F7BB0DF50159BBF80600BBF808705D4628
:10440000C01B01F026FB53EC1A2B01F04DFB53ECC3
:104410001B2B01F049FB01F0BDF849F82400A888E6
:10442000C01B01F016FB53EC1A2B01F03DFB53ECC3
:104430001B2B01F039FB01F0ADF80DF5825545F865
:104440002400242000F064FC641CB4F5806FD2DBEF
:104450005FF000000DF5015252F8203002F50052D5
:1044600042F820300DF5615255F8203042F82030E6
:10447000401CB0F5007FEDDB0DF501512846FFF73C
:104480000FFF44F65801694453464246A1F1180013
:104490000096FCF747F90DF5825102AA01F560502C
:1044A000FCF7CAF80DF5805001218160059801F0F4
:1044B000EFFC41EC180B049801F0EAFC41EC100B06
:1044C000B0EE481AF0EE681AFFF76AFD0DF561517B
:1044D000B0EE409AF0EE609A02AA01F58050FCF727
:1044E000ABF842460DF5415102A8FBF78DFF4FEAAC
:1044F000580741F20803B9466B4403F108024946E4
:104500000DF54150FCF748F90DF58050B0EE00CAAA
:1045100090ED040AAF4902AA20EE0C0ABCEEC00AD4
:1045200010EE100A08800DF5015101F52050FCF73E
:1045300083F80DF5805002A9806801EBC004606823
:1045400001F0A6FC41EC180B206801F0A1FC41EC45
:10455000100BB0EE481AF0EE681AFFF721FD44F296
:1045600040016944B0EE408AF0EE608A02AA01F58B
:104570000060FCF761F842460DF5415102A8FBF7D7
:1045800043FF41F208036B4403F10C0239460DF579
:104590004150FCF701F90DF58050F6EE00DA90ED90
:1045A000050A8D4853EC182B20EE2D0ABCEEC00AEC
:1045B00080ED000A51EC190B01F080FB00F0EAFFDE
:1045C00000EE100AFBF7B8FE9FED84DA844920EE76
:1045D0000D0ABCEEC00A10EE100A0870002025215A
:1045E000CDE9000103460246014600F0C1FAFCF79E
:1045F0003DFEFCF76FFD0DF58050C0ED04CA9FED48
:104600006F0A002480ED050A0DF5015B6C4DE8880A
:104610002F89C01B01F01DFA53EC1A2B01F044FA4C
:1046200053EC1B2B01F040FA00F0B4FF4BF82400D0
:10463000A888C01B01F00DFA53EC1A2B01F034FAD4
:1046400053EC1B2B01F030FA00F0A4FF0DF582555E
:1046500045F82400242000F05BFB641CB4F5806F57
:10466000D4DB00204FEA0B0544F240026A4455F8BF
:10467000203042F820300DF5825252F820300DF5EE
:10468000615242F82030401CB0F5007FECDB594607
:104690000DF58250FFF704FE44F658016944534675
:1046A0004246A1F118000096FCF73CF802AF0DF568
:1046B00082513A4601F56050FBF7BEFF0DF580517F
:1046C00001208860059801F0E3FB41EC180B049889
:1046D00001F0DEFB41EC100BB0EE481AF0EE681A68
:1046E000FFF75EFC0DF56151B0EE409AF0EE609A76
:1046F0003A4601F58050FBF79FFF0DF5415B4246BE
:1047000059463846FBF780FE07F5805303F108024F
:1047100049465846FCF740F80DF58050314990ED78
:10472000040A3A4620EE0C0ABCEEC00A10EE100A4B
:1047300008800DF5015101F52050FBF77DFF0DF5C7
:104740008050806807EBC004606801F0A1FB41EC79
:10475000180B206801F09CFB41EC100BB0EE481ADE
:10476000F0EE681AFFF71CFC0BF58051B0EE408AA2
:10477000F0EE608A3A4601F50060FBF75DFF4246C5
:1047800059463846FBF740FE07F5805303F10C020B
:1047900049465846FCF700F80DF5805053EC182BAD
:1047A00090ED050A104820EE2D0ABCEEC00A80EDFF
:1047B000000A51EC190B01F081FA17E0000000002B
:1047C000000000206666666666660A40000000001B
:1047D0000000303F02010020100100200000C8420C
:1047E000FE000020040100201401002000F0D2FE91
:1047F00000EE100AFBF7A0FD20EE0D0ACB49BCEE3F
:10480000C00A10EE100A087000204021CDE9000116
:1048100003460246014600F0ABF9FCF737FDFCF712
:1048200069FC0DF580501FED1B0AC0ED04CA80ED38
:10483000050A0024AB46BE4DE8882F89C01B01F055
:1048400008F953EC1A2B01F02FF953EC1B2B01F054
:104850002BF900F09FFE4BF82400A888C01B01F044
:10486000F8F853EC1A2B01F01FF953EC1B2B01F055
:104870001BF900F08FFE0DF5825545F82400242029
:1048800000F046FA641CB4F5806FD4DB59460DF590
:104890006154002004F5006B4FF4007751F820308C
:1048A0004BF8203055F8203044F82030401CB842F6
:1048B000F4DB0DF501512846FFF7F2FC44F65801F0
:1048C000694453464246A1F118000096FBF72AFFBF
:1048D00002AE44F64000324629466844FBF7ACFE7F
:1048E0000DF5805001258560059801F0D1FA41EC65
:1048F000180B049801F0CCFA41EC100BB0EE481AFA
:10490000F0EE681AFFF74CFB44F64000B0EE409A18
:10491000F0EE609A324621466844FBF78DFE0DF5B5
:104920004157424639463046FBF76EFD06F5805347
:1049300003F1080249463846FBF72EFF0DF580507B
:10494000DFF8F0A190ED040A0DF50151324620EE9A
:104950000C0ABCEEC00A10EE100AAAF8000001F51D
:104960002050FBF769FE0DF58050806806EBC0040F
:10497000606801F08DFA41EC180B206801F088FAAC
:1049800041EC100BB0EE481AF0EE681AFFF708FB86
:10499000B0EE408AF0EE608A3246594607F5C050C4
:1049A000FBF74AFE424639463046FBF72DFD06F539
:1049B000805303F10C0249463846FBF7EDFE0DF536
:1049C00080505D4F90ED050A53EC182B51EC190BFC
:1049D00020EE2D0ABCEEC00A87ED000A01F06EF948
:1049E00000F0D8FD00EE100AFBF7A6FC20EE0D0A41
:1049F000524E00242346BCEEC00A2246214610EE49
:104A0000100A30702120CDE90040204600F0B0F8B7
:104A10004B4801884B4800880144BAF8000008441C
:104A200001F02EF89FED481B53EC112B01F03CF8E0
:104A30009FED471B53EC112B00F086FE00F0DCFFCE
:104A40004549484A012308804448016844480068B1
:104A50000844396801440320B1FBF0F11160424978
:104A60000A78324909781144327828261144B1FB7A
:104A7000F0F03E491A460870CDE90046022118467A
:104A800000F076F84FF47A67384600F023F90123F6
:104A9000CDE900561A460221184600F069F838465A
:104AA00000F018F901231A4603211846009500F07A
:104AB000E5FA41F28836304600F00CF901231A4637
:104AC00003211846009400F0D9FA384600F002F9A4
:104AD00001231A4604211846009500F0CFFA30460B
:104AE00000F0F8F801231A4604211846009400F05B
:104AF000C5FA384600F0EEF801231A46052118469B
:104B0000009500F0BBFA304600F0E4F801231A46A5
:104B100005211846009400F0B1FA384600F0DAF8A2
:104B20000DF5924DBDEC0C8BBDE8F09FFF00002011
:104B300000000020060100201801002000010020D4
:104B4000020100200401002083C0CAA145B6FB3F3A
:104B500000000000000008401E010020100100209D
:104B60001401002024010020FE0000201C01002070
:104B7000F0B42627DDE904C5334C2A26252D18D0AC
:104B8000402D28D0212D39D05E2D49D0282D59D146
:104B900027706070A170E270237184F805C0012055
:104BA000A071E07125726672F0BC0A212648FEF7FA
:104BB0003BBD2648277000886070000AA07024481A
:104BC0000068E070000A2071224800886071000AC5
:104BD000A071214810E02148277000886070000A09
:104BE000A0701F480068E070000A20711D4800880E
:104BF0006071000AA0711C480078D2E71B4827703A
:104C000000886070000AA07019480068E070000A0F
:104C10002071184800886071000AA0711648EBE7FF
:104C20001648277000886070000AA0701448006859
:104C3000E070000A2071134800886071000AA071BA
:104C40001148D9E7F0BC704728AE002002010020CF
:104C50001001002008010020FE00002004010020B7
:104C6000140100200A010020FF000020060100209E
:104C7000180100200C010020000100201E0100206E
:104C800024010020200100201C01002010B56FF03D
:104C90000400FEF7B5FD0C484FF47A7201680B482A
:104CA000B1FBF0F00A490870504301224A804FF0EE
:104CB000E0210A6942F002020A614861086940F095
:104CC0000100086110BD00001C00002000127A00E5
:104CD000CC00002070B504460B48007801280CD1A8
:104CE0000A4D6888844203D3B4FBF0F0FDF7C6FD9B
:104CF0006888B4FBF0F100FB11444FF47A70604314
:104D0000BDE8704000F004B84B000020CC0000204B
:104D100030B54FF0E0240022D4F814C00949A3694B
:104D200009784843A1699942FCD002D2A3EB010360
:104D300002E0ACEB01052B441A440B468242F1D34E
:104D400030BD0000CC00002041EC100B82B010EE12
:104D5000900A8DED000B20F0004001909DED000BBE
:104D600002B051EC100B7047074800212622C17198
:104D70000270012242708170C170017141718171B4
:104D80002A2101727047000044AE00202DE9F05F37
:104D9000DFF81C924FF40066002431464846FCF7C9
:104DA0007DFC844D4FF00108002872D1287800283E
:104DB0006FD00027B2462F7040F6B83B4E4606E053
:104DC0005846FFF7A5FF641CE4B2B42C07D2514645
:104DD0003046FCF763FC0028F2D0B42C07D3AF7048
:104DE000FCF7C7FBE878BDE8F05FFCF7A5BDA87845
:104DF000012854D16878401CC0B268700C2802D9D0
:104E0000404685F80180C0B20D2848D2DFE800F0A6
:104E100047070C11181C20262A2E343A4200FCF7B2
:104E2000A8FB6989A87908E0FCF7A3FBA989E879C0
:104E300003E0FCF79EFBE989287AFCF73BFC2EE0B7
:104E4000FCF797FBA86906E0FCF793FBE86902E032
:104E5000FCF78FFB286AFCF787FC20E0FCF789FB56
:104E6000288A06E0FCF785FB688A02E0FCF781FBF4
:104E7000A88AFCF713FD12E0FCF77BFB687AFCF7CD
:104E80008BFD0CE0FCF775FBE9786879FCF7B8FC62
:104E900005E019E0FCF76DFB2879FCF7ADFDA8787B
:104EA00000287DD1E878401CC0B2E870202800D9E5
:104EB000EF70FCF75EFBE878FCF73EFDE978BDE8B3
:104EC000F05F1020FCF78FBAB24631464F46484695
:104ED000FCF7E4FB012869D1464685F8008040F6DE
:104EE000C41806E04046FFF713FF641CE4B2C82C68
:104EF00007D251463846FCF7D1FB0128F2D0C82C26
:104F000054D3AE7068780D2850D2DFE800F04F0718
:104F10000C11191D21282C30373E4600FCF729FBC7
:104F20006989A87908E0FCF724FBA989E87903E0FE
:104F3000FCF71FFBE989287ABDE8F05FFCF7BABBF4
:104F4000FCF717FBA86906E0FCF713FBE86902E031
:104F5000FCF70FFB286ABDE8F05FFCF705BCFCF727
:104F600008FB288A06E0FCF704FB688A02E0FCF7ED
:104F700000FBA88ABDE8F05FFCF790BCFCF7F9FAEB
:104F8000687ABDE8F05FFCF707BDFCF7F2FAE97854
:104F90006879BDE8F05FFCF733BCFCF7EAFA00E0A3
:104FA00004E02879BDE8F05FFCF726BDBDE8F09F7E
:104FB00000000240F800002030B587B0FDF778FF10
:104FC000FFF764FE2648FFF7A3FEFCF763FF01210D
:104FD0000820FEF727FA4FF49850009001208DF832
:104FE000040000248DF8064003258DF805508DF847
:104FF000070069461B48FCF703FBFCF731FDFCF793
:10500000F0F9FCF733FFFCF7B5F8FCF75DFE4FF461
:105010001650FEF783FA41F61F4142F20F70FEF779
:1050200065FCFFF7A1FEFCF79DFF02AA402031C2FC
:105030000D490A20CDE90001034601F1FC020021DF
:105040000A48FDF765FA8DF8140005AA08A10A20A0
:10505000FDF7BCFAFDF7E0F907B0002030BD000015
:10506000400D0300000C0240280100200D1500082F
:105070005374617274205461736B000030B4124C2D
:105080002625DDF808C025706070A170E2700F4819
:10509000237184F805C00088A071000AE0710C48F3
:1050A00000682072000A60720A480088A072000A34
:1050B000E0720948007820732A206073204630BCD3
:1050C0000E21FEF7B1BA000028AE00201E0100201C
:1050D00024010020200100201C01002010B5024600
:1050E000007A252814D191785078FFF75FF93C4970
:1050F00008801179D078FFF759F93A490860917919
:105100005079FFF753F9384908803849D079087049
:10511000107A402814D191785078FFF747F9344934
:1051200008801179D078FFF741F932490860917908
:105130005079FFF73BF9304908803049D079087041
:10514000107A212814D191785078FFF72FF92C4943
:1051500008801179D078FFF729F92A4908609179F8
:105160005079FFF723F9284908802849D079087039
:10517000107A5E2814D191785078FFF717F92449F6
:1051800008801179D078FFF711F9224908609179E8
:105190005079FFF70BF9204908802049D079087031
:1051A000107A28281BD11E4C90786178814201D05A
:1051B000002814D15078A070D078207110796071D7
:1051C0005179A17111B9012200F02CF8A1790129BE
:1051D00005D16079BDE81040012200F023B810BD70
:1051E000020100201001002008010020FE00002024
:1051F00004010020140100200A010020FF0000200B
:1052000006010020180100200C01002000010020F0
:105210001E01002024010020200100201C0100208C
:1052200044AE00202DE9F05F0C462DED048B9FED80
:10523000C28A012A11D1C14F92464FF00009DFED19
:10524000C08A9FEDC09AC04DDFF800839602012806
:1052500004D0022868D0032870D0E8E0FBF7F6FFFE
:10526000FBF758FF4FF4807B14B1012C36D0DEE001
:10527000A88800EE100AB8EE400AB4EEC08AF1EE3B
:1052800010FA01D2B0EE408A2420FFF741FD641CE1
:10529000A4B2B442ECD328EE280A002480EE098A96
:1052A000A88800EE100AB8EE400AB4EEC08AF1EE0B
:1052B00010FA0BD243F69820FFF72AFD5C465946B8
:1052C0003846FCF7F4F94FF40076E2E02420FFF7CB
:1052D0001FFD641CA4B2B442E2D32BE10024A888D1
:1052E0002989401A00EE100A2420B8EEC08AFFF780
:1052F0000FFDB5EEC08AF1EE10FA10DD18EE100ABF
:1053000040450CDC43F25840FFF702FD5C4659462D
:105310003846FCF7CAF94FF4007631466DE0641C5C
:10532000A4B2B442DBD305E1FBF7A0FFFBF702FF19
:105330004FF4006B1CB1012C41D078E06EE0A888DE
:1053400000EE100AB8EE400AB4EEC08AF1EE10FA90
:1053500001D2B0EE408A2420FFF7DAFC641CA4B22C
:10536000B442ECD328EE280A002480EE098AA888EB
:1053700000EE100AB8EE400AB4EEC08AF1EE10FA60
:1053800015D243F69820FFF7C3FC31463846FCF7A8
:105390008EF95C4659463846FCF787F96420FFF7DA
:1053A00099FC31463846FCF780F921467DE02420FF
:1053B000FFF7AEFC641CA4B2B442D8D3BAE0002418
:1053C000A8882989401A00EE100A2420B8EEC08A65
:1053D000FFF79EFCB5EEC08AF1EE10FA19DD18EE6B
:1053E000100A404515DC43F25840FFF791FC314666
:1053F0003846FCF75AF95C4659463846FCF757F9E7
:105400006420FFF767FC31463846FCF74EF9214629
:1054100085E0641CA4B2B442D2D38BE0FBF736FF24
:10542000FBF798FE4FF4805B34B1012C4CD0042084
:10543000BDEC048BBDE8F09FA88800EE100AB8EE22
:10544000400AB4EEC08AF1EE10FA01D2B0EE408A02
:105450002420FFF75DFC641CA4B2B442ECD328EE18
:10546000280A002480EE098AA88800EE100AB8EE07
:10547000400AB4EEC08AF1EE10FA1DD243F698202D
:10548000FFF746FC5C4659463846FCF710F94FF4E6
:10549000005631463846FCF708F96420FFF71AFC3D
:1054A00021463846FCF701F931463846FCF7FDF84D
:1054B00085F801A00020BBE72420FFF729FC641C2D
:1054C000A4B2B442D0D335E00024A8882989401A78
:1054D00000EE100A2420B8EEC08AFFF719FCB5EEE2
:1054E000C08AF1EE10FA21DD18EE100A40451DDCED
:1054F00043F25840FFF70CFC5C4659463846FCF72F
:10550000D4F84FF4005631463846FCF7D0F8642002
:10551000FFF7E0FB21463846FCF7C7F8314638462E
:10552000FCF7C3F885F80190012081E7641CA4B260
:10553000B442CAD303207BE700000000000C024005
:1055400000C0784400007A440000002000002041A0
:1055500070B5074CA178884209D106480125064953
:10556000C5716F2008700420FDF766F8A57070BD46
:105570000000002044AE0020FD00002081F000412A
:10558000704780F00040704721F00041704720F0E4
:105590000040704721F00042A2F16052B2F5801F36
:1055A00001F0004328BFD2F17F6C0BD95FEA001CE9
:1055B00043EAC20242EB507018BF704728BF20F088
:1055C00001007047B2F5801FBCBF184670474FEA14
:1055D000410C1CF5001F02D2084600F0CFBC70B58C
:1055E00000F00CFB00000089FFF7F6BF4FF0004011
:1055F000A0F580007047000010B591EA030F48BF86
:1056000083F0004300F16283841A71EB030C05D22E
:10561000121943EB0C03001B61EB0C01DFF824E1D2
:105620004FEA1154A4EB135C1EEA430F18BF9EEA25
:10563000445F73D023EA0E03DCF1200E21EA04510B
:1056400043F4801332D322FA0CFE10EB0E0023FA3F
:105650000CFE41EB0E01CCF1200E03FA0EFE10EB16
:105660000E0051F10001B1F5801FCCF1200E32D2B5
:1056700001EB045112FA0EF2BDE8104058BF70471A
:10568000401C38BF5FEA420218BF7047002814BFB1
:1056900020F0010041F100014FEA410313F5001F22
:1056A00038BF7047A1F1C04100F0F6BA012A43EBC0
:1056B0000302ACF1200CDCF11F0E32BF4FF0000EE4
:1056C00023FA0CF310EB030041EB0451B4EB115F30
:1056D000D0D0A1EB045101F5801149085FEA3000F8
:1056E00001EB04510ED350F1000038BF12FA0EFE48
:1056F00008D1BDE81040C9E7401C38BF5FEA42024C
:10570000CAD1C3E7BDE810404FEA410313F5001FBB
:1057100038BF7047A1F1C04100F0BEBA9EEA445FB5
:1057200008D011EA5E0FBDE8104004BF01F000414F
:1057300000207047BDE8104070B500F05FFA00BF70
:1057400064FBBE3E0000E0FF2DE9C04130B4DFF84D
:10575000A0C23CEA111418BF3CEA131400F0EC801C
:1057600081EA03051CEA111444EAD57418BF1CEA47
:10577000131500F0C780A4EB05044FF0004545EA7F
:10578000C12145EAC32341EA505143EA525304F18F
:105790007F74994204F500344FEAC0204FEAC222D8
:1057A00008BF904200F09C804FEA13650FF240164C
:1057B000765D4FEA134506FB05F7C7F1807706FBD8
:1057C00007F74FEAD737A7FB03687642C8F580385A
:1057D000A7FB06CE38BFA8F1010807FB08E64FF08B
:1057E000000EA6FB028CE6FB03CEDCF1000CCEF132
:1057F000004E38BFAEF1010EA6FB0C584FF000076B
:105800004FF00005E6FB0E87A1FB08C6A0FB07CE04
:1058100016EB0E0645F10005E1FB076515F1E04EBC
:105820007EBFA4F580345FEA46066D4116F180071D
:1058300045F100054FEA17274FEA066647EA056774
:10584000A6F1DE46B6F1805F4FEA15251FD938462E
:1058500024F0010C05EBC471BCF1FE6F01EB0C11DF
:1058600002D8F0BCBDE8008124425CBF01F5801E77
:105870009EEAC47F02D4F0BCBDE80081244238D443
:10588000F0BCA1F1C041BDE8004100F005BA4FEA0B
:10589000D22242EA43524FEAD323A7FB02864FEAC1
:1058A000D02040EA415007FB03661EEA0E0F4FEA84
:1058B000D12105FB026658BFA6EB0056B6EB005699
:1058C0004FEA520E4EEAC37E18EB0E0E56EB530E05
:1058D000BDD518EB02085E417F1C55F10005B6E707
:1058E0004FF480154FF000074FF000064FF000080E
:1058F000ADE7F0BC4FF0000001F1C04101F0004104
:10590000BDE8008111EA0C1F0CEA131500D00CE071
:1059100013EA0C1F00F025804FF00000F0BC81EA74
:10592000030101F00041BDE80081F0BCBDE8004189
:1059300081EA030100F0B0B9F0BCBDE8004170B5E8
:1059400000F05CF9097EFC3E00F007B881EA030133
:105950004FF0000001F00041704781EA030100F0C0
:105960009BB9F0BCBDE800414FF0000021497047F1
:10597000FFFDFBF9F7F5F4F2F0EEEDEBE9E8E6E414
:10598000E3E1E0DEDDDBDAD8D7D5D4D3D1D0CFCD9B
:10599000CCCBCAC8C7C6C5C4C2C1C0BFBEBDBCBBD4
:1059A000BAB9B8B7B6B5B4B3B2B1B0AFAEADACABCF
:1059B000AAA9A8A8A7A6A5A4A3A3A2A1A09F9F9EA9
:1059C0009D9C9C9B9A99999897979695959493935B
:1059D000929191908F8F8E8E8D8C8C8B8B8A8989F2
:1059E0008888878786858584848383828281818075
:1059F0000000FF070000F87F4FEA1153A3F5806312
:105A0000D3F11E03A8BFD3F1200C08DB4FF00042F6
:105A100042EAC12252EA505232FA03F07047094278
:105A20000BD4102BC4BF0020704703F5787CBCF169
:105A3000FF3F05D04FF0FF3070474FF00000704738
:105A400070B500F0DBF800BF499224800020704759
:105A5000F0E710F0004248BF4042B0FA80F310FA7D
:105A600003F10AD0C3F11D0303F580634FEA4150EF
:105A700002EB035202EBD12170474FF00000704758
:105A8000B0FA80F310FA03F10AD0C3F11D0303F555
:105A900080634FEA41504FEA035202EBD121704735
:105AA0004FF0000070470000DFF848C170B51CEAF5
:105AB000111E1EBF1CEA13159EEA0C0F95EA0C0F6F
:105AC00000F06F8081EA030423EA4C134EEAD47E8F
:105AD00021EA4C1141F4801143F48013AE44A1FB40
