:020000040800F2
:100000009090012029020008BB1E0008F51A000884
:10001000B91E000879150008593C000800000000CE
:10002000000000000000000000000000B5360008DD
:100030000516000800000000AB0200084138000867
:10004000430200084302000843020008430200087C
:10005000430200084302000843020008430200086C
:10006000430200084302000843020008430200085C
:10007000430200084302000843020008430200084C
:10008000430200084302000843020008430200083C
:10009000430200084302000843020008430200082C
:1000A000430200084302000843020008430200081C
:1000B0004302000843020008C13800084302000858
:1000C00043020008430200084302000843020008FC
:1000D0004302000843020008353A0008F13A0008DC
:1000E00043020008430200084302000843020008DC
:1000F00043020008430200084302000843020008CC
:1001000043020008430200084302000843020008BB
:1001100043020008430200084302000843020008AB
:10012000430200084302000843020008430200089B
:10013000430200084302000843020008430200088B
:10014000430200084302000843020008430200087B
:10015000430200084302000843020008430200086B
:10016000430200084302000843020008430200085B
:10017000430200084302000843020008430200084B
:10018000430200084302000800F002F800F03CF8C7
:100190000AA090E8000C82448344AAF10107DA45E2
:1001A00001D100F031F8AFF2090EBAE80F0013F0F8
:1001B000010F18BFFB1A43F0010318476CD400006D
:1001C0008CD40000103A24BF78C878C1FAD85207FE
:1001D00024BF30C830C144BF04680C6070470000C1
:1001E0000023002400250026103A28BF78C1FBD840
:1001F000520728BF30C148BF0B6070471FB506F0DB
:1002000030FE1FBD10B510BD00F022FF1146FFF7F4
:10021000F5FF05F0A5FC00F040FF03B4FFF7F2FF87
:1002200003BC00F041FF000009488047094800472F
:10023000FEE7FEE7FEE7FEE7FEE7FEE7FEE7FEE796
:10024000FEE7FEE704480549054A064B70470000F3
:100250006538000889010008908A012090900120EB
:10026000908C0120908C0120EFF3108072B67047C3
:1002700080F3108870471D484FF0FF010170002087
:1002800080F309881A48012101701A484FF0805103
:10029000016062B6FEE717484FF080510160704779
:1002A00014484FF080510160704772B6EFF3098037
:1002B00028B1203880E8F00F0F490968086000B5C0
:1002C0000E4880475DF804EB0D480E490A7802702D
:1002D00009480D490A680260106890E8F00F203064
:1002E00080F309884EF0040E62B6704722ED00E0FC
:1002F0004B00002004ED00E064000020A12800086D
:1003000048000020490000206C00002072B67047B1
:1003100062B67047EFF3108072B6704780F31088B2
:100320007047B0FA80F0704790FAA0F0704730BF85
:10033000704720BF70470000DFED2E0AB5EEC00AFF
:1003400060EE200ABDEEE01A11EE100AF1EE10FA8E
:1003500038BF401E00EE100ADFED271AF7EE005AF4
:10036000B8EEC00ADFED274A244930EEC01A21EE6C
:10037000210AFCEEC00A10EE900A00EE900A01EB92
:100380008000B8EE600ADFED1E0AF0EC012A11EEE3
:10039000210AF6EE001AB0EC013AF0EC013A20EE38
:1003A000001A20EE216A40EE615A20EE245A21EE16
:1003B000212A90ED004A00EE602A66EE010A40EE26
:1003C000400A05EE412A70EEA55AF0EE400A41EED1
:1003D000210A46EE410A25EE011A00EE641A22EEC9
:1003E000820A63EEA00A03EE250A44EE010A30EE0B
:1003F000200A704783F9223E00008043786F00088E
:10040000ABAAAA3EABAA2A3E9FED3A0A5FEA920C3B
:1004100053D000BFB0EC011A0B1DF0EC010A21EE25
:10042000011A00EEA01AB5EEC01AF1EE10FAC6BF1E
:10043000F1EEC10AC1ED000A81ED000AF0EC010AFB
:10044000191DB0EC011A60EEA00A41EE010AF5EEAA
:10045000C00AF1EE10FAC6BFF1EEE00AC3ED000AE1
:1004600083ED000AB0EC011A0B1DF0EC010A21EE3D
:10047000011A00EEA01AB5EEC01AF1EE10FAC6BFCE
:10048000F1EEC10AC1ED000A81ED000AB0EC011ADB
:10049000191DF0EC010A21EE011A00EEA01AB5EECA
:1004A000C01AF1EE10FAC6BFF1EEC10AC3ED000AA0
:1004B00083ED000ABCF1010CACD112F0030208BFBD
:1004C000704700BFF0EC010A0B46B0EC011A091DA1
:1004D00060EEA00A41EE010AF5EEC00AF1EE10FA54
:1004E000C6BFF1EEE00AC3ED000A83ED000A521E1A
:1004F000E8D17047000000002DE9F00700EBC109CA
:10050000DDE90778D0F800A0C9F800A007EB0114D6
:10051000D0F804A0251FA9F10406C9F804A003EB34
:10052000C80907F1080C00F1080402EBC8024B1ED1
:1005300031D000BFF2EC011A96ED002A92ED001ABC
:1005400002EBC802B4EC010A121FF4EC012A60EEBF
:10055000210A20EE010A32EE823A02EEA10AD9ED1A
:10056000001A43EE410A09EBC80902EE610A16EDD2
:10057000012A083E42EE210A02EE410AECEC010A91
:10058000ACEC010AB1EE400A85ED000A45ED010A26
:10059000083D5B1ECED190ED000AD0ED010A07EBBD
:1005A000C10130EE600A81ED000A9FED5D0A81ED28
:1005B000010AD0ED000A90ED011A70EE810AC7ED34
:1005C000000A87ED010ABDE8F007704770B400EB40
:1005D000C105DDE903C42D1D002904BF70BC7047AF
:1005E000F2EC011A95ED002A92ED001A02EBC4021A
:1005F000B0EC010A121FF0EC012A60EE210A20EE95
:10060000410A32EE823A02EEA10AD3ED001A43EE1D
:10061000010A03EBC40302EE610A15ED012A083D4D
:10062000491E42EE210A02EE010AECEC010AACEC92
:10063000010AD5D170BC70472DE9F04305464469E5
:10064000807983B00F461646012809D0A3892188F6
:100650003846626800F036F9E87901284ED053E058
:10066000AA88D5E9030307EBC20CD5F80880314608
:100670000CF1040C5AB300BFB0EC011A9CED002A37
:10068000D0ED001A00EBC800B7EC010A001FF7EC30
:10069000012A521E60EE010A20EE610A32EE823A11
:1006A00002EE810A93ED001A43EE210A03EBC80320
:1006B00002EE410A1CED012AACF1080C42EE010ADF
:1006C00002EE210AE1EC010AA1EC010AD4D194ED79
:1006D000040AA38921883046626800F095FAE87917
:1006E00001281CBF03B0BDE8F083E2892188A3681C
:1006F00003B03046BDE8F04300F08CB8E2892188B1
:100700003846A36800F086F8A868CDE90060D5E90E
:100710000323A9883846FFF7EFFE03B0BDE8F08356
:100720000000000070B592B2DDF810C055080260FC
:100730008580184EC66006F50056DBB206610024BF
:10074000837180F807C0802A04BF102282600BD01A
:10075000B2F5007F08BF042212D0B2F5006F14BFBB
:100760004FF0FF3401220BD0002B8C4641614FF03B
:10077000000307D001222946604600F015FC06E080
:100780008260F1E700222946604600F00DFC204619
:1007900070BD00008473000870B40025B0EC010A3D
:1007A000A1F1010CF0EC010AB4EEE00AF1EE10FA4E
:1007B0003CBFB0EE600A0125ACF10104A446B4F1DF
:1007C000004F0ED3F0EC010AB4EEE00AF1EE10FA9D
:1007D0003CBFB0EE600AA1EB0C05BCF1010CF1D1FD
:1007E00013E0002CC8BF00260FDD00BFF0EC010AAB
:1007F000B4EEE00AF1EE10FA04D2ACEB0605B0EE6E
:10080000600A4D1B761C641EF0D182ED000A1D604B
:1008100070BC70472DE9F0014E0801244FF0000C28
:1008200004EB51076146A6F102082CE061452AD28B
:1008300000EBCC0500EBC104D5ED000A94ED000AF5
:10084000C4ED000A85ED000AD5ED010A94ED010A18
:10085000C4ED010A85ED010A0CEB0705CC1900EB8C
:10086000C50500EBC404D5ED000A94ED000AC4ED03
:10087000000A85ED000AD5ED010A94ED010AC4EDE8
:10088000010A85ED010A00EBC104B44400EBCC0C75
:1008900094ED020ADCED000A891CC4ED020A8CED1D
:1008A000000A94ED030ADCF80450E5608CED010ABF
:1008B000B3F800C089B203EB42034145B6D9BDE8A5
:1008C000F00170472DE9F04F4FEA910C4FF000080E
:1008D0004746644608EB0C0505EB0C0909EB0C06D2
:1008E00000EBC80A00EBC9099AED000AD9ED000A2D
:1008F00099ED012A00EBC50530EE201A30EE600AB2
:10090000DAED010A00EBC60608F1010870EE821A62
:1009100070EEC20A95ED002AD6ED002A641E32EE72
:10092000222A71EE022A31EE421ACAED002A95ED12
:10093000012AD6ED012A32EE222A71EE822A71EEC8
:10094000C21ACAED012A95ED012AD6ED012A96EDCB
:10095000003A4FEA470A32EE622AD5ED002A02EB4E
:10096000CA0B72EEC32A9BED003ADBED013A21EE91
:10097000034A01EEA34A61EE831A41EE631A85ED44
:10098000004A30EE021A30EE420AC5ED011A02EBBF
:10099000C70570EEE21A95ED002A70EEA20AD5EDB9
:1009A000012A21EE023A0AEB070502EBC5051F44B6
:1009B00001EEA23A61EE821A41EE621A89ED003A26
:1009C000C9ED011AD5ED001A95ED011A20EE212A84
:1009D00000EE812A60EEA10A40EE410A86ED002A6F
:1009E000C6ED010A7FF476AF9B044FEA134BE6464F
:1009F000BCF1040F7DD9E0464FEA9C0C4FF0000992
:100A0000CA46BCF1000F75D94FEA490404EB09034B
:100A100002EBC90502EBC40402EBC30395ED001A17
:100A2000D5ED011A94ED000AD4ED010A93ED002AE8
:100A3000D3ED012AD94453468A4573D203EB0C0403
:100A400004EB0C0606EB0C0500EBC30700EBC60637
:100A500097ED003AD6ED003A96ED015A00EBC4044A
:100A600073EE234A33EE633AD7ED013A00EBC50546
:100A700033EE854A73EEC53A94ED005AD5ED005A2F
:100A800035EE255A74EE855A74EEC54AC7ED005A04
:100A900094ED015AD5ED015A35EE255A74EE055AFA
:100AA00034EE454AC7ED015A94ED015AD5ED015A8D
:100AB00095ED006A35EE655AD4ED005A75EEC65ACA
:100AC00024EE806A04EE206A24EE004A04EEE04A36
:100AD00084ED006A73EEE54A73EEA53A84ED014AAF
:100AE00033EE054A33EE453A24EE015A04EEA15A9C
:100AF00001E026E01BE064EE814A86ED005A4344A3
:100B00008B4244EE614A23EE024A03EEA24A63EEB0
:100B1000823AC6ED014A43EE623A85ED004AC5EDE0
:100B2000013A8BD30AF1010AE245FFF46DAF4FEAB7
:100B30008B434FEA9E0E4FEA134BBEF1040F3FF674
:100B40005AAFA1EB0C0100224B1C4FEA9C04002B76
:100B50008CBF1F46BDE8F08F11190E19331900EB39
:100B6000C20500EBC60695ED000AD6ED000A95ED2C
:100B7000012A96ED011A70EE201A70EE600A32EE2C
:100B8000010A00EBC10100EBC30332EE411A91ED03
:100B9000002AD3ED002A6244974232EE222A71EEF7
:100BA000822A31EEC22AC5ED002AD1ED011AD3ED19
:100BB000012A71EEA21A70EE212AC5ED012A70EE0B
:100BC000612A91ED010AD3ED011A93ED003A70EE1E
:100BD000611A91ED000A81ED002AC1ED012A30EE83
:100BE000430A30EEA12A70EEE10A71EE401A31EEAE
:100BF000000A86ED002AC6ED011AC3ED000A83ED56
:100C0000010AA9D8BDE8F08F2DE9F04F4FEA910C09
:100C10004FF000084746644608EB0C0505EB0C0A4C
:100C20000AEB0C0600EBC80900EBCA0AD9ED000A72
:100C30009AED001ADAED012A00EBC50570EE811A73
:100C400070EEC10A99ED011A00EBC60608F1010821
:100C500031EE222A31EE621AD5ED002A96ED003AE5
:100C6000641E72EE832A31EEA23A71EEE21A89ED29
:100C7000003AD5ED012A96ED013A72EE832A32EE62
:100C8000223A32EE622A89ED013AD5ED012A96ED3B
:100C9000013AD6ED003A4FEA470972EEC32A95EDC4
:100CA000003A02EBC90B33EE633ADBED003A9BED01
:100CB000014A61EEA34A42EE444A22EE232A01EEA3
:100CC000842AC5ED004A70EEE21A70EEA20A85EDA4
:100CD000012A02EBC70531EE032AD5ED002A31EED9
:100CE000431A95ED013A61EEA23A09EB070502EBD2
:100CF000C5051F4442EE433A22EE222A01EE832A22
:100D0000CAED003A8AED012AD5ED001A95ED012AC7
:100D100060EEA12A41EE422A21EE211A00EE821A4B
:100D2000C6ED002A86ED011A7FF476AF9B044FEAE8
:100D3000134BE646BCF1040F7DD9E0464FEA9C0C0C
:100D40004FF00009CA46BCF1000F75D94FEA4904BB
:100D500004EB090302EBC90502EBC40402EBC30375
:100D6000D5ED001A95ED012AD4ED000A94ED011A93
:100D7000D3ED002A93ED013AD94453468A4573D204
:100D800003EB0C0404EB0C0606EB0C0500EBC307AD
:100D900000EBC606D7ED003A96ED004AD6ED015AB3
:100DA00000EBC40433EE845A73EEC43A97ED014A63
:100DB00000EBC50574EE254A34EE654AD4ED005AC1
:100DC00095ED006A75EE865A35EE256A35EE655A60
:100DD00087ED006AD4ED015A95ED016A75EE865AE9
:100DE00034EEA56A74EEE54A87ED016AD4ED015A46
:100DF00095ED016AD5ED006A75EEC65A94ED006A6C
:100E000036EE666A65EE206A44EEC16A64EEA04A78
:100E100045EE014AC4ED006A34EE065A34EE464A05
:100E2000C4ED014A73EEE54A73EEA53A64EEA15AA9
:100E300045EE425A01E026E01BE025EE215AC6EDC0
:100E4000005A43448B4204EE825A63EEA24A44EEB7
:100E5000434A24EE224A86ED015A03EE834AC5ED49
:100E6000004A85ED014A8BD30AF1010AE245FFF4FD
:100E70006DAF4FEA8B434FEA9E0E4FEA134BBEF124
:100E8000040F3FF65AAFA1EB0C0100224B1C4FEAB6
:100E90009C06002B8CBF1F46BDE8F08F91198D1961
:100EA000AB1900EBC20400EBC505D4ED000AD5ED8B
:100EB000001AD4ED012A95ED012A30EEA11A70EE48
:100EC000E11A72EE820A00EBC10100EBC30332EEBD
:100ED000C22AD1ED002A93ED003A6244974272EEA5
:100EE000832A31EE223A71EE622A23EE003A62EE54
:100EF000802A84ED003A91ED011A93ED013A31EE2A
:100F0000031A30EE813A23EE003A84ED013A30EED6
:100F1000C13AD1ED010A93ED011AD3ED003A30EE5A
:100F2000C11AD1ED000AC1ED002A63EE002A70EE6D
:100F3000E30AC1ED012A71EEC12A31EE811A72EE87
:100F4000201A72EE600A22EE802A21EE001A61EE6B
:100F5000801A85ED002A60EE800AC5ED011A83ED46
:100F6000001AC3ED010A99D8BDE8F08F30B50446E8
:100F70000D4680782188A389626801280DD0284613
:100F8000FFF7A0FCE078012818BF30BDE289218876
:100F90002846A368BDE830403CE494ED040A2846A6
:100FA000FFF732FEEEE7000010B401801B4C4460F6
:100FB00082704FF0000CC370102925D040291BD03F
:100FC000B1F5807F10D0B1F5806F18BF4FF0FF3CB6
:100FD00002D010BC6046704701218181C181104957
:100FE0009FED100A816016E004218181C1810E49C4
:100FF0009FED0E0A81600EE010218181C1810C49B4
:101000009FED0C0A816006E040218181C1810A497F
:101010009FED0A0A816080ED040ADAE784B30008D4
:1010200084D300080000803A8AD300080000803B87
:10103000A2D300080000803C02D400080000803DDC
:101040007047704770470000004870472C8A0120A5
:101050007546FFF7F9FFAE4605006946534620F096
:101060000700854618B020B5FFF7ECF8BDE8204032
:101070004FF000064FF000074FF000084FF0000B54
:1010800021F00701AC46ACE8C009ACE8C009ACE807
:10109000C009ACE8C0098D4670470446AFF3008034
:1010A0002046FFF7BAF8704701491820ABBEFEE7AB
:1010B0002600020010B5064C0122002311462046EE
:1010C00000F050F92046BDE8104000F085B900005E
:1010D0000020014010B5064C0023012204212046C7
:1010E00000F040F92046BDE8104000F075B900005E
:1010F0000020014010B5064C0023012207212046A4
:1011000000F030F92046BDE8104000F065B900005D
:101110000020014010B5064C002301220D2120467D
:1011200000F020F92046BDE8104000F055B900005D
:101130000021014010B5064C002301220E2120465B
:1011400000F010F92046BDE8104000F045B900005D
:101150000021014010B5064C002301220F2120463A
:1011600000F000F92046BDE8104000F035B900005D
:101170000021014070B59CB001212F4802F066F9B2
:1011800001214FF4E06002F085F94FF0007000900B
:101190002A4801902A4802A90024012531C1E80209
:1011A000CDE9064080000890401109900AA90594F5
:1011B000400231C1234E0D94694630460E9400F032
:1011C000F7F90121304600F0E8F903208DF86800B6
:1011D00019958DF86B4019A91B4800F015FA159464
:1011E0001694179415A8189400F06AF80F948DF8C7
:1011F000404011941394114C8DF841504C3C8DF8A3
:1012000050500FA9204600F087F800230122082142
:10121000204600F0A7F80121204600F073F80121D4
:10122000204600F065F80121204600F03FF82046F6
:1012300000F0D2F81CB070BD020040004C2101400B
:1012400008000020406402400004024010B5064C33
:10125000002301220A21204600F084F82046BDE840
:10126000104000F0B9B800000022014010B5064C53
:10127000002301220B21204600F074F82046BDE82F
:10128000104000F0A9B800000022014010B5064C43
:10129000002301220C21204600F064F82046BDE81E
:1012A000104000F099B80000002201400029816838
:1012B00002D041F0010101E021F00101816070479D
:1012C000094B10B51A68094902EA0102D0E9001475
:1012D00041EA0401D0E9024044EA000441EA040181
:1012E00041EA0201196010BD04230140E030FCFF17
:1012F0000029816802D041F4807101E021F48071FD
:10130000816070470029816802D041F4007101E0DA
:1013100021F400718160704730B542680F4B0C7941
:101320001A400B6842EA04221343436082680C4B64
:101330004D791A40D1E9034323438C6844EA4504BC
:10134000234313438360C26A097D22F47002491E5D
:10135000C9B242EA0151C16230BD0000FFFEFFFC8C
:10136000FDF7FFC070B5072509290AD9C468A1F1A6
:101370000A0606EB4606B540AC43B3401C43C460C6
:1013800007E0046901EB4106B540AC43B3401C43A0
:1013900004611F23072A09D2446B521E02EB82020A
:1013A00093409C4391400C43446370BD0D2A09D285
:1013B000046BD21F02EB820293409C4391400C438A
:1013C000046370BDC46A0D3A02EB820293409C43F1
:1013D00091400C43C46270BD816841F080418160DE
:1013E000704700F089BB70B504460D4600F0EAFB7B
:1013F000A02000F0A5FB00F041FC200A00F0A0FBBB
:1014000000F03CFCE0B200F09BFB00F037FC28460B
:1014100000F096FB00F032FC00F002FCBDE87040EA
:101420000A2004F055B9704710B586B0002000F0CE
:1014300063FE1C4CE060002000F05EFE2061002096
:1014400000F04CFF6061002000F056FEA0611648DD
:1014500001AC032300224FF420510FC401200346A6
:101460000090124A0021124801F066F88DF814002D
:1014700005AA10A10A2001F0BDF80B4A0323121F90
:1014800000210F4801F010F804230E4A00210E48F5
:1014900001F00AF802230D4A00210D4801F004F87A
:1014A00006B010BD000000202821002024C100202B
:1014B000491500085374617274205461736B000005
:1014C000DB14000824D1002031150008247101200C
:1014D000E914000801F020BC704704F02BFA6420E6
:1014E00004F0F6F8F9E70000084E094C4FF47A755D
:1014F000F07910B9022001F07BF902F09FFF6069DA
:1015000000F072FF284604F0E3F8F1E7447101208F
:101510000000002010B500F0ABFFFFF785FFBDE82D
:1015200010400A2001F064B9704701F0FDBB0000D3
:1015300008B5044C6A460021606900F0F5FE04F02D
:10154000ABFCF7E70000002008B5084D084C0A2660
:10155000E879012801D101F04BF96A460021E068E1
:1015600000F0F0FD04F0AEFB6681F1E7447101206C
:101570000000002001F0EABBFEE770B50025002462
:101580000021284602F090FB641CE4B2042CF7D33F
:101590006D1CEDB2162DF2D370BD0029016802D08A
:1015A00041F0010101E021F00101016070470000FC
:1015B00030B50368124ACC6813400A682243D1E967
:1015C00005452C432243CC6922430C6A22434C6AD2
:1015D00022438C6A22434C6B22438C6B22431A4376
:1015E0000260426922F00703D1E90B2422431A4327
:1015F00042610A6942604A6882608968C16030BDA0
:101600003F801CF070470000F0B5002201234FF02E
:10161000030C00BF0D6803FA02F42540A5422DD14A
:10162000066854000CFA04F5AE4306600E790768AC
:10163000A6403E4306600E79012E01D0022E12D143
:101640008668AE4386604D798668A54035438560DF
:10165000456803FA02F6B543456045688E799640C1
:10166000B6B235434560C56856000CFA06F7BD436F
:10167000C560CD79A540C4682543C560521C102AB9
:10168000C8D3F0BD4B07DB0E9A40C90810B500EB7C
:101690008100016A0F249C40A1430162016A114349
:1016A000016210BD0246002012690A4200D00120EA
:1016B0007047418370470183704700002DE9F04770
:1016C00004460E4601210B2002F0EEFA01210D2006
:1016D00002F0EAFA08210E2002F0E6FA08211120B1
:1016E00002F0E2FA4FF06408274FB4FBF8F53978BE
:1016F000DFF89890012905D109EB450102220F205E
:1017000002F0ACFA387818B90221102002F0CCFAB5
:1017100008FB15400A25B0FBF5F009EB40014F46E8
:101720000222132002F09AFAB4FBF5F005FB1040F8
:10173000B0FBF5F105FB110007EB4001022211207F
:1017400002F08CFAB6FBF8F4DFF840900222A9F11F
:10175000140909EB4401104602F080FA08FB1460FA
:10176000B0FBF5F009EB40010222052002F076FA09
:10177000B6FBF5F005FB106007EB4001BDE8F04754
:101780000222082002F06ABA03000020E4000020D0
:101790002DE9F041044601210C2002F085FA0821D0
:1017A000112002F081FA42F21077B4FBF7F51D4EDA
:1017B000A8B206EB400102220F2002F04FFA07FB0D
:1017C00015404FF47A75B0FBF5F006EB40010222AC
:1017D000132002F043FAB4FBF5F005FB104064253A
:1017E000B0FBF5F006EB40010222112002F036FAC0
:1017F000B4FBF5F005FB10400A25B0FBF5F0143EF4
:1018000006EB40010222002002F028FAB4FBF5F0BA
:1018100005FB104006EB4001BDE8F04102221046F6
:1018200002F01CBAE40000202DE9F04704460D4602
:101830000421072002F038FA0821112002F034FABE
:101840006427B4FBF7F6DFF87880022208EB460144
:101850000F2002F003FA07FB16400A26B0FBF6F051
:1018600008EB40010222132002F0F8F9B4FBF6F075
:1018700006FB104008EB40010222112002F0EEF9B5
:10188000B5FBF7F4A8F11409022209EB4401104654
:1018900002F0E4F907FB1450B0FBF6F009EB40014D
:1018A0000222052002F0DAF9B5FBF6F006FB105033
:1018B00008EB4001BDE8F0470222082002F0CEB953
:1018C000E40000202DE9F041044601210A2002F045
:1018D000EBF90821112002F0E7F942F21076B4FB8F
:1018E000F6F51E4FA8B207EB40010222112002F0CC
:1018F000B5F906FB15404FF47A76B0FBF6F0A7F188
:10190000140505EB40010222002002F0A7F9B4FB08
:10191000F6F006FB10406426B0FBF6F005EB400144
:101920000222104602F09AF9B4FBF6F006FB1040D2
:101930000A26B0FBF6F005EB40010222052002F07A
:101940008DF9B4FBF6F006FB104007EB4001BDE853
:10195000F0410222082002F081B90000E4000020DA
:101960002DE9F04104460821012002F09DF90421EF
:10197000072002F099F96426B4FBF6F50F4F022216
:1019800007EB4501104602F069F906FB15400A25F0
:10199000B0FBF5F007EB40010222052002F05EF9F2
:1019A000B4FBF5F005FB104007F11401BDE8F04170
:1019B00001EB40010222082002F050B9D0000020C3
:1019C0002DE9F04104460121042002F06DF90821BF
:1019D000112002F069F96426B4FBF6F50F4F0222DC
:1019E00007EB4501104602F039F906FB15400A25C0
:1019F000B0FBF5F007EB40010222052002F02EF9C2
:101A0000B4FBF5F005FB104007F11401BDE8F0410F
:101A100001EB40010222082002F020B9D000002092
:101A20002DE9F04104460421084602F03DF9022167
:101A30000A2002F039F90821112002F035F9642654
:101A4000B4FBF6F50F4F022207EB4501104602F0FA
:101A500005F906FB15400A25B0FBF5F007EB400140
:101A60000222052002F0FAF8B4FBF5F005FB104065
:101A700007F11401BDE8F04101EB4001022208200A
:101A800002F0ECB8D00000201CB50121022001F0CA
:101A9000DDFC4FF43870009001208DF80400002028
:101AA0008DF806000220124C8DF80500694620468C
:101AB000FFF7AAFD61152046FFF7FDFD2021204616
:101AC000FFF7F9FD40212046FFF7F5FD8021204674
:101AD000FFF7F1FD022001F019FE292001F016FEAA
:101AE000012001F013FE032001F010FE1CBD0000D8
:101AF00000040240FEE700001CB50121022001F0B5
:101B0000A5FC4FF4E040009001208DF80400022075
:101B10000A4C8DF8050069462046FFF775FDA114B3
:101B20002046FFF7C6FD4FF400512046FFF7C3FDE6
:101B30004FF480412046FFF7BEFD1CBD000402406B
:101B40002DE9FC4705460121022001F07FFC012020
:101B50008DF8040002201A4E4FF480478DF80500DE
:101B6000009769463046FFF74FFD4FF40058414655
:101B70003046FFF79EFDB9460024474628064946F1
:101B8000304602D4FFF795FD01E0FFF794FD6806AB
:101B9000050E022003F0BAFD39463046FFF78BFDF3
:101BA000022003F0B3FD39463046FFF782FD0220E4
:101BB00003F0ACFD641CE4B2082CDFD3BDE8FC8765
:101BC000000402407CB50121022001F03FFC01200D
:101BD0008DF804000220114D4FF480448DF805006B
:101BE000009469462846FFF70FFD21462846FFF777
:101BF00062FD661031462846FFF75DFD042003F0C4
:101C000085FD21462846FFF754FD042003F07EFDA4
:101C100031462846FFF74DFD7CBD00000004024020
:101C20007CB50121022001F011FC01208DF8040097
:101C30000220114D4FF480448DF805000094694650
:101C40002846FFF7E1FC661031462846FFF731FDD4
:101C500021462846FFF72DFD042003F057FD3146AD
:101C60002846FFF728FD21462846FFF724FD0420DB
:101C700003F04CFD7CBD0000000402407CB5002454
:101C80000121022001F0E2FB00208DF80400164E35
:101C90004FF480458DF80700009569463046FFF700
:101CA000B3FC29463046FFF706FD012003F02EFD68
:101CB0006D1029463046FFF7FEFC012003F026FD9B
:101CC0000A4807E0641CE4B2FA2C03D9FFF7A8FF26
:101CD00001207CBDD0F838110029F3D129463046C7
:101CE000FFF7E7FC00207CBD00040240008040427A
:101CF0002DE9F0479CB001215E4801F0A7FB0121CE
:101D00004FF4E06001F0C6FB4FF0806000905A484D
:101D100001900125594802A9002431C106A8EE020C
:101D20006F034FF480784FF400390594A0E8D00396
:101D3000CDE90B45DFF848A10D94694650460E9455
:101D4000FFF736FC01215046FFF727FC4D4802A95A
:101D5000CDE900404948DFF828A1801C31C106A820
:101D60000594A0E8D003CDE90B45AAF1180A0D941B
:101D7000694650460E94FFF71BFC01215046FFF7C1
:101D80000CFC68060090404801903C4802A9001DE8
:101D900031C106A80594A0E8D003394ECDE90B4522
:101DA00018360D94694630460E94FFF701FC012168
:101DB0003046FFF7F2FB3F20032615908DF8586060
:101DC0008DF85B4015A93148FFF71EFC9220159055
:101DD0008DF858608DF85B4015A92D48FFF714FC6D
:101DE00017941894199417A81A94FFF769FA0F9486
:101DF0008DF84040119413941F4C8DF841504C3C89
:101E00008DF850500FA92046FFF786FA1E4D0FA9F6
:101E10004C3D2846FFF780FA1A4E0FA94C3E30463B
:101E2000FFF77AFA01212046FFF76CFA01212846D4
:101E3000FFF768FA01213046FFF764FA01212046D6
:101E4000FFF756FA01212846FFF752FA01213046E2
:101E5000FFF74EFA01212046FFF728FA0121284614
:101E6000FFF724FA01213046FFF720FA1CB0BDE845
:101E7000F0870000050040004C22014004000020D3
:101E8000286402404C2001404C21014000080240DF
:101E9000000002401CB50121084601F0D7FA4FF4BA
:101EA000C050009000208DF8040069460148FFF7FB
:101EB000ABFB1CBD00000240FEE770474FF4A06082
:101EC00000F032B870B50F21C478027801234FF0CA
:101ED000E026E4B1124C246804F4E064C4F5E06444
:101EE000C4F30724C4F10405E1404478AC4085788C
:101EF0000D4025430B4C29011155007800F01F01BE
:101F00008B40400906EB8000C0F8003170BD02F044
:101F10001F008340500906EB8000C0F8803170BD7F
:101F20000CED00E000E400E00249084302490860CB
:101F3000704700000000FA050CED00E0704700005B
:101F400070B505000E46144605D036B10E488078AF
:101F500028B112200DE004200BE00C2009E02878C5
:101F6000012808D0022806D0032804D0042802D073
:101F70000120107070BDFEF777F96E61FEF778F9F9
:101F80000020207070BD00004400002030B587B0F4
:101F900000F070F82A48002404638470C47004724E
:101FA000C471C460C4618461446144708471214619
:101FB00000F134025454491CC9B20829FAD30471FF
:101FC00044718462046201F099F801F06BF801F049
:101FD00043F801F0D5F801F0F9F802AA0325202012
:101FE00031C218494FF6FF70CDE9000101F17C02C2
:101FF0003F230021144800F09FFA05AA13A13F20B7
:1020000000F0F8FA02AA402031C214494FF6FE70DF
:10201000CDE9000101F1FC023E230021104800F04F
:102020008BFA05AA0FA13E2000F0E4FA00F0E0FCD4
:1020300000F026F807B0BDE83040FFF77FBF000092
:1020400044000020B47601208933000875432F4FE7
:10205000532D49492049646C65000000B475012086
:10206000A533000875432F4F532D49492053746100
:1020700074000000014900200880704740000020E3
:10208000704700000449C879012804D18878FF28E6
:1020900001D2401C887070474400002070B5144D78
:1020A000E879012822D1FEF7DFF80446A87820B1AC
:1020B000401E10F0FF00A87013D1E87888B901F035
:1020C000C9F80C48697950F82100A8622A79914230
:1020D00007D0C16B491CC163E868401CE860FEF78B
:1020E000DFF82046BDE87040FEF7C2B870BD0000C2
:1020F000440000203477012070B505460E48007872
:1021000008B1002070BDFEF7AFF801460B48046827
:102110000CB1626802600846FEF7AAF84CB10120D3
:1021200020700020208106A065606061204600F0DC
:1021300089FF204670BD00004600002054000020AA
:102140003F0000002DE9F04705008846144604D002
:102150002878012803D001200AE0042008E02C4858
:10216000007808B1022003E02A48007820B10D2051
:1021700010700020BDE8F087FEF776F86E6807461D
:1021800000213EB1884638466960FEF771F884F850
:1021900000803AE0DFF880A08946DAF8000010F805
:1021A000342F42F002020270417040F8048C28463D
:1021B00000F01AFF3846FEF75BF801F027F8FEF74B
:1021C00053F80746DAF8000090F8351031B10229CB
:1021D00008D0294600F0D8FE0A2004E0466A84F8B8
:1021E000009001E00E202070DAF80010384601F16E
:1021F0001C0181F8189081F81990C1F80090C1F87D
:102200000490C1F80890FEF733F83046B2E70000BA
:1022100046000020470000206400002070B5040044
:102220000D4605D035B12078012805D0012070BDBC
:10223000042070BD032070BDFEF716F80646A07A94
:1022400058B1002302222946204600F061FE3046A4
:10225000FEF70EF800F0DAFF0AE0606820B13046C1
:10226000FEF706F8142070BD30466560FEF700F8F2
:10227000002070BD10B5094CE07901280CD1FDF7A4
:10228000F3FFA17821B9E178FF2901D2491CE1705F
:10229000BDE81040FDF7ECBF10BD00004400002079
:1022A00010B50D4CE079012814D1FDF7DDFFE17880
:1022B00031B1491E11F0FF01E17001D1A17819B1CE
:1022C000BDE81040FDF7D4BFFDF7D2FFBDE81040D8
:1022D00000F09CBF10BD00004400002070B5054612
:1022E0000E48007808B1002070BDFDF7BDFF014623
:1022F0000B4804680CB1626802600846FDF7B8FF3D
:102300004CB10320207025810020606005A0606131
:10231000204600F097FE204670BD000046000020D9
:10232000540000203F0000002DE9F04705008846DA
:10233000144604D02878032803D001200AE00420A2
:1023400008E02648007808B1022003E0244800781D
:1023500018B10D201070BDE8F087FDF785FF064627
:102360002889002730B1401E28813046FDF780FFC4
:102370002770F0E7DFF86C90D9F8000010F8341FF0
:1023800041F001010170477040F8048C284600F0CC
:102390002BFE3046FDF76CFF00F038FFFDF764FFC1
:1023A0000646D9F8000090F8351031B1022906D060
:1023B000294600F0E9FD0A2002E0277001E00E2026
:1023C0002070D9F8000000F11C00077647760760FE
:1023D00047603046BDE8F047FDF74ABF46000020A1
:1023E000470000206400002070B5040004D020786D
:1023F000032803D0012070BD042070BDFDF734FF19
:102400000546A07A58B1002301221946204600F063
:102410007FFD2846FDF72CFF00F0F8FE09E020893B
:102420004FF6FF71884206D2401C20812846FDF7F6
:102430001FFF002070BD2846FDF71AFF332070BD36
:1024400010B5094CE07900280CD100F003FF607949
:102450000649207151F82000A0622062BDE81040BA
:10246000FDF709BF10BD00004400002034770120B3
:1024700010B5022000F016FAFDF7F6FE084C002118
:10248000E161FDF7F5FE642000F00CFAFDF7ECFECB
:10249000E169616101216170BDE81040FDF7E8BEAE
:1024A00044000020FEF7BFBF2DE9FE4305460F465E
:1024B00090461C463F2B02D92A20BDE8FE83FDF73B
:1024C000D3FE1A49097819B1FDF7D2FE3C20F4E792
:1024D000174E56F8241019B1FDF7CAFE2820ECE774
:1024E000012146F82410FDF7C3FE00234246394679
:1024F000284600F04BF900270146009701973B461C
:102500003A462046029700F0B5FE050007D0FDF7D9
:10251000ABFE46F82470FDF7ABFE2846CDE7054834
:1025200000780128F9D100F071FEF6E7460000209E
:10253000347701204B0000202DE9F04F81462DED2E
:10254000028B83B08A46DDE90F879DED118A129DCB
:1025500093461C463F2B05D92A2003B0BDEC028BC5
:10256000BDE8F08FFDF780FE1D49097819B1FDF730
:102570007FFE3C20F1E71B4E56F8241019B1FDF701
:1025800077FE2820E9E7012146F82410FDF770FEC8
:102590002A463946404600F04DFF2B465A465146E2
:1025A000484600F0F3F800978DED018A0146029548
:1025B000424620460E9B00F05DFE050008D0FDF768
:1025C00053FE002146F82410FDF752FE2846C4E7CA
:1025D000054800780128F9D100F018FEF6E7000060
:1025E00046000020347701204B000020FEF772BF28
:1025F000FEF772BF70B505460E4614463F2803D954
:10260000FF2D01D02A2004E02EB11248007820B11D
:102610001220107070BD0C20FBE7FDF725FE01466F
:10262000FF2D03D10C48006890F836500B4850F845
:102630002500432540B1012806D006650846FDF770
:1026400017FE0020207070BD0846FDF711FE2570B2
:1026500070BD000046000020640000203477012097
:1026600010B504463F2801D32A2010BDFDF7FCFD1C
:1026700001461F4850F8240058B101280ED090F8A8
:10268000342013072FD512F0F70280F834200AD037
:102690000BE00846FDF7ECFD462010BD0846FDF7AF
:1026A000E7FD432010BD026B22B10846FDF7E0FDB7
:1026B000002010BD0F4A00F138008378147843EAF7
:1026C0000403137003780C4A4078D45C44EA000495
:1026D000D4540846FDF7CCFD084800780128E7D11E
:1026E00000F094FDE4E70846FDF7C2FD442010BD6C
:1026F000347701204A000020780000204B000020A1
:10270000FEF712BF2DE9F04104460D463F2804D9DB
:10271000FF2C02D02A20BDE8F08145B100202860BE
:102720006860FDF7A1FD0146FF2C02D005E00920FD
:10273000F1E71448006890F83640134850F8240038
:1027400058B1012809D0028AD2070BD0D0E902473C
:1027500000260846FDF78CFD0AE00846FDF788FDD7
:102760004320D8E70846FDF783FD4520D3E7761CD4
:1027700001CC0028FBD0B0002860B81B8000686046
:102780000020C8E764000020347701204FF08073F8
:102790001360131F18606FF0010042F8080CA2F1DB
:1027A00038004FF012334FF00332C0E90A234FF0E4
:1027B000023242624FF00132C0E907124FF011318C
:1027C00081614FF0103141614FF0093101614FF0EB
:1027D0000831C1604FF0073181604FF00631416030
:1027E0004FF0053140F804194FF004310160704793
:1027F00070B5274D04463F2804D005D3FF280CD0E0
:102800002A2070BD472070BDFDF72EFD03462868C5
:1028100090F83600A04206D007E0FDF725FD0346FC
:10282000286890F83640012500E00025194850F846
:10283000240068B1012810D090F83820164C90F888
:102840003960A15CF643F6B23140A1540AD010E0E1
:102850001846FDF70DFD482070BD1846FDF708FD30
:10286000432070BD0D4A90F83A10147824EA010113
:10287000117010F8341F41F0080101701846FDF77F
:10288000F7FC012D01D100F0C1FC002070BD00005B
:102890006400002034770120780000204A000020E6
:1028A000FEF743BE70B5044614480078002824D1D2
:1028B00013480078002820D1002C1ED0FDF7D4FC4E
:1028C00003461048104D006890F8381090F83960B1
:1028D0006A5CF643F6B232406A5406D10B4A90F86D
:1028E0003A10157825EA0101117004631846FDF7C6
:1028F000BFFCBDE8704000F089BC70BD4600002000
:102900004700002064000020780000204A000020DA
:102910002DE9F04100F052F8FDF7A6FC264D296B99
:10292000491C2963FDF7A4FCE879012841D1687AA4
:102930000126002720B101283BD0022802D06F7267
:10294000EC6A32E06E72FBE7FDF78EFC216B49B357
:10295000491E216326D194F8341011F0370F06D0A8
:1029600001F0C80184F8341084F8356001E084F87F
:10297000357094F83410090714D404F13804AA7996
:10298000A178DFF834C041EA0201A97121780CF185
:10299000340C63781CF80120A4F1380442EA0302E5
:1029A0000CF801206469FDF763FC94F836003F28B9
:1029B000CAD1BDE8F08100004400002010B5FEF748
:1029C000D9FD07480188491C89B20180642905D3D3
:1029D00000210180BDE8104000F004B810BD0000E7
:1029E0004000002001480068FFF7FEBC980000206E
:1029F00070B588B04FF420712E4800F0B7FB40212D
:102A00002D4800F0B3FB00202A4904466422431CF1
:102A100000EB80001D4601EBC0009BB203EB83037B
:102A2000027001EBC30380F82540C36023A3036257
:102A3000A8B20F28EBD300EB800001EBC0000270BE
:102A400080F825401DA2C46002621D481E4A046031
:102A50001C480480102010801C4801600120FFF7F2
:102A60003DFC1B4D28600020FFF738FC194E05AADD
:102A700019A130602868FFF763FA05AA1BA1306826
:102A8000FFF75EFA402102910320CDE903401C4A82
:102A90004FF6FD70CDE900023D23FC3200211948BC
:102AA000FFF74AFD06AA18A13D20FFF7A3FD08B0D5
:102AB00070BD0000EC8001206C8401203F0000000C
:102AC000900000208E0000208C0000209C00002040
:102AD000940000209800002075432F4F532D494942
:102AE00020546D724C6F636B0000000075432F4FD4
:102AF000532D494920546D725369676E616C000013
:102B00006C830120612B000875432F4F532D4949D9
:102B100020546D7200000000032280F825200E4A28
:102B20000129126813D0816989B1114441610B4AAE
:102B300001F0070102EBC10100230A68086042B1FD
:102B4000C26010618A88521C8A8003617047C16923
:102B5000EBE70122C360F7E7900000206C840120BE
:102B600008B5DFF86880DFF868901A4E6A460021E1
:102B7000D8F80000FFF7D8FBFFF77CFB3068401C5B
:102B8000306000F00700022759F8304013E0616917
:102B90003068E56881420DD1204600F01DF894F8B8
:102BA000240002280CD084F82570626812B12046F7
:102BB000A16890472C46002CE9D1FFF771FBD5E7BF
:102BC00001212046FFF7A8FFEFE700009800002052
:102BD0006C8401209000002010B541690E4A01F07C
:102BE000070102EBC10200231468C168844203D1CB
:102BF000116041B10B6106E0D0F810C0CCF80C10A8
:102C000009B1C1F810C0012180F82510C36003612B
:102C10009088401E908010BD6C84012070B5244CBB
:102C20000025E169491CE161214622788978062A5C
:102C30000144C9B23AD2DFE802F0030A0E1D2D3179
:102C4000ED2803D101202070E570257170BD8C281E
:102C50002CD102200CE020B10021802802D90122D1
:102C600001E001210022114320D1A07060700320F7
:102C7000207070BDE278802A03D20E4B9854521C0B
:102C8000E270A1706078401E10F0FF006070F0D11B
:102C90000420EDE7A17049B90520E9E78D2805D1A9
:102CA0006089401C6081A06AFFF79EFB257070BDA3
:102CB000A0000020AC84012070B5FDF72BFB144A66
:102CC0001178491C1170FDF729FB124C40F2255573
:102CD0002946204600F025FF48B1204600F0B4FF09
:102CE000C0B2FFF79BFF2946204600F003FF40F2E9
:102CF00027752946204600F014FF28B100F048F857
:102D00002946204600F0F6FEBDE87040FFF7C6B940
:102D1000460000200048004010B5044600F018F8B6
:102D200060640020206410BD10B500F011F8054962
:102D30000968D1E91023C31A1A440A6402490968D0
:102D4000486410BD640000206C000020AFF30080D8
:102D500070B5FDF789FA054600F010F806490A89B2
:102D60000881821A886992B2841828468C61FDF71E
:102D70007FFA204670BD0000A00000204FF0804088
:102D800000F003BE0146014800F062BF0048004069
:102D90002DE9F0414A4F04263846BB798189828A61
:102DA0000025C089092B73D2DFE803F00518252F11
:102DB000737B44505C0011430BD08C20FFF7E2FF83
:102DC000386A401C38620120F871B871FD81BDE895
:102DD000F081FD71BDE8F04100F076B8ED20FFF71D
:102DE000D1FF386A401C3862B88908B1022000E07F
:102DF0000620B871EBE7C8B2FFF7C4FF386A401C81
:102E000038620320B871B8892AE02E490C5C20464C
:102E1000FFF7B8FF386A401C38627879204478712F
:102E2000F889401C80B2F881B9898842CFD3BE713D
:102E3000BD81CCE7521CD0B2FFF7A4FF386A401C1A
:102E400038620720B871B88A401C09E04320FFF7B8
:102E500099FF386A401C38620820B871787943308D
:102E60007871B4E7174980310C5C2046FFF78AFF80
:102E7000386A401C3862787920447871F889401C9F
:102E800080B2F881B98A8842A1D3BE71BD829EE723
:102E900013E07879FFF776FF386A401C3862052026
:102EA000A7E78D20FFF76EFF386A401C3862BD71BE
:102EB0003D82788A401C788289E7BD7189E70000ED
:102EC000A00000202C850120002240F2277101483B
:102ED00000F046BE004800400B484FF47A7100688D
:102EE000B0FBF1F0B0F1807F0DD220F07F414FF0C8
:102EF000E020491E4161054AF021117000218161E5
:102F0000072101617047FEE71C00002023ED00E06F
:102F1000F0B50546807A194C4FF00007205C05EBB0
:102F20000006F67AA45D04EBC004E6B2144C54F833
:102F3000264004F12404E7602160217C21EA02019B
:102F400021746374A4F1240409070BD40D4994F887
:102F50003A208B791A438A71343194F839300A5CFB
:102F60001A430A542946204600F00EF8216A19B186
:102F7000204600F01BF8E5613046F0BD766E000893
:102F8000347701204400002010B590F8382090F8E4
:102F900039408B18E443DA7AE4B22240DA7204D181
:102FA0008A7A90F83A0082438A7210BD30B510F8E0
:102FB000383F827890F801C0D2436FEA0C04E4B243
:102FC000D5B208680DE000BF00EB030C9CF80B20A5
:102FD00022408CF80B2002D1827A2A40827251F86A
:102FE000040F0028F0D130BD30B5154900F10B02B7
:102FF0000B6AD86193F838C093F839301CF8024056
:103000001C430CF802400A6A837A02F13802947871
:1030100043EA04038372137801F134045578E05CC9
:103020006FEA0505EDB22840A2F13802E05405D15F
:1030300092F83A008A7922EA0000887130BD0000D7
:10304000440000200022827211464318491CC9B274
:10305000DA720829F9D3704710B550210E4800F0F4
:1030600085F800200C4A0146431C1C4602EB001068
:103070009BB202EB03130170436008A3C360A0B2CC
:103080000428F1D302EB00100170416003A1C1607C
:103090000348026010BD0000C47F01203F00000013
:1030A0008000002010B54FF4F071114800F05EF878
:1030B00000200F4A0146431C1C4600EB40009BB217
:1030C00002EBC00003EB430302EBC3030170436058
:1030D00008A34361A0B21328EDD300EB400002EB3C
:1030E000C0000170416003A141610348026110BD4D
:1030F000D47301203F0000004400002010B54FF4BD
:10310000F261164800F032F84FF48071144800F074
:103110002DF812490020421C00EB400404EBC000D3
:10312000D3B203EB430401EBC00004EBC30301EB98
:10313000C30343610BA30365D0B21528EBD300EBA7
:10314000400202EBC00001EBC00006A300220365B1
:1031500042610548C262416210BD0000347801201E
:10316000347701203F00000044000020002203E0EB
:10317000491E00F8012B89B20029F9D170470000DF
:1031800010B578210E48FFF7F1FF0D4A002000BF6F
:1031900000EB400102EBC10101F118034B60401C40
:1031A00008A380B24B610428F2D300EB400002EB8D
:1031B000C0000021416003A141610348026010BDCD
:1031C000148001203F0000008400002010B5602121
:1031D0000C48FFF7CBFF0B4A0020411C8BB200EBE1
:1031E000400003EB430302EBC30342F8303088B2E4
:1031F0000328F2D300EB4000002142F830100248CF
:10320000026010BD8C8001208800002070B5FDF7A1
:103210002BF80E4D0446A87898B9E87888B900F0E4
:1032200019F80B48697950F82100A8622A7991426F
:1032300007D0C16B491CC163E868401CE860FDF71A
:103240002AF82046BDE87040FDF712B8440000207F
:10325000347701200649054A01F134038879105C6E
:103260001B5CD25C02EBC00048717047766E0008B0
:10327000440000202DE9F04705462DED028B0E4657
:1032800090469946DDED0A8A9DED0B8ADDF830A067
:10329000FCF7EAFF394F7C6A002C6BD061697962D8
:1032A000FCF7E6FF266084F83650002684F8346088
:1032B00084F83560266384ED018AC4ED038A04F145
:1032C0001C044FEAD50244F8148C24F80CAC24F802
:1032D0000A9CE677227705F007014FF0010000FA1B
:1032E00002F2E176A27700FA01F06077266066606C
:1032F000E660A6602662A662666221A0E662C4E974
:103300000C60A4F11C04304604EB800100F10100C4
:103310004E6510F0FF00F7D02046FFF7C3F82046B7
:10332000FFF764F9FCF7A0FF0146164840F8254076
:10333000F86AC4E9050600B18461FC6204F138044E
:10334000BA79A07840EA0200B8710C48227800F1FE
:1033500034006478835C43EA04038354387A00F1D0
:10336000010038720846FCF783FF0020BDEC028B99
:10337000BDE8F087FCF77CFF4220F7E7440000201F
:103380003F00000034770120054C00BFFCF76CFFC4
:10339000E169491CE161FCF76BFFFFF729F9F5E7EB
:1033A00044000020144C02E0C820FFF77BFA60784C
:1033B0000028F9D0642160690025B0FBF1F060615C
:1033C00018B92570FF20FFF713FAFCF74DFFE169EC
:1033D000C4E90615FCF74CFFD4E90510B0FBF1F089
:1033E000C0F164002070FFF78BF900F007F864204B
:1033F000FFF758FAE9E70000440000207CB50C4DC7
:10340000002469462046FFF77DF958B955F8240095
:1034100040B1012806D0D0E9021201EB820181649B
:103420000199C164641CE4B23F2CEAD97CBD000060
:1034300034770120D30707D0920705D50022002951
:1034400002D004C0491EFAE770470000044A002970
:10345000116801D0014300E0814311607047000012
:1034600030380240044A0029116801D0014300E0CD
:10347000814311607047000040380240044A00292F
:10348000116801D0014300E08143116070470000E2
:1034900020380240044A0029116801D0014300E0AD
:1034A00081431160704700004438024030B5224B20
:1034B0001968224A11F00C0104D05510042903D0D8
:1034C000082903D002601DE005601BE01A49091FAE
:1034D0000C68C4F3805C0C68BCF1000F04F03F047E
:1034E00002D0B5FBF4F201E0B2FBF4F20C6809681B
:1034F000C4F388146243C1F30141491C4900B2FB83
:10350000F1F1016019680E4A01F0F0010909545CFB
:103510000168E14041601C6804F4E054A40A145DB1
:1035200021FA04F484601B6803F460435B0BD25CF3
:10353000D140C16030BD0000083802400024F400D2
:10354000300000202DE9F04F804687B00121032094
:10355000FFF77CFF4FF4003A01215046FFF782FF4E
:1035600001268DF804600024DFF8D8B04FF400473E
:103570008DF80640022500978DF80550694658469B
:10358000FEF742F8DFF8C090072202214846FEF716
:1035900079F8072203214846FEF774F88DF80450A5
:1035A00004208DF8064000908DF805508DF80760D6
:1035B00069464846FEF728F8082000908DF8045028
:1035C0008DF8074069464846FEF71EF8012150462F
:1035D000FFF754FF00215046FFF750FFADF81040B1
:1035E0000C201A4DADF80C40ADF81200CDF8088053
:1035F000ADF80E40ADF8144002A9284600F0C8FA14
:103600004FF4A060FEF790FC26208DF818008DF88E
:1036100019408DF81A408DF81B6006A8FEF752FC81
:10362000012240F22551284600F09AFA012128464D
:1036300000F066FA39465846FEF73BF807B0BDE899
:10364000F08F0000000402400000024000440040EF
:103650002DE9F047DFF8509006460D464FF400483C
:1036600041464846FEF727F80024104F0BE0402162
:10367000384600F04FFA0028F9D0315D384600F0A6
:10368000E7FA641CE4B2AC42F1D34021384600F0C2
:1036900041FA0028F9D00649002008704146484602
:1036A000BDE8F047FEF705B80004024000440040C2
:1036B00000000020704700002DE9F04105460E464D
:1036C0000024114F1BE028064FF04001384602D479
:1036D000FDF7EFFF01E0FDF7EEFF80213846FDF733
:1036E000E8FF012002F012F880213846FDF7E3FFE1
:1036F000012002F00BF86806050E641CE4B2B44227
:10370000E1D3BDE8F08100000004024070B50A4D2D
:10371000044620212846FDF7CCFF03218020FFF737
:10372000CBFF09212046FFF7C7FF2846BDE87040C0
:103730002021FDF7C0BF0000000402402DE9F04148
:1037400005460E460024104F17E0E8074FF04001F1
:10375000384616D0FDF7AFFF80213846FDF7A9FFA8
:10376000012001F0D3FF80213846FDF7A4FF01209E
:1037700001F0CCFF6D08641CE4B2B442E5D3BDE8AF
:10378000F081FDF796FFE7E70004024022490020A0
:103790000A6842F480320A604FF4A0630A6800F1BC
:1037A000010012F4003F01D19842F7D1086880036C
:1037B00031D519484030026842F080520260174803
:1037C000026842F4804202601348083002680260D6
:1037D000026842F400420260026842F4A0520260B1
:1037E000031F0F4A1A600A6842F080720A600A6872
:1037F0009201FCD50B4A40F205611160016821F08D
:1038000003010160016841F0020101600168C1F338
:1038100081010229FAD1704700380240007000404F
:1038200008544007003C02404FF0E021042808699A
:1038300003D020F004000861704740F00400FAE76C
:1038400010B5FCF711FD064A1178491C1170FCF700
:103850000FFDFFF75DF8BDE81040FEF71FBC00004C
:1038600046000020124810B5016841F47001016063
:103870001048016841F0010101600E4A0021083240
:10388000116002680C4B1A400260031D0B4A1A605B
:10389000026822F48022026006480C300160FFF7C3
:1038A00075FF03494FF000608039086010BD0000CB
:1038B00088ED00E000380240FFFFF6FE10300024E3
:1038C00010B5FEF7DFFB104C0121204600F05FF839
:1038D000B0B10121204600F04BF80C48C17979B90C
:1038E0000B4C618939B9407802F02CFDA078401C5E
:1038F000A070608920B16089401E60810120A070A5
:10390000BDE81040FEF7CABB00080040447101202A
:10391000000000207FB504460D4601210420FFF77A
:10392000A1FD0194ADF800500024104DADF8084001
:10393000ADF802406946284600F03CF801221146E5
:10394000284600F02FF81E208DF80C008DF80D4051
:1039500003208DF80E0001208DF80F0003A8FEF75C
:10396000B1FA0121284600F006F87FBD00080040AA
:10397000C943018270470029018802D041F001014A
:1039800001E021F0010101807047406A7047038A1D
:10399000002280890B4200EA010001D000B101221F
:1039A00010467047002A828901D00A4300E08A430A
:1039B0008281704730B50288174B184C98420DD061
:1039C000A0420BD0B0F1804F08D0154DA84205D0D1
:1039D000144DA84202D0144DA84204D122F0700C1C
:1039E0004A8842EA0C02114DA84207D0104DA84265
:1039F00004D022F4407C0A8942EA0C0202804A6820
:103A0000C2620A880285984201D0A04201D1897A17
:103A100001860121818230BD000001400004014087
:103A20000004004000080040000C0040001000406E
:103A300000140040F0B591B0FCF76CFC294A1178F5
:103A4000491C1170FCF76AFC274C40F225512046B6
:103A500000F067F8F0B3204600F0F6F8234C01269A
:103A60006D4621780DF80100491CC8B220706844E9
:103A700010F8010C242802D18DF80000267020785F
:103A80000027284410F8010C3F2809D127709DF821
:103A90000100294623280AD0D4F80C00FEF7BEFB0B
:103AA0002078284410F8010C262802D005E020696F
:103AB000F4E726208DF8000026702078284410F8BE
:103AC000010C2A280AD127709DF80100232805D16E
:103AD000694600E002E02069FEF7A0FBFEF7DEFA8F
:103AE00011B0F0BD4600002000440040000000205E
:103AF000FFF7E2B80A0A01219140C94301807047EB
:103B00000029818902D041F4005101E021F40051E3
:103B1000818170470246002012880A4200D00120AD
:103B2000704770B501F01F0601220025C1F3421352
:103B300002FA06F4012B0FD0022B0FD0838A4FEA32
:103B400011210088234202FA01F200EA020001D0AA
:103B500000B10125284670BD8389F0E7038AEEE7AE
:103B6000C1F3421301F01F0C012101FA0CF1012BEA
:103B700007D0022B07D01430002A026805D00A4370
:103B800004E00C30F8E71030F6E78A430260704733
:103B90007FB50446008A0D4620F44051E88808436A
:103BA0002082A08941F20C618843A9882A891143A7
:103BB0006A8902431143A181A08A20F44071A88937
:103BC0000843A0826846FFF771FC1D48844202D07A
:103BD0001C48844201D1039800E00298A18909049D
:103BE000002900EBC00101EB0010296802DA4FEA5E
:103BF000410101E04FEA8101B0FBF1F06422B0FB2A
:103C0000F2F14FEA01114FEA11136FF018056B43FF
:103C100000EB8300A3891D044FF0320306D503EBAC
:103C2000C000B0FBF2F000F0070005E003EB00106D
:103C3000B0FBF2F000F00F00084320817FBD0000D0
:103C400000100140001401408088C0F30800704754
:103C5000C1F3080181807047FEE700002DE9F041C3
:103C6000104F04460D46164620213846FDF721FD2B
:103C70000321A020FFF720FDA006000E0621FFF77C
:103C80001BFD002406E028780421FFF757FD641C83
:103C9000E4B26D1CB442F6D33846BDE8F0412021B1
:103CA000FDF709BD0004024070B50D4E04460D46F7
:103CB00020213046FDF7FDFC0321A020FFF7FCFC8E
:103CC000A006000E0621FFF7F7FC04212846FFF7A7
:103CD00035FD3046BDE870402021FDF7ECBC00000A
:103CE0000004024003B401984100009850EAC1204A
:103CF00018BF04204A0D18BF40F0010040F2FF72C7
:103D0000B2EB515F08BF40F00200012808BF052058
:103D100002B070470000000070B59F482DED020B07
:103D20002DED068B079D25F0004484421DDB9B484A
:103D3000844202DC0FD1069868B19DED060B53EC6E
:103D4000102B51EC100B02F051FBBDEC068B02B0B6
:103D500041EC100B70BD002DCCBF9FED910B9FED82
:103D6000920BBDEC068B02B070BD9148844215DA0F
:103D700090488442A8BF4FF0FF3440DA9DED060B17
:103D800051EC100BFFF7AEFF042808BF00F0A8FAB3
:103D90009DED060BBDEC068B02B070BD9DED060BD4
:103DA00051EC100B01F0CEFC41EC100B82488DED74
:103DB000060B9FED839B84423CDA834884421FDAE2
:103DC00000249FED83AB51EC100B53EC1A2B02F047
:103DD0000DFB9DED060B41EC180B53EC1A2B51EC2F
:103DE000100B02F0A3FD53EC192B02F0DFFE53EC95
:103DF000182B02F0AFFB41EC100B8DED060B49E0E8
:103E0000012453EC192B51EC100B02F0EFFA9DED4D
:103E1000060B41EC180B53EC192B51EC100B02F074
:103E2000C5FE53EC182B02F095FB41EC100B8DED09
:103E3000060B2FE0684884421FDA02249FED68AB2E
:103E400051EC100B53EC1A2B02F070FD53EC192BB4
:103E500002F0CCFA9DED060B41EC180B53EC1A2B3B
:103E600051EC100B02F0A2FE53EC182B02F072FB87
:103E700041EC100B8DED060B0CE053EC102B0324E2
:103E80009FED590B51EC100B02F064FB41EC100B51
:103E90008DED060B9DED060B53EC102B51EC100B2A
:103EA00002F044FD41EC180B53EC182B02F03EFDE0
:103EB00041EC190B4E480621B0EE490AF0EE690AB2
:103EC000784400F091F953EC182B51EC100B02F0F0
:103ED0002DFD41EC180B4748B0EE490AF0EE690A97
:103EE0000521784400F080F953EC192B51EC100BAC
:103EF00002F01CFD41EC100B51EC180B53EC102B95
:103F0000002C0EDA02F072FA9DED061B53EC112B19
:103F100002F00CFD9DED061B53EC112B02F03AFE56
:103F200035E002F063FA9DED061B53EC112B02F015
:103F3000FDFC41EC100B3048784400EBC40090EDE0
:103F4000001B51EC100B53EC112B02F02FFE9DEDDA
:103F5000061B53EC112B02F029FE41EC100B2748F5
:103F6000784400EBC40090ED001B51EC100B53ECB7
:103F7000112B02F00FFE41EC100B002DA2BFBDEC87
:103F8000068B02B070BD51EC100B02F0F1F941EC60
:103F9000100BFFE600000000000010440000F07F5E
:103FA000182D4454FB21F93F182D4454FB21F9BF2F
:103FB0000000DC3F0000203E0000F33F0000000056
:103FC000000000000000F03F0000E63F000000009D
:103FD00000000000000000400080034000000000DE
:103FE000000000000000F83F000000000000F0BFEB
:103FF0002C970000E29600006C96000024960000CA
:1040000070B5694E2DED040B2DED028B82B0DDE90C
:10401000053C079ACCF1000422F000414CEA04046C
:1040200041EAD474049D23F00040B44205D86C42A8
:104030002C4340EAD474B44210D99DED060B53ECE6
:10404000102B9DED040B51EC100B02F0CFF941EC5D
:10405000100B02B0BDEC028B04B070BDA2F1405455
:10406000A4F17F6454EA0C040BD0022404EAA27485
:1040700044EAD37405439FED4E8B9FED4F2B07D041
:1040800010E09DED040B51EC100B00F0CBF93BE080
:10409000002C14BF012C9DED040BDAD0022C36D07D
:1040A000032C39D051EA0C0C9FED451B9FED460BBC
:1040B0000AD0B14219D1B04209D121F0804120F09B
:1040C00080400791059010E0002BC2DA11E0DFF884
:1040D00000C1FC44002C08BF9CED000BB9D0012CA2
:1040E0000CD0022C13D0032C16D0B04219D1002BC7
:1040F000AFDAB0EE410AF0EE610AAAE79CED000BE0
:1041000051EC100B02F034F941EC100BA1E7B0EECA
:10411000480AF0EE680A9CE7B0EE420AF0EE620A46
:1041200097E7401A00153C2816DC002ABCBF10F1A6
:104130003C0F9FED290B0FDB9DED060B53EC102B75
:104140009DED040B51EC100B02F004FA01F0FAFAA9
:1041500000F068F941EC100B002C8DED000B3FF4E2
:1041600078AF012C10D0022C9FED1D0B53EC102BBF
:104170009DED000B51EC100B0ED002F017FD53EC2F
:10418000182B02F013FDBFE710EE900A80F00040FC
:1041900001909DED000B5CE702F008FD53EC182B3D
:1041A00002F0F8FCB0E700000000F07F0000000023
:1041B000182D4454FB210940182D4454FB2109C0FB
:1041C000182D4454FB21F9BF182D4454FB21F93F0D
:1041D0004A95000000000000000000000000000000
:1041E000075C143326A6A13C70B505462DED028B65
:1041F0004C1E00EBC400B0EE408AF0EE608A90EDF9
:10420000000B34F0060017D053EC182B51EC100BB8
:1042100002F08CFB41EC100B641E05EBC40090ED2A
:10422000001B51EC100B53EC112B02F0DFF841ECAA
:10423000100B34F00600E7D1022C36D0042C1CD031
:10424000062C1CBFBDEC028B70BD53EC182B51EC3F
:10425000100B02F06BFB95ED0A1B53EC112B02F0D7
:10426000C5F853EC182B02F061FB95ED081B53ECDD
:10427000112B02F0BBF841EC100B53EC182B51EC56
:10428000100B02F053FB95ED061B53EC112B02F0C3
:10429000ADF853EC182B02F049FB95ED041B53ECE1
:1042A000112B02F0A3F841EC100B53EC182B51EC3E
:1042B000100B02F03BFB95ED021B53EC112B02F0AF
:1042C00095F853EC182B02F031FB95ED001B53ECE5
:1042D000112B02F08BF8BDEC028B41EC100B70BD82
:1042E0009FED050B10B553EC102B51EC100B02F0A9
:1042F0001DFB41EC100B10BD000000000000001081
:10430000F0B500234FF480625C1E02EBD27504EB23
:10431000650419E05E1C00EE106A00EB8307B8EE3E
:10432000C00AD7ED000A20EE800A87ED000A00EEF1
:10433000106A01EB83075B1CB8EEC00AD7ED000AD8
:1043400020EE800A87ED000A9C42E3DA6B10561ECD
:104350001DE000BFA2EB030CACF1010C00EE10CA93
:1043600000EB8307B8EEC00AD7ED000A20EE200A62
:1043700087ED000A00EE10CA01EB83075B1CB8EE64
:10438000C00AD7ED000A20EE200A87ED000AB342EA
:10439000E0DB00221BE000BF02EB650300EB8306BD
:1043A00000EB820796ED000AD7ED000A01EB8303CC
:1043B00030EE200A86ED000A01EB820693ED000A3A
:1043C000D6ED000A521C30EE200A83ED000A94421A
:1043D000E2DC00220FE000BF02EB650300EB830686
:1043E00001EB830356F8046C40F8226053F8043C58
:1043F00041F82230521C9442EEDAF0BDB5EEC00A0C
:10440000F1EE10FA05DDF1EEC00AC0ED000A002061
:1044100070479FED030A80ED000A4FF0FF307047B0
:104420000000000010B541EC100BFFF775FC51ECDB
:10443000100B10BDC9B261F31F2070472DE9F05F6A
:1044400000242DED108BADF5625D0DF58050A0467A
:10445000DFEDFDFA44624FF0010AB0EE6F0A80ED25
:10446000050A80ED060A4FF4007002900DF58050A9
:10447000A1460462046180ED070AFCF7E7FEFCF741
:1044800019FEF24DE8882E89801B02F0E8F99FEDB5
:10449000F01B53EC112B02F049FA9FEDEF1B53EC8C
:1044A000112B02F043FA01F06FFF42F2340169442C
:1044B00041F82400A888801B02F0D1F99FEDE41B8D
:1044C00053EC112B02F032FA9FEDE31B53EC112B4E
:1044D00002F02CFA01F058FF41F23401694441F82E
:1044E0002400242001F012F9641C9FEDDDDB9FED18
:1044F000DEAB9FEDDFEB9FEDE0BB9FEDE1CBB4F5D5
:10450000806FBFDB42F234016944A1F58050FFF7B0
:10451000F7FE0DF5805043F64C01CDF800A069443C
:10452000036AA1F118042046029AFCF7FBF804AADA
:10453000A4F520512046FCF77FF80DF580500126A8
:104540000661079802F01CFC41EC180B069802F07B
:1045500017FC41EC100BB0EE481AF0EE681AFFF7AA
:104560004FFDB0EE409AF0EE609AA4F5006104A809
:10457000029AFBF749FF029841F2100347086B4487
:104580001A1D3946A4F500600397FCF705F90DF5EF
:10459000805090ED050A9FEDBCFAC0EE0F0ABCEE0C
:1045A000E00A10EE100A80B202F070F99FEDB71B1E
:1045B00053EC112B01F0CEFF02F024F9B54904AA07
:1045C0000880A4F5C0512046FCF736F80DF580515F
:1045D00004A8096900EBC104606802F0D1FB41EC5A
:1045E000180B206802F0CCFB41EC100BB0EE481A1F
:1045F000F0EE681AFFF704FD43F23401B0EE408A92
:10460000F0EE608A694404A8029AFBF7FDFE41F2CD
:1046100010036B4443F2340003F108023946684446
:10462000FCF7BAF80DF58051DFF86CB291ED060A8F
:10463000C0EE0F0ABCEEE00A10EE100A02F026F9F6
:104640009FED961B53EC112B02F070F902F0DAF893
:10465000CBF8000053EC182B51EC190B02F0A6FA22
:104660000746009101F090FE00EE100AFBF764FE91
:1046700020EE0F0A8B49BCEEC00A10EE100A08703B
:10468000009941EC107B51EC100B01F07DFE00EE27
:10469000100AFBF751FE0099B0EE40FA41EC107B96
:1046A00051EC100B01F070FE00EE100AFBF744FE17
:1046B000F0EE400AB7EE000A41F21C000FEE600A6D
:1046C0006844FFF79BFE7348DBF800100DF580543B
:1046D0000088B2EE041A484300EE100AF8EE400AD1
:1046E00094ED070A60EE800AC0EE811AFCEEE10A42
:1046F00010EE901A00EE900AF8EE600A20EE800AA2
:10470000DFED690A2163694A80EE201ABCEEC10A16
:1047100010EE101A118002F0B9F89FED651B53ECF2
:10472000112B02F003F99FED641B53EC112B01F0E8
:1047300011FF02F067F880B2E06253EC192B51ECE4
:10474000180B02F033FA9FED5E1B53EC112B02F0B5
:10475000EDF89FED5D1B53EC112B01F0FBFE53ECCC
:104760001D2B02F023FA41EC180B53EC1A2B02F02C
:10477000DBF92CD253EC1D2B51EC180B02F09AF8FC
:1047800000D2EE7053EC1D2B51EC180B02F0CCF95B
:104790000AD29FED4F0B51EC180B53EC102B02F08B
:1047A00089F801D285F803909FED490B51EC180B65
:1047B00053EC102B02F0B8F945D29FED470B51ECAA
:1047C000180B53EC102B02F075F83CD2ABE053EC15
:1047D0001A2B51EC180B02F06DF834D853EC1E2B49
:1047E00051EC180B02F0A0F907D853EC1B2B51EC3D
:1047F000180B02F05FF800D2EE7053EC1B2B51EC5B
:10480000180B02F091F908D853EC1C2B51EC180B43
:1048100002F050F801D285F803909FED310B51EC76
:10482000180B53EC102B02F07FF907D853EC1E2B1A
:1048300051EC180B02F03EF800D2EE709FED2A9B6F
:1048400053EC192B54E070E0000000000000002041
:104850006666666666660A40000000000000303F3B
:104860000000000000805640000000000000000032
:1048700000000000008076C00000000000E070C072
:1048800000000000008066C00000C84266666666E0
:1048900066E604400201002010010020A52C431C04
:1048A000EBE2F03FFE00002000007A440801002007
:1048B000B3EA73B515FBD33F0000000000408F4002
:1048C00000000000008076401C2D4454FB2119405C
:1048D00000000000008066400000000000E0704022
:1048E0000000000000207CC000000000008056C0D6
:1048F00051EC180B02F018F907D253EC1A2B51ECBB
:10490000180B01F0D7FF00D8EE7053EC1C2B51ECC4
:10491000180B02F009F908D253EC192B51EC180BC3
:1049200001F0C8FF01D885F8039000202521CDE9CA
:10493000000103460246212100F030FEFCF796FC00
:10494000FCF7C8FB1FED400A0DF58050002480EDF8
:10495000050A80ED060A1FED42AB1FED41BB4FF487
:10496000806BE8882F89C01B01F079FF53EC1A2B6C
:1049700001F0DCFF53EC1B2B01F0D8FF01F004FD2C
:1049800042F23401694441F82400A888C01B01F0B8
:1049900066FF53EC1A2B01F0C9FF53EC1B2B01F0FF
:1049A000C5FF01F0F1FC41F23401694441F82400F3
:1049B000242000F0ABFE641C5C45D2DB42F23401E3
:1049C0006944A1F58050FFF79BFC0DF5805043F63C
:1049D0004C01CDF800A06944036AA1F118042046F7
:1049E000029AFBF79FFE04AF3A46A4F520512046F9
:1049F000FBF722FE0DF580500661079802F0C0F922
:104A000041EC180B069802F0BBF941EC100BB0EE2C
:104A1000481AF0EE681AFFF7F3FAA4F50069B0EE51
:104A2000409AF0EE609A49463846029AFBF7ECFC51
:104A300007F580531A1D48460399FBF7ADFE0DF5A7
:104A4000805090ED050A1FED70EAC0EE0E0ABCEE34
:104A5000E00A10EE100A80B201F018FF1FED75CBCE
:104A600053EC1C2B01F076FD01F0CCFEFE493A46DA
:104A70000880A4F5C0512046FBF7DEFD0DF58050FF
:104A8000006907EBC004606802F07AF941EC180B8A
:104A9000206802F075F941EC100BB0EE481AF0EE08
:104AA000681AFFF7ADFAB0EE408AF0EE608A494628
:104AB0003846029AFBF7A8FC07F5805303F1080279
:104AC00048460399FBF768FE0DF58050E74F90EDDF
:104AD000060AC0EE0E0ABCEEE00A10EE100A01F063
:104AE000D5FE1FED92DB53EC1D2B01F01FFF01F0F3
:104AF00089FE386053EC182B51EC190B02F056F874
:104B0000894649EC100B044651EC100B01F03CFCBB
:104B100000EE100AFBF710FC20EE0E0AD449BCEEA2
:104B2000C00A10EE100A49EC104B087051EC100B43
:104B300001F02AFC00EE100AFBF7FEFBB0EE408A03
:104B400049EC104B51EC100B01F01EFC00EE100A6A
:104B5000FBF7F2FBF0EE400AB7EE000A41F21C0050
:104B600008EE600A6844FFF749FCBF4839680088CE
:104B7000484300EE100A0DF58051F8EE400A91ED21
:104B8000070A20EE801AF2EE040AC1EE201AFCEEAB
:104B9000E10A10EE909A00EE900AF8EE600A60EEDC
:104BA000800A1FEDBF0AB34A80EE801ABCEEC10A2C
:104BB00010EE101A118001F069FE1FEDC3EB53ECEB
:104BC0001E2B01F0B3FE1FEDC4FB53EC1F2B01F0B5
:104BD000C1FC01F017FE81B20DF58050816200200A
:104BE0004021CDE9000103460246212100F0D6FC18
:104BF000FCF74CFBFCF77EFA1FEDED0A0DF580503B
:104C000080ED050A1FEDF00A002480ED060A9A4D9A
:104C1000E8882F89C01B01F022FE53EC1A2B01F00B
:104C200085FE53EC1B2B01F081FE01F0ADFB42F23F
:104C30003401694441F82400A888C01B01F00FFE2C
:104C400053EC1A2B01F072FE53EC1B2B01F06EFE9D
:104C500001F09AFB41F23401694441F82400242018
:104C600000F054FD641C5C45D1DB42F23401694420
:104C7000A1F58050FFF744FB0DF58050CDF800A062
:104C800043F64C01036A6944A1F11800029AFBF74C
:104C900049FD41F23401694404AA01F52050FBF7B3
:104CA000CBFC0DF58050B3460661079802F068F81A
:104CB00041EC180B069802F063F841EC100BB0EED3
:104CC000481AF0EE681AFFF79BF943F23401B0EE90
:104CD000409AF0EE609A694404A8029AFBF794FBAC
:104CE00041F210036B4443F234001A1D68440399E7
:104CF000FBF752FD0DF5805090ED050ADFED5F0AE0
:104D000080EE201ABCEEC10A10EE100A80B201F04B
:104D1000BDFD53EC1C2B01F01DFC01F073FD584947
:104D200004AA088042F23401694401F5C050FBF73F
:104D300083FC0DF5805004A9006901EBC00568688B
:104D400002F01EF841EC180B286802F019F841EC4B
:104D5000100BB0EE481AF0EE681AFFF751F943F263
:104D60003401B0EE408AF0EE608A694404A8029AE9
:104D7000FBF74AFB41F210036B4443F2340003F1AA
:104D8000080268440399FBF707FD0DF58050DFED3D
:104D90003B0A90ED060A80EE201ABCEEC10A10EE26
:104DA000100A01F073FD53EC1D2B01F0BFFD01F063
:104DB00029FD344953EC182B086051EC190B01F014
:104DC000F5FE0E4646EC100B054651EC100B01F0BB
:104DD000DBFA00EE100AFBF7AFFADFED280A2A49EA
:104DE00020EE200ABCEEC00A10EE100A46EC105B62
:104DF000087051EC100B01F0C7FA00EE100AFBF737
:104E00009BFAB0EE408A46EC105B51EC100B01F0BF
:104E1000BBFA00EE100AFBF78FFAF0EE400AB7EE8D
:104E2000000A41F21C0008EE600A6844FFF7E6FA47
:104E30001348144900880968484300EE100A0DF52C
:104E40008051F8EE400A91ED070A20EE801AF2EE4A
:104E5000040AC1EE201AFCEEE10A10EE907A00EE90
:104E6000900AF8EE600A11E004010020140100200D
:104E7000FF0000200A010020000000200000C842BE
:104E800006010020180100200001002060EE800AC9
:104E90009FEDF60AF64980EE801ABCEEC10A10EECC
:104EA000102A0A8001F0F2FC53EC1E2B01F03EFDAB
:104EB00053EC1F2B01F04EFB01F0A4FC054600262D
:104EC0002120CDE90060014633463246304600F0ED
:104ED00065FBE848E849008809880844E7490988EB
:104EE000084401F0D3FC9FEDE61B53EC112B01F0BD
:104EF0001DFD9FEDE51B53EC112B01F02BFB01F089
:104F000081FCE34900231A460880E248E249006830
:104F100009680844E149096801440320B1FBF0F045
:104F2000DF490860DF480178DF4800780844DF493E
:104F3000097808440321B0FBF1F0DD4908700DF554
:104F40008051086B642148443844B0FBF1F0D949E2
:104F5000088041F22800684403C8084428441FFA26
:104F600080F9D54D002000906878194600F07AFE4F
:104F700005F11300D149007808704FF47A7000F001
:104F8000A7FBCB4805F29F1A05F1550700785A2870
:104F900034D2CB48C078012830D105F134021078E2
:104FA00060B3C44901249646B1F800C00AE000BFCE
:104FB0001EF804100AEBC1029378634501D21279FE
:104FC00022B1641CA042F3DA012415E0CDF800B050
:104FD000012368781A4600F045FE51465846CDF840
:104FE00000B01FE01EF804100AEBC102D37863453D
:104FF00001D252795AB1641CA042F3DAAC4800786D
:105000005F285DD9AE48C078012823D058E0CDF89C
:1050100000B068780223012200F024FE51460220ED
:10502000CDF800B0A44A0391CDE90107343212F85B
:1050300004C0012201EBCC0160468B79897800F035
:1050400073FF4FF47A7000F043FB0DF5805001219F
:105050004162D3E7984934310B788BB395480124EA
:105060000088A0EB090089460CE000BF19F8041085
:105070000AEBC10292F802C0604502DA1279012AF5
:1050800004D0641CA342F1DA012417E00096012346
:1050900068781A4600F0E6FD51465846CDF800B053
:1050A0001DE000BF19F804100AEBC10292F803C01A
:1050B000604502DA5279012A07D0641CA342F1DA72
:1050C0000DF58050406AE8B10CE100966878022343
:1050D000012200F0C7FD51460220CDF800B0039137
:1050E000CDE9010719F80400002201EBC0018B791A
:1050F000897800F019FF4FF47A7000F0E9FA4FF068
:105100000108DDE7DFF8B09109F1130919F804008F
:1051100000EB400101EBC000384481786948008809
:10512000814218D25F4800785A2814D26448C07867
:10513000012810D199F80010484661B1012408E017
:10514000025D02EB420303EBC2023A445279BAB168
:10515000641CA142F4DA19F8040000EB400101EBF1
:10516000C00059493844C078098888423ED24E4828
:1051700000785A283AD25248C078012825D035E024
:105180002821CDE900B1012319F8041068781A46E6
:1051900000F004FACDE9006BCDE9027A19F804C0F9
:1051A00001220CEB4C0000EBCC00C11960460B7ADD
:1051B000897800F0B9FE19F8040000EB400202EB18
:1051C000C000384480F805B0C5E799F8001048469B
:1051D00061B1012408E0025D02EB420303EBC2026D
:1051E0003A449279C2B1641CA142F4DA19F804106D
:1051F000484601EB410202EBC10139440A791C49DE
:1052000009888A426ED2294909785A296AD22C49DA
:10521000C978012926D065E02821CDE900B119F827
:10522000041068780223012200F0B8F901A80221D5
:105230000096A0E8820419F804C001220CEB4C008F
:1052400000EBCC00C11960460B7A897800F06CFE47
:1052500019F8040000EB400202EBC000384480F86B
:1052600006B0C3E7017889B3012439E000007A442D
:105270000C01002002010020040100200601002092
:1052800083C0CAA145B6FB3F0000000000000840F3
:105290001E01002010010020140100201801002030
:1052A00024010020FE000020FF000020000100205B
:1052B0001C01002020010020447101200101002078
:1052C00000000020080100200A0100200AE0025D21
:1052D00002EB420303EBC2023A44D27932B1641CBE
:1052E000A142F4DAB8F1000F26D097E02821CDE9E9
:1052F00000B119F8041068780323012200F04EF978
:1053000001A803210096A0E8820419F804C0012234
:105310000CEB4C0000EBCC00C11960460B7A89788D
:1053200000F002FE19F8040000EB400202EBC0009E
:10533000384480F807B0D5E7934800785F2820D933
:105340009248C07801281CD1914C2078C8B101281E
:1053500017DB2820CDE900600123617868781A46C0
:1053600000F01CF9CDE9006BCDE9027A60780022EB
:1053700000EB400101EBC00139440B7A897800F061
:10538000D3FD844800785F2821D98048C07801285F
:105390001DD17F4C2078D0B1012818DB2820CDE921
:1053A0000060617868780223012200F0F7F801A814
:1053B00002210096A0E882046078002200EB400100
:1053C00001EBC00139440B7A897800F0ADFD7248D9
:1053D00000785F2822D96D48C07801281ED16C4C16
:1053E000207800286DD001286BDB2820CDE90060F3
:1053F000617868780323012200F0D0F801A8032126
:105400000096A0E882046078002200EB400101EBE6
:10541000C00139440B7A897800F086FD5B48C0787A
:1054200000284ED1DFF8689109F1210999F80000B0
:10543000F0B3012408E000BF19F804200AEBC20110
:105440000979012907D0641CA042F5DAB8F1000FF0
:1054500037D1012414E00096012319F8041068786C
:105460001A4600F0FFFB51465846CDF800B016E052
:1054700019F804200AEBC2014979012903D0641C00
:10548000A042F5DA26E0009619F8041068780223A5
:10549000012200F0E7FB51460220CDF800B0039155
:1054A000CDE9010719F8040001EBC0018B7900E098
:1054B0000DE08978002200F037FD4FF47A7000F09B
:1054C00007F90DF5625DBDEC108BBDE8F09FB8F1FA
:1054D000000FF6D12E4C20780028F2D0012817DBDF
:1054E0002820CDE900600123617868781A4600F031
:1054F00055F8CDE9006BCDE9027A6078002200EB27
:10550000400101EBC00139440B7A897800F00CFDB1
:105510002078012818DB2820CDE9006061786878C0
:105520000223012200F03AF801A802210096A0E827
:1055300082046078002200EB400101EBC001394495
:105540000B7A897800F0F0FC20780128B9DB28205C
:10555000CDE90060617868780323012200F01EF82D
:1055600001A803210096A0E882046078002200EBE5
:10557000400101EBC00139440B7A897800F0D4FC7A
:105580000DF5625D9FE70000FE0000200000002096
:1055900057710120FF00002000010020F0B42427F3
:1055A000DDE904C52A4C3F26252D18D0402D28D0F2
:1055B000212D39D0282D49D127706070A170E2705B
:1055C0002448237184F805C00088A071000AE071A6
:1055D00025726672F0BC0A211D48FEF739B81E48D4
:1055E000277000886070000AA0701C480068E07096
:1055F000000A20711A4800886071000AA0711948D9
:1056000010E01948277000886070000AA0701748E1
:105610000068E070000A2071154800886071000A77
:10562000A07114480078D2E7134827700088607092
:10563000000AA07011480068E070000A207110484C
:1056400000886071000AA0710E48EBE7F0BC70475B
:10565000287101201E0100200201002010010020FD
:1056600008010020FE000020040100201401002099
:105670000A010020FF000020060100201801002080
:105680000C0100200001002010B56FF00400FEF7AF
:10569000CBF80C484FF47A7201680B48B1FBF0F07C
:1056A0000A490870504301224A804FF0E0210A69FC
:1056B00042F002020A614861086940F00100086195
:1056C00010BD00001C00002000127A00CC00002059
:1056D00070B504460B48007801280CD10A4D688843
:1056E000844203D3B4FBF0F0FDF7DCF86888B4FB28
:1056F000F0F100FB11444FF47A706043BDE8704054
:1057000000F004B84B000020CC00002030B54FF072
:10571000E0240022D4F814C00949A3690978484359
:10572000A1699942FCD002D2A3EB010302E0ACEBE9
:1057300001052B441A440B468242F1D330BD0000D0
:10574000CC00002041EC100B82B010EE900A8DEDE1
:10575000000B20F0004001909DED000B02B051ECD9
:10576000100B70472DE9FF470126234D00274FF00E
:10577000030AB146A5F5A5744FF002080023CDE950
:1057800000791A4619463046CDE9024500F0CCFBB7
:105790000023CDE900781A4619463046CDE9024586
:1057A00000F0C2FB0023CDE9007A1A4619463046C4
:1057B000CDE9024500F0B8FB761CF6B21D2EDDD90E
:1057C00001264F46002300971A4619463046019796
:1057D000CDE9024500F0A8FB0023CDE900781A4688
:1057E00019463046CDE9024500F09EFB761CF6B224
:1057F0001D2EE7D9BDE8FF87E3720120074800218D
:105800002622C1710270012242708170C170017143
:10581000417181712A210172704700004471012099
:10582000F0B585B00646002000901A480C46154693
:10583000407800230222314600F014FA164804AAE8
:105840004FF47A710069FCF77DFC9DF810100A296D
:1058500006D02A46214600F0E1FA012005B0F0BD4D
:105860000127002300971A46194630460197CDE9D3
:10587000024500F059FB0DF1040C02200097ACE842
:10588000310000231A461946304600F04DFB002037
:10589000E4E700004471012000000020F0B585B06D
:1058A000064628200027CDE9007020480C46154602
:1058B00040783B4602223146FFF770FE1C4804AA9E
:1058C00064210069FCF73EFC9DF810100A2906D0FF
:1058D0002A46214600F0BBFA012005B0F0BD0DF1CB
:1058E000040C01200097ACE8310000231A46194649
:1058F000304600F019FB0DF1040C02200097ACE8D3
:10590000310000231A461946304600F00DFB0DF118
:10591000040C03200097ACE8310000231A46194616
:10592000304600F001FB0020D7E700004471012061
:10593000000000202DE9F05FDFF81C924FF40066B4
:10594000002431464846FBF7ADFE844D4FF0010878
:10595000002872D1287800286FD00027B2462F7017
:1059600040F6B83B4E4606E05846FFF7CFFE641CB3
:10597000E4B2B42C07D251463046FBF793FE002820
:10598000F2D0B42C07D3AF70FBF7F7FDE878BDE891
:10599000F05FFBF7E5BFA878012854D16878401C78
:1059A000C0B268700C2802D9404685F80180C0B2A8
:1059B0000D2848D2DFE800F047070C11181C2026FC
:1059C0002A2E343A4200FBF7D8FD6989A87908E00D
:1059D000FBF7D3FDA989E87903E0FBF7CEFDE98960
:1059E000287AFBF76BFE2EE0FBF7C7FDA86906E0FF
:1059F000FBF7C3FDE86902E0FBF7BFFD286AFBF790
:105A0000C7FE20E0FBF7B9FD288A06E0FBF7B5FDED
:105A1000688A02E0FBF7B1FDA88AFBF753FF12E0AA
:105A2000FBF7ABFD687AFBF7CBFF0CE0FBF7A5FDBE
:105A3000E9786879FBF7F8FE05E019E0FBF79DFDD2
:105A40002879FBF7EDFFA87800287DD1E878401C85
:105A5000C0B2E870202800D9EF70FBF78EFDE8781F
:105A6000FBF77EFFE978BDE8F05F1020FBF7BBBCD9
:105A7000B24631464F464846FBF714FE012869D12D
:105A8000464685F8008040F6C41806E04046FFF719
:105A90003DFE641CE4B2C82C07D251463846FBF7E1
:105AA00001FE0128F2D0C82C54D3AE7068780D28BE
:105AB00050D2DFE800F04F070C11191D21282C30BF
:105AC000373E4600FBF759FD6989A87908E0FBF7E6
:105AD00054FDA989E87903E0FBF74FFDE989287AAD
