:020000040800F2
:10000000B860002029020008CF190008A5190008CF
:10001000CD1900086B140008FB2200080000000046
:100020000000000000000000000000005D2000084B
:10003000F514000800000000AB020008E9210008E8
:10004000430200084302000843020008430200087C
:10005000430200084302000843020008430200086C
:10006000430200084302000843020008430200085C
:10007000430200084302000843020008430200084C
:10008000430200084302000843020008430200083C
:10009000430200084302000843020008430200082C
:1000A000430200084302000843020008430200081C
:1000B000430200084302000843020008430200080C
:1000C00043020008430200084302000843020008FC
:1000D0004302000843020008430200086D220008A2
:1000E00043020008430200084302000843020008DC
:1000F00043020008430200084302000843020008CC
:1001000043020008430200084302000843020008BB
:1001100043020008430200084302000843020008AB
:10012000430200084302000843020008430200089B
:10013000430200084302000843020008430200088B
:10014000430200084302000843020008430200087B
:10015000430200084302000843020008430200086B
:10016000430200084302000843020008430200085B
:10017000430200084302000843020008430200084B
:10018000430200084302000800F002F800F03CF8C7
:100190000AA090E8000C82448344AAF10107DA45E2
:1001A00001D100F031F8AFF2090EBAE80F0013F0F8
:1001B000010F18BFFB1A43F001031847249F0000EA
:1001C000449F0000103A24BF78C878C1FAD852077B
:1001D00024BF30C830C144BF04680C6070470000C1
:1001E0000023002400250026103A28BF78C1FBD840
:1001F000520728BF30C148BF0B6070471FB503F0DE
:100200008EFB1FBD10B510BD00F022FF1146FFF799
:10021000F5FF02F06BFD00F040FF03B4FFF7F2FFC3
:1002200003BC00F041FF000009488047094800472F
:10023000FEE7FEE7FEE7FEE7FEE7FEE7FEE7FEE796
:10024000FEE7FEE704480549054A064B70470000F3
:100250000D22000889010008B85A0020B86000206B
:10026000B85C0020B85C0020EFF3108072B67047D5
:1002700080F3108870471D484FF0FF010170002087
:1002800080F309881A48012101701A484FF0805103
:10029000016062B6FEE717484FF080510160704779
:1002A00014484FF080510160704772B6EFF3098037
:1002B00028B1203880E8F00F0F490968086000B5C0
:1002C0000E4880475DF804EB0D480E490A7802702D
:1002D00009480D490A680260106890E8F00F203064
:1002E00080F309884EF0040E62B6704722ED00E0FC
:1002F0003700002004ED00E050000020B91A00088B
:1003000034000020350000205800002072B67047ED
:1003100062B67047EFF3108072B6704780F31088B2
:100320007047B0FA80F0704790FAA0F0704730BF85
:10033000704720BF70470000DFED2E0AB5EEC00AFF
:1003400060EE200ABDEEE01A11EE100AF1EE10FA8E
:1003500038BF401E00EE100ADFED271AF7EE005AF4
:10036000B8EEC00ADFED274A244930EEC01A21EE6C
:10037000210AFCEEC00A10EE900A00EE900A01EB92
:100380008000B8EE600ADFED1E0AF0EC012A11EEE3
:10039000210AF6EE001AB0EC013AF0EC013A20EE38
:1003A000001A20EE216A40EE615A20EE245A21EE16
:1003B000212A90ED004A00EE602A66EE010A40EE26
:1003C000400A05EE412A70EEA55AF0EE400A41EED1
:1003D000210A46EE410A25EE011A00EE641A22EEC9
:1003E000820A63EEA00A03EE250A44EE010A30EE0B
:1003F000200A704783F9223E00008043343A000807
:10040000ABAAAA3EABAA2A3E9FED3A0A5FEA920C3B
:1004100053D000BFB0EC011A0B1DF0EC010A21EE25
:10042000011A00EEA01AB5EEC01AF1EE10FAC6BF1E
:10043000F1EEC10AC1ED000A81ED000AF0EC010AFB
:10044000191DB0EC011A60EEA00A41EE010AF5EEAA
:10045000C00AF1EE10FAC6BFF1EEE00AC3ED000AE1
:1004600083ED000AB0EC011A0B1DF0EC010A21EE3D
:10047000011A00EEA01AB5EEC01AF1EE10FAC6BFCE
:10048000F1EEC10AC1ED000A81ED000AB0EC011ADB
:10049000191DF0EC010A21EE011A00EEA01AB5EECA
:1004A000C01AF1EE10FAC6BFF1EEC10AC3ED000AA0
:1004B00083ED000ABCF1010CACD112F0030208BFBD
:1004C000704700BFF0EC010A0B46B0EC011A091DA1
:1004D00060EEA00A41EE010AF5EEC00AF1EE10FA54
:1004E000C6BFF1EEE00AC3ED000A83ED000A521E1A
:1004F000E8D17047000000002DE9F00700EBC109CA
:10050000DDE90778D0F800A0C9F800A007EB0114D6
:10051000D0F804A0251FA9F10406C9F804A003EB34
:10052000C80907F1080C00F1080402EBC8024B1ED1
:1005300031D000BFF2EC011A96ED002A92ED001ABC
:1005400002EBC802B4EC010A121FF4EC012A60EEBF
:10055000210A20EE010A32EE823A02EEA10AD9ED1A
:10056000001A43EE410A09EBC80902EE610A16EDD2
:10057000012A083E42EE210A02EE410AECEC010A91
:10058000ACEC010AB1EE400A85ED000A45ED010A26
:10059000083D5B1ECED190ED000AD0ED010A07EBBD
:1005A000C10130EE600A81ED000A9FED5D0A81ED28
:1005B000010AD0ED000A90ED011A70EE810AC7ED34
:1005C000000A87ED010ABDE8F007704770B400EB40
:1005D000C105DDE903C42D1D002904BF70BC7047AF
:1005E000F2EC011A95ED002A92ED001A02EBC4021A
:1005F000B0EC010A121FF0EC012A60EE210A20EE95
:10060000410A32EE823A02EEA10AD3ED001A43EE1D
:10061000010A03EBC40302EE610A15ED012A083D4D
:10062000491E42EE210A02EE010AECEC010AACEC92
:10063000010AD5D170BC70472DE9F04305464469E5
:10064000807983B00F461646012809D0A3892188F6
:100650003846626800F036F9E87901284ED053E058
:10066000AA88D5E9030307EBC20CD5F80880314608
:100670000CF1040C5AB300BFB0EC011A9CED002A37
:10068000D0ED001A00EBC800B7EC010A001FF7EC30
:10069000012A521E60EE010A20EE610A32EE823A11
:1006A00002EE810A93ED001A43EE210A03EBC80320
:1006B00002EE410A1CED012AACF1080C42EE010ADF
:1006C00002EE210AE1EC010AA1EC010AD4D194ED79
:1006D000040AA38921883046626800F095FAE87917
:1006E00001281CBF03B0BDE8F083E2892188A3681C
:1006F00003B03046BDE8F04300F08CB8E2892188B1
:100700003846A36800F086F8A868CDE90060D5E90E
:100710000323A9883846FFF7EFFE03B0BDE8F08356
:100720000000000070B592B2DDF810C055080260FC
:100730008580184EC66006F50056DBB206610024BF
:10074000837180F807C0802A04BF102282600BD01A
:10075000B2F5007F08BF042212D0B2F5006F14BFBB
:100760004FF0FF3401220BD0002B8C4641614FF03B
:10077000000307D001222946604600F015FC06E080
:100780008260F1E700222946604600F00DFC204619
:1007900070BD0000403E000870B40025B0EC010AB6
:1007A000A1F1010CF0EC010AB4EEE00AF1EE10FA4E
:1007B0003CBFB0EE600A0125ACF10104A446B4F1DF
:1007C000004F0ED3F0EC010AB4EEE00AF1EE10FA9D
:1007D0003CBFB0EE600AA1EB0C05BCF1010CF1D1FD
:1007E00013E0002CC8BF00260FDD00BFF0EC010AAB
:1007F000B4EEE00AF1EE10FA04D2ACEB0605B0EE6E
:10080000600A4D1B761C641EF0D182ED000A1D604B
:1008100070BC70472DE9F0014E0801244FF0000C28
:1008200004EB51076146A6F102082CE061452AD28B
:1008300000EBCC0500EBC104D5ED000A94ED000AF5
:10084000C4ED000A85ED000AD5ED010A94ED010A18
:10085000C4ED010A85ED010A0CEB0705CC1900EB8C
:10086000C50500EBC404D5ED000A94ED000AC4ED03
:10087000000A85ED000AD5ED010A94ED010AC4EDE8
:10088000010A85ED010A00EBC104B44400EBCC0C75
:1008900094ED020ADCED000A891CC4ED020A8CED1D
:1008A000000A94ED030ADCF80450E5608CED010ABF
:1008B000B3F800C089B203EB42034145B6D9BDE8A5
:1008C000F00170472DE9F04F4FEA910C4FF000080E
:1008D0004746644608EB0C0505EB0C0909EB0C06D2
:1008E00000EBC80A00EBC9099AED000AD9ED000A2D
:1008F00099ED012A00EBC50530EE201A30EE600AB2
:10090000DAED010A00EBC60608F1010870EE821A62
:1009100070EEC20A95ED002AD6ED002A641E32EE72
:10092000222A71EE022A31EE421ACAED002A95ED12
:10093000012AD6ED012A32EE222A71EE822A71EEC8
:10094000C21ACAED012A95ED012AD6ED012A96EDCB
:10095000003A4FEA470A32EE622AD5ED002A02EB4E
:10096000CA0B72EEC32A9BED003ADBED013A21EE91
:10097000034A01EEA34A61EE831A41EE631A85ED44
:10098000004A30EE021A30EE420AC5ED011A02EBBF
:10099000C70570EEE21A95ED002A70EEA20AD5EDB9
:1009A000012A21EE023A0AEB070502EBC5051F44B6
:1009B00001EEA23A61EE821A41EE621A89ED003A26
:1009C000C9ED011AD5ED001A95ED011A20EE212A84
:1009D00000EE812A60EEA10A40EE410A86ED002A6F
:1009E000C6ED010A7FF476AF9B044FEA134BE6464F
:1009F000BCF1040F7DD9E0464FEA9C0C4FF0000992
:100A0000CA46BCF1000F75D94FEA490404EB09034B
:100A100002EBC90502EBC40402EBC30395ED001A17
:100A2000D5ED011A94ED000AD4ED010A93ED002AE8
:100A3000D3ED012AD94453468A4573D203EB0C0403
:100A400004EB0C0606EB0C0500EBC30700EBC60637
:100A500097ED003AD6ED003A96ED015A00EBC4044A
:100A600073EE234A33EE633AD7ED013A00EBC50546
:100A700033EE854A73EEC53A94ED005AD5ED005A2F
:100A800035EE255A74EE855A74EEC54AC7ED005A04
:100A900094ED015AD5ED015A35EE255A74EE055AFA
:100AA00034EE454AC7ED015A94ED015AD5ED015A8D
:100AB00095ED006A35EE655AD4ED005A75EEC65ACA
:100AC00024EE806A04EE206A24EE004A04EEE04A36
:100AD00084ED006A73EEE54A73EEA53A84ED014AAF
:100AE00033EE054A33EE453A24EE015A04EEA15A9C
:100AF00001E026E01BE064EE814A86ED005A4344A3
:100B00008B4244EE614A23EE024A03EEA24A63EEB0
:100B1000823AC6ED014A43EE623A85ED004AC5EDE0
:100B2000013A8BD30AF1010AE245FFF46DAF4FEAB7
:100B30008B434FEA9E0E4FEA134BBEF1040F3FF674
:100B40005AAFA1EB0C0100224B1C4FEA9C04002B76
:100B50008CBF1F46BDE8F08F11190E19331900EB39
:100B6000C20500EBC60695ED000AD6ED000A95ED2C
:100B7000012A96ED011A70EE201A70EE600A32EE2C
:100B8000010A00EBC10100EBC30332EE411A91ED03
:100B9000002AD3ED002A6244974232EE222A71EEF7
:100BA000822A31EEC22AC5ED002AD1ED011AD3ED19
:100BB000012A71EEA21A70EE212AC5ED012A70EE0B
:100BC000612A91ED010AD3ED011A93ED003A70EE1E
:100BD000611A91ED000A81ED002AC1ED012A30EE83
:100BE000430A30EEA12A70EEE10A71EE401A31EEAE
:100BF000000A86ED002AC6ED011AC3ED000A83ED56
:100C0000010AA9D8BDE8F08F2DE9F04F4FEA910C09
:100C10004FF000084746644608EB0C0505EB0C0A4C
:100C20000AEB0C0600EBC80900EBCA0AD9ED000A72
:100C30009AED001ADAED012A00EBC50570EE811A73
:100C400070EEC10A99ED011A00EBC60608F1010821
:100C500031EE222A31EE621AD5ED002A96ED003AE5
:100C6000641E72EE832A31EEA23A71EEE21A89ED29
:100C7000003AD5ED012A96ED013A72EE832A32EE62
:100C8000223A32EE622A89ED013AD5ED012A96ED3B
:100C9000013AD6ED003A4FEA470972EEC32A95EDC4
:100CA000003A02EBC90B33EE633ADBED003A9BED01
:100CB000014A61EEA34A42EE444A22EE232A01EEA3
:100CC000842AC5ED004A70EEE21A70EEA20A85EDA4
:100CD000012A02EBC70531EE032AD5ED002A31EED9
:100CE000431A95ED013A61EEA23A09EB070502EBD2
:100CF000C5051F4442EE433A22EE222A01EE832A22
:100D0000CAED003A8AED012AD5ED001A95ED012AC7
:100D100060EEA12A41EE422A21EE211A00EE821A4B
:100D2000C6ED002A86ED011A7FF476AF9B044FEAE8
:100D3000134BE646BCF1040F7DD9E0464FEA9C0C0C
:100D40004FF00009CA46BCF1000F75D94FEA4904BB
:100D500004EB090302EBC90502EBC40402EBC30375
:100D6000D5ED001A95ED012AD4ED000A94ED011A93
:100D7000D3ED002A93ED013AD94453468A4573D204
:100D800003EB0C0404EB0C0606EB0C0500EBC307AD
:100D900000EBC606D7ED003A96ED004AD6ED015AB3
:100DA00000EBC40433EE845A73EEC43A97ED014A63
:100DB00000EBC50574EE254A34EE654AD4ED005AC1
:100DC00095ED006A75EE865A35EE256A35EE655A60
:100DD00087ED006AD4ED015A95ED016A75EE865AE9
:100DE00034EEA56A74EEE54A87ED016AD4ED015A46
:100DF00095ED016AD5ED006A75EEC65A94ED006A6C
:100E000036EE666A65EE206A44EEC16A64EEA04A78
:100E100045EE014AC4ED006A34EE065A34EE464A05
:100E2000C4ED014A73EEE54A73EEA53A64EEA15AA9
:100E300045EE425A01E026E01BE025EE215AC6EDC0
:100E4000005A43448B4204EE825A63EEA24A44EEB7
:100E5000434A24EE224A86ED015A03EE834AC5ED49
:100E6000004A85ED014A8BD30AF1010AE245FFF4FD
:100E70006DAF4FEA8B434FEA9E0E4FEA134BBEF124
:100E8000040F3FF65AAFA1EB0C0100224B1C4FEAB6
:100E90009C06002B8CBF1F46BDE8F08F91198D1961
:100EA000AB1900EBC20400EBC505D4ED000AD5ED8B
:100EB000001AD4ED012A95ED012A30EEA11A70EE48
:100EC000E11A72EE820A00EBC10100EBC30332EEBD
:100ED000C22AD1ED002A93ED003A6244974272EEA5
:100EE000832A31EE223A71EE622A23EE003A62EE54
:100EF000802A84ED003A91ED011A93ED013A31EE2A
:100F0000031A30EE813A23EE003A84ED013A30EED6
:100F1000C13AD1ED010A93ED011AD3ED003A30EE5A
:100F2000C11AD1ED000AC1ED002A63EE002A70EE6D
:100F3000E30AC1ED012A71EEC12A31EE811A72EE87
:100F4000201A72EE600A22EE802A21EE001A61EE6B
:100F5000801A85ED002A60EE800AC5ED011A83ED46
:100F6000001AC3ED010A99D8BDE8F08F30B50446E8
:100F70000D4680782188A389626801280DD0284613
:100F8000FFF7A0FCE078012818BF30BDE289218876
:100F90002846A368BDE830403CE494ED040A2846A6
:100FA000FFF732FEEEE7000010B401801B4C4460F6
:100FB00082704FF0000CC370102925D040291BD03F
:100FC000B1F5807F10D0B1F5806F18BF4FF0FF3CB6
:100FD00002D010BC6046704701218181C181104957
:100FE0009FED100A816016E004218181C1810E49C4
:100FF0009FED0E0A81600EE010218181C1810C49B4
:101000009FED0C0A816006E040218181C1810A497F
:101010009FED0A0A816080ED040ADAE7407E00084D
:10102000409E00080000803A469E00080000803B79
:101030005E9E00080000803CBE9E00080000803DCF
:10104000704770477047000000487047585A0020AA
:101050007546FFF7F9FFAE4605006946534620F096
:101060000700854618B020B5FFF7ECF8BDE8204032
:101070004FF000064FF000074FF000084FF0000B54
:1010800021F00701AC46ACE8C009ACE8C009ACE807
:10109000C009ACE8C0098D4670470446AFF3008034
:1010A0002046FFF7BAF8704701491820ABBEFEE7AB
:1010B0002600020070B59CB001212D4800F0B6FF5B
:1010C00001214FF4E06000F0BDFF2A480024CDE983
:1010D0000040294802A9012531C1E802CDE90640B6
:1010E00080000890401109900AA90594400231C17E
:1010F000224E0D94694630460E9400F0D1F901213C
:10110000304600F0C3F903208DF8680019958DF87A
:101110006B4019A91A4800F0EFF91594169417942A
:1011200015A8189400F00CF90F948DF84040119414
:101130001394104C8DF841504C3C8DF850500FA931
:10114000204600F029F9002301220A21204600F060
:1011500049F90121204600F015F90121204600F04F
:1011600007F90121204600F0E1F81CB070BD000035
:10117000040040004C2001400000002010640240A8
:101180000008024070B59CB001212E4800F04EFFCF
:1011900001214FF4E06000F055FF4FF00070009027
:1011A00029480190294802A90024012531C1E802FB
:1011B000CDE9064080000890401109900AA90594E5
:1011C000400231C1224E0D94694630460E9400F023
:1011D00067F90121304600F059F9102019900320D9
:1011E0008DF868008DF86B4019A91A4800F084F951
:1011F00015941694179415A8189400F0A1F80F945C
:101200008DF84040119413940F4C8DF841504C3C94
:101210008DF850500FA9204600F0BEF8002301229F
:101220000421204600F0DEF80121204600F0AAF853
:101230000121204600F09CF80121204600F076F8BC
:101240001CB070BD010040004C2101400400002092
:10125000406402400000024070B59CB001212E485D
:1012600000F0E4FE01214FF4E06000F0EBFE4FF0EF
:101270008060009029480190294802A90024012596
:1012800031C1E802CDE90640800008904011099084
:101290000AA90594400231C1224E0D946946304698
:1012A0000E9400F0FDF80121304600F0EFF8082020
:1012B000199003208DF868008DF86B4019A91A4821
:1012C00000F01AF915941694179415A8189400F0C4
:1012D00037F80F948DF84040119413940F4C8DF80B
:1012E00041504C3C8DF850500FA9204600F054F866
:1012F000002301220D21204600F074F80121204630
:1013000000F040F80121204600F032F8012120468B
:1013100000F00CF81CB070BD040040004C220140ED
:101320000200002028640240000802400029816871
:1013300002D041F0010101E021F00101816070471C
:10134000094B10B51A68094902EA0102D0E90014F4
:1013500041EA0401D0E9024044EA000441EA040100
:1013600041EA0201196010BD04230140E030FCFF96
:101370000029816802D041F4807101E021F480717C
:10138000816070470029816802D041F4007101E05A
:1013900021F400718160704730B542680F4B0C79C1
:1013A0001A400B6842EA04221343436082680C4BE4
:1013B0004D791A40D1E9034323438C6844EA45043C
:1013C000234313438360C26A097D22F47002491EDD
:1013D000C9B242EA0151C16230BD0000FFFEFFFC0C
:1013E000FDF7FFC070B5072509290AD9C468A1F126
:1013F0000A0606EB4606B540AC43B3401C43C46046
:1014000007E0046901EB4106B540AC43B3401C431F
:1014100004611F23072A09D2446B521E02EB820289
:1014200093409C4391400C43446370BD0D2A09D204
:10143000046BD21F02EB820293409C4391400C4309
:10144000046370BDC46A0D3A02EB820293409C4370
:1014500091400C43C46270BD816841F0804181605D
:10146000704700F04FBC00F05FBCFEE770B5002590
:1014700000240021284600F067FF641CE4B2042C1D
:10148000F7D36D1CEDB2162DF2D370BD00290168A3
:1014900002D041F0010101E021F00101016070473B
:1014A00030B50368124ACC6813400A682243D1E978
:1014B00005452C432243CC6922430C6A22434C6AE3
:1014C00022438C6A22434C6B22438C6B22431A4387
:1014D0000260426922F00703D1E90B2422431A4338
:1014E00042610A6942604A6882608968C16030BDB1
:1014F0003F801CF070470000F0B5002201234FF040
:10150000030C00BF0D6803FA02F42540A5422DD15B
:10151000066854000CFA04F5AE4306600E790768BD
:10152000A6403E4306600E79012E01D0022E12D154
:101530008668AE4386604D798668A54035438560F0
:10154000456803FA02F6B543456045688E799640D2
:10155000B6B235434560C56856000CFA06F7BD4380
:10156000C560CD79A540C4682543C560521C102ACA
:10157000C8D3F0BD0246002012690A4200D0012003
:101580007047418370470183704700002DE9F047A1
:1015900004460D4601210B2000F0D6FE01210D204E
:1015A00000F0D2FE08210E2000F0CEFE082111200E
:1015B00000F0CAFE6427B4FBF7F6DFF88080022251
:1015C00008EB46010F2000F099FE07FB16400A26A3
:1015D000B0FBF6F008EB40010222132000F08EFE73
:1015E000B4FBF6F006FB1040B0FBF6F106FB110071
:1015F00008EB40010222112000F080FEB5FBF7F459
:10160000A8F11409022209EB4401104600F076FE0D
:1016100007FB1450B0FBF6F009EB40010222052055
:1016200000F06CFEB5FBF6F006FB105008EB400135
:10163000BDE8F0470222082000F060BEB4000020A0
:101640002DE9F041044601210C2000F07DFE082127
:10165000112000F079FE42F21077B4FBF7F51D4E31
:10166000A8B206EB400102220F2000F047FE07FB64
:1016700015404FF47A75B0FBF5F006EB40010222FD
:10168000132000F03BFEB4FBF5F005FB1040642591
:10169000B0FBF5F006EB40010222112000F02EFE17
:1016A000B4FBF5F005FB10400A25B0FBF5F0143E45
:1016B00006EB40010222002000F020FEB4FBF5F012
:1016C00005FB104006EB4001BDE8F0410222104648
:1016D00000F014BEB40000202DE9F04704460D468A
:1016E0000421072000F030FE0821112000F02CFE1C
:1016F0006427B4FBF7F6DFF87880022208EB460196
:101700000F2000F0FBFD07FB16400A26B0FBF6F0A9
:1017100008EB40010222132000F0F0FDB4FBF6F0CC
:1017200006FB104008EB40010222112000F0E6FD0C
:10173000B5FBF7F4A8F11409022209EB44011046A5
:1017400000F0DCFD07FB1450B0FBF6F009EB4001A4
:101750000222052000F0D2FDB5FBF6F006FB10508A
:1017600008EB4001BDE8F0470222082000F0C6BDAA
:10177000B40000202DE9F041044601210A2000F0C8
:10178000E3FD0821112000F0DFFD42F21076B4FBEA
:10179000F6F51E4FA8B207EB40010222112000F01F
:1017A000ADFD06FB15404FF47A76B0FBF6F0A7F1DD
:1017B000140505EB40010222002000F09FFDB4FB60
:1017C000F6F006FB10406426B0FBF6F005EB400196
:1017D0000222104600F092FDB4FBF6F006FB10402A
:1017E0000A26B0FBF6F005EB40010222052000F0CE
:1017F00085FDB4FBF6F006FB104007EB4001BDE8A9
:10180000F0410222082000F079BD0000B400002061
:101810002DE9F04104460821012000F095FD042146
:10182000072000F091FD6426B4FBF6F50F4F02226D
:1018300007EB4501104600F061FD06FB15400A2547
:10184000B0FBF5F007EB40010222052000F056FD49
:10185000B4FBF5F005FB104007F11401BDE8F041C1
:1018600001EB40010222082000F048BDA00000204A
:101870002DE9F04104460121042000F065FD082116
:10188000112000F061FD6426B4FBF6F50F4F022233
:1018900007EB4501104600F031FD06FB15400A2517
:1018A000B0FBF5F007EB40010222052000F026FD19
:1018B000B4FBF5F005FB104007F11401BDE8F04161
:1018C00001EB40010222082000F018BDA00000201A
:1018D0002DE9F04104460421084600F035FD0221BF
:1018E0000A2000F031FD0821112000F02DFD6426B2
:1018F000B4FBF6F50F4F022207EB4501104600F04E
:10190000FDFC06FB15400A25B0FBF5F007EB400196
:101910000222052000F0F2FCB4FBF5F005FB1040BC
:1019200007F11401BDE8F04101EB4001022208205B
:1019300000F0E4BCA00000201CB50121022000F052
:1019400075FB4FF43870009001208DF804000020E2
:101950008DF806000220124C8DF8050069462046DD
:10196000FFF7CAFD61152046FFF70DFE2021204636
:10197000FFF709FE40212046FFF705FE80212046A3
:10198000FFF701FE022000F095FB292000F092FBFA
:10199000012000F08FFB032000F08CFB1CBD000039
:1019A00000040240FEE700001CB50121084600F0DB
:1019B0003DFB4FF4C050009000208DF804006946B4
:1019C0000148FFF799FD1CBD00000240FEE770478B
:1019D00070B5144DE879012822D1FEF745FC044684
:1019E000A87820B1401E10F0FF00A87013D1E8784D
:1019F00088B900F00BFB0C48697950F82100A86207
:101A00002A79914207D0C16B491CC163E868401C28
:101A1000E860FEF745FC2046BDE87040FEF728BCB4
:101A200070BD000030000020484C002070B504005C
:101A300004D02078032803D0012070BD042070BD9D
:101A4000FEF712FC0546A07A58B100230122194680
:101A5000204600F04BFA2846FEF70AFC00F0B2FAE6
:101A600009E020894FF6FF71884206D2401C208190
:101A70002846FEF7FDFB002070BD2846FEF7F8FB68
:101A8000332070BD10B5022000F018F8FEF7ECFB13
:101A9000084C0021E161FEF7EBFB642000F00EF83A
:101AA000FEF7E2FBE169616101216170BDE8104070
:101AB000FEF7DEBB30000020FFF7D3BC70B5044654
:101AC00014480078002824D113480078002820D139
:101AD000002C1ED0FEF7C8FB03461048104D0068CE
:101AE00090F8381090F839606A5CF643F6B23240EC
:101AF0006A5406D10B4A90F83A10157825EA01018C
:101B0000117004631846FEF7B3FBBDE8704000F0A7
:101B100059BA70BD32000020330000205000002070
:101B200064000020360000202DE9F04100F052F85A
:101B3000FEF79AFB264D296B491C2963FEF798FB9B
:101B4000E879012841D1687A0126002720B10128CF
:101B50003BD0022802D06F72EC6A32E06E72FBE773
:101B6000FEF782FB216B49B3491E216326D194F80D
:101B7000341011F0370F06D001F0C80184F834108A
:101B800084F8356001E084F8357094F83410090762
:101B900014D404F13804AA79A178DFF834C041EAFA
:101BA0000201A97121780CF1340C63781CF8012032
:101BB000A4F1380442EA03020CF801206469FEF73C
:101BC00057FB94F836003F28CAD1BDE8F0810000E9
:101BD0003000002010B5FFF746FC07480188491C7B
:101BE00089B20180642905D300210180BDE810403D
:101BF00000F004B810BD00002C000020014800686F
:101C0000FFF714BF6C00002070B5244C0025E1697B
:101C1000491CE161214622788978062A0144C9B22B
:101C20003AD2DFE802F0030A0E1D2D31ED2803D170
:101C300001202070E570257170BD8C282CD1022008
:101C40000CE020B10021802802D9012201E001210D
:101C50000022114320D1A07060700320207070BD5D
:101C6000E278802A03D20E4B9854521CE270A17085
:101C70006078401E10F0FF006070F0D10420EDE7A6
:101C8000A17049B90520E9E78D2805D16089401C7C
:101C90006081A06AFFF7CAFE257070BD7000002049
:101CA000D854002070B5FEF735FB144A1178491C52
:101CB0001170FEF733FB124C40F2255529462046A1
:101CC00000F0DCFA48B1204600F00FFBC0B2FFF78D
:101CD0009BFF2946204600F0CBFA40F227752946A3
:101CE000204600F0CBFA28B100F040F82946204603
:101CF00000F0BEFABDE87040FFF76ABE3200002077
:101D00000048004010B500F011F805490968D1E914
:101D10001023C31A1A440A6402490968486410BDB2
:101D20005000002058000020AFF3008070B5FEF78F
:101D30009BFA054600F010F806490A890881821AC4
:101D4000886992B2841828468C61FEF791FA204681
:101D500070BD0000700000204FF0804000F084BA99
:101D60000146014800F0C5BA004800402DE9F041A5
:101D70004A4F04263846BB798189828A0025C0896A
:101D8000092B73D2DFE803F00518252F737B44502D
:101D90005C0011430BD08C20FFF7E2FF386A401C37
:101DA00038620120F871B871FD81BDE8F081FD71E4
:101DB000BDE8F04100F076B8ED20FFF7D1FF386ABA
:101DC000401C3862B88908B1022000E00620B871D2
:101DD000EBE7C8B2FFF7C4FF386A401C3862032043
:101DE000B871B8892AE02E490C5C2046FFF7B8FF8D
:101DF000386A401C3862787920447871F889401C30
:101E000080B2F881B9898842CFD3BE71BD81CCE759
:101E1000521CD0B2FFF7A4FF386A401C386207207A
:101E2000B871B88A401C09E04320FFF799FF386A6F
:101E3000401C38620820B871787943307871B4E773
:101E4000174980310C5C2046FFF78AFF386A401C36
:101E50003862787920447871F889401C80B2F88122
:101E6000B98A8842A1D3BE71BD829EE713E078791A
:101E7000FFF776FF386A401C38620520A7E78D20FF
:101E8000FFF76EFF386A401C3862BD713D82788A68
:101E9000401C788289E7BD7189E70000700000204E
:101EA00058550020002240F22771014800F005BA81
:101EB000004800400B484FF47A710068B0FBF1F025
:101EC000B0F1807F0DD220F07F414FF0E020491E1D
:101ED0004161054AF02111700021816107210161F2
:101EE0007047FEE71800002023ED00E0F0B505463E
:101EF000807A194C4FF00007205C05EB0006F67A5B
:101F0000A45D04EBC004E6B2144C54F8264004F17E
:101F10002404E7602160217C21EA020121746374BA
:101F2000A4F1240409070BD40D4994F83A208B79C5
:101F30001A438A71343194F839300A5C1A430A54CE
:101F40002946204600F00EF8216A19B1204600F01B
:101F50001BF8E5613046F0BD32390008484C0020DE
:101F60003000002010B590F8382090F839408B18D8
:101F7000E443DA7AE4B22240DA7204D18A7A90F841
:101F80003A0082438A7210BD30B510F8383F82782B
:101F900090F801C0D2436FEA0C04E4B2D5B20868ED
:101FA0000DE000BF00EB030C9CF80B2022408CF8E6
:101FB0000B2002D1827A2A40827251F8040F002845
:101FC000F0D130BD70B5FEF74FF90E4D0446A8783C
:101FD00098B9E87888B900F019F80B48697950F891
:101FE0002100A8622A79914207D0C16B491CC163C4
:101FF000E868401CE860FEF74EF92046BDE87040F6
:10200000FEF736B930000020484C00200649054A4A
:1020100001F134038879105C1B5CD25C02EBC000D8
:10202000487170473239000830000020044A002906
:10203000116801D0014300E0814311607047000046
:1020400030380240044A0029116801D0014300E001
:10205000814311607047000044380240704700001F
:102060002DE9F04105460E460024114F1BE02806DD
:102070004FF04001384602D4FFF783FA01E0FFF742
:1020800082FA80213846FFF77CFA012000F032FD09
:1020900080213846FFF777FA012000F02BFD680613
:1020A000050E641CE4B2B442E1D3BDE8F081000047
:1020B0000004024070B50A4D044620212846FFF76F
:1020C00060FA03218020FFF7CBFF09212046FFF7AC
:1020D000C7FF2846BDE870402021FFF754BA000032
:1020E000000402402DE9F04105460E460024104F41
:1020F00017E0E8074FF04001384616D0FFF743FAE3
:1021000080213846FFF73DFA012000F0F3FC8021E2
:102110003846FFF738FA012000F0ECFC6D08641C2B
:10212000E4B2B442E5D3BDE8F081FFF72AFAE7E76D
:1021300000040240224900200A6842F480320A600A
:102140004FF4A0630A6800F1010012F4003F01D1CE
:102150009842F7D10868800331D5194840300268A9
:1021600042F0805202601748026842F480420260E6
:102170001348083002680260026842F400420260BC
:10218000026842F4A0520260031F0F4A1A600A68F4
:1021900042F080720A600A689201FCD50B4A40F254
:1021A00005611160016821F003010160016841F0DF
:1021B000020101600168C1F381010229FAD170476F
:1021C000003802400070004008544007003C0240C4
:1021D0004FF0E0210428086903D020F004000861D2
:1021E000704740F00400FAE710B5FEF73DF8064AE4
:1021F0001178491C1170FEF73BF8FFF795FCBDE81C
:102200001040FFF7E5BB000032000020124810B577
:10221000016841F4700101601048016841F001015A
:1022200001600E4A00210832116002680C4B1A400E
:102230000260031D0B4A1A60026822F480220260C9
:1022400006480C300160FFF775FF03494FF000604E
:102250008039086010BD000088ED00E000380240C1
:10226000FFFFF6FE10300024406A7047FFF71ABDEA
:102270000A0A01219140C9430180704770B501F0FD
:102280001F0601220025C1F3421302FA06F4012BB6
:102290000FD0022B0FD0838A4FEA112100882342EE
:1022A00002FA01F200EA020001D000B1012528463D
:1022B00070BD8389F0E7038AEEE7C1F3421301F0B2
:1022C0001F0C012101FA0CF1012B07D0022B07D0C2
:1022D0001430002A026805D00A4304E00C30F8E705
:1022E0001030F6E78A43026070478088C0F3080028
:1022F0007047C1F3080181807047FEE72DE9F04186
:10230000104F04460D46164620213846FFF739F98E
:102310000321A020FFF7A4FEA006000E0621FFF770
:102320009FFE002406E028780421FFF7DBFE641CF2
:10233000E4B26D1CB442F6D33846BDE8F04120212A
:10234000FFF721B90004024070B50D4E04460D465A
:1023500020213046FFF715F90321A020FFF780FE6A
:10236000A006000E0621FFF77BFE04212846FFF79A
:10237000B9FE3046BDE870402021FFF704B90000E7
:102380000004024003B401984100009850EAC120C3
:1023900018BF04204A0D18BF40F0010040F2FF7240
:1023A000B2EB515F08BF40F00200012808BF0520D2
:1023B00002B070470000000070B59F482DED020B81
:1023C0002DED068B079D25F0004484421DDB9B48C4
:1023D000844202DC0FD1069868B19DED060B53ECE8
:1023E000102B51EC100B00F01DFEBDEC068B02B063
:1023F00041EC100B70BD002DCCBF9FED910B9FEDFC
:10240000920BBDEC068B02B070BD9148844215DA88
:1024100090488442A8BF4FF0FF3440DA9DED060B90
:1024200051EC100BFFF7AEFF042808BF00F0A8FA2C
:102430009DED060BBDEC068B02B070BD9DED060B4D
:1024400051EC100B00F072FB41EC100B82488DED4B
:10245000060B9FED839B84423CDA834884421FDA5B
:1024600000249FED83AB51EC100B53EC1A2B00F0C2
:10247000D9FD9DED060B41EC180B53EC1A2B51ECDA
:10248000100B00F0E7FF53EC192B01F0EDF853ECC3
:10249000182B00F06FFE41EC100B8DED060B49E0A0
:1024A000012453EC192B51EC100B00F0BBFD9DEDFA
:1024B000060B41EC180B53EC192B51EC100B01F0EF
:1024C000D3F853EC182B00F055FE41EC100B8DEDBA
:1024D000060B2FE0684884421FDA02249FED68ABA8
:1024E00051EC100B53EC1A2B00F0B4FF53EC192BEA
:1024F00000F098FD9DED060B41EC180B53EC1A2BE8
:1025000051EC100B01F0B0F853EC182B00F032FE38
:1025100041EC100B8DED060B0CE053EC102B03245B
:102520009FED590B51EC100B00F024FE41EC100B09
:102530008DED060B9DED060B53EC102B51EC100BA3
:1025400000F088FF41EC180B53EC182B00F082FFD1
:1025500041EC190B4E480621B0EE490AF0EE690A2B
:10256000784400F091F953EC182B51EC100B00F06B
:1025700071FF41EC180B4748B0EE490AF0EE690ACA
:102580000521784400F080F953EC192B51EC100B25
:1025900000F060FF41EC100B51EC180B53EC102BCA
:1025A000002C0EDA00F03EFD9DED061B53EC112BC6
:1025B00000F050FF9DED061B53EC112B01F048F885
:1025C00035E000F02FFD9DED061B53EC112B00F0C4
:1025D00041FF41EC100B3048784400EBC40090ED13
:1025E000001B51EC100B53EC112B01F03DF89DED4D
:1025F000061B53EC112B01F037F841EC100B274868
:10260000784400EBC40090ED001B51EC100B53EC30
:10261000112B01F01DF841EC100B002DA2BFBDECF9
:10262000068B02B070BD51EC100B00F0BDFC41EC0C
:10263000100BFFE600000000000010440000F07FD7
:10264000182D4454FB21F93F182D4454FB21F9BFA8
:102650000000DC3F0000203E0000F33F00000000CF
:10266000000000000000F03F0000E63F0000000016
:102670000000000000000040008003400000000057
:10268000000000000000F83F000000000000F0BF64
:10269000447B0000FA7A0000847A00003C7A000053
:1026A00070B5694E2DED040B2DED028B82B0DDE986
:1026B000053C079ACCF1000422F000414CEA0404E6
:1026C00041EAD474049D23F00040B44205D86C4222
:1026D0002C4340EAD474B44210D99DED060B53EC60
:1026E000102B9DED040B51EC100B00F09BFC41EC0A
:1026F000100B02B0BDEC028B04B070BDA2F14054CF
:10270000A4F17F6454EA0C040BD0022404EAA274FE
:1027100044EAD37405439FED4E8B9FED4F2B07D0BA
:1027200010E09DED040B51EC100B00F0B7F93BE00D
:10273000002C14BF012C9DED040BDAD0022C36D0F6
:10274000032C39D051EA0C0C9FED451B9FED460B35
:102750000AD0B14219D1B04209D121F0804120F014
:1027600080400791059010E0002BC2DA11E0DFF8FD
:1027700000C1FC44002C08BF9CED000BB9D0012C1B
:102780000CD0022C13D0032C16D0B04219D1002B40
:10279000AFDAB0EE410AF0EE610AAAE79CED000B59
:1027A00051EC100B00F000FC41EC100BA1E7B0EE77
:1027B000480AF0EE680A9CE7B0EE420AF0EE620AC0
:1027C00097E7401A00153C2816DC002ABCBF10F120
:1027D0003C0F9FED290B0FDB9DED060B53EC102BEF
:1027E0009DED040B51EC100B00F0C4FC00F09EF9C1
:1027F00000F054F941EC100B002C8DED000B3FF470
:1028000078AF012C10D0022C9FED1D0B53EC102B38
:102810009DED000B51EC100B0ED000F025FF53EC9A
:10282000182B00F021FFBFE710EE900A80F0004067
:1028300001909DED000B5CE700F016FF53EC182BA8
:1028400000F006FFB0E700000000F07F000000008D
:10285000182D4454FB210940182D4454FB2109C074
:10286000182D4454FB21F9BF182D4454FB21F93F86
:10287000627900000000000000000000000000007D
:10288000075C143326A6A13C70B505462DED028BDE
:102890004C1E00EBC400B0EE408AF0EE608A90ED72
:1028A000000B34F0060017D053EC182B51EC100B32
:1028B00000F0D0FD41EC100B641E05EBC40090ED60
:1028C000001B51EC100B53EC112B00F0ABFB41EC57
:1028D000100B34F00600E7D1022C36D0042C1CD0AB
:1028E000062C1CBFBDEC028B70BD53EC182B51ECB9
:1028F000100B00F0AFFD95ED0A1B53EC112B00F00F
:1029000091FB53EC182B00F0A5FD95ED081B53EC43
:10291000112B00F087FB41EC100B53EC182B51EC02
:10292000100B00F097FD95ED061B53EC112B00F0FA
:1029300079FB53EC182B00F08DFD95ED041B53EC47
:10294000112B00F06FFB41EC100B53EC182B51ECEA
:10295000100B00F07FFD95ED021B53EC112B00F0E6
:1029600061FB53EC182B00F075FD95ED001B53EC4B
:10297000112B00F057FBBDEC028B41EC100B70BD2E
:102980009FED050B10B553EC102B51EC100B00F024
:1029900061FD41EC100B10BD0000000000000010B4
:1029A000F0B500234FF480625C1E02EBD27504EB9D
:1029B000650419E05E1C00EE106A00EB8307B8EEB8
:1029C000C00AD7ED000A20EE800A87ED000A00EE6B
:1029D000106A01EB83075B1CB8EEC00AD7ED000A52
:1029E00020EE800A87ED000A9C42E3DA6B10561E47
:1029F0001DE000BFA2EB030CACF1010C00EE10CA0D
:102A000000EB8307B8EEC00AD7ED000A20EE200ADB
:102A100087ED000A00EE10CA01EB83075B1CB8EEDD
:102A2000C00AD7ED000A20EE200A87ED000AB34263
:102A3000E0DB00221BE000BF02EB650300EB830636
:102A400000EB820796ED000AD7ED000A01EB830345
:102A500030EE200A86ED000A01EB820693ED000AB3
:102A6000D6ED000A521C30EE200A83ED000A944293
:102A7000E2DC00220FE000BF02EB650300EB8306FF
:102A800001EB830356F8046C40F8226053F8043CD1
:102A900041F82230521C9442EEDAF0BD10B541EC00
:102AA000100BFFF789FC51EC100B10BD10B56FF047
:102AB0000400FFF78DFB0C484FF47A7201680B4855
:102AC000B1FBF0F00A490870504301224A804FF0F0
:102AD000E0210A6942F002020A614861086940F097
:102AE0000100086110BD00001800002000127A00EB
:102AF0009C00002030B54FF0E0240022D4F814C030
:102B00000949A36909784843A1699942FCD002D2D6
:102B1000A3EB010302E0ACEB01052B441A440B4686
:102B20008242F1D330BD00009C00002041EC100B2C
:102B300082B010EE900A8DED000B20F00040019065
:102B40009DED000B02B051EC100B70472DE9F05FCA
:102B5000DFF890914FF40067002439464846FEF7AD
:102B600009FD614D4FF00108002865D12878002843
:102B700062D00026BA462E7040F6B83B4F4606E0BB
:102B80005846FFF7B7FF641CE4B2B42C07D2514695
:102B90003846FEF7EFFC0028F2D0B42C01D3AE701B
:102BA00043E0A878012836D16878401CC0B268702C
:102BB000062802D9404685F80180C0B207282AD2EB
:102BC000DFE800F029040B11171D2400FEF74EFC6E
:102BD0002989A879FEF7DAFC1DE0FEF747FCE868D2
:102BE000FEF72EFD17E0FEF741FC6889FEF7C2FDF7
:102BF00011E0FEF73BFCE879FEF73AFE0BE0FEF74A
:102C000035FCE9786879FEF767FD04E0FEF72EFCF5
:102C10002879FEF75DFEA878002860D1E878401C8E
:102C2000C0B2E870202800D9EE70FEF71FFCE878EB
:102C3000BDE8F05FFEF7ECBDBA4639464F46484660
:102C4000FEF798FC01284AD1464685F8008040F6F8
:102C5000C41806E04046FFF74DFF641CE4B2C82CE0
:102C600007D251463846FEF785FC0128F2D0C82C21
:102C700035D3AE706878072831D2DFE800F0300431
:102C80000C131A212900FEF7F1FB2989A879BDE868
:102C9000F05FFEF77BBCFEF7E9FBE868BDE8F05F9C
:102CA000FEF7CEBCFEF7E2FB6889BDE8F05FFEF7F9
:102CB00061BDFEF7DBFBE879BDE8F05FFEF7D8BD4C
:102CC000FEF7D4FBE9786879BDE8F05FFEF704BD54
:102CD000FEF7CCFB2879BDE8F05FFEF7F9BDBDE853
:102CE000F09F000000000240C80000202DED088B7E
:102CF00090B09FED9A0A01218DED090A8DED0A0A27
:102D00001020FFF793F94FF0010A8DF820A000265C
:102D10008DF8226003274FF470758DF821705446AA
:102D200007958DF823A007A98D48FEF7E5FB012143
:102D30000220FFF77BF98DF820408DF822608DF896
:102D4000217007958DF8234007A98648FEF7D4FB2C
:102D5000FFF7B0F8FEF796FEFFF7A8FEFEF7ECFDD2
:102D6000FEF722FEFEF7A6F9FEF70CFAFEF774FA5C
:102D70007D48FEF771FB7D48FEF76EFB7C48FEF751
:102D80006BFB9FED7C9B9FED7DBB7E4F7E4E4FF49A
:102D90008069A7F580580024B0EE4B8AF0EE6B8A6C
:102DA0007088B588401B00F03DFBB0EE49AAF0EEFC
:102DB00069AA53EC1A2B00F04DFB53EC182B00F0D2
:102DC00049FB00F0FDF847F824003088401B00F074
:102DD00029FB53EC1A2B00F03DFB53EC182B00F0B1
:102DE00039FB00F0EDF848F8240045462420FFF7B1
:102DF00081FE641C4C45D3DB64490020A1F50062D0
:102E00004FF4007357F820C041F820C055F820C097
:102E100042F820C0401C9842F4DB5A49A1F580508A
:102E2000FFF7BEFD30690090D6E902230BA901A887
:102E3000FDF778FC564A01A8A2F54051FDF7FCFBCE
:102E40005348C6F814A000F10804C06800F0F6FC6E
:102E500041EC180B206800F0F1FC41EC100BB0EED7
:102E6000481AF0EE681AFFF71BFC4A4C484A01A8C2
:102E700084ED000BA2F58051FDF7DEFBA4F50061A7
:102E80004348B268FDF7C0FAB0683F4B41081433BD
:102E900009AAA4F50060FDF77FFC9DED090AF0EE9C
:102EA000000A3D4920EE200A394ABCEEC00A10EE65
:102EB000100A0880334901A8FDF7BEFB3448716948
:102EC00000EBC105686800F0B9FC41EC180B2868FC
:102ED00000F0B4FC41EC100BB0EE481AF0EE681AAA
:102EE000FFF7DEFB84ED020B294A284901A8FDF714
:102EF000A3FBA4F500612648B268FDF785FAB06827
:102F0000214B410814330AAAA4F50060FDF744FCE4
:102F10009DED0A0AF6EE000A204820EE200ABCEEDB
:102F2000C00A80ED000A94EC040B51EC100B53EC3A
:102F3000112B00F099FB00F043F800EE100AFDF7AA
:102F4000FBF9DFED170A174920EE200ABCEEC00A94
:102F500010EE100A0870FFF7F9FD1CE700000000F2
:102F60000010024000040240002001400021014006
:102F7000002201406666666666660A400000000040
:102F80000000303FD810002000000020D82800208A
:102F9000D8300020D8480020D0000020D4000020E5
:102FA0000000C842CE00002081F00041704780F050
:102FB0000040704721F00041704720F0004070470A
:102FC00021F00042A2F16052B2F5801F01F00043EF
:102FD00028BFD2F17F6C0BD95FEA001C43EAC20222
:102FE00042EB507018BF704728BF20F001007047B7
:102FF000B2F5801FBCBF184670474FEA410C1CF564
:10300000001F02D2084600F08FBC70B500F0CCFA69
:1030100000000089FFF7F6BF4FF00040A0F58000E8
:103020007047000010B591EA030F48BF83F00043DA
:1030300000F12283841A71EB030C05D2121943EBC1
:103040000C03001B61EB0C01DFF824E14FEA115483
:10305000A4EB135C1EEA430F18BF9EEA445F73D0D3
:1030600023EA0E03DCF1200E21EA045143F480131D
:1030700032D322FA0CFE10EB0E0023FA0CFE41EBC9
:103080000E01CCF1200E03FA0EFE10EB0E0051F1F2
:103090000001B1F5801FCCF1200E32D201EB0451BA
:1030A00012FA0EF2BDE8104058BF7047401C38BFFE
:1030B0005FEA420218BF7047002814BF20F00100E9
:1030C00041F100014FEA410313F5001F38BF70477B
:1030D000A1F1C04100F0B6BA012A43EB0302ACF102
:1030E000200CDCF11F0E32BF4FF0000E23FA0CF360
:1030F00010EB030041EB0451B4EB115FD0D0A1EB16
:10310000045101F5801149085FEA300001EB0451D8
:103110000ED350F1000038BF12FA0EFE08D1BDE800
:103120001040C9E7401C38BF5FEA4202CAD1C3E77A
:10313000BDE810404FEA410313F5001F38BF704748
:10314000A1F1C04100F07EBA9EEA445F08D011EAC6
:103150005E0FBDE8104004BF01F000410020704741
:10316000BDE8104070B500F01FFA00BF64FBBE3E22
:103170000000E0FF2DE9C04130B4DFF8A0C23CEA16
:10318000111418BF3CEA131400F0EC8081EA030527
:103190001CEA111444EAD57418BF1CEA131500F098
:1031A000C780A4EB05044FF0004545EAC12145EA7C
:1031B000C32341EA505143EA525304F17F749942C8
:1031C00004F500344FEAC0204FEAC22208BF904203
:1031D00000F09C804FEA13650FF24016765D4FEACF
:1031E000134506FB05F7C7F1807706FB07F74FEAA3
:1031F000D737A7FB03687642C8F58038A7FB06CE11
:1032000038BFA8F1010807FB08E64FF0000EA6FB47
:10321000028CE6FB03CEDCF1000CCEF1004E38BF91
:10322000AEF1010EA6FB0C584FF000074FF0000561
:10323000E6FB0E87A1FB08C6A0FB07CE16EB0E0629
:1032400045F10005E1FB076515F1E04E7EBFA4F5F1
:1032500080345FEA46066D4116F1800745F10005AE
:103260004FEA17274FEA066647EA0567A6F1DE46EA
:10327000B6F1805F4FEA15251FD9384624F0010CBE
:1032800005EBC471BCF1FE6F01EB0C1102D8F0BC70
:10329000BDE8008124425CBF01F5801E9EEAC47F28
:1032A00002D4F0BCBDE80081244238D4F0BCA1F1C6
:1032B000C041BDE8004100F0C5B94FEAD22242EA60
:1032C00043524FEAD323A7FB02864FEAD02040EABD
:1032D000415007FB03661EEA0E0F4FEAD12105FBA2
:1032E000026658BFA6EB0056B6EB00564FEA520EE8
:1032F0004EEAC37E18EB0E0E56EB530EBDD518EBFF
:1033000002085E417F1C55F10005B6E74FF48015B9
:103310004FF000074FF000064FF00008ADE7F0BC9B
:103320004FF0000001F1C04101F00041BDE8008113
:1033300011EA0C1F0CEA131500D00CE013EA0C1F65
:1033400000F025804FF00000F0BC81EA030101F09D
:103350000041BDE80081F0BCBDE8004181EA030105
:1033600000F070B9F0BCBDE8004170B500F01CF988
:10337000097EFC3E00F007B881EA03014FF000002F
:1033800001F00041704781EA030100F05BB9F0BC35
:10339000BDE800414FF0000021497047FFFDFBF9F7
:1033A000F7F5F4F2F0EEEDEBE9E8E6E4E3E1E0DE78
:1033B000DDDBDAD8D7D5D4D3D1D0CFCDCCCBCAC8EA
:1033C000C7C6C5C4C2C1C0BFBEBDBCBBBAB9B8B711
:1033D000B6B5B4B3B2B1B0AFAEADACABAAA9A8A804
:1033E000A7A6A5A4A3A3A2A1A09F9F9E9D9C9C9BD2
:1033F0009A9999989797969595949393929191907D
:103400008F8F8E8E8D8C8C8B8B8A8989888887870D
:103410008685858484838382828181800000FF0782
:103420000000F87F10F0004248BF4042B0FA80F33D
:1034300010FA03F10AD0C3F11D0303F580634FEACC
:10344000415002EB035202EBD12170474FF00000D4
:1034500070470000DFF848C170B51CEA111E1EBF9E
:103460001CEA13159EEA0C0F95EA0C0F00F06F8012
:1034700081EA030423EA4C134EEAD47E21EA4C117C
:1034800041F4801143F48013AE44A1FB024CA0FB35
:103490000365AEF17F7E361955EB0C05A1FB034C9D
:1034A0004CF10003A0FB021C16EB0C06654153F126
:1034B0000003094218BF46F0010613F4007F0BD148
:1034C0004FEA03314FEA0530340341EA155140EA2F
:1034D00016506FF003020AE04FEAC3214FEAC520FD
:1034E000F40241EA555140EA56506FF0020202EBF5
:1034F0002E4201EB025585EACE710AD05FEA440CF8
:1035000018BF24F0004450F1000041F1000120EA0E
:10351000D47040F2FE7C624500D270BDA84214BF58
:103520004FF080444FF04044002E08BF0024BEF10D
:10353000806FA8BFA1F1C041BDE8704080F28280D9
:103540004FF0000001F1C04101F0004170479EEAD8
:103550000C0F0CEA131518BF95EA0C0F06D04FF0AC
:10356000000081EA030E0EF0004170BD00F01CF86F
:103570008900013E00F007B800F009B84FEA430C9B
:103580005FEA5C5C08D081EA030100F05BB84FEAB7
:10359000410C5FEA5C5CF6D14FF0000001497047D6
:1035A0000000FF070000F87F0EF1020E2EF0030E60
:1035B0005EF8046B364205D4012A43EB030515F58A
:1035C000001F12D8012841EB010C1CF5001F0CD87C
:1035D0000ED14FEAD17C15F5001F0CEB4C0C0CF111
:1035E000020C08BF4CEBD37C04E04FF0080C01E068
:1035F0004FEAD37C0CEB4C0526FA05F606F00706DD
:10360000B6F1040C06D20EEB860CBDE870404CF00F
:10361000010C6047DFE80CF0090B02024FF000419B
:103620004FF00000A1F5002170BD19461046012899
:1036300051EB010418BFD4F5001484BF002001F041
:10364000004170BD0808A0F500114FEA3101704734
:1036500091EA030F10B581F000413FF5EBAC83F028
:10366000004300F009B8000010B591EA030F48BF0D
:1036700083F000433FF5DEAC841A71EB030C07D2F4
:1036800012198CF0004C43EB0C03001B61EB0C0196
:10369000DFF8A4E14FEA1154A4EB135C1EEA430FD8
:1036A00018BF9EEA445F00F0B08023EA6E035242E6
:1036B00021EA0451C3EB6E0338BF5B1EDCF1200E20
:1036C00025D322FA0CFE10EB0E0043FA0CFE41EB60
:1036D0000E01CCF1200E03FA0EFE10EB0E0051F19C
:1036E0000001CCF1200E29D412FA0EF201EB0451A4
:1036F000BDE8104058BF7047401C1CBFB2F1004FDE
:10370000704700280CBF491C20F00100704712EBE5
:10371000020E43EB030218BF4FF0010E4EEA4202C5
:10372000ACF1200CDCF11E0E54D943FA0CFE10EB68
:103730000E0051F1FF31CCF11E0ED5D50EF1010E68
:1037400012FA0EFE404141EB010101EB445C5FEADD
:103750005C5C10D910EBDE7001EB045138BFBEF198
:10376000004FBDE8104018BF704700280CBF491C2F
:1037700020F00100704730D24FEAD42C11F500112F
:1037800024F400641BD0B1FA81F20B3AA41AA41EEF
:10379000D2F12003914030FA03F31943904001EB3A
:1037A000CC71002C01EB0451BDE81040A8BF70475C
:1037B00001F1C0414FF0000001F000417047B0FA44
:1037C00080F310FA03F100D110BDE41A173C48054C
:1037D000C90AE4E701EB045110BD491001EB0451A3
:1037E000BDE810404FEA300002E04FF000017047A2
:1037F0004A0008BF0042F8D0B2F5001F28BF70474A
:1038000001F000414FF0000070479EEA445F07D08E
:1038100011EA5E0FBDE8104004BF00210020704790
:10382000BDE8104070B5FFF7BFFE00BF40DFF63EB9
:1038300083F00041104670470000E0FF43004FEA6C
:10384000D30C4FEA3C0C43401FBF40070CF16051C2
:1038500013F0FE4F70471CF0006F03D100200CF0F6
:10386000004170470CF0004343EA507010B540EA45
:10387000CC0000F00EF800BF000000924FEA0001FB
:10388000FFF7E0BE4FF000414FF00000A1F500212E
:1038900070470EF1020E2EF0030E5EF8044B244228
:1038A00004D44FEA4102B2F17F4F11D84FEA4003EE
:1038B000B3F17F4F0CD80ED14FEAD07CB2F17F4FDD
:1038C0000CEB4C0C0CF1020C08BF4CEBD17C04E06F
:1038D0004FF0080C01E04FEAD17C0CEB4C0324FACA
:1038E00003F404F00704B4F1040C06D20EEB840CCC
:1038F000BDE810404CF0010C6047DFE80CF0070811
:1039000002024FF00040A0F5800010BD08464200C2
:1039100018BFD2F1807288BF00F0004010BD4FF098
:103920004070E1EE100A7047FF2141EAD050C00517
:1039300070470000010002000100030001000200C6
:103940000100040001000200010003000100020068
:103950000100050001000200010003000100020057
:103960000100040001000200010003000100020048
:103970000100060001000200010003000100020036
:103980000100040001000200010003000100020028
:103990000100050001000200010003000100020017
:1039A0000100040001000200010003000100020008
:1039B00001000700010002000100030001000200F5
:1039C00001000400010002000100030001000200E8
:1039D00001000500010002000100030001000200D7
:1039E00001000400010002000100030001000200C8
:1039F00001000600010002000100030001000200B6
:103A000001000400010002000100030001000200A7
:103A10000100050001000200010003000100020096
:103A20000100040001000200010003000100020087
:103A30000100000043EC7F3F0000803F43EC7F3FEC
:103A40000FB17F3F6D4E7F3F6DC47E3F24137E3F9D
:103A5000AC3A7D3F283B7C3FBE147B3F9DC7793FFE
:103A6000F853783F07BA763F0BFA743F4714733F19
:103A70000809713F9ED86E3F5E836C3FA7096A3F7D
:103A8000D86B673F59AA643F98C5613F05BE5E3F4A
:103A90001A945B3F5348583F31DB543F3D4D513FF3
:103AA000029F4D3F12D1493F03E4453F70D8413F4B
:103AB000F9AE3D3F4268393FF304353FBB85303FA7
:103AC0004AEB2B3F5636273F9967223FD17F1D3F58
:103AD000C07F183F2A68133FDA390E3F9BF5083F35
:103AE0003D9C033F275DFC3EEA5AF13E7533E63EBE
:103AF00080E8DA3ECA7BCF3E15EFC33E2A44B83E8B
:103B0000D47CAC3EE59AA03E31A0943E938E883E94
:103B1000CCCF783E135C603EC2C5473EA2102F3E1C
:103B20008340163E73B2FA3D36BDC83D05A9963DA9
:103B300030FB483DB00AC93C0BA88C24B00AC9BC74
:103B400030FB48BD05A996BD36BDC8BD73B2FABDF0
:103B5000834016BEA2102FBEC2C547BE135C60BE16
:103B6000CCCF78BE938E88BE31A094BEE59AA0BE1D
:103B7000D47CACBE2A44B8BE15EFC3BECA7BCFBE50
:103B800080E8DABE7533E6BEEA5AF1BE275DFCBEB8
:103B90003D9C03BF9BF508BFDA390EBF2A6813BFEF
:103BA000C07F18BFD17F1DBF996722BF563627BF80
:103BB0004AEB2BBFBB8530BFF30435BF426839BF2A
:103BC000F9AE3DBF70D841BF03E445BF12D149BF34
:103BD000029F4DBF3D4D51BF31DB54BF534858BFCD
:103BE0001A945BBF05BE5EBF98C561BF59AA64BF8A
:103BF000D86B67BFA7096ABF5E836CBF9ED86EBFD4
:103C0000080971BF471473BF0BFA74BF07BA76BFB8
:103C1000F85378BF9DC779BFBE147BBF283B7CBFDC
:103C2000AC3A7DBF24137EBF6DC47EBF6D4E7FBF97
:103C30000FB17FBF43EC7FBF000080BF43EC7FBF6D
:103C40000FB17FBF6D4E7FBF6DC47EBF24137EBF9B
:103C5000AC3A7DBF283B7CBFBE147BBF9DC779BFFC
:103C6000F85378BF07BA76BF0BFA74BF471473BF17
:103C7000080971BF9ED86EBF5E836CBFA7096ABF7B
:103C8000D86B67BF59AA64BF98C561BF05BE5EBF48
:103C90001A945BBF534858BF31DB54BF3D4D51BFF1
:103CA000029F4DBF12D149BF03E445BF70D841BF49
:103CB000F9AE3DBF426839BFF30435BFBB8530BFA5
:103CC0004AEB2BBF563627BF996722BFD17F1DBF56
:103CD000C07F18BF2A6813BFDA390EBF9BF508BF33
:103CE0003D9C03BF275DFCBEEA5AF1BE7533E6BEBC
:103CF00080E8DABECA7BCFBE15EFC3BE2A44B8BE89
:103D0000D47CACBEE59AA0BE31A094BE938E88BE92
:103D1000CCCF78BE135C60BEC2C547BEA2102FBE1A
:103D2000834016BE73B2FABD36BDC8BD05A996BDA7
:103D300030FB48BDB00AC9BC372354A5B00AC93C02
:103D400030FB483D05A9963D36BDC83D73B2FA3DEE
:103D50008340163EA2102F3EC2C5473E135C603E14
:103D6000CCCF783E938E883E31A0943EE59AA03E1B
:103D7000D47CAC3E2A44B83E15EFC33ECA7BCF3E4E
:103D800080E8DA3E7533E63EEA5AF13E275DFC3EB6
:103D90003D9C033F9BF5083FDA390E3F2A68133FED
:103DA000C07F183FD17F1D3F9967223F5636273F7E
:103DB0004AEB2B3FBB85303FF304353F4268393F28
:103DC000F9AE3D3F70D8413F03E4453F12D1493F32
:103DD000029F4D3F3D4D513F31DB543F5348583FCB
:103DE0001A945B3F05BE5E3F98C5613F59AA643F88
:103DF000D86B673FA7096A3F5E836C3F9ED86E3FD2
:103E00000809713F4714733F0BFA743F07BA763FB6
:103E1000F853783F9DC7793FBE147B3F283B7C3FDA
:103E2000AC3A7D3F24137E3F6DC47E3F6D4E7F3F95
:103E30000FB17F3F43EC7F3F0000803F43EC7F3F6B
:103E40000000003F000000BFF036FF3EB1FFFFBEA4
:103E5000E16DFE3EC4FEFFBED3A4FD3E39FDFFBEB4
:103E6000C6DBFC3E11FBFFBEBB12FC3E4AF8FFBEA8
:103E7000B249FB3EE6F4FFBEAD80FA3EE3F0FFBE82
:103E8000ABB7F93E43ECFFBEACEEF83E05E7FFBE34
:103E9000B225F83E29E1FFBEBD5CF73EAFDAFFBEBA
:103EA000CD93F63E97D3FFBEE3CAF53EE2CBFFBE0D
:103EB0000002F53E8FC3FFBE2339F43E9EBAFFBE1B
:103EC0004D70F33E0FB1FFBE7FA7F23EE3A6FFBEEB
:103ED000B9DEF13E189CFFBEFD15F13EB190FFBE6C
:103EE000494DF03EAB84FFBE9F84EF3E0878FFBE95
:103EF000FFBBEE3EC76AFFBE6AF3ED3EE95CFFBE64
:103F0000DF2AED3E6D4EFFBE6162EC3E543FFFBEC8
:103F1000EF99EB3E9D2FFFBE89D1EA3E491FFFBEC0
:103F20003009EA3E580EFFBEE540E93EC9FCFEBE40
:103F3000A878E83E9DEAFEBE79B0E73ED4D7FEBE43
:103F400059E8E63E6DC4FEBE4920E63E69B0FEBEBD
:103F50004958E53EC99BFEBE5990E43E8B86FEBEA5
:103F60007AC8E33EB070FEBEAD00E33E385AFEBEF6
:103F7000F138E23E2343FEBE4871E13E722BFEBEA5
:103F8000B2A9E03E2413FEBE2FE2DF3E38FAFDBEAA
:103F9000BF1ADF3EB1E0FDBE6553DE3E8CC6FDBEFE
:103FA0001E8CDD3ECCABFDBEEDC4DC3E6E90FDBE96
:103FB000D2FDDB3E7474FDBECD36DB3EDE57FDBE6A
:103FC000DF6FDA3EAC3AFDBE08A9D93EDD1CFDBE6E
:103FD00049E2D83E73FEFCBEA11BD83E6CDFFCBE9E
:103FE0001355D73EC9BFFCBE9D8ED63E8A9FFCBEF0
:103FF00041C8D53EB07EFCBEFF01D53E3A5DFCBE59
:10400000D73BD43E283BFCBECB75D33E7A18FCBED2
:10401000DAAFD23E31F5FBBE05EAD13E4DD1FBBE53
:104020004C24D13ECDACFBBEB15ED03EB287FBBED0
:104030003299CF3EFC61FBBED2D3CE3EAB3BFBBE42
:10404000900ECE3EBE14FBBE6C49CD3E37EDFABE9F
:104050006884CC3E16C5FABE84BFCB3E599CFABEDE
:10406000C0FACA3E0273FABE1C36CA3E1049FABEF6
:104070009A71C93E841EFABE3AADC83E5EF3F9BEDF
:10408000FBE8C73E9DC7F9BEDF24C73E439BF9BE90
:10409000E760C63E4E6EF9BE119DC53EC040F9BEFA
:1040A00060D9C43E9812F9BED415C43ED6E3F8BE1A
:1040B0006C52C33E7BB4F8BE298FC23E8684F8BEE4
:1040C0000DCCC13EF853F8BE1709C13ED122F8BE4F
:1040D0004846C03E10F1F7BEA083BF3EB7BEF7BE54
:1040E00020C1BE3EC58BF7BEC8FEBD3E3A58F7BEE6
:1040F000993CBD3E1724F7BE937ABC3E5BEFF6BEFB
:10410000B6B8BB3E07BAF6BE04F7BA3E1B84F6BE8D
:104110007D35BA3E974DF6BE2074B93E7A16F6BE8E
:10412000EFB2B83EC6DEF5BEEAF1B73E7BA6F5BEFD
:104130001131B73E976DF5BE6670B63E1D34F5BEC3
:10414000E7AFB53E0BFAF4BE97EFB43E62BFF4BEE4
:10415000752FB43E2284F4BE816FB33E4B48F4BE4B
:10416000BDAFB23EDD0BF4BE28F0B13ED9CEF3BEFA
:10417000C430B13E3F91F3BE9071B03E0E53F3BEDA
:104180008EB2AF3E4714F3BEBDF3AE3EEBD4F2BEEB
:104190001D35AE3EF894F2BEB176AD3E7054F2BE1F
:1041A00077B8AC3E5213F2BE71FAAB3E9FD1F1BE6E
:1041B0009E3CAB3E578FF1BE007FAA3E7A4CF1BECB
:1041C00096C1A93E0809F1BE6204A93E01C5F0BE30
:1041D0006347A83E6680F0BE9B8AA73E373BF0BE91
:1041E00009CEA63E73F5EFBEAE11A63E1BAFEFBEE5
:1041F0008A55A53E3068EFBE9E99A43EB020EFBE22
:10420000EBDDA33E9ED8EEBE7122A33EF88FEEBE3C
:104210003067A23EBE46EEBE28ACA13EF2FCEDBE2B
:104220005BF1A03E93B2EDBEC936A03EA167EDBEE4
:10423000717C9F3E1D1CEDBE55C29E3E07D0ECBE5C
:1042400075089E3E5E83ECBED24E9D3E2436ECBE8B
:104250006B959C3E58E8EBBE42DC9B3EFB99EBBE67
:1042600056239B3E0C4BEBBEA96A9A3E8CFBEABEE2
:104270003AB2993E7BABEABE0BFA983ED95AEABEF7
:104280001B42983EA709EABE6B8A973EE4B7E9BE97
:10429000FBD2963E9165E9BECD1B963EAE12E9BEBD
:1042A000DF64953E3CBFE8BE34AE943E396BE8BE59
:1042B000CAF7933EA816E8BEA441933E87C1E7BE65
:1042C000C08B923ED86BE7BE20D6913E9915E7BED3
:1042D000C320913ECCBEE6BEAC6B903E7167E6BE9D
:1042E000D9B68F3E880FE6BE4B028F3E10B7E5BEB3
:1042F000034E8E3E0B5EE5BE019A8D3E7904E5BE0F
:1043000046E68C3E59AAE4BED1328C3EAC4FE4BEA8
:10431000A47F8B3E73F4E3BEBFCC8A3EAC98E3BE71
:10432000231A8A3E5A3CE3BECF67893E7BDFE2BE5A
:10433000C4B5883E1082E2BE0204883E1A24E2BE62
:104340008B52873E98C5E1BE5EA1863E8A66E1BE7D
:104350007CF0853EF206E1BEE63F853ECFA6E0BE9C
:104360009B8F843E2146E0BE9CDF833EE9E4DFBEB6
:10437000EA2F833E2783DFBE8480823EDB20DFBEC0
:104380006DD1813E05BEDEBEA322813EA65ADEBEB1
:104390002774803EBEF6DDBEF38B7F3E4D92DDBEC0
:1043A00038307E3E532DDDBE1BD57C3ED1C7DCBEF2
:1043B0009E7A7B3EC761DCBEC1207A3E34FBDBBE09
:1043C00086C7783E1A94DBBEEE6E773E792CDBBE54
:1043D000F916763E50C4DABEA8BF743EA05BDABEC2
:1043E000FB68733E6AF2D9BEF412723EAD88D9BE44
:1043F00094BD703E6A1ED9BEDB686F3EA1B3D8BEC5
:10440000CB146E3E5348D8BE63C16C3E7FDCD7BE32
:10441000A56E6B3E2670D7BE921C6A3E4803D7BE7F
:104420002ACB683EE595D6BE6E7A673EFE27D6BE9D
:104430005F2A663E93B9D5BEFFDA643EA44AD5BE74
:104440004C8C633E31DBD4BE4A3E623E3B6BD4BEF5
:10445000F7F0603EC3FAD3BE56A45F3EC789D3BE11
:1044600066585E3E4918D3BE2A0D5D3E49A6D2BEAF
:10447000A0C25B3EC633D2BECB785A3EC2C0D1BECC
:10448000AB2F593E3D4DD1BE41E7573E37D9D0BE47
:104490008E9F563EAF64D0BE9158553EA8EFCFBE1A
:1044A0004E12543E1F7ACFBEC3CC523E1704CFBE2D
:1044B000F287513E908DCEBEDB43503E8916CEBE74
:1044C00080004F3E029FCDBEE1BD4D3EFD26CDBEDC
:1044D000FF7B4C3E79AECCBEDB3A4B3E7835CCBE52
:1044E00075FA493EF8BBCBBECEBA483EFA41CBBEC8
:1044F000E87B473E7FC7CABEC23D463E874CCABE28
:104500005D00453E12D1C9BEBBC3433E2155C9BE65
:10451000DC87423EB3D8C8BEC14C413ECA5BC8BE70
:104520006B12403E65DEC7BEDAD83E3E8560C7BE30
:104530000FA03D3E2AE2C6BE0A683C3E5463C6BE9A
:10454000CE303B3E03E4C5BE59FA393E3964C5BEA0
:10455000AEC4383EF5E3C4BECD8F373E3763C4BE2C
:10456000B65B363E00E2C3BE6B28353E5160C3BE2B
:10457000ECF5333E29DEC2BE39C4323E895BC2BE91
:104580005493313E70D8C1BE3E63303EE154C1BE4B
:10459000F6332F3EDAD0C0BE7E052E3E5C4CC0BE48
:1045A000D7D72C3E67C7BFBE01AB2B3EFC41BFBE79
:1045B000FC7E2A3E1BBCBEBECB53293EC535BEBECB
:1045C0006D29283EF9AEBDBEE3FF263EB827BDBE2D
:1045D0002DD7253E03A0BCBE4EAF243ED917BCBE8E
:1045E0004488233E3B8FBBBE1262223E2906BBBEDF
:1045F000B73C213EA47CBABE3418203EACF2B9BE12
:104600008BF41E3E4268B9BEBBD11D3E65DDB8BE0F
:10461000C6AF1C3E1652B8BEAC8E1B3E55C6B7BECA
:104620006E6E1A3E233AB7BE0C4F193E7FADB6BE32
:104630008830183E6C20B6BEE112173EE792B5BE38
:104640001AF6153EF304B5BE31DA143E8F76B4BEC9
:1046500029BF133EBCE7B3BE01A5123E7A58B3BED4
:10466000BB8B113EC9C8B2BE5673103EAA38B2BE4B
:10467000D55B0F3E1DA8B1BE37450E3E2217B1BE19
:104680007D2F0D3EBB85B0BEA71A0C3EE6F3AFBE34
:10469000B7060B3EA561AFBEADF3093EF7CEAEBE89
:1046A0008AE1083EDE3BAEBE4ED0073E59A8ADBE05
:1046B000FBBF063E6914ADBE90B0053E0F80ACBE98
:1046C0000EA2043E4AEBABBE7694033E1B56ABBE35
:1046D000C987023E82C0AABE087C013E802AAABECB
:1046E0003271003E1594A9BE91CEFE3D41FDA8BE9B
:1046F0009ABCFC3D0566A8BE7EACFA3D61CEA7BE65
:104700003F9EF83D5636A7BEDE91F63DE39DA6BE20
:104710005D87F43D0A05A6BEBC7EF23DCB6BA5BE0F
:10472000FE77F03D25D2A4BE2373EE3D1A38A4BE19
:104730002D70EC3DA99DA3BE1C6FEA3DD302A3BE24
:10474000F36FE83D9967A2BEB172E63DFBCBA1BE17
:104750005A77E43DF92FA1BEED7DE23D9393A0BED3
:104760006C86E03DCBF69FBED890DE3D9F599FBE44
:10477000329DDC3D12BC9EBE7CABDA3D221E9EBE4D
:10478000B7BBD83DD17F9DBEE4CDD63D1FE19CBED9
:1047900003E2D43D0C429CBE18F8D23D99A29BBEC8
:1047A0002110D13DC6029BBE222ACF3D93629ABE04
:1047B0001A46CD3D00C299BE0B64CB3D0F2199BE78
:1047C000F783C93DC07F98BEDEA5C73D12DE97BE08
:1047D000C1C9C53D073C97BEA2EFC33D9F9996BE98
:1047E0008217C23DD9F695BE6241C03DB75395BE12
:1047F000436DBE3D39B094BE269BBC3D5F0C94BE5C
:104800000CCBBA3D2A6893BEF7FCB83D9AC392BE62
:10481000E730B73DB01E92BEDE66B53D6B7991BE06
:10482000DD9EB33DCDD390BEE4D8B13DD52D90BE35
:10483000F614B03D84878FBE1253AE3DDBE08EBED2
:104840003B93AC3DDA398EBE71D5AA3D81928DBEC7
:10485000B519A93DD0EA8CBE0860A73DC9428CBEFF
:104860006CA8A53D6B9A8BBEE2F2A33DB7F18ABE60
:10487000693FA23DAD488ABE058EA03D4E9F89BED0
:10488000B5DE9E3D9BF588BE7B319D3D924B88BE3B
:1048900057869B3D36A187BE4BDD993D86F686BE89
:1048A0005836983D824B86BE7F91963D2CA085BEA2
:1048B000C0EE943D84F484BE1D4E933D894884BE71
:1048C00097AF913D3D9C83BE2F13903D9FEF82BEDD
:1048D000E6788E3DB14282BEBCE08C3D739581BED0
:1048E000B34A8B3DE4E780BECCB6893D063A80BE34
:1048F0000725883DB2177FBE6795863DBBBA7DBE52
:10490000EA07853D275D7CBE947C833DF7FE7ABE39
:1049100064F3813D2DA079BE5B6C803DC84078BEBC
:10492000F6CE7D3DCBE076BE89C97A3D358075BE39
:1049300070C8773D071F74BEAECB743D43BD72BED9
:1049400044D3713DEA5A71BE34DF6E3DFBF76FBE52
:1049500080EF6B3D79946EBE2A04693D63306DBE75
:10496000331D663DBBCB6BBE9E3A633D81666ABE1E
:104970006B5C603DB70069BE9E825D3D5D9A67BE1F
:1049800038AD5A3D753366BE3ADC573DFECB64BE4A
:10499000A60F553DFA6363BE7D47523D6AFB61BE7B
:1049A000C3834F3D4F9260BE78C44C3DA9285FBE83
:1049B0009E094A3D79BE5DBE3653473DC1535CBE3C
:1049C00043A1443D80E85ABEC6F3413DB97C59BE7F
:1049D000C04A3F3D6B1058BE34A63C3D99A356BE1D
:1049E00023063A3D413655BE8E6A373D67C853BEF1
:1049F00078D3343D095A52BEE140323D2AEB50BED5
:104A0000CCB22F3DCA7B4FBE39292D3DEA0B4EBE9D
:104A10002BA42A3D8B9B4CBEA323283DAE2A4BBE24
:104A2000A3A7253D53B949BE2C30233D7C4748BE42
:104A30003FBD203D29D546BEDF4E1E3D5C6245BED2
:104A40000CE51B3D15EF43BEC97F193D557B42BEAA
:104A5000161F173D1E0741BEF5C2143D6F923FBEA3
:104A6000676B123D4A1D3EBE6F18103DAFA73CBE9E
:104A70000DCA0D3DA0313BBE43800B3D1EBB39BE70
:104A8000123B093D2A4438BE7CFA063DC3CC36BEF3
:104A900082BE043DEC5435BE2587023DA5DC33BE05
:104AA0006754003DEF6332BE934CFC3CCBEA30BE12
:104AB0009BF9F73C3A712FBEE8AFF33C3CF72DBEB3
:104AC0007E6FEF3CD47C2CBE5E38EB3C01022BBEEB
:104AD0008C0AE73CC48629BE0AE6E23C1F0B28BECE
:104AE000DACADE3C128F26BE00B9DA3C9F1225BE20
:104AF0007EB0D63CC59523BE55B1D23C871822BEA8
:104B00008ABBCE3CE59A20BE1DCFCA3CDF1C1FBE2F
:104B100012ECC63C789E1DBE6B12C33CAF1F1CBE80
:104B20002A42BF3C86A01ABE527BBB3CFE2019BE67
:104B3000E5BDB73C17A117BEE509B43CD22016BEAF
:104B4000555FB03C31A014BE36BEAC3C351F13BE21
:104B50008C26A93CDD9D11BE5798A53C2C1C10BE8F
:104B60009C13A23C229A0EBE5A989E3CC0170DBEC2
:104B700096269B3C07950BBE51BE973CF7110ABE8B
:104B80008C5F943C938E08BE4B0A913CDA0A07BEB8
:104B90008FBE8D3CCE8605BE5A7C8A3C700204BE18
:104BA000AE43873CC07D02BE8D14843CC0F800BE7D
:104BB000FAEE803CE1E6FEBDEBA57B3CA4DBFBBD51
:104BC0000481753CCCCFF8BD436F6F3C5AC3F5BD33
:104BD000AC70693C51B6F2BD4285633CB2A8EFBDF2
:104BE00009AD5D3C7F9AECBD04E8573CBA8BE9BD4A
:104BF0003736523C667CE6BDA6974C3C836CE3BDE1
:104C0000540C473C135CE0BD4494413C1A4BDDBD61
:104C10007A2F3C3C9739DABDF9DD363C8F27D7BD7A
:104C2000C59F313C0115D4BDE0742C3CF101D1BDD0
:104C30004F5D273C60EECDBD1359223C4FDACABD13
:104C400030681D3CC2C5C7BDA98A183CB9B0C4BDF7
:104C500082C0133C379BC1BDBD090F3C3E85BEBD24
:104C60005C660A3CCF6EBBBD64D6053CEC57B8BD54
:104C7000D659013C9840B5BD6BE1F93BD428B2BD93
:104C80000B36F13BA210AFBD90B1E83B04F8ABBDD1
:104C90000154E03BFCDEA8BD611DD83B8CC5A5BD21
:104CA000B60DD03BB6ABA2BD0625C83B7B919FBDE0
:104CB0005563C03BDE769CBDA7C8B83BE05B99BDA1
:104CC0000255B13B834096BD6A08AA3BCA2493BDF6
:104CD000E3E2A23BB70890BD73E49B3B4AEC8CBD7A
:104CE0001D0D953B86CF89BDE55C8E3B6EB286BDC2
:104CF000D0D3873B029583BDE271813B457780BD70
:104D00003C6E763B73B27ABD12476A3BC07574BD88
:104D10004C6E5E3B76386EBDF2E3523B9AFA67BD4D
:104D20000AA8473B2EBC61BD9DBA3C3B377D5BBDAD
:104D3000AF1B323BB93D55BD49CB273BB7FD4EBDFF
:104D400071C91D3B36BD48BD2C16143B397C42BD94
:104D500080B10A3BC33A3CBD749B013BDAF835BDD8
:104D60001AA8F13A80B62FBDA1B6E03ABA7329BDB0
:104D70008762D03A8C3023BDD6ABC03AF9EC1CBD6B
:104D80009892B13A05A916BDD616A33AB46410BDDF
:104D90009A38953A0A200ABDECF7873A0ADB03BD38
:104DA000A7A9763A742BFBBCB29E5E3A38A0EEBC43
:104DB00007CF473A6914E2BCB53A323A0E88D5BCFF
:104DC000C8E11D3A30FBC8BC4EC40A3AD56DBCBC24
:104DD000A5C4F13907E0AFBCBF77D039CB51A3BC34
:104DE00000A2B1392CC396BC7B4395392F348ABCC1
:104DF00084B87639BA497BBCC7D847397A2A62BCAD
:104E0000DFE71D39B00A49BCC8CBF13869EA2FBCCD
:104E1000DAA5B138B6C916BC3BBC76384B51FBBBE2
:104E200064E91D38900EC9BBD1A6B13758CB96BBEB
:104E3000C6E91D37880F49BBDEE91D36C60FC9BA62
:104E400000000000E845D2A8DEE91D36C60FC93AC9
:104E5000C6E91D37880F493BD1A6B13758CB963BE1
:104E600064E91D38900EC93B3BBC76384B51FB3B87
:104E7000DAA5B138B6C9163CC8CBF13869EA2F3C7F
:104E8000DFE71D39B00A493CC7D847397A2A623C66
:104E900084B87639BA497B3C7B4395392F348A3CB8
:104EA00000A2B1392CC3963CBF77D039CB51A33C7B
:104EB000A5C4F13907E0AF3C4EC40A3AD56DBC3CFD
:104EC000C8E11D3A30FBC83CB53A323A0E88D53CB1
:104ED00007CF473A6914E23CB29E5E3A38A0EE3CF6
:104EE000A7A9763A742BFB3CECF7873A0ADB033D23
:104EF0009A38953A0A200A3DD616A33AB464103D72
:104F00009892B13A05A9163DD6ABC03AF9EC1C3DD2
:104F10008762D03A8C30233DA1B6E03ABA73293D7E
:104F20001AA8F13A80B62F3D749B013BDAF8353D63
:104F300080B10A3BC33A3C3D2C16143B397C423DC0
:104F400071C91D3B36BD483D49CB273BB7FD4E3DA2
:104F5000AF1B323BB93D553D9DBA3C3B377D5B3D78
:104F60000AA8473B2EBC613DF2E3523B9AFA673DEB
:104F70004C6E5E3B76386E3D12476A3BC075743DA1
:104F80003C6E763B73B27A3DE271813B4577803D62
:104F9000D0D3873B0295833DE55C8E3B6EB2863D68
:104FA0001D0D953B86CF893D73E49B3B4AEC8C3DC0
:104FB000E3E2A23BB708903D6A08AA3BCA24933DAE
:104FC0000255B13B8340963DA7C8B83BE05B993D95
:104FD0005563C03BDE769C3D0625C83B7B919F3DDB
:104FE000B60DD03BB6ABA23D611DD83B8CC5A53DEF
:104FF0000154E03BFCDEA83D90B1E83B04F8AB3D3A
:105000000B36F13BA210AF3D6BE1F93BD428B23D2A
:10501000D659013C9840B53D64D6053CEC57B83DA7
:105020005C660A3CCF6EBB3DBD090F3C3E85BE3D74
:1050300082C0133C379BC13DA98A183CB9B0C43D1E
:1050400030681D3CC2C5C73D1359223C4FDACA3DEA
:105050004F5D273C60EECD3DE0742C3CF101D13D2D
:10506000C59F313C0115D43DF9DD363C8F27D73D36
:105070007A2F3C3C9739DA3D4494413C1A4BDD3D54
:10508000540C473C135CE03DA6974C3C836CE33DDD
:105090003736523C667CE63D04E8573CBA8BE93D26
:1050A00009AD5D3C7F9AEC3D4285633CB2A8EF3D83
:1050B000AC70693C51B6F23D436F6F3C5AC3F53D4D
:1050C0000481753CCCCFF83DEBA57B3CA4DBFB3DDC
:1050D000FAEE803CE1E6FE3D8D14843CC0F8003ED3
:1050E000AE43873CC07D023E5A7C8A3C7002043E3F
:1050F0008FBE8D3CCE86053E4B0A913CDA0A073EB8
:105100008C5F943C938E083E51BE973CF7110A3E4B
:1051100096269B3C07950B3E5A989E3CC0170D3E29
:105120009C13A23C229A0E3E5798A53C2C1C103E84
:105130008C26A93CDD9D113E36BEAC3C351F133E8E
:10514000555FB03C31A0143EE509B43CD220163E78
:10515000E5BDB73C17A1173E527BBB3CFE20193E74
:105160002A42BF3C86A01A3E6B12C33CAF1F1C3EB6
:1051700012ECC63C789E1D3E1DCFCA3CDF1C1F3E74
:105180008ABBCE3CE59A203E55B1D23C8718223EE0
:105190007EB0D63CC595233E00B9DA3C9F12253E31
:1051A000DACADE3C128F263E0AE6E23C1F0B283E9E
:1051B0008C0AE73CC486293E5E38EB3C01022B3E5C
:1051C0007E6FEF3CD47C2C3EE8AFF33C3CF72D3EA9
:1051D0009BF9F73C3A712F3E934CFC3CCBEA303EB6
:1051E0006754003DEF63323E2587023DA5DC333E28
:1051F00082BE043DEC54353E7CFA063DC3CC363EBF
:10520000123B093D2A44383E43800B3D1EBB393ECC
:105210000DCA0D3DA0313B3E6F18103DAFA73C3E7F
:10522000676B123D4A1D3E3EF5C2143D6F923F3EF4
:10523000161F173D1E07413EC97F193D557B423E53
:105240000CE51B3D15EF433EDF4E1E3D5C62453EC7
:105250003FBD203D29D5463E2C30233D7C47483E6E
:10526000A3A7253D53B9493EA323283DAE2A4B3E73
:105270002BA42A3D8B9B4C3E39292D3DEA0B4E3EFB
:10528000CCB22F3DCA7B4F3EE140323D2AEB503E2F
:1052900078D3343D095A523E8E6A373D67C8533E33
:1052A00023063A3D4136553E34A63C3D99A3563E31
:1052B000C04A3F3D6B10583EC6F3413DB97C593E54
:1052C00043A1443D80E85A3E3653473DC1535C3EBE
:1052D0009E094A3D79BE5D3E78C44C3DA9285F3E9B
:1052E000C3834F3D4F92603E7D47523D6AFB613E16
:1052F000A60F553DFA63633E3ADC573DFECB643E54
:1053000038AD5A3D7533663E9E825D3D5D9A673E7F
:105310006B5C603DB700693E9E3A633D81666A3EC4
:10532000331D663DBBCB6B3E2A04693D63306D3E49
:1053300080EF6B3D79946E3E34DF6E3DFBF76F3E40
:1053400044D3713DEA5A713EAECB743D43BD723ECB
:1053500070C8773D071F743E89C97A3D3580753E18
:10536000F6CE7D3DCBE0763E5B6C803DC840783E1E
:1053700064F3813D2DA0793E947C833DF7FE7A3E17
:10538000EA07853D275D7C3E6795863DBBBA7D3E3D
:105390000725883DB2177F3ECCB6893D063A803E50
:1053A000B34A8B3DE4E7803EBCE08C3D7395813E83
:1053B000E6788E3DB142823E2F13903D9FEF823EB4
:1053C00097AF913D3D9C833E1D4E933D8948843E61
:1053D000C0EE943D84F4843E7F91963D2CA0853EA2
:1053E0005836983D824B863E4BDD993D86F6863E8B
:1053F00057869B3D36A1873E7B319D3D924B883E33
:10540000B5DE9E3D9BF5883E058EA03D4E9F893EB4
:10541000693FA23DAD488A3EE2F2A33DB7F18A3E24
:105420006CA8A53D6B9A8B3E0860A73DC9428C3E97
:10543000B519A93DD0EA8C3E71D5AA3D81928D3E29
:105440003B93AC3DDA398E3E1253AE3DDBE08E3EEF
:10545000F614B03D84878F3EE4D8B13DD52D903E03
:10546000DD9EB33DCDD3903EDE66B53D6B79913E7A
:10547000E730B73DB01E923EF7FCB83D9AC3923E6E
:105480000CCBBA3D2A68933E269BBC3D5F0C943EF4
:10549000436DBE3D39B0943E6241C03DB753953E29
:1054A0008217C23DD9F6953EA2EFC33D9F99963E25
:1054B000C1C9C53D073C973EDEA5C73D12DE973EFC
:1054C000F783C93DC07F983E0B64CB3D0F21993EC9
:1054D0001A46CD3D00C2993E222ACF3D93629A3EA4
:1054E0002110D13DC6029B3E18F8D23D99A29B3EA9
:1054F00003E2D43D0C429C3EE4CDD63D1FE19C3EF0
:10550000B7BBD83DD17F9D3E7CABDA3D221E9E3E8F
:10551000329DDC3D12BC9E3ED890DE3D9F599F3EA1
:105520006C86E03DCBF69F3EED7DE23D9393A03E41
:105530005A77E43DF92FA13EB172E63DFBCBA13E87
:10554000F36FE83D9967A23E1C6FEA3DD302A33E8C
:105550002D70EC3DA99DA33E2373EE3D1A38A43E69
:10556000FE77F03D25D2A43EBC7EF23DCB6BA53E3E
:105570005D87F43D0A05A63EDE91F63DE39DA63E1D
:105580003F9EF83D5636A73E7EACFA3D61CEA73E23
:105590009ABCFC3D0566A83E91CEFE3D41FDA83E6D
:1055A0003271003E1594A93E087C013E802AAA3E35
:1055B000C987023E82C0AA3E7694033E1B56AB3E8C
:1055C0000EA2043E4AEBAB3E90B0053E0F80AC3ECF
:1055D000FBBF063E6914AD3E4ED0073E59A8AD3E16
:1055E0008AE1083EDE3BAE3EADF3093EF7CEAE3E6D
:1055F000B7060B3EA561AF3EA71A0C3EE6F3AF3EE1
:105600007D2F0D3EBB85B03E37450E3E2217B13E85
:10561000D55B0F3E1DA8B13E5673103EAA38B23E70
:10562000BB8B113EC9C8B23E01A5123E7A58B33EAB
:1056300029BF133EBCE7B33E31DA143E8F76B43E49
:105640001AF6153EF304B53EE112173EE792B53E59
:105650008830183E6C20B63E0C4F193E7FADB63EEA
:105660006E6E1A3E233AB73EAC8E1B3E55C6B73E11
:10567000C6AF1C3E1652B83EBBD11D3E65DDB83EDE
:105680008BF41E3E4268B93E3418203EACF2B93E5F
:10569000B73C213EA47CBA3E1262223E2906BB3EA4
:1056A0004488233E3B8FBB3E4EAF243ED917BC3EC1
:1056B0002DD7253E03A0BC3EE3FF263EB827BD3EC6
:1056C0006D29283EF9AEBD3ECB53293EC535BE3EC1
:1056D000FC7E2A3E1BBCBE3E01AB2B3EFC41BF3EC6
:1056E000D7D72C3E67C7BF3E7E052E3E5C4CC03EE2
:1056F000F6332F3EDAD0C03E3E63303EE154C13E29
:105700005493313E70D8C13E39C4323E895BC23EAB
:10571000ECF5333E29DEC23E6B28353E5160C33E78
:10572000B65B363E00E2C33ECD8F373E3763C43EA4
:10573000AEC4383EF5E3C43E59FA393E3964C53E3D
:10574000CE303B3E03E4C53E0A683C3E5463C63E51
:105750000FA03D3E2AE2C63EDAD83E3E8560C73EF7
:105760006B12403E65DEC73EC14C413ECA5BC83E3F
:10577000DC87423EB3D8C83EBBC3433E2155C93E39
:105780005D00453E12D1C93EC23D463E874CCA3EF1
:10579000E87B473E7FC7CA3ECEBA483EFA41CB3E81
:1057A00075FA493EF8BBCB3EDB3A4B3E7835CC3EF2
:1057B000FF7B4C3E79AECC3EE1BD4D3EFD26CD3E5D
:1057C00080004F3E029FCD3EDB43503E8916CE3EC9
:1057D000F287513E908DCE3EC3CC523E1704CF3E51
:1057E0004E12543E1F7ACF3E9158553EA8EFCF3E01
:1057F0008E9F563EAF64D03E41E7573E37D9D03EEC
:10580000AB2F593E3D4DD13ECB785A3EC2C0D13E22
:10581000A0C25B3EC633D23E2A0D5D3E49A6D23EB3
:1058200066585E3E4918D33E56A45F3EC789D33EB4
:10583000F7F0603EC3FAD33E4A3E623E3B6BD43E35
:105840004C8C633E31DBD43EFFDA643EA44AD53E45
:105850005F2A663E93B9D53E6E7A673EFE27D63EF6
:105860002ACB683EE595D63E921C6A3E4803D73E59
:10587000A56E6B3E2670D73E63C16C3E7FDCD73E83
:10588000CB146E3E5348D83EDB686F3EA1B3D83E82
:1058900094BD703E6A1ED93EF412723EAD88D93E68
:1058A000FB68733E6AF2D93EA8BF743EA05BDA3E45
:1058B000F916763E50C4DA3EEE6E773E792CDB3E2A
:1058C00086C7783E1A94DB3EC1207A3E34FBDB3E2D
:1058D0009E7A7B3EC761DC3E1BD57C3ED1C7DC3E59
:1058E00038307E3E532DDD3EF38B7F3E4D92DD3EC4
:1058F0002774803EBEF6DD3EA322813EA65ADE3EE0
:105900006DD1813E05BEDE3E8480823EDB20DF3EDF
:10591000EA2F833E2783DF3E9CDF833EE9E4DF3EC0
:105920009B8F843E2146E03EE63F853ECFA6E03E8B
:105930007CF0853EF206E13E5EA1863E8A66E13E4F
:105940008B52873E98C5E13E0204883E1A24E23E0F
:10595000C4B5883E1082E23ECF67893E7BDFE23EDF
:10596000231A8A3E5A3CE33EBFCC8A3EAC98E33EC3
:10597000A47F8B3E73F4E33ED1328C3EAC4FE43EC9
:1059800046E68C3E59AAE43E019A8D3E7904E53EF6
:10599000034E8E3E0B5EE53E4B028F3E10B7E53E5A
:1059A000D9B68F3E880FE63EAC6B903E7167E63EFF
:1059B000C320913ECCBEE63E20D6913E9915E73EEF
:1059C000C08B923ED86BE73EA441933E87C1E73E31
:1059D000CAF7933EA816E83E34AE943E396BE83ED3
:1059E000DF64953E3CBFE83ECD1B963EAE12E93EDD
:1059F000FBD2963E9165E93E6B8A973EE4B7E93E5D
:105A00001B42983EA709EA3E0BFA983ED95AEA3E55
:105A10003AB2993E7BABEA3EA96A9A3E8CFBEA3EDB
:105A200056239B3E0C4BEB3E42DC9B3EFB99EB3EF0
:105A30006B959C3E58E8EB3ED24E9D3E2436EC3EA4
:105A400075089E3E5E83EC3E55C29E3E07D0EC3EFE
:105A5000717C9F3E1D1CED3EC936A03EA167ED3E08
:105A60005BF1A03E93B2ED3E28ACA13EF2FCED3ED0
:105A70003067A23EBE46EE3E7122A33EF88FEE3E58
:105A8000EBDDA33E9ED8EE3E9E99A43EB020EF3EB5
:105A90008A55A53E3068EF3EAE11A63E1BAFEF3EE5
:105AA00009CEA63E73F5EF3E9B8AA73E373BF03EFC
:105AB0006347A83E6680F03E6204A93E01C5F03E01
:105AC00096C1A93E0809F13E007FAA3E7A4CF13EFC
:105AD0009E3CAB3E578FF13E71FAAB3E9FD1F13EFB
