:020000040800F2
:1000000060CA0020690200089326000869200008E1
:1000100091260008B9170008614700080000000099
:10002000000000000000000000000000413F000848
:100030005518000800000000EB02000821410008EC
:10004000830200088302000883020008830200087C
:10005000830200088302000883020008830200086C
:10006000830200088302000883020008830200085C
:10007000830200088302000883020008830200084C
:10008000830200088302000883020008830200083C
:10009000830200088302000883020008830200082C
:1000A000830200088302000883020008830200081C
:1000B00083020008A14100087D4200088302000875
:1000C00083020008830200088302000883020008FC
:1000D00083020008830200081D440008F945000857
:1000E00059180008830200088302000883020008F0
:1000F00083020008830200088302000883020008CC
:1001000083020008830200088302000883020008BB
:1001100083020008830200088302000883020008AB
:10012000830200088302000883020008830200089B
:10013000830200088302000883020008830200088B
:10014000830200088302000883020008830200087B
:10015000830200088302000883020008830200086B
:10016000830200088302000883020008830200085B
:10017000830200088302000883020008830200084B
:10018000830200088302000800F002F800F05CF827
:100190000AA090E8000C82448344AAF10107DA45E2
:1001A00001D100F051F8AFF2090EBAE80F0013F0D8
:1001B000010F18BFFB1A43F001031847FC1E010092
:1001C0001C1F01000A444FF0000C10F8013B13F013
:1001D000070408BF10F8014B1D1108BF10F8015BA0
:1001E000641E05D010F8016B641E01F8016BF9D193
:1001F00013F0080F1EBF10F8014BAD1C0C1B09D1EA
:100200006D1E58BF01F801CBFAD505E014F8016B5B
:1002100001F8016B6D1EF9D59142D6D370470000ED
:100220000023002400250026103A28BF78C1FBD8FF
:10023000520728BF30C148BF0B6070471FB50BF095
:100240004AFB1FBD10B510BD00F054FF1146FFF76B
:10025000F5FF09F075FD00F072FF03B4FFF7F2FF40
:1002600003BC00F073FF00000948804709480047BD
:10027000FEE7FEE7FEE7FEE7FEE7FEE7FEE7FEE756
:10028000FEE7FEE704480549054A064B70470000B3
:10029000454100088901000860C4002060CA0020B0
:1002A00060C6002060C60020EFF3108072B6704771
:1002B00080F3108870471D484FF0FF010170002047
:1002C00080F309881A48012101701A484FF08051C3
:1002D000016062B6FEE717484FF080510160704739
:1002E00014484FF080510160704772B6EFF30980F7
:1002F00028B1203880E8F00F0F490968086000B580
:100300000E4880475DF804EB0D480E490A780270EC
:1003100009480D490A680260106890E8F00F203023
:1003200080F309884EF0040E62B6704722ED00E0BB
:100330007B00002004ED00E09400002079300008EC
:1003400078000020790000209C00002072B67047E1
:1003500062B67047EFF3108072B6704780F3108872
:100360007047B0FA80F0704790FAA0F0704730BF45
:10037000704720BF70470000DFED2E0AB5EEC00ABF
:1003800060EE200ABDEEE01A11EE100AF1EE10FA4E
:1003900038BF401E00EE100ADFED271AF7EE005AB4
:1003A000B8EEC00ADFED274A244930EEC01A21EE2C
:1003B000210AFCEEC00A10EE900A00EE900A01EB52
:1003C0008000B8EE600ADFED1E0AF0EC012A11EEA3
:1003D000210AF6EE001AB0EC013AF0EC013A20EEF8
:1003E000001A20EE216A40EE615A20EE245A21EED6
:1003F000212A90ED004A00EE602A66EE010A40EEE6
:10040000400A05EE412A70EEA55AF0EE400A41EE90
:10041000210A46EE410A25EE011A00EE641A22EE88
:10042000820A63EEA00A03EE250A44EE010A30EECA
:10043000200A704783F9223E000080430CBA00086E
:10044000ABAAAA3EABAA2A3E9FED3A0A5FEA920CFB
:1004500053D000BFB0EC011A0B1DF0EC010A21EEE5
:10046000011A00EEA01AB5EEC01AF1EE10FAC6BFDE
:10047000F1EEC10AC1ED000A81ED000AF0EC010ABB
:10048000191DB0EC011A60EEA00A41EE010AF5EE6A
:10049000C00AF1EE10FAC6BFF1EEE00AC3ED000AA1
:1004A00083ED000AB0EC011A0B1DF0EC010A21EEFD
:1004B000011A00EEA01AB5EEC01AF1EE10FAC6BF8E
:1004C000F1EEC10AC1ED000A81ED000AB0EC011A9B
:1004D000191DF0EC010A21EE011A00EEA01AB5EE8A
:1004E000C01AF1EE10FAC6BFF1EEC10AC3ED000A60
:1004F00083ED000ABCF1010CACD112F0030208BF7D
:10050000704700BFF0EC010A0B46B0EC011A091D60
:1005100060EEA00A41EE010AF5EEC00AF1EE10FA13
:10052000C6BFF1EEE00AC3ED000A83ED000A521ED9
:10053000E8D17047000000002DE9F00700EBC10989
:10054000DDE90778D0F800A0C9F800A007EB011496
:10055000D0F804A0251FA9F10406C9F804A003EBF4
:10056000C80907F1080C00F1080402EBC8024B1E91
:1005700031D000BFF2EC011A96ED002A92ED001A7C
:1005800002EBC802B4EC010A121FF4EC012A60EE7F
:10059000210A20EE010A32EE823A02EEA10AD9EDDA
:1005A000001A43EE410A09EBC80902EE610A16ED92
:1005B000012A083E42EE210A02EE410AECEC010A51
:1005C000ACEC010AB1EE400A85ED000A45ED010AE6
:1005D000083D5B1ECED190ED000AD0ED010A07EB7D
:1005E000C10130EE600A81ED000A9FED5D0A81EDE8
:1005F000010AD0ED000A90ED011A70EE810AC7EDF4
:10060000000A87ED010ABDE8F007704770B400EBFF
:10061000C105DDE903C42D1D002904BF70BC70476E
:10062000F2EC011A95ED002A92ED001A02EBC402D9
:10063000B0EC010A121FF0EC012A60EE210A20EE54
:10064000410A32EE823A02EEA10AD3ED001A43EEDD
:10065000010A03EBC40302EE610A15ED012A083D0D
:10066000491E42EE210A02EE010AECEC010AACEC52
:10067000010AD5D170BC70472DE9F04305464469A5
:10068000807983B00F461646012809D0A3892188B6
:100690003846626800F036F9E87901284ED053E018
:1006A000AA88D5E9030307EBC20CD5F808803146C8
:1006B0000CF1040C5AB300BFB0EC011A9CED002AF7
:1006C000D0ED001A00EBC800B7EC010A001FF7ECF0
:1006D000012A521E60EE010A20EE610A32EE823AD1
:1006E00002EE810A93ED001A43EE210A03EBC803E0
:1006F00002EE410A1CED012AACF1080C42EE010A9F
:1007000002EE210AE1EC010AA1EC010AD4D194ED38
:10071000040AA38921883046626800F095FAE879D6
:1007200001281CBF03B0BDE8F083E2892188A368DB
:1007300003B03046BDE8F04300F08CB8E289218870
:100740003846A36800F086F8A868CDE90060D5E9CE
:100750000323A9883846FFF7EFFE03B0BDE8F08316
:100760000000000070B592B2DDF810C055080260BC
:100770008580184EC66006F50056DBB2066100247F
:10078000837180F807C0802A04BF102282600BD0DA
:10079000B2F5007F08BF042212D0B2F5006F14BF7B
:1007A0004FF0FF3401220BD0002B8C4641614FF0FB
:1007B000000307D001222946604600F015FC06E040
:1007C0008260F1E700222946604600F00DFC2046D9
:1007D00070BD000018BE000870B40025B0EC010A1E
:1007E000A1F1010CF0EC010AB4EEE00AF1EE10FA0E
:1007F0003CBFB0EE600A0125ACF10104A446B4F19F
:10080000004F0ED3F0EC010AB4EEE00AF1EE10FA5C
:100810003CBFB0EE600AA1EB0C05BCF1010CF1D1BC
:1008200013E0002CC8BF00260FDD00BFF0EC010A6A
:10083000B4EEE00AF1EE10FA04D2ACEB0605B0EE2D
:10084000600A4D1B761C641EF0D182ED000A1D600B
:1008500070BC70472DE9F0014E0801244FF0000CE8
:1008600004EB51076146A6F102082CE061452AD24B
:1008700000EBCC0500EBC104D5ED000A94ED000AB5
:10088000C4ED000A85ED000AD5ED010A94ED010AD8
:10089000C4ED010A85ED010A0CEB0705CC1900EB4C
:1008A000C50500EBC404D5ED000A94ED000AC4EDC3
:1008B000000A85ED000AD5ED010A94ED010AC4EDA8
:1008C000010A85ED010A00EBC104B44400EBCC0C35
:1008D00094ED020ADCED000A891CC4ED020A8CEDDD
:1008E000000A94ED030ADCF80450E5608CED010A7F
:1008F000B3F800C089B203EB42034145B6D9BDE865
:10090000F00170472DE9F04F4FEA910C4FF00008CD
:100910004746644608EB0C0505EB0C0909EB0C0691
:1009200000EBC80A00EBC9099AED000AD9ED000AEC
:1009300099ED012A00EBC50530EE201A30EE600A71
:10094000DAED010A00EBC60608F1010870EE821A22
:1009500070EEC20A95ED002AD6ED002A641E32EE32
:10096000222A71EE022A31EE421ACAED002A95EDD2
:10097000012AD6ED012A32EE222A71EE822A71EE88
:10098000C21ACAED012A95ED012AD6ED012A96ED8B
:10099000003A4FEA470A32EE622AD5ED002A02EB0E
:1009A000CA0B72EEC32A9BED003ADBED013A21EE51
:1009B000034A01EEA34A61EE831A41EE631A85ED04
:1009C000004A30EE021A30EE420AC5ED011A02EB7F
:1009D000C70570EEE21A95ED002A70EEA20AD5ED79
:1009E000012A21EE023A0AEB070502EBC5051F4476
:1009F00001EEA23A61EE821A41EE621A89ED003AE6
:100A0000C9ED011AD5ED001A95ED011A20EE212A43
:100A100000EE812A60EEA10A40EE410A86ED002A2E
:100A2000C6ED010A7FF476AF9B044FEA134BE6460E
:100A3000BCF1040F7DD9E0464FEA9C0C4FF0000951
:100A4000CA46BCF1000F75D94FEA490404EB09030B
:100A500002EBC90502EBC40402EBC30395ED001AD7
:100A6000D5ED011A94ED000AD4ED010A93ED002AA8
:100A7000D3ED012AD94453468A4573D203EB0C04C3
:100A800004EB0C0606EB0C0500EBC30700EBC606F7
:100A900097ED003AD6ED003A96ED015A00EBC4040A
:100AA00073EE234A33EE633AD7ED013A00EBC50506
:100AB00033EE854A73EEC53A94ED005AD5ED005AEF
:100AC00035EE255A74EE855A74EEC54AC7ED005AC4
:100AD00094ED015AD5ED015A35EE255A74EE055ABA
:100AE00034EE454AC7ED015A94ED015AD5ED015A4D
:100AF00095ED006A35EE655AD4ED005A75EEC65A8A
:100B000024EE806A04EE206A24EE004A04EEE04AF5
:100B100084ED006A73EEE54A73EEA53A84ED014A6E
:100B200033EE054A33EE453A24EE015A04EEA15A5B
:100B300001E026E01BE064EE814A86ED005A434462
:100B40008B4244EE614A23EE024A03EEA24A63EE70
:100B5000823AC6ED014A43EE623A85ED004AC5EDA0
:100B6000013A8BD30AF1010AE245FFF46DAF4FEA77
:100B70008B434FEA9E0E4FEA134BBEF1040F3FF634
:100B80005AAFA1EB0C0100224B1C4FEA9C04002B36
:100B90008CBF1F46BDE8F08F11190E19331900EBF9
:100BA000C20500EBC60695ED000AD6ED000A95EDEC
:100BB000012A96ED011A70EE201A70EE600A32EEEC
:100BC000010A00EBC10100EBC30332EE411A91EDC3
:100BD000002AD3ED002A6244974232EE222A71EEB7
:100BE000822A31EEC22AC5ED002AD1ED011AD3EDD9
:100BF000012A71EEA21A70EE212AC5ED012A70EECB
:100C0000612A91ED010AD3ED011A93ED003A70EEDD
:100C1000611A91ED000A81ED002AC1ED012A30EE42
:100C2000430A30EEA12A70EEE10A71EE401A31EE6D
:100C3000000A86ED002AC6ED011AC3ED000A83ED15
:100C4000010AA9D8BDE8F08F2DE9F04F4FEA910CC9
:100C50004FF000084746644608EB0C0505EB0C0A0C
:100C60000AEB0C0600EBC80900EBCA0AD9ED000A32
:100C70009AED001ADAED012A00EBC50570EE811A33
:100C800070EEC10A99ED011A00EBC60608F10108E1
:100C900031EE222A31EE621AD5ED002A96ED003AA5
:100CA000641E72EE832A31EEA23A71EEE21A89EDE9
:100CB000003AD5ED012A96ED013A72EE832A32EE22
:100CC000223A32EE622A89ED013AD5ED012A96EDFB
:100CD000013AD6ED003A4FEA470972EEC32A95ED84
:100CE000003A02EBC90B33EE633ADBED003A9BEDC1
:100CF000014A61EEA34A42EE444A22EE232A01EE63
:100D0000842AC5ED004A70EEE21A70EEA20A85ED63
:100D1000012A02EBC70531EE032AD5ED002A31EE98
:100D2000431A95ED013A61EEA23A09EB070502EB91
:100D3000C5051F4442EE433A22EE222A01EE832AE1
:100D4000CAED003A8AED012AD5ED001A95ED012A87
:100D500060EEA12A41EE422A21EE211A00EE821A0B
:100D6000C6ED002A86ED011A7FF476AF9B044FEAA8
:100D7000134BE646BCF1040F7DD9E0464FEA9C0CCC
:100D80004FF00009CA46BCF1000F75D94FEA49047B
:100D900004EB090302EBC90502EBC40402EBC30335
:100DA000D5ED001A95ED012AD4ED000A94ED011A53
:100DB000D3ED002A93ED013AD94453468A4573D2C4
:100DC00003EB0C0404EB0C0606EB0C0500EBC3076D
:100DD00000EBC606D7ED003A96ED004AD6ED015A73
:100DE00000EBC40433EE845A73EEC43A97ED014A23
:100DF00000EBC50574EE254A34EE654AD4ED005A81
:100E000095ED006A75EE865A35EE256A35EE655A1F
:100E100087ED006AD4ED015A95ED016A75EE865AA8
:100E200034EEA56A74EEE54A87ED016AD4ED015A05
:100E300095ED016AD5ED006A75EEC65A94ED006A2B
:100E400036EE666A65EE206A44EEC16A64EEA04A38
:100E500045EE014AC4ED006A34EE065A34EE464AC5
:100E6000C4ED014A73EEE54A73EEA53A64EEA15A69
:100E700045EE425A01E026E01BE025EE215AC6ED80
:100E8000005A43448B4204EE825A63EEA24A44EE77
:100E9000434A24EE224A86ED015A03EE834AC5ED09
:100EA000004A85ED014A8BD30AF1010AE245FFF4BD
:100EB0006DAF4FEA8B434FEA9E0E4FEA134BBEF1E4
:100EC000040F3FF65AAFA1EB0C0100224B1C4FEA76
:100ED0009C06002B8CBF1F46BDE8F08F91198D1921
:100EE000AB1900EBC20400EBC505D4ED000AD5ED4B
:100EF000001AD4ED012A95ED012A30EEA11A70EE08
:100F0000E11A72EE820A00EBC10100EBC30332EE7C
:100F1000C22AD1ED002A93ED003A6244974272EE64
:100F2000832A31EE223A71EE622A23EE003A62EE13
:100F3000802A84ED003A91ED011A93ED013A31EEE9
:100F4000031A30EE813A23EE003A84ED013A30EE96
:100F5000C13AD1ED010A93ED011AD3ED003A30EE1A
:100F6000C11AD1ED000AC1ED002A63EE002A70EE2D
:100F7000E30AC1ED012A71EEC12A31EE811A72EE47
:100F8000201A72EE600A22EE802A21EE001A61EE2B
:100F9000801A85ED002A60EE800AC5ED011A83ED06
:100FA000001AC3ED010A99D8BDE8F08F30B50446A8
:100FB0000D4680782188A389626801280DD02846D3
:100FC000FFF7A0FCE078012818BF30BDE289218836
:100FD0002846A368BDE830403CE494ED040A284666
:100FE000FFF732FEEEE7000010B401801B4C4460B6
:100FF00082704FF0000CC370102925D040291BD0FF
:10100000B1F5807F10D0B1F5806F18BF4FF0FF3C75
:1010100002D010BC6046704701218181C181104916
:101020009FED100A816016E004218181C1810E4983
:101030009FED0E0A81600EE010218181C1810C4973
:101040009FED0C0A816006E040218181C1810A493F
:101050009FED0A0A816080ED040ADAE718FE0008B5
:10106000181E01080000803A1E1E01080000803B87
:10107000361E01080000803C961E01080000803DDD
:1010800010B5203AC0F00B80B1E81850203AA0E823
:101090001850B1E81850A0E81850BFF4F5AF5FEA57
:1010A000027C24BFB1E81850A0E8185044BF18C90A
:1010B00018C0BDE810405FEA827C24BF51F8043BB1
:1010C00040F8043B08BF7047D20728BF31F8023B05
:1010D00048BF11F8012B28BF20F8023B48BF00F899
:1010E000012B7047704770477047000000487047F9
:1010F00000C400207546FFF7F9FFAE4605006946BB
:10110000534620F00700854618B020B5FFF7BAF81F
:10111000BDE820404FF000064FF000074FF00008F8
:101120004FF0000B21F00701AC46ACE8C009ACE879
:10113000C009ACE8C009ACE8C0098D467047044658
:10114000AFF300802046FFF788F870470149182068
:10115000ABBEFEE72600020010B5064C01220023BC
:101160001146204600F06AF92046BDE8104000F024
:101170009FB900000020014010B5064C0023012259
:101180000C21204600F05AF92046BDE8104000F03E
:101190008FB900000020014010B5064C0023012249
:1011A0000421204600F04AF92046BDE8104000F036
:1011B0007FB900000020014010B5064C0023012239
:1011C0000721204600F03AF92046BDE8104000F023
:1011D0006FB900000020014010B5064C0023012229
:1011E0000D21204600F02AF92046BDE8104000F00D
:1011F0005FB900000021014010B5064C0023012218
:101200000E21204600F01AF92046BDE8104000F0FB
:101210004FB900000021014010B5064C0023012207
:101220000F21204600F00AF92046BDE8104000F0EA
:101230003FB900000021014070B59CB001212F484A
:1012400002F0F0FC01214FF4E06002F00FFD4FF0DE
:10125000007000902A4801902A4802A90024012524
:1012600031C1E802CDE906408000089040110990A4
:101270000AA90594400231C1234E0D9469463046B7
:101280000E9400F0BDFA0121304600F0AFFA0320C1
:101290008DF8680019958DF86B4019A91B4800F06E
:1012A00087FB15941694179415A8189400F06AF803
:1012B0000F948DF8404011941394114C8DF84150C7
:1012C0004C3C8DF850500FA9204600F091F80023B7
:1012D00001220821204600F0B1F80121204600F04B
:1012E00073F80121204600F065F80121204600F046
:1012F0003FF8204600F0DCF81CB070BD0200400052
:101300004C210140100000204064024000040240D3
:1013100010B5064C002301220A21204600F08EF869
:101320002046BDE8104000F0C3B800000022014094
:1013300010B5064C002301220B21204600F07EF858
:101340002046BDE8104000F0B3B800000022014084
:1013500010B5064C002301220C21204600F06EF847
:101360002046BDE8104000F0A3B800000022014074
:101370000029816802D041F0010101E021F0010162
:1013800081607047094B10B51A68094902EA0102E9
:10139000D0E9001441EA0401D0E9024044EA000423
:1013A00041EA040141EA0201196010BD0423014031
:1013B000E030FCFF0029816802D041F4807101E037
:1013C00021F48071816070470029816802D041F466
:1013D000007101E021F4007181607047C06C80B23F
:1013E00070470246002012680A4200D00120704770
:1013F00030B542680F4B0C791A400B6842EA042260
:101400001343436082680C4B4D791A40D1E9034382
:1014100023438C6844EA4504234313438360C26A30
:10142000097D22F47002491EC9B242EA0151C1622B
:1014300030BD0000FFFEFFFCFDF7FFC070B50725C3
:1014400009290AD9C468A1F10A0606EB4606B54087
:10145000AC43B3401C43C46007E0046901EB4106A0
:10146000B540AC43B3401C4304611F23072A09D293
:10147000446B521E02EB820293409C4391400C430A
:10148000446370BD0D2A09D2046BD21F02EB8202A5
:1014900093409C4391400C43046370BDC46A0D3A71
:1014A00002EB820293409C4391400C43C46270BDA6
:1014B000816841F0804181607047000010B50A4C9E
:1014C0000723012205212046FFF7B8FF2046FFF73A
:1014D000EFFF02212046FFF784FF0028F9D02046C5
:1014E000BDE81040FFF77ABF0020014000F0E8BDE2
:1014F00010B5044600F0ACFEA02000F06BFE00F03A
:10150000FBFE200A00F066FE00F0F6FEE0B200F0FE
:1015100061FE00F0F1FE00F09BFEA12000F05AFEFB
:1015200000F0EAFE002000F019FE044600F0BAFECA
:10153000204610BD70B504460D4600F089FEA0207F
:1015400000F048FE00F0D8FE200A00F043FE00F054
:10155000D3FEE0B200F03EFE00F0CEFE284600F0E2
:1015600039FE00F0C9FE00F09DFEBDE870400A2083
:1015700007F080BD7047000038B5002001F0A8F9E1
:101580001F4C6062002001F0A3F9A062002001F06E
:101590009FF92063002001F08DFA6063002001F0C4
:1015A00097F9E062002001F085FAA0636A4615A170
:1015B0000A2001F00BFC0523154A0021154801F013
:1015C0005FFB0423144A0021144801F059FB032354
:1015D000134A0021134801F053FB0223124A002151
:1015E000124801F04DFB0123114A0021114801F07E
:1015F00047FB0023104A1946104801F041FB38BD53
:10160000000000205374617274205461736B0000F9
:101610008C090020471600088CAA0020F916000843
:101620008CAB0020591600088C0A0020791700089E
:101630008CAC0020B13E00088CAD002085AC0008C9
:1016400001F056BF704709F085FB08F09FF9642050
:1016500007F010FDF7E700001CB51D4C1D4D0026DE
:1016600040F2DC57E07910B9032001F0ADFCE079DD
:10167000012828D118496F200870606B01F0A0FA8A
:10168000208BC8B1401E20834FF02F08CDE90068A1
:10169000012368781A46002108F0DCFBCDE90068D8
:1016A000687802230122002108F0D4FB208B012856
:1016B00002D10220A07126831020FFF719FF0449F0
:1016C000687043310870384607F0D4FCCAE7000060
:1016D000000000209EAD00204501002010B501F063
:1016E000B3FAFFF749FFBDE810400A2001F06CBCD7
:1016F000704701F005BF00001CB51D4D1D4C0126B3
:10170000022701AA0021686B01F0FAF9194B009435
:10171000143BA3F1C602A2F1C601A1F5A57008F021
:101720002FFD144B0096A3F11402A2F5C671A1F58A
:10173000A57007F0E9FC0F4B0097A3F11402A2F18A
:10174000C601A1F5047007F0DFFC0A491439A1F2C3
:10175000D62007F0A5FE074B0094143BA3F1C60268
:10176000A2F1C601A1F5A57004F000FBC9E70000D5
:10177000000000205A0400200C4C08B50C4D142623
:1017800004F14307E079012802D1022001F01CFC9A
:101790006A460021606A01F0C1F808F0A3FBA68246
:1017A0001020FFF7A5FE68703870EBE700000020FE
:1017B0009EAD002001F0B6BEFEE770B5292002F014
:1017C00009FC012002F006FC032002F003FC0025C6
:1017D00000240021284602F0F5FF641CE4B2042C2A
:1017E000F7D36D1CEDB2162DF2D370BD0029016840
:1017F00002D041F0010101E021F0010101607047D8
:1018000030B50368124ACC6813400A682243D1E914
:1018100005452C432243CC6922430C6A22434C6A7F
:1018200022438C6A22434C6B22438C6B22431A4323
:101830000260426922F00703D1E90B2422431A43D4
:1018400042610A6942604A6882608968C16030BD4D
:101850003F801CF07047000010B500F0FFFF4FF410
:101860008054204600F05AF838B14FF47A7007F0EF
:101870001FFC0548806B01F0A3F9204600F006F834
:10188000BDE8104000F0F6BF0000002001490860EC
:1018900070470000143C014030B5012185B0084676
:1018A00002F0C0F90121880302F0E0F900248DF86C
:1018B00010404FF480558DF8134003A9124803954A
:1018C00000F076F80C21002002F03CFB8DF804407B
:1018D00010208DF80500012400958DF8064068461B
:1018E00000F02CF828208DF808008DF809408DF8BC
:1018F0000A408DF80B4002A800F0D0FE284600F008
:1019000005F805B030BD00000000024002490A6839
:1019100002430A6070470000103C0140064A01463D
:1019200000201268044B0A4014331B680B4202D09B
:10193000002A00D001207047003C014030B51B490F
:101940008379026863B30B6893430B600A1D1368C5
:101950000468A343136002790A44136804682343AC
:101960001360124A083213680468A3431360131DFE
:101970001C680568AC431C6090F805C0BCF1100FF2
:1019800005D061440A68006802430A6030BD1168EE
:10199000046821431160196800680143196030BD73
:1019A0000079084401689143016030BD003C01406A
:1019B000F0B5002201234FF0030C00BF0D6803FABD
:1019C00002F42540A5422DD1066854000CFA04F516
:1019D000AE4306600E790768A6403E4306600E7966
:1019E000012E01D0022E12D18668AE4386604D7959
:1019F0008668A54035438560456803FA02F6B5431D
:101A0000456045688E799640B6B235434560C568F5
:101A100056000CFA06F7BD43C560CD79A540C468F1
:101A20002543C560521C102AC8D3F0BD4B07DB0EFE
:101A30009A40C90810B500EB8100016A0F249C4050
:101A4000A1430162016A1143016210BD02460020F8
:101A500012690A4200D00120704741837047018318
:101A6000704700002DE9F04104460E461746042158
:101A70000C2002F0A7FE01210E2002F0A3FE01219E
:101A8000112002F09FFE01210F2002F09BFE414D2C
:101A90002878012803D10121062002F093FE28783E
:101AA00018B90121052002F08DFE3B4D2878012850
:101AB00007D10421084602F085FE0121072002F02B
:101AC00081FE2878022807D10221042002F07AFE44
:101AD0000221072002F076FE2878032807D1012191
:101AE000042002F06FFE0421072002F06BFE4FF08D
:101AF0006408B4FBF8F5012F01D04FB10CE0264883
:101B000002222A3000EB4501102002F02BFE03E0F8
:101B10000521112002F056FE08FB15400A25B0FBF6
:101B2000F5F04746DFF87080022208F1020808EB62
:101B30004001122002F016FEB4FBF5F005FB104048
:101B4000B0FBF5F105FB110008EB40010222142067
:101B500002F008FEB6FBF7F4022208EB440110463F
:101B600002F000FE07FB1460B0FBF5F008F114046E
:101B700004EB400102220A2002F0F4FDB6FBF5F06E
:101B800005FB106004EB4001BDE8F0410222082093
:101B900002F0E8BD00000020000100202DE9F04126
:101BA000044601210C2002F00DFE334D2878012857
:101BB00003D10121062002F005FE287818B9012181
:101BC000052002F0FFFD01210F2002F0FBFD2B4D4F
:101BD0002878012803D10421084602F0F3FD287873
:101BE000022803D10221042002F0ECFD287803280A
:101BF00003D10121042002F0E5FD42F21077B4FB8D
:101C0000F7F51E4EA8B2B61C06EB400102221020CA
:101C100002F0A8FD07FB15404FF47A75B0FBF5F014
:101C200006EB40010222122002F09CFDB4FBF5F00D
:101C300005FB10406425B0FBF5F006EB40010222E5
:101C4000142002F08FFDB4FBF5F005FB10400A25CF
:101C5000B0FBF5F006EB40010222002002F082FD0D
:101C6000B4FBF5F005FB104006EB4001BDE8F04188
:101C70000222104602F076BD000000200001002084
:101C80002DE9F04104460D460821072002F09AFD97
:101C9000284E3078012803D10121062002F092FD60
:101CA000307818B90121052002F08CFD01210F20A8
:101CB00002F088FD4FF06408B4FBF8F61E4F0222D4
:101CC00007EB4601102002F04DFD08FB16400A26E6
:101CD000B0FBF6F007EB40010222122002F042FDB9
:101CE000B4FBF6F006FB104007EB40010222142083
:101CF00002F038FDB5FBF8F4022207EB4401104670
:101D000002F030FD08FB1450B0FBF6F007F11404AC
:101D100004EB400102220A2002F024FDB5FBF6F09C
:101D200006FB105004EB4001BDE8F0410222082000
:101D300002F018BD00000020020100202DE9F04152
:101D4000044605210F2002F03DFD324D2878012880
:101D500003D10121062002F035FD287818B90121B0
:101D6000052002F02FFD2C4D2878012803D10121F8
:101D7000072002F027FD2878022803D1022107203E
:101D800002F020FD2878032803D10421072002F067
:101D900019FD42F21077B4FBF7F51F4EA8B2B61C3E
:101DA00006EB40010222142002F0DCFC07FB154088
:101DB0004FF47A75B0FBF5F006EB400102220020EB
:101DC00002F0D0FCB4FBF5F005FB10406425B0FB3D
:101DD000F5F006EB40010222104602F0C3FCB4FB12
:101DE000F5F005FB10400A25B0FBF5F0143606EBC4
:101DF00040010222284602F0B5FCB4FBF5F005FBD9
:101E0000104006EB4001BDE8F0410222082002F03C
:101E1000A9BC0000000000200001002070B50446AD
:101E20000821062002F0CEFC0821072002F0CAFC9F
:101E300001210F2002F0C6FC6426B4FBF6F5104821
:101E4000022200EB4501104602F08CFC06FB154017
:101E50000A25B0FBF5F00A4E0222143606EB4001CB
:101E6000284602F07FFCB4FBF5F005FB104006EBC2
:101E70004001BDE870400222082002F073BC00005F
:101E80000201002070B5044604210E2002F09AFCE5
:101E90001A4D2878012803D10121062002F092FC76
:101EA000287818B90121052002F08CFC01210F20AF
:101EB00002F088FC6426B4FBF6F51148022200EB20
:101EC0004501104602F04EFC06FB15400A25B0FB0A
:101ED000F5F00B4E0222143606EB4001284602F0C4
:101EE00041FCB4FBF5F005FB104006EB4001BDE8FA
:101EF00070400222082002F035BC000000000020E3
:101F00000201002070B5044608210D2002F05AFCA1
:101F10001A4D2878012803D10121062002F052FC35
:101F2000287818B90121052002F04CFC01210F206E
:101F300002F048FC6426B4FBF6F51148022200EBDF
:101F40004501104602F00EFC06FB15400A25B0FBC9
:101F5000F5F00B4E0222143606EB4001284602F043
:101F600001FCB4FBF5F005FB104006EB4001BDE8B9
:101F700070400222082002F0F5BB000000000020A3
:101F8000020100201CB50121022001F04BFE4FF49C
:101F90003870009001208DF8040000208DF80600B4
:101FA0000220124C8DF8050069462046FFF700FD1F
:101FB00061152046FFF753FD20212046FFF74FFD16
:101FC00040212046FFF74BFD80212046FFF747FDCB
:101FD000022001F0FFFF292001F0FCFF012001F0A9
:101FE000F9FF032001F0F6FF1CBD000000040240D1
:101FF0002DE9F0411A4E0546707801282DD10020B8
:10200000184F70704FF4007841463846FFF725FDB1
:10201000002440213846FFF720FD28064FF08001BC
:10202000384602D4FFF719FD01E0FFF718FD032041
:1020300007F03EF840213846FFF711FD6806641CA2
:10204000050EE4B2082CE4D30A2007F031F841462B
:102050003846FFF704FD01207070BDE8F0810000F4
:102060000001002000040240FEE700007CB5134E92
:102070004FF4005529463046FFF7EFFC01208DF85C
:10208000040002206C008DF805000094694630467B
:10209000FFF78EFC21463046FFF7DFFC022007F0F9
:1020A00007F829463046FFF7DAFC022007F000F86F
:1020B00029463046FFF7D1FC7CBD000000040240F9
:1020C0001CB50121022001F0ADFD4FF4E04000906D
:1020D00001208DF8040002200A4C8DF805006946A5
:1020E0002046FFF765FCA1142046FFF7B6FC4FF42D
:1020F00000512046FFF7B3FC4FF480412046FFF724
:10210000AEFC1CBD000402407CB5134E4FF40055DC
:1021100029463046FFF7A1FC01208DF8040002207B
:102120006C008DF80500009469463046FFF740FCCE
:1021300021463046FFF793FC022006F0B9FF2946FE
:102140003046FFF78CFC022006F0B2FF29463046ED
:10215000FFF783FC7CBD0000000402402DE9FC4732
:1021600000241B4E80464FF480478DF804400097B2
:102170008DF8074069463046FFF71AFC0025B9463E
:102180007F1039463046FFF768FC022006F090FFCA
:1021900039463046FFF763FC6006040E4946304678
:1021A000FFF754FC08B1641CE4B2012006F080FF84
:1021B0006D1CEDB2082DE4D3B8F1000F04D0FFF789
:1021C00055FF2046BDE8FC87FFF79EFFF9E70000BA
:1021D000000402402DE9FC47054601208DF804006B
:1021E00002201A4E4FF480478DF80500009769468B
:1021F0003046FFF7DDFB4FF4005841463046FFF70D
:102200002CFCB9460024474628064946304602D4ED
:10221000FFF723FC01E0FFF722FC6806050E022011
:1022200006F046FF39463046FFF719FC022006F05B
:102230003FFF39463046FFF710FC022006F038FF1A
:10224000641CE4B2082CDFD3BDE8FC870004024024
:102250007CB501208DF804000220114D4FF480441C
:102260008DF80500009469462846FFF7A1FB21463A
:102270002846FFF7F4FB661031462846FFF7EFFBD0
:10228000032006F015FF21462846FFF7E6FB032052
:1022900006F00EFF31462846FFF7DFFB7CBD00004D
:1022A000000402407CB501208DF804000220114D8D
:1022B0004FF480448DF80500009469462846FFF7E6
:1022C00077FB661031462846FFF7C7FB21462846B4
:1022D000FFF7C3FB032006F0EBFE31462846FFF76D
:1022E000BEFB21462846FFF7BAFB032006F0E0FEBE
:1022F0007CBD0000000402402DE9FC410024184E82
:102300004FF480458DF8044000958DF807406946EC
:102310003046FFF74DFB29463046FFF7A0FB012072
:1023200006F0C6FE6F1039463046FFF798FB0120D5
:1023300006F0BEFE08E0641CE4B2FA2C04D9FFF7F4
:10234000B1FF0120BDE8FC8129463046FFF77EFB46
:102350000028F0D139463046FFF77FFB0020F1E737
:102360000004024002494AF6AA20086070470000B3
:1023700000300040054A45F25553136050609160AB
:10238000580010604CF6CC401060704700300040A0
:102390002DE9F0479CB001215E4801F043FC01218A
:1023A0004FF4E06001F062FC4FF0806000905A480A
:1023B00001900125594802A9002431C106A8EE0266
:1023C0006F034FF480784FF400390594A0E8D003F0
:1023D000CDE90B45DFF848A10D94694650460E94AF
:1023E000FFF70EFA01215046FFF700FA4D4802A907
:1023F000CDE900404948DFF828A1801C31C106A87A
:102400000594A0E8D003CDE90B45AAF1180A0D9474
:10241000694650460E94FFF7F3F901215046FFF745
:10242000E5F968060090404801903C4802A9001D6B
:1024300031C106A80594A0E8D003394ECDE90B457B
:1024400018360D94694630460E94FFF7D9F90121EC
:102450003046FFF7CBF93F20032615908DF85860E2
:102460008DF85B4015A93148FFF7A2FAB22015900C
:102470008DF858608DF85B4015A92D48FFF798FA44
:1024800017941894199417A81A94FEF77BFF0F94C9
:102490008DF84040119413941F4C8DF841504C3CE2
:1024A0008DF850500FA92046FEF7A2FF1E4D0FA930
:1024B0004C3D2846FEF79CFF1A4E0FA94C3E304675
:1024C000FEF796FF01212046FEF77EFF01212846F8
:1024D000FEF77AFF01213046FEF776FF0121204604
:1024E000FEF768FF01212846FEF764FF0121304610
:1024F000FEF760FF01212046FEF73AFF0121284642
:10250000FEF736FF01213046FEF732FF1CB0BDE872
:10251000F0870000050040004C2201400C00002024
:10252000286402404C2001404C2101400008024038
:10253000000002401CB50121084601F073FB4FF476
:10254000C050009000208DF8040069460148FFF754
:102550002FFA1CBD000002402DE9F04106000D4697
:10256000144602D0012E05D009E0012D07D134B95F
:10257000332002E01DB914B92D20FFF739FD46EADA
:10258000050757EA040002D12B20FFF731FD012E89
:1025900001D03EB110E0012D01D05DB10CE05CB97D
:1025A000352004E0012D07D1012C05D15320FFF780
:1025B0001FFD01E0012C01D017B106E04D20F6E728
:1025C000012C02D14B20FFF713FD012E0AD0022E61
:1025D0000ED1022D0CD1022C0AD10120BDE8F04110
:1025E000FFF706BD012D03D1012C01D15520F5E7E0
:1025F000BDE8F0812DE9F04106000D46144602D0F9
:10260000012E05D009E0012D07D134B9B32002E035
:102610001DB914B9AD20FFF7EBFC46EA050757EAF0
:10262000040002D1AB20FFF7E3FC012E01D03EB144
:1026300010E0012D01D05DB10CE05CB9B52004E0E3
:10264000012D07D1012C05D1D320FFF7D1FC01E0EA
:10265000012C01D017B106E0CD20F6E7012C02D104
:10266000CB20FFF7C5FC012E0AD0022E0ED1022D81
:102670000CD1022C0AD18120BDE8F041FFF7B8BC93
:10268000012D03D1012C01D1D520F5E7BDE8F08162
:10269000FEE770474FF4A06000F032B870B50F212C
:1026A000C478027801234FF0E026E4B1124C24688C
:1026B00004F4E064C4F5E064C4F30724C4F1040541
:1026C000E1404478AC4085780D4025430B4C29010E
:1026D0001155007800F01F018B40400906EB800087
:1026E000C0F8003170BD02F01F008340500906EBB6
:1026F0008000C0F8803170BD0CED00E000E400E027
:102700000249084302490860704700000000FA05CA
:102710000CED00E07047000070B505000E46144651
:1027200005D036B10E48807828B112200DE0042083
:102730000BE00C2009E02878012808D0022806D0F8
:10274000032804D0042802D00120107070BDFDF7CA
:10275000ABFD6E61FDF7ACFD0020207070BD000088
:102760007400002030B587B000F070F82A480024CB
:1027700004638470C4700472C471C460C4618461F1
:10278000446144708471214600F134025454491C60
:10279000C9B20829FAD3047144718462046201F059
:1027A00099F801F06BF801F043F801F0D5F801F069
:1027B000F9F802AA0325202031C218494FF6FF700C
:1027C000CDE9000101F17C023F230021144800F013
:1027D0009FFA05AA13A13F2000F0F8FA02AA4020B0
:1027E00031C214494FF6FE70CDE9000101F1FC023F
:1027F0003E230021104800F08BFA05AA0FA13E20CD
:1028000000F0E4FA00F0E0FC00F026F807B0BDE8C4
:102810003040FFF77FBF00007400002088B0002028
:10282000613B000875432F4F532D49492049646C83
:102830006500000088AF00207D3B000875432F4FE6
:10284000532D494920537461740000000149002050
:102850000880704770000020704700000449C87964
:10286000012804D18878FF2801D2401C8870704765
:102870007400002070B5144DE879012822D1FDF7CD
:1028800013FD0446A87820B1401E10F0FF00A87088
:1028900013D1E87888B901F0C9F80C48697950F883
:1028A0002100A8622A79914207D0C16B491CC163FB
:1028B000E868401CE860FDF713FD2046BDE8704065
:1028C000FDF7F6BC70BD00007400002008B10020C8
:1028D00070B505460E48007808B1002070BDFDF7C0
:1028E000E3FC01460B4804680CB1626802600846CC
:1028F000FDF7DEFC4CB1012020700020208106A0F5
:1029000065606061204600F089FF204670BD0000D0
:1029100076000020840000203F0000002DE9F047F1
:1029200005008846144604D02878012803D00120E9
:102930000AE0042008E02C48007808B1022003E0F7
:102940002A48007820B10D2010700020BDE8F087E3
:10295000FDF7AAFC6E68074600213EB1884638465E
:102960006960FDF7A5FC84F800803AE0DFF880A0FC
:102970008946DAF8000010F8342F42F002020270A3
:10298000417040F8048C284600F01AFF3846FDF7E5
:102990008FFC01F027F8FDF787FC0746DAF8000006
:1029A00090F8351031B1022908D0294600F0D8FE40
:1029B0000A2004E0466A84F8009001E00E202070AE
:1029C000DAF80010384601F11C0181F8189081F8FE
:1029D0001990C1F80090C1F80490C1F80890FDF773
:1029E00067FC3046B2E70000760000207700002048
:1029F0009400002070B504000D4605D035B1207854
:102A0000012805D0012070BD042070BD032070BDD9
:102A1000FDF74AFC0646A07A58B100230222294657
:102A2000204600F061FE3046FDF742FC00F0DAFF80
:102A30000AE0606820B13046FDF73AFC142070BD12
:102A400030466560FDF734FC002070BD10B5094CC0
:102A5000E07901280CD1FDF727FCA17821B9E178B4
:102A6000FF2901D2491CE170BDE81040FDF720BCF0
:102A700010BD00007400002010B50D4CE079012855
:102A800014D1FDF711FCE17831B1491E11F0FF01BD
:102A9000E17001D1A17819B1BDE81040FDF708BC83
:102AA000FDF706FCBDE8104000F09CBF10BD000023
:102AB0007400002070B505460E48007808B100206B
:102AC00070BDFDF7F1FB01460B4804680CB162686C
:102AD00002600846FDF7ECFB4CB103202070258115
:102AE0000020606005A06061204600F097FE20464F
:102AF00070BD000076000020840000203F00000030
:102B00002DE9F04705008846144604D028780328AC
:102B100003D001200AE0042008E02648007808B12C
:102B2000022003E02448007818B10D201070BDE8A1
:102B3000F087FDF7B9FB06462889002730B1401E13
:102B400028813046FDF7B4FB2770F0E7DFF86C9082
:102B5000D9F8000010F8341F41F0010101704770EE
:102B600040F8048C284600F02BFE3046FDF7A0FB11
:102B700000F038FFFDF798FB0646D9F8000090F802
:102B8000351031B1022906D0294600F0E9FD0A20AE
:102B900002E0277001E00E202070D9F8000000F15B
:102BA0001C0007764776076047603046BDE8F0476F
:102BB000FDF77EBB76000020770000209400002007
:102BC00070B5040004D02078032803D0012070BD24
:102BD000042070BDFDF768FB0546A07A58B10023BC
:102BE00001221946204600F07FFD2846FDF760FBD4
:102BF00000F0F8FE09E020894FF6FF71884206D206
:102C0000401C20812846FDF753FB002070BD28465C
:102C1000FDF74EFB332070BD10B5094CE07900285C
:102C20000CD100F003FF60790649207151F82000B3
:102C3000A0622062BDE81040FDF73DBB10BD000062
:102C40007400002008B1002010B5022000F016FA30
:102C5000FDF72AFB084C0021E161FDF729FB642008
:102C600000F00CFAFDF720FBE16961610121617060
:102C7000BDE81040FDF71CBB74000020FEF77ABCD5
:102C80002DE9FE4305460F4690461C463F2B02D9D0
:102C90002A20BDE8FE83FDF707FB1A49097819B120
:102CA000FDF706FB3C20F4E7174E56F8241019B147
:102CB000FDF7FEFA2820ECE7012146F82410FDF785
:102CC000F7FA002342463946284600F04BF9002720
:102CD0000146009701973B463A462046029700F08E
:102CE000B5FE050007D0FDF7DFFA46F82470FDF7C2
:102CF000DFFA2846CDE7054800780128F9D100F031
:102D000071FEF6E77600002008B100207B0000206D
:102D10002DE9F04F81462DED028B83B08A46DDE927
:102D20000F879DED118A129D93461C463F2B05D9B6
:102D30002A2003B0BDEC028BBDE8F08FFDF7B4FA9A
:102D40001D49097819B1FDF7B3FA3C20F1E71B4E94
:102D500056F8241019B1FDF7ABFA2820E9E7012154
:102D600046F82410FDF7A4FA2A463946404600F0FA
:102D70004DFF2B465A465146484600F0F3F800975F
:102D80008DED018A01460295424620460E9B00F0D9
:102D90005DFE050008D0FDF787FA002146F82410F3
:102DA000FDF786FA2846C4E7054800780128F9D1DE
:102DB00000F018FEF6E700007600002008B10020C1
:102DC0007B000020FEF73CBCFEF73CBC70B505461E
:102DD0000E4614463F2803D9FF2D01D02A2004E0D7
:102DE0002EB11248007820B11220107070BD0C2056
:102DF000FBE7FDF759FA0146FF2D03D10C480068A7
:102E000090F836500B4850F82500432540B1012872
:102E100006D006650846FDF74BFA0020207070BD0D
:102E20000846FDF745FA257070BD000076000020C9
:102E30009400002008B1002010B504463F2801D3BB
:102E40002A2010BDFDF730FA01461F4850F8240033
:102E500058B101280ED090F8342013072FD512F066
:102E6000F70280F834200AD00BE00846FDF720FA7C
:102E7000462010BD0846FDF71BFA432010BD026B2B
:102E800022B10846FDF714FA002010BD0F4A00F1E8
:102E900038008378147843EA0403137003780C4AEB
:102EA0004078D45C44EA0004D4540846FDF700FAA4
:102EB000084800780128E7D100F094FDE4E70846CF
:102EC000FDF7F6F9442010BD08B100207A0000207B
:102ED000A80000207B000020FEF70ABC2DE9F0418D
:102EE00004460D463F2804D9FF2C02D02A20BDE815
:102EF000F08145B1002028606860FDF7D5F90146F2
:102F0000FF2C02D005E00920F1E71448006890F892
:102F10003640134850F8240058B1012809D0028ADD
:102F2000D2070BD0D0E9024700260846FDF7C0F9CA
:102F30000AE00846FDF7BCF94320D8E70846FDF74C
:102F4000B7F94520D3E7761C01CC0028FBD0B000B0
:102F50002860B81B800068600020C8E7940000204B
:102F600008B100204FF080731360131F18606FF0DA
:102F7000010042F8080CA2F138004FF012334FF074
:102F80000332C0E90A234FF0023242624FF00132AD
:102F9000C0E907124FF0113181614FF010314161EA
:102FA0004FF0093101614FF00831C1604FF0073136
:102FB00081604FF0063141604FF0053140F804194F
:102FC0004FF004310160704770B5274D04463F282B
:102FD00004D005D3FF280CD02A2070BD472070BD37
:102FE000FDF762F90346286890F83600A04206D043
:102FF00007E0FDF759F90346286890F836400125A7
:1030000000E00025194850F8240068B1012810D0CC
:1030100090F83820164C90F83960A15CF643F6B26F
:103020003140A1540AD010E01846FDF741F948207C
:1030300070BD1846FDF73CF9432070BD0D4A90F86D
:103040003A10147824EA0101117010F8341F41F08D
:10305000080101701846FDF72BF9012D01D100F090
:10306000C1FC002070BD00009400002008B10020C9
:10307000A80000207A000020FEF73BBB70B5044694
:1030800014480078002824D113480078002820D163
:10309000002C1ED0FDF708F903461048104D0068BB
:1030A00090F8381090F839606A5CF643F6B2324016
:1030B0006A5406D10B4A90F83A10157825EA0101B6
:1030C000117004631846FDF7F3F8BDE8704000F096
:1030D00089BC70BD7600002077000020940000209D
:1030E000A80000207A0000202DE9F04100F052F8FD
:1030F000FDF7DAF8264D296B491C2963FDF7D8F84E
:10310000E879012841D1687A0126002720B10128F9
:103110003BD0022802D06F72EC6A32E06E72FBE79D
:10312000FDF7C2F8216B49B3491E216326D194F8FB
:10313000341011F0370F06D001F0C80184F83410B4
:1031400084F8356001E084F8357094F8341009078C
:1031500014D404F13804AA79A178DFF834C041EA24
:103160000201A97121780CF1340C63781CF801205C
:10317000A4F1380442EA03020CF801206469FDF767
:1031800097F894F836003F28CAD1BDE8F0810000D6
:103190007400002010B5FEF70DFB07480188491C9C
:1031A00089B20180642905D300210180BDE8104067
:1031B00000F004B810BD0000700000200148006855
:1031C000FFF7FEBCC800002070B588B04FF4207136
:1031D0002E4800F0B7FB40212D4800F0B3FB002043
:1031E0002A4904466422431C00EB80001D4601EB83
:1031F000C0009BB203EB8303027001EBC30380F8B2
:103200002540C36023A30362A8B20F28EBD300EBD1
:10321000800001EBC000027080F825401DA2C46050
:1032200002621D481E4A04601C4804801020108061
:103230001C4801600120FFF73DFC1B4D2860002069
:10324000FFF738FC194E05AA19A130602868FFF76E
:1032500063FA05AA1BA13068FFF75EFA40210291CC
:103260000320CDE903401C4A4FF6FD70CDE9000272
:103270003D23FC3200211948FFF74AFD06AA18A198
:103280003D20FFF7A3FD08B070BD0000C0BA0020CC
:1032900040BE00203F000000C0000020BE00002013
:1032A000BC000020CC000020C4000020C80000208A
:1032B00075432F4F532D494920546D724C6F636BEA
:1032C0000000000075432F4F532D494920546D7263
:1032D0005369676E616C000040BD002039330008FF
:1032E00075432F4F532D494920546D720000000043
:1032F000032280F825200E4A0129126813D0816923
:1033000089B1114441610B4A01F0070102EBC1018F
:1033100000230A68086042B1C26010618A88521CAA
:103320008A8003617047C169EBE70122C360F7E758
:10333000C000002040BE002008B5DFF86880DFF83C
:1033400068901A4E6A460021D8F80000FFF7D8FBB3
:10335000FFF77CFB3068401C306000F0070002275C
:1033600059F8304013E061693068E56881420DD159
:10337000204600F01DF894F8240002280CD084F8B0
:103380002570626812B12046A16890472C46002C37
:10339000E9D1FFF771FBD5E701212046FFF7A8FF30
:1033A000EFE70000C800002040BE0020C000002061
:1033B00010B541690E4A01F0070102EBC10200237A
:1033C0001468C168844203D1116041B10B6106E009
:1033D000D0F810C0CCF80C1009B1C1F810C0012110
:1033E00080F82510C36003619088401E908010BD56
:1033F00040BE002070B5244C0025E169491CE16104
:10340000214622788978062A0144C9B23AD2DFE8F7
:1034100002F0030A0E1D2D31ED2803D1012020708A
:10342000E570257170BD8C282CD102200CE020B1F4
:103430000021802802D9012201E00121002211434C
:1034400020D1A07060700320207070BDE278802AC7
:1034500003D20E4B9854521CE270A1706078401E4B
:1034600010F0FF006070F0D10420EDE7A17049B9C1
:103470000520E9E78D2805D16089401C6081A06A9C
:10348000FFF79EFB257070BDD000002080BE00209D
:1034900070B5FCF75FFF144A1178491C1170FCF7F6
:1034A0005DFF124C40F225552946204601F0BDF83B
:1034B00048B1204601F04CF9C0B2FFF79BFF294606
:1034C000204601F09BF840F227752946204601F07E
:1034D000ACF828B100F048F82946204601F08EF8F3
:1034E000BDE87040FFF7C6B97600002000480040F4
:1034F00010B5044600F018F860640020206410BD88
:1035000010B500F011F805490968D1E91023C31A74
:103510001A440A6402490968486410BD94000020F6
:103520009C000020AFF3008070B5FCF7BDFE05469F
:1035300000F010F806490A890881821A886992B257
:10354000841828468C61FCF7B3FE204670BD00004D
:10355000D00000204FF0804000F00BBF0146014832
:1035600001F0FAB8004800402DE9F0414A4F042626
:103570003846BB798189828A0025C089092B73D29C
:10358000DFE803F00518252F737B44505C001143DE
:103590000BD08C20FFF7E2FF386A401C3862012014
:1035A000F871B871FD81BDE8F081FD71BDE8F041B1
:1035B00000F076B8ED20FFF7D1FF386A401C386282
:1035C000B88908B1022000E00620B871EBE7C8B264
:1035D000FFF7C4FF386A401C38620320B871B8890D
:1035E0002AE02E490C5C2046FFF7B8FF386A401CE1
:1035F0003862787920447871F889401C80B2F8816B
:10360000B9898842CFD3BE71BD81CCE7521CD0B2FC
:10361000FFF7A4FF386A401C38620720B871B88AE7
:10362000401C09E04320FFF799FF386A401C3862CC
:103630000820B871787943307871B4E71749803140
:103640000C5C2046FFF78AFF386A401C38627879A4
:1036500020447871F889401C80B2F881B98A884288
:10366000A1D3BE71BD829EE713E07879FFF776FFA4
:10367000386A401C38620520A7E78D20FFF76EFFEF
:10368000386A401C3862BD713D82788A401C78825D
:1036900089E7BD7189E70000D000002000BF00204D
:1036A000002240F22771014800F0DEBF00480040D0
:1036B0000B484FF47A710068B0FBF1F0B0F1807FF5
:1036C0000DD220F07F414FF0E020491E4161054AB4
:1036D000F021117000218161072101617047FEE72F
:1036E0004C00002023ED00E0F0B50546807A194C2F
:1036F0004FF00007205C05EB0006F67AA45D04EBB2
:10370000C004E6B2144C54F8264004F12404E760E7
:103710002160217C21EA020121746374A4F1240454
:1037200009070BD40D4994F83A208B791A438A7112
:10373000343194F839300A5C1A430A542946204639
:1037400000F00EF8216A19B1204600F01BF8E5617F
:103750003046F0BD0CB9000808B10020740000200C
:1037600010B590F8382090F839408B18E443DA7A95
:10377000E4B22240DA7204D18A7A90F83A008243A5
:103780008A7210BD30B510F8383F827890F801C0C9
:10379000D2436FEA0C04E4B2D5B208680DE000BF72
:1037A00000EB030C9CF80B2022408CF80B2002D17C
:1037B000827A2A40827251F8040F0028F0D130BD7D
:1037C00030B5154900F10B020B6AD86193F838C087
:1037D00093F839301CF802401C430CF802400A6A86
:1037E000837A02F13802947843EA040383721378EF
:1037F00001F134045578E05C6FEA0505EDB228402C
:10380000A2F13802E05405D192F83A008A7922EA0E
:103810000000887130BD0000740000200022827218
:1038200011464318491CC9B2DA720829F9D3704706
:1038300010B550210E4800F085F800200C4A0146D2
:10384000431C1C4602EB00109BB202EB03130170F9
:10385000436008A3C360A0B20428F1D302EB0010B8
:103860000170416003A1C1600348026010BD000007
:1038700098B900203F000000B000002010B54FF4C0
:10388000F071114800F05EF800200F4A0146431C19
:103890001C4600EB40009BB202EBC00003EB43036D
:1038A00002EBC3030170436008A34361A0B2132875
:1038B000EDD300EB400002EBC0000170416003A1BA
:1038C00041610348026110BDA8AD00203F00000027
:1038D0007400002010B54FF4F261164800F032F881
:1038E0004FF48071144800F02DF812490020421C5A
:1038F00000EB400404EBC000D3B203EB430401EB44
:10390000C00004EBC30301EBC30343610BA30365D6
:10391000D0B21528EBD300EB400202EBC00001EB64
:10392000C00006A30022036542610548C2624162ED
:1039300010BD000008B2002008B100203F000000C8
:1039400074000020002203E0491E00F8012B89B218
:103950000029F9D17047000010B578210E48FFF713
:10396000F1FF0D4A002000BF00EB400102EBC10156
:1039700001F118034B60401C08A380B24B6104287E
:10398000F2D300EB400002EBC0000021416003A134
:1039900041610348026010BDE8B900203F0000000B
:1039A000B400002010B560210C48FFF7CBFF0B4A94
:1039B0000020411C8BB200EB400003EB430302EB01
:1039C000C30342F8303088B20328F2D300EB400042
:1039D000002142F830100248026010BD60BA002099
:1039E000B800002070B5FCF75FFC0E4D0446A878C7
:1039F00098B9E87888B900F019F80B48697950F857
:103A00002100A8622A79914207D0C16B491CC16389
:103A1000E868401CE860FCF75EFC2046BDE87040AA
:103A2000FCF746BC7400002008B100200649054A96
:103A300001F134038879105C1B5CD25C02EBC0009E
:103A4000487170470CB90008740000202DE9F04758
:103A500005462DED028B0E4690469946DDED0A8A0D
:103A60009DED0B8ADDF830A0FCF71EFC394F7C6A17
:103A7000002C6BD061697962FCF71AFC266084F82F
:103A80003650002684F8346084F83560266384ED6F
:103A9000018AC4ED038A04F11C044FEAD50244F8FC
:103AA000148C24F80CAC24F80A9CE677227705F0F5
:103AB00007014FF0010000FA02F2E176A27700FA66
:103AC00001F0607726606660E660A6602662A66206
:103AD000666221A0E662C4E90C60A4F11C043046D1
:103AE00004EB800100F101004E6510F0FF00F7D0FB
:103AF0002046FFF7C3F82046FFF764F9FCF7D4FB34
:103B00000146164840F82540F86AC4E9050600B1A8
:103B10008461FC6204F13804BA79A07840EA0200BA
:103B2000B8710C48227800F134006478835C43EA71
:103B300004038354387A00F1010038720846FCF718
:103B4000B7FB0020BDEC028BBDE8F087FCF7B0FBB3
:103B50004220F7E7740000203F00000008B1002079
:103B6000054C00BFFCF7A0FBE169491CE161FCF7D3
:103B70009FFBFFF729F9F5E774000020144C02E0E1
:103B8000C820FFF77BFA60780028F9D064216069CB
:103B90000025B0FBF1F0606118B92570FF20FFF738
:103BA00013FAFCF781FBE169C4E90615FCF780FB19
:103BB000D4E90510B0FBF1F0C0F164002070FFF70C
:103BC0008BF900F007F86420FFF758FAE9E70000E6
:103BD000740000207CB50C4D002469462046FFF798
:103BE0007DF958B955F8240040B1012806D0D0E934
:103BF000021201EB820181640199C164641CE4B288
:103C00003F2CEAD97CBD000008B10020D30707D0C3
:103C1000920705D50022002902D004C0491EFAE708
:103C200070470000044A0029116801D0014300E0F8
:103C3000814311607047000030380240044A002977
:103C4000116801D0014300E081431160704700001A
:103C500040380240044A0029116801D0014300E0C5
:103C6000814311607047000020380240044A002957
:103C7000116801D0014300E08143116070470000EA
:103C80004438024030B5224B1968224A11F00C0129
:103C900004D05510042903D0082903D002601DE088
:103CA00005601BE01A49091F0C68C4F3805C0C68AE
:103CB000BCF1000F04F03F0402D0B5FBF4F201E0C8
:103CC000B2FBF4F20C680968C4F388146243C1F3D0
:103CD0000141491C4900B2FBF1F1016019680E4A2B
:103CE00001F0F0010909545C0168E14041601C6881
:103CF00004F4E054A40A145D21FA04F484601B68FF
:103D000003F460435B0BD25CD140C16030BD000066
:103D1000083802400024F400600000202DE9F04F34
:103D2000804687B001210320FFF77CFF4FF4003A63
:103D300001215046FFF782FF01268DF80460002420
:103D4000DFF8D8B04FF400478DF806400225009701
:103D50008DF8055069465846FDF72AFEDFF8C090F9
:103D6000072202214846FDF761FE0722032148464B
:103D7000FDF75CFE8DF8045004208DF8064000909D
:103D80008DF805508DF8076069464846FDF710FE2E
:103D9000082000908DF804508DF807406946484689
:103DA000FDF706FE01215046FFF754FF0021504663
:103DB000FFF750FFADF810400C201A4DADF80C4045
:103DC000ADF81200CDF80880ADF80E40ADF8144003
:103DD00002A9284600F060FC4FF4A060FEF790FCBA
:103DE00026208DF818008DF819408DF81A408DF8AE
:103DF0001B6006A8FEF752FC012240F2255128461E
:103E000000F032FC0121284600F0FEFB39465846FE
:103E1000FDF723FE07B0BDE8F08F0000000402406C
:103E200000000240004400402DE9FC47804601208C
:103E30008DF804000027DFF86CA04FF400498DF8DE
:103E4000067002200D468DF805004C46CDF8009016
:103E5000694656465046FDF7ABFD21463046FDF714
:103E6000FEFD0024104E0CE04021304600F0D6FB51
:103E70000028F9D018F80410304600F06DFC641CDE
:103E8000E4B2AC42F0D34021304600F0C7FB00283A
:103E9000F9D00648494607625046FDF7DEFDBDE809
:103EA000FC870000000402400044004000000020A5
:103EB000204D214E1020FDF71BFB2870401E2128AD
:103EC00018D3FCF7F1F904460220F071FFF77CF8F3
:103ED0000420FFF779F80320FFF776F82046FCF777
:103EE000E7F9022211461046FEF784FB642005F034
:103EF000C1F8DFE71F28DDD8FCF7D6F90022044619
:103F000011461046FEF776FB00200C49F071287828
:103F100048700220FEF790FF0420FEF78DFF03207B
:103F2000FEF78AFF0120FFF74FF82046FCF7C0F9A3
:103F3000C0E7000043010020000000209EAD0020EB
:103F40007047000010B58A0721F003040649130FDB
:103F500021440F220C689A4094430C600A689840F0
:103F600002430A6010BD0000083801402DE9F0410D
:103F7000164F05460E467878012825D10020787026
:103F80000446DFF84C801BE028064FF04001404615
:103F900002D4FDF762FD01E0FDF761FD802140469E
:103FA000FDF75BFD012005F083F880214046FDF719
:103FB00056FD012005F07CF86806050E641CE4B28D
:103FC000B442E1D301207870BDE8F0810001002007
:103FD0000004024070B50A4D044620212846FDF732
:103FE0003CFD03218020FFF7C1FF09212046FFF798
:103FF000BDFF2846BDE870402021FDF730BD000020
:10400000000402402DE9F041164F05460E4678782F
:10401000012821D1002078700446DFF84C8017E099
:10402000E8074FF04001404618D0FDF718FD802109
:104030004046FDF712FD012005F03AF88021404688
:10404000FDF70DFD012005F033F86D08641CE4B2A6
:10405000B442E5D301207870BDE8F081FDF7FDFCA6
:10406000E5E7000000010020000402402249002092
:104070000A6842F480320A604FF4A0630A6800F1D3
:10408000010012F4003F01D19842F7D10868800383
:1040900031D519484030026842F08052026017481A
:1040A000026842F4804202601348083002680260ED
:1040B000026842F400420260026842F4A0520260C8
:1040C000031F0F4A1A600A6842F080720A600A6889
:1040D0009201FCD50B4A40F205611160016821F0A4
:1040E00003010160016841F0020101600168C1F350
:1040F00081010229FAD17047003802400070004067
:1041000008544007003C02404FF0E02104280869B1
:1041100003D020F004000861704740F00400FAE783
:1041200010B5FCF7C1F8064A1178491C1170FCF76C
:10413000BFF8FEF7D9FFBDE81040FEF79BBB0000BB
:1041400076000020124810B5016841F4700101604A
:104150001048016841F0010101600E4A0021083257
:10416000116002680C4B1A400260031D0B4A1A6072
:10417000026822F48022026006480C300160FFF7DA
:1041800075FF03494FF000608039086010BD0000E2
:1041900088ED00E000380240FFFFF6FE10300024FA
:1041A00010B5FEF75BFB184C0121204600F0E3F848
:1041B00028B30121204600F0CFF8144CE07978B9FB
:1041C000A08A40B91248407806F03AFD6078401C59
:1041D0006070A08A20B180B2401EA0820120607071
:1041E0000C48017821B1491E11F0FF01017006D180
:1041F00006484330827941790079FEF7ADF9BDE890
:104200001040FEF737BB0000000400400000002013
:104210009EAD0020490100207FB504460D460121D6
:104220000220FFF70BFD01940020ADF80050124C66
:10423000ADF80800ADF802006946204600F0AEF87F
:1042400001221146204600F0A1F84FF4A060FEF7CD
:1042500057FA1D208DF80C0001218DF80D108DF8F6
:104260000E108DF80F1003A8FEF718FA0121204652
:1042700000F075F87FBD00000004004010B5FEF7A7
:10428000EDFA1A4C0121204600F075F848B30121DF
:10429000204600F061F8FEF765F8154A0021D01EAF
:1042A0001378012B07D103785B1CDBB203700A2B58
:1042B00001D1017011705378012B07D143785B1C39
:1042C000DBB243700A2B01D1417051709378012BFE
:1042D00007D183785B1CDBB283700A2B01D181701C
:1042E0009170BDE81040FEF7C5BA0000000800401C
:1042F0001D0000207FB504460D4601210420FFF774
:104300009DFC0194ADF800500024124DADF808401A
:10431000ADF802406946284600F040F801221146F7
:10432000284600F033F84FF4A060FEF7E9F91E20AC
:104330008DF80C0002208DF80D008DF80E40012044
:104340008DF80F0003A8FEF7A9F90121284600F017
:1043500006F87FBD00080040C9430182704700296C
:10436000018802D041F0010101E021F0010101804A
:104370007047406A7047038A002280890B4200EA36
:10438000010001D000B1012210467047002A828945
:1043900001D00A4300E08A438281704730B5028829
:1043A000174B184C98420DD0A0420BD0B0F1804F63
:1043B00008D0154DA84205D0144DA84202D0144D86
:1043C000A84204D122F0700C4A8842EA0C02114D36
:1043D000A84207D0104DA84204D022F4407C0A899C
:1043E00042EA0C0202804A68C2620A880285984248
:1043F00001D0A04201D1897A01860121818230BD9C
:10440000000001400004014000040040000800409A
:10441000000C004000100040001400402DE9F04F57
:10442000ADF5017DFBF796FF6E4A1178491C1170BE
:10443000FBF794FF6C4C40F22551204600F0F5F854
:1044400000287CD0204600F083F9684C01276D4697
:10445000216A0DF80100491C0DEB0100216210F8E2
:10446000010C242802D18DF800002762206ADFF8B1
:1044700080812918DFF87CA111F8011C00264FF07B
:10448000DE094FF0140B3F2917D10D2802D00C285C
:1044900005D011E09DF808003C2806D00CE09DF8FE
:1044A0000800402801D0212806D1E07901280BD04E
:1044B0002946606AFEF79EFA2662206A284410F8B0
:1044C000010C2D2812D015E098F801009DF80A1073
:1044D0008842F1D9E6718AF80090A4F814B002205D
:1044E000FEF7AAFC0320FEF76FFDE5E72D208DF80F
:1044F00000002762206A291811F8011C3D290AD101
:10450000072807D19DF805002F2803D16946606A66
:10451000FEF770FA2662E079012850D1206A28441B
:1045200010F8010C262802D18DF800002762206ABD
:10453000284410F8010C2A2815D1266200E04BE02F
:104540009DF80100232803D16946A06AFEF752FABC
:104550009DF801002B2803D16946E06AFEF74AFA6C
:10456000E07901282BD1206A284410F8010C252875
:1045700002D18DF800002762206A291811F8011C69
:10458000292924D19DF80110282917D10A2815D1ED
:1045900098F801009DF8021088420BD9E6718AF85C
:1045A0000090A4F814B00220FEF746FC0320FEF7AA
:1045B0000BFD03E06946206BFEF71CFA2662E079EA
:1045C00028B9206A284410F8010C292803D0206A51
:1045D000B0F5007F00D32662FEF74CF90DF5017DA2
:1045E000BDE8F08F7600002000440040000000206D
:1045F0009EAD002045010020FEF74ABF0A0A0121B6
:104600009140C943018070470029818902D041F45B
:10461000005101E021F400518181704702460020E1
:1046200012880A4200D00120704770B501F01F06C1
:1046300001220025C1F3421302FA06F4012B0FD028
:10464000022B0FD0838A4FEA11210088234202FAFD
:1046500001F200EA020001D000B10125284670BD38
:104660008389F0E7038AEEE7C1F3421301F01F0CE0
:10467000012101FA0CF1012B07D0022B07D01430D5
:10468000002A026805D00A4304E00C30F8E7103035
:10469000F6E78A43026070477FB50446008A0D46FC
:1046A00020F44051E88808432082A08941F20C613F
:1046B0008843A9882A8911436A8902431143A18149
:1046C000A08A20F44071A8890843A0826846FFF7B9
:1046D000D9FA1D48844202D01C48844201D1039873
:1046E00000E00298A1890904002900EBC00101EB58
:1046F0000010296802DA4FEA410101E04FEA810126
:10470000B0FBF1F06422B0FBF2F14FEA01114FEA85
:1047100011136FF018056B4300EB8300A3891D0490
:104720004FF0320306D503EBC000B0FBF2F000F00F
:10473000070005E003EB0010B0FBF2F000F00F0003
:10474000084320817FBD000000100140001401409B
:104750008088C0F308007047C1F30801818070476A
:10476000FEE700002DE9F04104460D4616462920DB
:10477000FFF730FC0120FFF72DFC0320FFF72AFC98
:104780000F4F20213846FDF768F90321A020FFF7DD
:10479000EDFBA006000E0621FFF7E8FB002406E073
:1047A00028780421FFF72EFC641CE4B26D1CB4428F
:1047B000F6D33846BDE8F0412021FDF750B900009E
:1047C0000004024070B504460D462920FFF702FCA4
:1047D0000120FFF7FFFB0320FFF7FCFB0B4E20211E
:1047E0003046FDF73AF90321A020FFF7BFFBA006F2
:1047F000000E0621FFF7BAFB04212846FFF702FC52
:104800003046BDE870402021FDF729B90004024080
:1048100003B401984100009850EAC12018BF042059
:104820004A0D18BF40F0010040F2FF72B2EB515F39
:1048300008BF40F00200012808BF052002B0704701
:1048400070B59F482DED020B2DED068B079D25F0D1
:10485000004484421DDB9B48844202DC0FD1069851
:1048600068B19DED060B53EC102B51EC100B06F0CC
:10487000F7FABDEC068B02B041EC100B70BD002DB9
:10488000CCBF9FED910B9FED920BBDEC068B02B060
:1048900070BD9148844215DA90488442A8BF4FF019
:1048A000FF3440DA9DED060B51EC100BFFF7B0FF23
:1048B000042808BF00F0A8FA9DED060BBDEC068B9E
:1048C00002B070BD9DED060B51EC100B04F00CFC1A
:1048D00041EC100B82488DED060B9FED839B8442CB
:1048E0003CDA834884421FDA00249FED83AB51EC0D
:1048F000100B53EC1A2B06F0B3FA9DED060B41ECAE
:10490000180B53EC1A2B51EC100B06F049FD53EC2D
:10491000192B06F085FE53EC182B06F055FB41ECE5
:10492000100B8DED060B49E0012453EC192B51ECD3
:10493000100B06F095FA9DED060B41EC180B53ECAD
:10494000192B51EC100B06F06BFE53EC182B06F0F4
:104950003BFB41EC100B8DED060B2FE068488442C9
:104960001FDA02249FED68AB51EC100B53EC1A2BAD
:1049700006F016FD53EC192B06F072FA9DED060BAE
:1049800041EC180B53EC1A2B51EC100B06F048FEBF
:1049900053EC182B06F018FB41EC100B8DED060BB9
:1049A0000CE053EC102B03249FED590B51EC100B32
:1049B00006F00AFB41EC100B8DED060B9DED060B8E
:1049C00053EC102B51EC100B06F0EAFC41EC180BE9
:1049D00053EC182B06F0E4FC41EC190B4E48062171
:1049E000B0EE490AF0EE690A784400F091F953EC10
:1049F000182B51EC100B06F0D3FC41EC180B474878
:104A0000B0EE490AF0EE690A0521784400F080F919
:104A100053EC192B51EC100B06F0C2FC41EC100BBF
:104A200051EC180B53EC102B002C0EDA06F018FA90
:104A30009DED061B53EC112B06F0B2FC9DED061B01
:104A400053EC112B06F0E0FD35E006F009FA9DED80
:104A5000061B53EC112B06F0A3FC41EC100B304865
:104A6000784400EBC40090ED001B51EC100B53ECAC
:104A7000112B06F0D5FD9DED061B53EC112B06F016
:104A8000CFFD41EC100B2748784400EBC40090EDBB
:104A9000001B51EC100B53EC112B06F0B5FD41EC53
:104AA000100B002DA2BFBDEC068B02B070BD51EC07
:104AB000100B06F097F941EC100BFFE60000000028
:104AC000000010440000F07F182D4454FB21F93FF2
:104AD000182D4454FB21F9BF0000DC3F0000203EAC
:104AE0000000F33F00000000000000000000F03F65
:104AF0000000E63F00000000000000000000004051
:104B00000080034000000000000000000000F83FAB
:104B1000000000000000F0BF94D600004AD600005C
:104B2000D4D500008CD5000070B5694E2DED040B76
:104B30002DED028B82B0DDE9053C079ACCF1000433
:104B400022F000414CEA040441EAD474049D23F0AD
:104B50000040B44205D86C422C4340EAD474B442BD
:104B600010D99DED060B53EC102B9DED040B51EC71
:104B7000100B06F075F941EC100B02B0BDEC028B86
:104B800004B070BDA2F14054A4F17F6454EA0C0457
:104B90000BD0022404EAA27444EAD37405439FEDC7
:104BA0004E8B9FED4F2B07D010E09DED040B51EC89
:104BB000100B00F0CBF93BE0002C14BF012C9DED55
:104BC000040BDAD0022C36D0032C39D051EA0C0C6D
:104BD0009FED451B9FED460B0AD0B14219D1B04263
:104BE00009D121F0804120F080400791059010E02C
:104BF000002BC2DA11E0DFF800C1FC44002C08BF32
:104C00009CED000BB9D0012C0CD0022C13D0032C3E
:104C100016D0B04219D1002BAFDAB0EE410AF0EE57
:104C2000610AAAE79CED000B51EC100B06F0DAF8D4
:104C300041EC100BA1E7B0EE480AF0EE680A9CE7E1
:104C4000B0EE420AF0EE620A97E7401A00153C28DF
:104C500016DC002ABCBF10F13C0F9FED290B0FDBC7
:104C60009DED060B53EC102B9DED040B51EC100B3E
:104C700006F0AAF904F038FA00F068F941EC100BDC
:104C8000002C8DED000B3FF478AF012C10D0022CDE
:104C90009FED1D0B53EC102B9DED000B51EC100BF9
:104CA0000ED006F0BDFC53EC182B06F0B9FCBFE7A4
:104CB00010EE900A80F0004001909DED000B5CE743
:104CC00006F0AEFC53EC182B06F09EFCB0E700009B
:104CD0000000F07F00000000182D4454FB21094023
:104CE000182D4454FB2109C0182D4454FB21F9BF51
:104CF000182D4454FB21F93FB2D4000000000000FD
:104D00000000000000000000075C143326A6A13C50
:104D100070B505462DED028B4C1E00EBC400B0EEC5
:104D2000408AF0EE608A90ED000B34F0060017D058
:104D300053EC182B51EC100B06F032FB41EC100B2E
:104D4000641E05EBC40090ED001B51EC100B53ECFE
:104D5000112B06F085F841EC100B34F00600E7D17A
:104D6000022C36D0042C1CD0062C1CBFBDEC028BB0
:104D700070BD53EC182B51EC100B06F011FB95EDA8
:104D80000A1B53EC112B06F06BF853EC182B06F0B2
:104D900007FB95ED081B53EC112B06F061F841EC75
:104DA000100B53EC182B51EC100B06F0F9FA95EDA3
:104DB000061B53EC112B06F053F853EC182B06F09E
:104DC000EFFA95ED041B53EC112B06F049F841EC7A
:104DD000100B53EC182B51EC100B06F0E1FA95ED8B
:104DE000021B53EC112B06F03BF853EC182B06F08A
:104DF000D7FA95ED001B53EC112B06F031F8BDEC02
:104E0000028B41EC100B70BD9FED050B10B553EC00
:104E1000102B51EC100B06F0C3FA41EC100B10BD37
:104E20000000000000000010F0B500234FF4806285
:104E30005C1E02EBD27504EB650419E05E1C00EE0B
:104E4000106A00EB8307B8EEC00AD7ED000A20EE27
:104E5000800A87ED000A00EE106A01EB83075B1CF5
:104E6000B8EEC00AD7ED000A20EE800A87ED000AEE
:104E70009C42E3DA6B10561E1DE000BFA2EB030C50
:104E8000ACF1010C00EE10CA00EB8307B8EEC00ACB
:104E9000D7ED000A20EE200A87ED000A00EE10CAC6
:104EA00001EB83075B1CB8EEC00AD7ED000A20EEC9
:104EB000200A87ED000AB342E0DB00221BE000BFBE
:104EC00002EB650300EB830600EB820796ED000A18
:104ED000D7ED000A01EB830330EE200A86ED000ACD
:104EE00001EB820693ED000AD6ED000A521C30EE6B
:104EF000200A83ED000A9442E2DC00220FE000BFAA
:104F000002EB650300EB830601EB830356F8046CA8
:104F100040F8226053F8043C41F82230521C94427D
:104F2000EEDAF0BDB5EEC00AF1EE10FA05DDF1EEF5
:104F3000C00AC0ED000A002070479FED030A80ED13
:104F4000000A4FF0FF3070470000000010B541EC40
:104F5000100BFFF775FC51EC100B10BD2DE9F0475D
:104F60000128089C0A9A70D1022902D005296DD027
:104F700041E1557B002D6AD0D07B002868D005EB3D
:104F8000450003EB4000867890F801A090F804807B
:104F900090F8039090F805C010E000BF05EB4500C5
:104FA00003EB40006D1C077A8770C7794770877ADA
:104FB0000771477AC770C77A4771EDB2907B401E80
:104FC000A842EBDCD07B957B00EB400004EB40007B
:104FD00005EB450503EB4505807805F8040CD07B0F
:104FE000957B00EB400004EB400005EB450503EB2F
:104FF0004505407805F8050CD07B957B00EB40001B
:1050000004EB400005EB450503EB4505007905F889
:10501000020CD07B957B00EB400004EB400005EBDD
:10502000450503EB4505C07805F8030CD07B957B5F
:1050300000EB400004EB400005EB450503EB4505A4
:10504000407905F8010CD57B14E098E2D6E078E0D1
:105050003CE000BF05EB450004EB40006D1C077A07
:105060008770C7794770877A0771477AC770C77AA0
:105070004771EDB2107C401EA842EBDC107C00EBC7
:10508000400004EB400000F8046C107C00EB400092
:1050900004EB400000F805AC107C00EB400004EB92
:1050A000400000F8028C107C00EB400004EB400054
:1050B00000F8039C107C00EB400004EB400000F87B
:1050C00001CC507BE8B3D07B00287CD1557B05EB2D
:1050D000450003EB400090F8028090F801A00679AB
:1050E00090F803C090F8059010E000BF05EB450074
:1050F00003EB40006D1C077A8770C7794770877A89
:105100000771477AC770C77A4771EDB2907B401E2E
:10511000A842EBDC907B00EB400003EB400000F882
:10512000048C907B00EB400003EB400000F805ACE2
:10513000907B00EB400003EB400000F8026C907B9A
:1051400000E00EE000EB400003EB400000F803CC71
:10515000907B00EB400003EB400000F8019C507B8B
:1051600088BBD57B7DB305EB450003EB400090F891
:1051700002C090F801A090F80490C67890F80580DD
:1051800010E000BF05EB450004EB40006D1C077A02
:105190008770C7794770877A0771477AC770C77A6F
:1051A0004771EDB2107C401EA842EBDC107C00EB96
:1051B000400004EB400000F804CC107C00EB400001
:1051C00004EB400000E016E000F805AC107C00EBBA
:1051D000400004EB400000F8029C107C00EB400013
:1051E00004EB400000F8036C107C00EB400004EB83
:1051F000400000F8018C0A297ED040E15578002D4E
:105200007BD01079002879D005EB450003EB4000F6
:10521000867890F801A090F8048090F8039090F8B8
:1052200005C00FE005EB450003EB40006D1C077A5D
:105230008770C7794770877A0771477AC770C77ACE
:105240004771EDB2D079401EA842EBDC1079D579D8
:1052500000EB400004EB400005EB450503EB450582
:10526000807805F8040C1079D57900EB400004EB48
:10527000400005EB450503EB4505407805F8050CB6
:105280001079D57900EB400004EB400005EB4505B3
:1052900003EB4505007905F8020C1079D57900EB90
:1052A000400004EB400005EB450503EB4505C078E5
:1052B00005F8030C1079D57900EB400004EB4000B1
:1052C00005EB450503EB4505407905F8010C15791B
:1052D00010E000BF05EB450004EB40006D1C077AB1
:1052E0008770C7794770877A0771477AC770C77A1E
:1052F0004771EDB2907A02E0D6E066E02AE0401E07
:10530000A842E7DC907A00EB400004EB400000F894
:10531000046C907A00EB400004EB400000F805AC10
:10532000907A00EB400004EB400000F8028C907A89
:1053300000EB400004EB400000F8039C907A00EB87
:10534000400004EB400000F801CC5078E8B310793D
:1053500000287CD1557805EB450003EB400090F820
:10536000029090F801A0067990F803C090F80580AB
:1053700010E000BF05EB450003EB40006D1C077A11
:105380008770C7794770877A0771477AC770C77A7D
:105390004771EDB2D079401EA842EBDCD07900EB2A
:1053A000400003EB400000F8049CD07900EB400083
:1053B00003EB400000F805ACD07900EB400003EBB4
:1053C000400000F8026CD07900E00EE000EB4000F5
:1053D00003EB400000F803CCD07900EB400003EB76
:1053E000400000F8018C507888BB15797DB305EB3F
:1053F000450003EB400090F8028090F801A0067988
:1054000090F803C090F8059010E000BF05EB450050
:1054100004EB40006D1C077A8770C7794770877A64
:105420000771477AC770C77A4771EDB2907A401E0C
:10543000A842EBDC907A00EB400004EB400000F85F
:10544000048C907A00EB400004EB400000E016E092
:1054500000F805AC907A00EB400004EB400000F847
:10546000026C907A00EB400004EB400000F803CCA3
:10547000907A00EB400004EB400000F8019C1429F6
:105480007DD1D17800297BD09079002879D001EBAB
:10549000410003EB4000857890F8018090F804907B
:1054A000C67890F805C049E1917800296AD0507912
:1054B000002868D001EB410003EB4000857890F8AC
:1054C000018090F80490C67890F805C010E000BF05
:1054D00001EB410003EB4000491C077A8770C77954
:1054E0004770877A0771477AC770C77A4771C9B220
:1054F000107A401E8842EBDC5079117A00EB4000B4
:1055000004EB400001EB410103EB4101807801F81D
:10551000040C5079117A00EB400004EB400001EBE1
:10552000410103EB4101407801F8050C5079117AF3
:1055300000EB400004EB400001EB410103EB4101B3
:10554000007901F8020C5079117A00EB400004EB6D
:10555000400001EB410103EB4101C07801F8030C6D
:105560005079117A00EB400004EB400001EB41015F
:1055700003EB4101407901F8010C517914E0BDE0E1
:105580009BE15FE177E03BE001EB410004EB400091
:10559000491C077A8770C7794770877A0771477AFD
:1055A000C770C77A4771C9B2D07A401E8842EBDC17
:1055B000D07A00EB400004EB400000F8045CD07AA5
:1055C00000EB400004EB400000F8058CD07A00EBC3
:1055D000400004EB400000F8029CD07A00EB400051
:1055E00004EB400000F8036CD07A00EB400004EBC1
:1055F000400000F801CC9078E8B3507900287DD1C4
:10560000917801EB410003EB4000857890F8019020
:10561000067990F803C090F805800FE001EB410097
:1056200003EB4000491C077A8770C7794770877A77
:105630000771477AC770C77A4771C9B2107A401E9E
:105640008842EBDC107A00EB400003EB400000F8EE
:10565000045C107A00EB400003EB400000F8059C6E
:10566000107A00EB400003EB400000F8026C107A67
:1056700000EB400000E00DE003EB400000F803CC3D
:10568000107A00EB400003EB400000F8018C9078AA
:10569000002833D15179002930D001EB410003EBD0
:1056A00040008378457890F8048090F803C04679EC
:1056B00010E000BF01EB410004EB4000491C077AF9
:1056C0008770C7794770877A0771477AC770C77A3A
:1056D0004771C9B2D07A401E8842EBDCD07A00EB29
:1056E000400004EB400000F8043CD07A00EB40009E
:1056F00004EB400000F8055CD07A00E020E100EB0C
:10570000400004EB400000F8028CD07A00EB40002F
:1057100004EB400000F803CCD07A20E101EB41001B
:1057200003EB4000491C077A8770C7794770877A76
:105730000771477AC770C77A4771C9B2507A401E5D
:105740008842EBDC9079517A00EB400004EB40009A
:1057500001EB410103EB4101807801F8040C9079E1
:10576000517A00EB400004EB400001EB410103EBF8
:105770004101407801F8050C9079517A00EB400026
:1057800004EB400001EB410103EB4101007901F81A
:10579000020C9079517A00EB400004EB400001EBE1
:1057A000410103EB4101C07801F8030C9079517A73
:1057B00000EB400004EB400001EB410103EB410131
:1057C000407901F8010C917910E000BF01EB410034
:1057D00004EB4000491C077A8770C7794770877AC5
:1057E0000771477AC770C77A4771C9B2107B401EEC
:1057F0008842EBDC107B00EB400004EB400000F83B
:10580000045C107B00EB400004EB400000F8058CCA
:10581000107B00EB400004EB400000F8029C107B82
:1058200000EB400004EB400000F8036C107B00EB41
:10583000400004EB400000F801CCD078E8B3907948
:1058400000287DD1D17801EB410003EB400090F8B6
:10585000028090F801900579C67890F805C00FE0B5
:1058600001EB410003EB4000491C077A8770C779C0
:105870004770877A0771477AC770C77A4771C9B28C
:10588000507A401E8842EBDC507A00EB400003EB7C
:10589000400000F8048C507A00EB400003EB40001D
:1058A00000F8059C507A00EB400003EB400000F844
:1058B000025C507A00EB400000E00DE003EB40009A
:1058C00000F8036C507A00EB400003EB400000F856
:1058D00001CCD078002848D19179002945D001EB3E
:1058E000410003EB4000837890F80180057990F83F
:1058F00003C0467910E000BF01EB410004EB40001B
:10590000491C077A8770C7794770877A0771477A89
:10591000C770C77A4771C9B2107B401E8842EBDC62
:10592000107B00EB400004EB400000F8043C107BCF
:1059300000EB400004EB400000F8058C107B00E019
:1059400013E000EB400004EB400000F8025C107B29
:1059500000EB400004EB400000F803CC107B00EBB0
:10596000400004EB400000F8016CBDE8F087000047
:10597000F0B5012973D110B1012839D035E05C7838
:10598000002C34D004EB840502EB45052E7995F804
:1059900001C095F807E00CE004EB840502EB450537
:1059A0000544641CAF7B2F71EF7A6F706F7CEF71D1
:1059B000E4B2DD796D1EA542EEDCDC7904EB8404F3
:1059C00002EB4404044404F8066CDC7904EB840420
:1059D00002EB4404044404F809CCDC7904EB8404AD
:1059E00002EB4404044404F803EC02283AD0ECE04F
:1059F0001C79002C77D004EB840502EB4506751C5E
:105A0000767995F801C095F807E00CE004EB840581
:105A100002EB45050544641CAF7B2F71EF7A6F7074
:105A20006F7CEF71E4B29D7A6D1EA542EEDC9C7A2C
:105A300004EB840402EB4404044404F8066C9C7AEE
:105A400004EB840402EB4404044404F809CC9C7A7B
:105A500004EB840402EB4404044404F803EC03293B
:105A600031D0B2E05C7B002C76D004EB840502EBF5
:105A70004506B51CB67995F801C095F807E00CE02D
:105A800004EB840502EB45050544641CAF7B2F71D4
:105A9000EF7A6F706F7CEF71E4B29D7B6D1EA54253
:105AA000EEDC9C7B04EB840402EB4404044404F825
:105AB000066C9C7B04EB840402EB4404044404F86D
:105AC00009CC9C7B7AE010B1012846D035E099786A
:105AD000002908D001EB810402EB4404257994F8F5
